{
  "_format": "hh3-artifact-1",
  "contractName": "SentinelInsuranceMarketplace",
  "sourceName": "contracts/SentinelInsuranceMarketplace.sol",
  "abi": [
    {
      "inputs": [
        {
          "internalType": "address",
          "name": "_paymentToken",
          "type": "address"
        },
        {
          "internalType": "address",
          "name": "_insurancePool",
          "type": "address"
        }
      ],
      "stateMutability": "nonpayable",
      "type": "constructor"
    },
    {
      "inputs": [
        {
          "internalType": "address",
          "name": "owner",
          "type": "address"
        }
      ],
      "name": "OwnableInvalidOwner",
      "type": "error"
    },
    {
      "inputs": [
        {
          "internalType": "address",
          "name": "account",
          "type": "address"
        }
      ],
      "name": "OwnableUnauthorizedAccount",
      "type": "error"
    },
    {
      "inputs": [],
      "name": "ReentrancyGuardReentrantCall",
      "type": "error"
    },
    {
      "anonymous": false,
      "inputs": [
        {
          "indexed": true,
          "internalType": "uint256",
          "name": "policyId",
          "type": "uint256"
        },
        {
          "indexed": false,
          "internalType": "uint256",
          "name": "payoutAmount",
          "type": "uint256"
        }
      ],
      "name": "ClaimProcessed",
      "type": "event"
    },
    {
      "anonymous": false,
      "inputs": [
        {
          "indexed": true,
          "internalType": "address",
          "name": "provider",
          "type": "address"
        },
        {
          "indexed": false,
          "internalType": "uint256",
          "name": "amount",
          "type": "uint256"
        }
      ],
      "name": "LiquidityAdded",
      "type": "event"
    },
    {
      "anonymous": false,
      "inputs": [
        {
          "indexed": true,
          "internalType": "address",
          "name": "provider",
          "type": "address"
        },
        {
          "indexed": false,
          "internalType": "uint256",
          "name": "amount",
          "type": "uint256"
        }
      ],
      "name": "LiquidityRemoved",
      "type": "event"
    },
    {
      "anonymous": false,
      "inputs": [
        {
          "indexed": true,
          "internalType": "uint256",
          "name": "offeringId",
          "type": "uint256"
        },
        {
          "indexed": true,
          "internalType": "address",
          "name": "provider",
          "type": "address"
        },
        {
          "indexed": false,
          "internalType": "string",
          "name": "coverageType",
          "type": "string"
        }
      ],
      "name": "OfferingCreated",
      "type": "event"
    },
    {
      "anonymous": false,
      "inputs": [
        {
          "indexed": true,
          "internalType": "address",
          "name": "previousOwner",
          "type": "address"
        },
        {
          "indexed": true,
          "internalType": "address",
          "name": "newOwner",
          "type": "address"
        }
      ],
      "name": "OwnershipTransferred",
      "type": "event"
    },
    {
      "anonymous": false,
      "inputs": [
        {
          "indexed": true,
          "internalType": "uint256",
          "name": "policyId",
          "type": "uint256"
        },
        {
          "indexed": true,
          "internalType": "uint256",
          "name": "offeringId",
          "type": "uint256"
        },
        {
          "indexed": true,
          "internalType": "address",
          "name": "buyer",
          "type": "address"
        }
      ],
      "name": "PolicyPurchased",
      "type": "event"
    },
    {
      "inputs": [
        {
          "internalType": "uint256",
          "name": "amount",
          "type": "uint256"
        }
      ],
      "name": "addLiquidity",
      "outputs": [],
      "stateMutability": "nonpayable",
      "type": "function"
    },
    {
      "inputs": [
        {
          "internalType": "string",
          "name": "coverageType",
          "type": "string"
        },
        {
          "internalType": "uint256",
          "name": "coverageAmount",
          "type": "uint256"
        },
        {
          "internalType": "uint256",
          "name": "premiumAmount",
          "type": "uint256"
        },
        {
          "internalType": "uint256",
          "name": "duration",
          "type": "uint256"
        },
        {
          "internalType": "uint256",
          "name": "maxCapacity",
          "type": "uint256"
        }
      ],
      "name": "createOffering",
      "outputs": [
        {
          "internalType": "uint256",
          "name": "",
          "type": "uint256"
        }
      ],
      "stateMutability": "nonpayable",
      "type": "function"
    },
    {
      "inputs": [
        {
          "internalType": "uint256",
          "name": "policyId",
          "type": "uint256"
        },
        {
          "internalType": "string",
          "name": "evidence",
          "type": "string"
        }
      ],
      "name": "fileClaim",
      "outputs": [],
      "stateMutability": "nonpayable",
      "type": "function"
    },
    {
      "inputs": [],
      "name": "getMarketStats",
      "outputs": [
        {
          "internalType": "uint256",
          "name": "totalOfferings",
          "type": "uint256"
        },
        {
          "internalType": "uint256",
          "name": "totalPolicies",
          "type": "uint256"
        },
        {
          "internalType": "uint256",
          "name": "totalLiquidity",
          "type": "uint256"
        },
        {
          "internalType": "uint256",
          "name": "totalCoverage",
          "type": "uint256"
        }
      ],
      "stateMutability": "view",
      "type": "function"
    },
    {
      "inputs": [
        {
          "internalType": "string",
          "name": "coverageType",
          "type": "string"
        }
      ],
      "name": "getOfferingsByType",
      "outputs": [
        {
          "internalType": "uint256[]",
          "name": "",
          "type": "uint256[]"
        }
      ],
      "stateMutability": "view",
      "type": "function"
    },
    {
      "inputs": [],
      "name": "insurancePool",
      "outputs": [
        {
          "internalType": "address",
          "name": "",
          "type": "address"
        }
      ],
      "stateMutability": "view",
      "type": "function"
    },
    {
      "inputs": [],
      "name": "liquidityPool",
      "outputs": [
        {
          "internalType": "uint256",
          "name": "totalLiquidity",
          "type": "uint256"
        },
        {
          "internalType": "uint256",
          "name": "utilizedLiquidity",
          "type": "uint256"
        },
        {
          "internalType": "uint256",
          "name": "apy",
          "type": "uint256"
        }
      ],
      "stateMutability": "view",
      "type": "function"
    },
    {
      "inputs": [],
      "name": "marketplaceFee",
      "outputs": [
        {
          "internalType": "uint256",
          "name": "",
          "type": "uint256"
        }
      ],
      "stateMutability": "view",
      "type": "function"
    },
    {
      "inputs": [],
      "name": "nextOfferingId",
      "outputs": [
        {
          "internalType": "uint256",
          "name": "",
          "type": "uint256"
        }
      ],
      "stateMutability": "view",
      "type": "function"
    },
    {
      "inputs": [],
      "name": "nextPolicyId",
      "outputs": [
        {
          "internalType": "uint256",
          "name": "",
          "type": "uint256"
        }
      ],
      "stateMutability": "view",
      "type": "function"
    },
    {
      "inputs": [
        {
          "internalType": "uint256",
          "name": "",
          "type": "uint256"
        }
      ],
      "name": "offerings",
      "outputs": [
        {
          "internalType": "uint256",
          "name": "offeringId",
          "type": "uint256"
        },
        {
          "internalType": "address",
          "name": "provider",
          "type": "address"
        },
        {
          "internalType": "string",
          "name": "coverageType",
          "type": "string"
        },
        {
          "internalType": "uint256",
          "name": "coverageAmount",
          "type": "uint256"
        },
        {
          "internalType": "uint256",
          "name": "premiumAmount",
          "type": "uint256"
        },
        {
          "internalType": "uint256",
          "name": "duration",
          "type": "uint256"
        },
        {
          "internalType": "uint256",
          "name": "maxCapacity",
          "type": "uint256"
        },
        {
          "internalType": "uint256",
          "name": "currentCapacity",
          "type": "uint256"
        },
        {
          "internalType": "bool",
          "name": "isActive",
          "type": "bool"
        },
        {
          "internalType": "uint256",
          "name": "utilizationRate",
          "type": "uint256"
        },
        {
          "internalType": "uint256",
          "name": "rating",
          "type": "uint256"
        }
      ],
      "stateMutability": "view",
      "type": "function"
    },
    {
      "inputs": [
        {
          "internalType": "string",
          "name": "",
          "type": "string"
        },
        {
          "internalType": "uint256",
          "name": "",
          "type": "uint256"
        }
      ],
      "name": "offeringsByType",
      "outputs": [
        {
          "internalType": "uint256",
          "name": "",
          "type": "uint256"
        }
      ],
      "stateMutability": "view",
      "type": "function"
    },
    {
      "inputs": [],
      "name": "owner",
      "outputs": [
        {
          "internalType": "address",
          "name": "",
          "type": "address"
        }
      ],
      "stateMutability": "view",
      "type": "function"
    },
    {
      "inputs": [],
      "name": "paymentToken",
      "outputs": [
        {
          "internalType": "contract IERC20",
          "name": "",
          "type": "address"
        }
      ],
      "stateMutability": "view",
      "type": "function"
    },
    {
      "inputs": [
        {
          "internalType": "uint256",
          "name": "",
          "type": "uint256"
        }
      ],
      "name": "policies",
      "outputs": [
        {
          "internalType": "uint256",
          "name": "policyId",
          "type": "uint256"
        },
        {
          "internalType": "uint256",
          "name": "offeringId",
          "type": "uint256"
        },
        {
          "internalType": "address",
          "name": "buyer",
          "type": "address"
        },
        {
          "internalType": "uint256",
          "name": "coverageAmount",
          "type": "uint256"
        },
        {
          "internalType": "uint256",
          "name": "premiumPaid",
          "type": "uint256"
        },
        {
          "internalType": "uint256",
          "name": "startTime",
          "type": "uint256"
        },
        {
          "internalType": "uint256",
          "name": "endTime",
          "type": "uint256"
        },
        {
          "internalType": "bool",
          "name": "isActive",
          "type": "bool"
        },
        {
          "internalType": "bool",
          "name": "isClaimed",
          "type": "bool"
        }
      ],
      "stateMutability": "view",
      "type": "function"
    },
    {
      "inputs": [
        {
          "internalType": "uint256",
          "name": "offeringId",
          "type": "uint256"
        },
        {
          "internalType": "uint256",
          "name": "coverageAmount",
          "type": "uint256"
        }
      ],
      "name": "purchasePolicy",
      "outputs": [],
      "stateMutability": "nonpayable",
      "type": "function"
    },
    {
      "inputs": [
        {
          "internalType": "uint256",
          "name": "amount",
          "type": "uint256"
        }
      ],
      "name": "removeLiquidity",
      "outputs": [],
      "stateMutability": "nonpayable",
      "type": "function"
    },
    {
      "inputs": [],
      "name": "renounceOwnership",
      "outputs": [],
      "stateMutability": "nonpayable",
      "type": "function"
    },
    {
      "inputs": [
        {
          "internalType": "uint256",
          "name": "newFee",
          "type": "uint256"
        }
      ],
      "name": "setMarketplaceFee",
      "outputs": [],
      "stateMutability": "nonpayable",
      "type": "function"
    },
    {
      "inputs": [],
      "name": "totalCoverageProvided",
      "outputs": [
        {
          "internalType": "uint256",
          "name": "",
          "type": "uint256"
        }
      ],
      "stateMutability": "view",
      "type": "function"
    },
    {
      "inputs": [],
      "name": "totalPremiums",
      "outputs": [
        {
          "internalType": "uint256",
          "name": "",
          "type": "uint256"
        }
      ],
      "stateMutability": "view",
      "type": "function"
    },
    {
      "inputs": [
        {
          "internalType": "address",
          "name": "newOwner",
          "type": "address"
        }
      ],
      "name": "transferOwnership",
      "outputs": [],
      "stateMutability": "nonpayable",
      "type": "function"
    },
    {
      "inputs": [
        {
          "internalType": "uint256",
          "name": "newAPY",
          "type": "uint256"
        }
      ],
      "name": "updatePoolAPY",
      "outputs": [],
      "stateMutability": "nonpayable",
      "type": "function"
    }
  ],
  "bytecode": "0x60c060405260016009556001600a5560c8600b555f600c555f600d55348015610026575f5ffd5b50604051611f0b380380611f0b83398101604081905261004591610119565b338061006a57604051631e4fbdf760e01b81525f600482015260240160405180910390fd5b610073816100af565b5060017f9b779b17422d0df92223018b32b4d1fa46e071723d6817e2486d003becc55f00556001600160a01b039182166080521660a05261014a565b5f80546001600160a01b038381166001600160a01b0319831681178455604051919092169283917f8be0079c531659141344cd1fd0a4f28419497f9722a3daafe3b4186f6b6457e09190a35050565b80516001600160a01b0381168114610114575f5ffd5b919050565b5f5f6040838503121561012a575f5ffd5b610133836100fe565b9150610141602084016100fe565b90509250929050565b60805160a051611d7d61018e5f395f6102a501525f81816101b0015281816105ae01528181610810015281816108ca01528181610ab501526113c80152611d7d5ff3fe608060405234801561000f575f5ffd5b5060043610610148575f3560e01c80638da5cb5b116100bf578063cad0b8db11610079578063cad0b8db146102e3578063d3e89483146102ec578063e34fec1d146103a8578063ea683dbb146103d2578063f2fde38b146103db578063ff4cd5b9146103ee575f5ffd5b80638da5cb5b1461026a5780639407ea981461027a5780639c8f9f231461028d578063ab2adc00146102a0578063b3e45ae2146102c7578063bb21b32a146102da575f5ffd5b80635bda1584116101105780635bda1584146101fd578063665a11ca146102065780636a16696414610233578063715018a61461023c57806379234d04146102445780638a59041214610257575f5ffd5b806305f8a9ab1461014c5780630b6485ae1461017557806322ad37a71461018a5780633013ce29146101ab57806351c6590a146101ea575b5f5ffd5b61015f61015a3660046118be565b610416565b60405161016c91906118f8565b60405180910390f35b61018861018336600461193a565b610484565b005b61019d61019836600461195a565b610a0f565b60405190815260200161016c565b6101d27f000000000000000000000000000000000000000000000000000000000000000081565b6040516001600160a01b03909116815260200161016c565b6101886101f836600461199c565b610a4b565b61019d600c5481565b60045460055460065461021892919083565b6040805193845260208401929092529082015260600161016c565b61019d600b5481565b610188610bfc565b61019d6102523660046119b3565b610c0f565b610188610265366004611a0b565b610ecd565b5f546001600160a01b03166101d2565b61018861028836600461199c565b6111f8565b61018861029b36600461199c565b61124f565b6101d27f000000000000000000000000000000000000000000000000000000000000000081565b6101886102d536600461199c565b6114fc565b61019d60095481565b61019d600a5481565b6103546102fa36600461199c565b600260208190525f9182526040909120805460018201549282015460038301546004840154600585015460068601546007909601549496956001600160a01b03909416949293919290919060ff8082169161010090041689565b60408051998a5260208a01989098526001600160a01b03909616968801969096526060870193909352608086019190915260a085015260c084015290151560e083015215156101008201526101200161016c565b6103bb6103b636600461199c565b611509565b60405161016c9b9a99989796959493929190611a7d565b61019d600d5481565b6101886103e9366004611aec565b6115f4565b6103f661162e565b60408051948552602085019390935291830152606082015260800161016c565b60606003826040516104289190611b19565b908152604080519182900360209081018320805480830285018301909352828452919083018282801561047857602002820191905f5260205f20905b815481526020019060010190808311610464575b50505050509050919050565b61048c61166a565b5f828152600160205260409020600881015460ff166104e85760405162461bcd60e51b81526020600482015260136024820152724f66666572696e67206e6f742061637469766560681b60448201526064015b60405180910390fd5b80600601548282600701546104fd9190611b43565b111561053e5760405162461bcd60e51b815260206004820152601060248201526f4578636565647320636170616369747960801b60448201526064016104df565b5f81600301548260040154846105549190611b56565b61055e9190611b6d565b90505f612710600b54836105729190611b56565b61057c9190611b6d565b90505f6105898284611b8c565b6040516323b872dd60e01b8152336004820152306024820152604481018590529091507f00000000000000000000000000000000000000000000000000000000000000006001600160a01b0316906323b872dd906064016020604051808303815f875af11580156105fc573d5f5f3e3d5ffd5b505050506040513d601f19601f820116820180604052508101906106209190611b9f565b61066c5760405162461bcd60e51b815260206004820152601760248201527f5072656d69756d207472616e73666572206661696c656400000000000000000060448201526064016104df565b600a80545f918261067c83611bbe565b919050559050604051806101200160405280828152602001888152602001336001600160a01b031681526020018781526020018581526020014281526020018660050154426106cb9190611b43565b8152600160208083018290525f604093840181905285815260028083528482208651815592860151938301939093559284015191810180546001600160a01b0319166001600160a01b0390931692909217909155606083015160038201556080830151600482015560a0830151600582015560c0830151600682015560e0830151600791820180546101009586015161ffff1990911692151561ff0019169290921791151590940217909255908601805488929061078a908490611b43565b9091555050600685015460078601546107a590612710611b56565b6107af9190611b6d565b856009018190555083600c5f8282546107c89190611b43565b9250508190555085600d5f8282546107e09190611b43565b9091555050600185015460405163a9059cbb60e01b81526001600160a01b039182166004820152602481018490527f00000000000000000000000000000000000000000000000000000000000000009091169063a9059cbb906044016020604051808303815f875af1158015610858573d5f5f3e3d5ffd5b505050506040513d601f19601f8201168201806040525081019061087c9190611b9f565b6108c85760405162461bcd60e51b815260206004820152601760248201527f50726f7669646572207061796d656e74206661696c656400000000000000000060448201526064016104df565b7f00000000000000000000000000000000000000000000000000000000000000006001600160a01b031663a9059cbb6109085f546001600160a01b031690565b6040516001600160e01b031960e084901b1681526001600160a01b039091166004820152602481018690526044016020604051808303815f875af1158015610952573d5f5f3e3d5ffd5b505050506040513d601f19601f820116820180604052508101906109769190611b9f565b6109c25760405162461bcd60e51b815260206004820152601f60248201527f4d61726b6574706c61636520666565207472616e73666572206661696c65640060448201526064016104df565b6040513390889083907fa1e004b771d2bfa9498a1f952d363a2b88201b708e272e7bdd675dfa7941e365905f90a45050505050610a0b60015f516020611d285f395f51905f5255565b5050565b81516020818401810180516003825292820191850191909120919052805482908110610a39575f80fd5b905f5260205f20015f91509150505481565b610a5361166a565b5f8111610a935760405162461bcd60e51b815260206004820152600e60248201526d125b9d985b1a5908185b5bdd5b9d60921b60448201526064016104df565b6040516323b872dd60e01b8152336004820152306024820152604481018290527f00000000000000000000000000000000000000000000000000000000000000006001600160a01b0316906323b872dd906064016020604051808303815f875af1158015610b03573d5f5f3e3d5ffd5b505050506040513d601f19601f82011682018060405250810190610b279190611b9f565b610b735760405162461bcd60e51b815260206004820152601960248201527f4c6971756964697479207472616e73666572206661696c65640000000000000060448201526064016104df565b8060045f015f828254610b869190611b43565b9091555050335f9081526007602052604081208054839290610ba9908490611b43565b909155505060405181815233907fc17cea59c2955cb181b03393209566960365771dbba9dc3d510180e7cb3120889060200160405180910390a2610bf960015f516020611d285f395f51905f5255565b50565b610c04611685565b610c0d5f6116b1565b565b5f5f8511610c5f5760405162461bcd60e51b815260206004820152601760248201527f496e76616c696420636f76657261676520616d6f756e7400000000000000000060448201526064016104df565b5f8411610ca75760405162461bcd60e51b8152602060048201526016602482015275125b9d985b1a59081c1c995b5a5d5b48185b5bdd5b9d60521b60448201526064016104df565b5f8311610ce95760405162461bcd60e51b815260206004820152601060248201526f24b73b30b634b210323ab930ba34b7b760811b60448201526064016104df565b5f8211610d2f5760405162461bcd60e51b8152602060048201526014602482015273496e76616c6964206d617820636170616369747960601b60448201526064016104df565b600980545f9182610d3f83611bbe565b919050559050604051806101600160405280828152602001336001600160a01b031681526020018881526020018781526020018681526020018581526020018481526020015f81526020016001151581526020015f8152602001610da1605590565b90525f82815260016020818152604092839020845181559084015191810180546001600160a01b0319166001600160a01b0390931692909217909155908201516002820190610df09082611c5a565b5060608201516003828101919091556080830151600483015560a0830151600583015560c0830151600683015560e0830151600783015561010083015160088301805460ff1916911515919091179055610120830151600983015561014090920151600a90910155604051610e66908990611b19565b908152604051908190036020908101822080546001810182555f91825291902001829055339082907fadfa8d95ff75057f3c32bd4d8a87ddd5783f13dcbe3ce60fa621f2e51061093890610ebb908b90611d15565b60405180910390a39695505050505050565b610ed561166a565b5f828152600260208190526040909120908101546001600160a01b03163314610f335760405162461bcd60e51b815260206004820152601060248201526f2737ba103837b634b1bc9037bbb732b960811b60448201526064016104df565b600781015460ff16610f7b5760405162461bcd60e51b8152602060048201526011602482015270506f6c696379206e6f742061637469766560781b60448201526064016104df565b6007810154610100900460ff1615610fcb5760405162461bcd60e51b815260206004820152601360248201527210db185a5b48185b1c9958591e48199a5b1959606a1b60448201526064016104df565b4281600601541161100f5760405162461bcd60e51b815260206004820152600e60248201526d141bdb1a58de48195e1c1a5c995960921b60448201526064016104df565b6001818101545f9081526020828152604080832081516101608101835281548152948101546001600160a01b0316928501929092526002820180549394939184019161105a90611bd6565b80601f016020809104026020016040519081016040528092919081815260200182805461108690611bd6565b80156110d15780601f106110a8576101008083540402835291602001916110d1565b820191905f5260205f20905b8154815290600101906020018083116110b457829003601f168201915b50505091835250506003820154602082015260048201546040808301919091526005830154606083015260068301546080830152600783015460a0830152600883015460ff16151560c0830152600983015460e0830152600a90920154610100909101528101519091506111459084611700565b6111815760405162461bcd60e51b815260206004820152600d60248201526c496e76616c696420636c61696d60981b60448201526064016104df565b61118f84836003015461170b565b60078201805461ffff1916610100179055600382015460405185917f19e5d2048bbfacb3a319ca2cfa0d56af9f400e02ff75dddd21fdd4f5effd6879916111d891815260200190565b60405180910390a25050610a0b60015f516020611d285f395f51905f5255565b611200611685565b6103e881111561124a5760405162461bcd60e51b81526020600482015260156024820152744665652063616e6e6f74206578636565642031302560581b60448201526064016104df565b600b55565b61125761166a565b5f81116112975760405162461bcd60e51b815260206004820152600e60248201526d125b9d985b1a5908185b5bdd5b9d60921b60448201526064016104df565b335f908152600760205260409020548111156112ec5760405162461bcd60e51b8152602060048201526014602482015273496e73756666696369656e742062616c616e636560601b60448201526064016104df565b60055460045482916112fd91611b8c565b101561134b5760405162461bcd60e51b815260206004820181905260248201527f496e73756666696369656e7420617661696c61626c65206c697175696469747960448201526064016104df565b8060045f015f82825461135e9190611b8c565b9091555050335f9081526007602052604081208054839290611381908490611b8c565b909155505f90506113923383611773565b905080156113be57335f90815260086020526040812080548392906113b8908490611b43565b90915550505b6001600160a01b037f00000000000000000000000000000000000000000000000000000000000000001663a9059cbb336113f88486611b43565b6040516001600160e01b031960e085901b1681526001600160a01b03909216600483015260248201526044016020604051808303815f875af1158015611440573d5f5f3e3d5ffd5b505050506040513d601f19601f820116820180604052508101906114649190611b9f565b6114b05760405162461bcd60e51b815260206004820152601b60248201527f4c6971756964697479207769746864726177616c206661696c6564000000000060448201526064016104df565b60405182815233907fc2c3f06e49b9f15e7b4af9055e183b0d73362e033ad82a07dec9bf98401717199060200160405180910390a250610bf960015f516020611d285f395f51905f5255565b611504611685565b600655565b600160208190525f91825260409091208054918101546002820180546001600160a01b03909216929161153b90611bd6565b80601f016020809104026020016040519081016040528092919081815260200182805461156790611bd6565b80156115b25780601f10611589576101008083540402835291602001916115b2565b820191905f5260205f20905b81548152906001019060200180831161159557829003601f168201915b505050506003830154600484015460058501546006860154600787015460088801546009890154600a909901549798959794965092949193909260ff1691908b565b6115fc611685565b6001600160a01b03811661162557604051631e4fbdf760e01b81525f60048201526024016104df565b610bf9816116b1565b5f5f5f5f5f60016009546116429190611b8c565b90505f6001600a546116549190611b8c565b600454600d549398919750955091935090915050565b6116726117f0565b60025f516020611d285f395f51905f5255565b5f546001600160a01b03163314610c0d5760405163118cdaa760e01b81523360048201526024016104df565b5f80546001600160a01b038381166001600160a01b0319831681178455604051919092169283917f8be0079c531659141344cd1fd0a4f28419497f9722a3daafe3b4186f6b6457e09190a35050565b805115155b92915050565b6004548111156117565760405162461bcd60e51b8152602060048201526016602482015275496e73756666696369656e74206c697175696469747960501b60448201526064016104df565b8060046001015f82825461176a9190611b43565b90915550505050565b6004546001600160a01b0383165f908152600760205260408120549091829161179e90612710611b56565b6117a89190611b6d565b90505f6117b9826301e13380611b56565b905064496cebb80081600460020154866117d39190611b56565b6117dd9190611b56565b6117e79190611b6d565b95945050505050565b5f516020611d285f395f51905f5254600203610c0d57604051633ee5aeb560e01b815260040160405180910390fd5b634e487b7160e01b5f52604160045260245ffd5b5f82601f830112611842575f5ffd5b813567ffffffffffffffff81111561185c5761185c61181f565b604051601f8201601f19908116603f0116810167ffffffffffffffff8111828210171561188b5761188b61181f565b6040528181528382016020018510156118a2575f5ffd5b816020850160208301375f918101602001919091529392505050565b5f602082840312156118ce575f5ffd5b813567ffffffffffffffff8111156118e4575f5ffd5b6118f084828501611833565b949350505050565b602080825282518282018190525f918401906040840190835b8181101561192f578351835260209384019390920191600101611911565b509095945050505050565b5f5f6040838503121561194b575f5ffd5b50508035926020909101359150565b5f5f6040838503121561196b575f5ffd5b823567ffffffffffffffff811115611981575f5ffd5b61198d85828601611833565b95602094909401359450505050565b5f602082840312156119ac575f5ffd5b5035919050565b5f5f5f5f5f60a086880312156119c7575f5ffd5b853567ffffffffffffffff8111156119dd575f5ffd5b6119e988828901611833565b9860208801359850604088013597606081013597506080013595509350505050565b5f5f60408385031215611a1c575f5ffd5b82359150602083013567ffffffffffffffff811115611a39575f5ffd5b611a4585828601611833565b9150509250929050565b5f81518084528060208401602086015e5f602082860101526020601f19601f83011685010191505092915050565b8b81526001600160a01b038b166020820152610160604082018190525f90611aa79083018c611a4f565b606083019a909a5250608081019790975260a087019590955260c086019390935260e08501919091521515610100840152610120830152610140909101529392505050565b5f60208284031215611afc575f5ffd5b81356001600160a01b0381168114611b12575f5ffd5b9392505050565b5f82518060208501845e5f920191825250919050565b634e487b7160e01b5f52601160045260245ffd5b8082018082111561170557611705611b2f565b808202811582820484141761170557611705611b2f565b5f82611b8757634e487b7160e01b5f52601260045260245ffd5b500490565b8181038181111561170557611705611b2f565b5f60208284031215611baf575f5ffd5b81518015158114611b12575f5ffd5b5f60018201611bcf57611bcf611b2f565b5060010190565b600181811c90821680611bea57607f821691505b602082108103611c0857634e487b7160e01b5f52602260045260245ffd5b50919050565b601f821115611c5557805f5260205f20601f840160051c81016020851015611c335750805b601f840160051c820191505b81811015611c52575f8155600101611c3f565b50505b505050565b815167ffffffffffffffff811115611c7457611c7461181f565b611c8881611c828454611bd6565b84611c0e565b6020601f821160018114611cba575f8315611ca35750848201515b5f19600385901b1c1916600184901b178455611c52565b5f84815260208120601f198516915b82811015611ce95787850151825560209485019460019092019101611cc9565b5084821015611d0657868401515f19600387901b60f8161c191681555b50505050600190811b01905550565b602081525f611b126020830184611a4f56fe9b779b17422d0df92223018b32b4d1fa46e071723d6817e2486d003becc55f00a2646970667358221220821ace5e316afe5a48b9aced43aebebcaa1e79e98388103256450625bdbe026364736f6c634300081c0033",
  "linkReferences": {},
  "deployedLinkReferences": {},
  "immutableReferences": {
    "37775": [
      {
        "length": 32,
        "start": 432
      },
      {
        "length": 32,
        "start": 1454
      },
      {
        "length": 32,
        "start": 2064
      },
      {
        "length": 32,
        "start": 2250
      },
      {
        "length": 32,
        "start": 2741
      },
      {
        "length": 32,
        "start": 5064
      }
    ],
    "37777": [
      {
        "length": 32,
        "start": 677
      }
    ]
  },
  "inputSourceName": "project/contracts/SentinelInsuranceMarketplace.sol",
  "buildInfoId": "solc-0_8_28-1b5c21a21cac4f08cf2c8993926ccb888320140e"
}