{
  "_format": "hh3-artifact-1",
  "contractName": "SentinelStaking",
  "sourceName": "contracts/SentinelStaking.sol",
  "abi": [
    {
      "inputs": [
        {
          "internalType": "address",
          "name": "_stakingToken",
          "type": "address"
        },
        {
          "internalType": "address",
          "name": "_rewardToken",
          "type": "address"
        },
        {
          "internalType": "address",
          "name": "initialOwner",
          "type": "address"
        }
      ],
      "stateMutability": "nonpayable",
      "type": "constructor"
    },
    {
      "inputs": [],
      "name": "AccessControlBadConfirmation",
      "type": "error"
    },
    {
      "inputs": [
        {
          "internalType": "address",
          "name": "account",
          "type": "address"
        },
        {
          "internalType": "bytes32",
          "name": "neededRole",
          "type": "bytes32"
        }
      ],
      "name": "AccessControlUnauthorizedAccount",
      "type": "error"
    },
    {
      "inputs": [],
      "name": "EnforcedPause",
      "type": "error"
    },
    {
      "inputs": [],
      "name": "ExpectedPause",
      "type": "error"
    },
    {
      "inputs": [],
      "name": "ReentrancyGuardReentrantCall",
      "type": "error"
    },
    {
      "inputs": [
        {
          "internalType": "address",
          "name": "token",
          "type": "address"
        }
      ],
      "name": "SafeERC20FailedOperation",
      "type": "error"
    },
    {
      "anonymous": false,
      "inputs": [
        {
          "indexed": false,
          "internalType": "address",
          "name": "account",
          "type": "address"
        }
      ],
      "name": "Paused",
      "type": "event"
    },
    {
      "anonymous": false,
      "inputs": [
        {
          "indexed": true,
          "internalType": "address",
          "name": "user",
          "type": "address"
        },
        {
          "indexed": false,
          "internalType": "uint256",
          "name": "amount",
          "type": "uint256"
        }
      ],
      "name": "RewardsClaimed",
      "type": "event"
    },
    {
      "anonymous": false,
      "inputs": [
        {
          "indexed": true,
          "internalType": "bytes32",
          "name": "role",
          "type": "bytes32"
        },
        {
          "indexed": true,
          "internalType": "bytes32",
          "name": "previousAdminRole",
          "type": "bytes32"
        },
        {
          "indexed": true,
          "internalType": "bytes32",
          "name": "newAdminRole",
          "type": "bytes32"
        }
      ],
      "name": "RoleAdminChanged",
      "type": "event"
    },
    {
      "anonymous": false,
      "inputs": [
        {
          "indexed": true,
          "internalType": "bytes32",
          "name": "role",
          "type": "bytes32"
        },
        {
          "indexed": true,
          "internalType": "address",
          "name": "account",
          "type": "address"
        },
        {
          "indexed": true,
          "internalType": "address",
          "name": "sender",
          "type": "address"
        }
      ],
      "name": "RoleGranted",
      "type": "event"
    },
    {
      "anonymous": false,
      "inputs": [
        {
          "indexed": true,
          "internalType": "bytes32",
          "name": "role",
          "type": "bytes32"
        },
        {
          "indexed": true,
          "internalType": "address",
          "name": "account",
          "type": "address"
        },
        {
          "indexed": true,
          "internalType": "address",
          "name": "sender",
          "type": "address"
        }
      ],
      "name": "RoleRevoked",
      "type": "event"
    },
    {
      "anonymous": false,
      "inputs": [
        {
          "indexed": true,
          "internalType": "address",
          "name": "user",
          "type": "address"
        },
        {
          "indexed": false,
          "internalType": "uint256",
          "name": "amount",
          "type": "uint256"
        },
        {
          "indexed": false,
          "internalType": "string",
          "name": "reason",
          "type": "string"
        }
      ],
      "name": "SecurityBonusAwarded",
      "type": "event"
    },
    {
      "anonymous": false,
      "inputs": [
        {
          "indexed": true,
          "internalType": "address",
          "name": "user",
          "type": "address"
        },
        {
          "indexed": false,
          "internalType": "uint256",
          "name": "amount",
          "type": "uint256"
        },
        {
          "indexed": false,
          "internalType": "uint256",
          "name": "tier",
          "type": "uint256"
        }
      ],
      "name": "Staked",
      "type": "event"
    },
    {
      "anonymous": false,
      "inputs": [
        {
          "indexed": true,
          "internalType": "address",
          "name": "user",
          "type": "address"
        },
        {
          "indexed": false,
          "internalType": "uint256",
          "name": "newTier",
          "type": "uint256"
        }
      ],
      "name": "TierUpgraded",
      "type": "event"
    },
    {
      "anonymous": false,
      "inputs": [
        {
          "indexed": false,
          "internalType": "address",
          "name": "account",
          "type": "address"
        }
      ],
      "name": "Unpaused",
      "type": "event"
    },
    {
      "anonymous": false,
      "inputs": [
        {
          "indexed": true,
          "internalType": "address",
          "name": "user",
          "type": "address"
        },
        {
          "indexed": false,
          "internalType": "uint256",
          "name": "amount",
          "type": "uint256"
        },
        {
          "indexed": false,
          "internalType": "uint256",
          "name": "rewards",
          "type": "uint256"
        }
      ],
      "name": "Unstaked",
      "type": "event"
    },
    {
      "inputs": [],
      "name": "DEFAULT_ADMIN_ROLE",
      "outputs": [
        {
          "internalType": "bytes32",
          "name": "",
          "type": "bytes32"
        }
      ],
      "stateMutability": "view",
      "type": "function"
    },
    {
      "inputs": [],
      "name": "REWARD_MANAGER_ROLE",
      "outputs": [
        {
          "internalType": "bytes32",
          "name": "",
          "type": "bytes32"
        }
      ],
      "stateMutability": "view",
      "type": "function"
    },
    {
      "inputs": [],
      "name": "anomalyReportBonus",
      "outputs": [
        {
          "internalType": "uint256",
          "name": "",
          "type": "uint256"
        }
      ],
      "stateMutability": "view",
      "type": "function"
    },
    {
      "inputs": [
        {
          "internalType": "address",
          "name": "user",
          "type": "address"
        },
        {
          "internalType": "string",
          "name": "reason",
          "type": "string"
        }
      ],
      "name": "awardSecurityBonus",
      "outputs": [],
      "stateMutability": "nonpayable",
      "type": "function"
    },
    {
      "inputs": [],
      "name": "baseAPY",
      "outputs": [
        {
          "internalType": "uint256",
          "name": "",
          "type": "uint256"
        }
      ],
      "stateMutability": "view",
      "type": "function"
    },
    {
      "inputs": [],
      "name": "bridgeSecurityBonus",
      "outputs": [
        {
          "internalType": "uint256",
          "name": "",
          "type": "uint256"
        }
      ],
      "stateMutability": "view",
      "type": "function"
    },
    {
      "inputs": [],
      "name": "claimRewards",
      "outputs": [],
      "stateMutability": "nonpayable",
      "type": "function"
    },
    {
      "inputs": [
        {
          "internalType": "bytes32",
          "name": "role",
          "type": "bytes32"
        }
      ],
      "name": "getRoleAdmin",
      "outputs": [
        {
          "internalType": "bytes32",
          "name": "",
          "type": "bytes32"
        }
      ],
      "stateMutability": "view",
      "type": "function"
    },
    {
      "inputs": [
        {
          "internalType": "address",
          "name": "user",
          "type": "address"
        }
      ],
      "name": "getStakeInfo",
      "outputs": [
        {
          "internalType": "uint256",
          "name": "amount",
          "type": "uint256"
        },
        {
          "internalType": "uint256",
          "name": "stakedAt",
          "type": "uint256"
        },
        {
          "internalType": "uint256",
          "name": "tier",
          "type": "uint256"
        },
        {
          "internalType": "uint256",
          "name": "pendingRewards",
          "type": "uint256"
        },
        {
          "internalType": "uint256",
          "name": "currentAPY",
          "type": "uint256"
        }
      ],
      "stateMutability": "view",
      "type": "function"
    },
    {
      "inputs": [
        {
          "internalType": "address",
          "name": "user",
          "type": "address"
        }
      ],
      "name": "getUserAPY",
      "outputs": [
        {
          "internalType": "uint256",
          "name": "",
          "type": "uint256"
        }
      ],
      "stateMutability": "view",
      "type": "function"
    },
    {
      "inputs": [
        {
          "internalType": "bytes32",
          "name": "role",
          "type": "bytes32"
        },
        {
          "internalType": "address",
          "name": "account",
          "type": "address"
        }
      ],
      "name": "grantRole",
      "outputs": [],
      "stateMutability": "nonpayable",
      "type": "function"
    },
    {
      "inputs": [
        {
          "internalType": "bytes32",
          "name": "role",
          "type": "bytes32"
        },
        {
          "internalType": "address",
          "name": "account",
          "type": "address"
        }
      ],
      "name": "hasRole",
      "outputs": [
        {
          "internalType": "bool",
          "name": "",
          "type": "bool"
        }
      ],
      "stateMutability": "view",
      "type": "function"
    },
    {
      "inputs": [],
      "name": "lastUpdateTime",
      "outputs": [
        {
          "internalType": "uint256",
          "name": "",
          "type": "uint256"
        }
      ],
      "stateMutability": "view",
      "type": "function"
    },
    {
      "inputs": [],
      "name": "maxAPY",
      "outputs": [
        {
          "internalType": "uint256",
          "name": "",
          "type": "uint256"
        }
      ],
      "stateMutability": "view",
      "type": "function"
    },
    {
      "inputs": [],
      "name": "paused",
      "outputs": [
        {
          "internalType": "bool",
          "name": "",
          "type": "bool"
        }
      ],
      "stateMutability": "view",
      "type": "function"
    },
    {
      "inputs": [],
      "name": "referralBonusAPY",
      "outputs": [
        {
          "internalType": "uint256",
          "name": "",
          "type": "uint256"
        }
      ],
      "stateMutability": "view",
      "type": "function"
    },
    {
      "inputs": [
        {
          "internalType": "bytes32",
          "name": "role",
          "type": "bytes32"
        },
        {
          "internalType": "address",
          "name": "callerConfirmation",
          "type": "address"
        }
      ],
      "name": "renounceRole",
      "outputs": [],
      "stateMutability": "nonpayable",
      "type": "function"
    },
    {
      "inputs": [
        {
          "internalType": "bytes32",
          "name": "role",
          "type": "bytes32"
        },
        {
          "internalType": "address",
          "name": "account",
          "type": "address"
        }
      ],
      "name": "revokeRole",
      "outputs": [],
      "stateMutability": "nonpayable",
      "type": "function"
    },
    {
      "inputs": [],
      "name": "rewardPerTokenStored",
      "outputs": [
        {
          "internalType": "uint256",
          "name": "",
          "type": "uint256"
        }
      ],
      "stateMutability": "view",
      "type": "function"
    },
    {
      "inputs": [],
      "name": "rewardRate",
      "outputs": [
        {
          "internalType": "uint256",
          "name": "",
          "type": "uint256"
        }
      ],
      "stateMutability": "view",
      "type": "function"
    },
    {
      "inputs": [],
      "name": "rewardToken",
      "outputs": [
        {
          "internalType": "contract IERC20",
          "name": "",
          "type": "address"
        }
      ],
      "stateMutability": "view",
      "type": "function"
    },
    {
      "inputs": [],
      "name": "securityBonusAPY",
      "outputs": [
        {
          "internalType": "uint256",
          "name": "",
          "type": "uint256"
        }
      ],
      "stateMutability": "view",
      "type": "function"
    },
    {
      "inputs": [
        {
          "internalType": "address",
          "name": "",
          "type": "address"
        }
      ],
      "name": "securityScore",
      "outputs": [
        {
          "internalType": "uint256",
          "name": "",
          "type": "uint256"
        }
      ],
      "stateMutability": "view",
      "type": "function"
    },
    {
      "inputs": [
        {
          "internalType": "uint256",
          "name": "amount",
          "type": "uint256"
        }
      ],
      "name": "stake",
      "outputs": [],
      "stateMutability": "nonpayable",
      "type": "function"
    },
    {
      "inputs": [
        {
          "internalType": "address",
          "name": "",
          "type": "address"
        }
      ],
      "name": "stakes",
      "outputs": [
        {
          "internalType": "uint256",
          "name": "amount",
          "type": "uint256"
        },
        {
          "internalType": "uint256",
          "name": "stakedAt",
          "type": "uint256"
        },
        {
          "internalType": "uint256",
          "name": "lastRewardUpdate",
          "type": "uint256"
        },
        {
          "internalType": "uint256",
          "name": "accumulatedRewards",
          "type": "uint256"
        },
        {
          "internalType": "uint256",
          "name": "tier",
          "type": "uint256"
        }
      ],
      "stateMutability": "view",
      "type": "function"
    },
    {
      "inputs": [],
      "name": "stakingToken",
      "outputs": [
        {
          "internalType": "contract IERC20",
          "name": "",
          "type": "address"
        }
      ],
      "stateMutability": "view",
      "type": "function"
    },
    {
      "inputs": [
        {
          "internalType": "bytes4",
          "name": "interfaceId",
          "type": "bytes4"
        }
      ],
      "name": "supportsInterface",
      "outputs": [
        {
          "internalType": "bool",
          "name": "",
          "type": "bool"
        }
      ],
      "stateMutability": "view",
      "type": "function"
    },
    {
      "inputs": [
        {
          "internalType": "uint256",
          "name": "",
          "type": "uint256"
        }
      ],
      "name": "tiers",
      "outputs": [
        {
          "internalType": "uint256",
          "name": "minStake",
          "type": "uint256"
        },
        {
          "internalType": "uint256",
          "name": "baseAPY",
          "type": "uint256"
        },
        {
          "internalType": "uint256",
          "name": "performanceBonus",
          "type": "uint256"
        },
        {
          "internalType": "uint256",
          "name": "lockPeriod",
          "type": "uint256"
        },
        {
          "internalType": "uint256",
          "name": "multiplier",
          "type": "uint256"
        }
      ],
      "stateMutability": "view",
      "type": "function"
    },
    {
      "inputs": [],
      "name": "totalStaked",
      "outputs": [
        {
          "internalType": "uint256",
          "name": "",
          "type": "uint256"
        }
      ],
      "stateMutability": "view",
      "type": "function"
    },
    {
      "inputs": [
        {
          "internalType": "uint256",
          "name": "amount",
          "type": "uint256"
        }
      ],
      "name": "unstake",
      "outputs": [],
      "stateMutability": "nonpayable",
      "type": "function"
    },
    {
      "inputs": [],
      "name": "uptimeBonusAPY",
      "outputs": [
        {
          "internalType": "uint256",
          "name": "",
          "type": "uint256"
        }
      ],
      "stateMutability": "view",
      "type": "function"
    },
    {
      "inputs": [
        {
          "internalType": "address",
          "name": "",
          "type": "address"
        }
      ],
      "name": "userRewardPerTokenPaid",
      "outputs": [
        {
          "internalType": "uint256",
          "name": "",
          "type": "uint256"
        }
      ],
      "stateMutability": "view",
      "type": "function"
    }
  ],
  "bytecode": "0x60806040526101216006556101f460075560646008556032600955678ac7230489e80000600f556802b5e3af16b18800006010556019601155348015610043575f5ffd5b50604051611c92380380611c928339810160408190526100629161055b565b60017f9b779b17422d0df92223018b32b4d1fa46e071723d6817e2486d003becc55f00556001600160a01b0383166100e15760405162461bcd60e51b815260206004820152601560248201527f496e76616c6964207374616b696e6720746f6b656e000000000000000000000060448201526064015b60405180910390fd5b6001600160a01b0382166101375760405162461bcd60e51b815260206004820152601460248201527f496e76616c69642072657761726420746f6b656e00000000000000000000000060448201526064016100d8565b6001600160a01b03811661017d5760405162461bcd60e51b815260206004820152600d60248201526c24b73b30b634b21037bbb732b960991b60448201526064016100d8565b60018054610100600160a81b0319166101006001600160a01b038681169190910291909117909155600280546001600160a01b0319169184169190911790556101c65f8261044c565b506101f17f0f51adb3f49e4a9bbb17b3783f025995eaf8c24be2c8eefff214bdfda05ef94d8261044c565b5061043c60036040518060a0016040528068056bc75e2d63100000815260200161012181526020015f815260200162093a8081526020016064815250908060018154018082558091505060019003905f5260205f2090600502015f909190919091505f820151815f015560208201518160010155604082015181600201556060820151816003015560808201518160040155505060036040518060a00160405280683635c9adc5dea00000815260200161015e8152602001603281526020016212750081526020016078815250908060018154018082558091505060019003905f5260205f2090600502015f909190919091505f820151815f015560208201518160010155604082015181600201556060820151816003015560808201518160040155505060036040518060a0016040528069021e19e0c9bab240000081526020016101a481526020016064815260200162278d0081526020016096815250908060018154018082558091505060019003905f5260205f2090600502015f909190919091505f820151815f015560208201518160010155604082015181600201556060820151816003015560808201518160040155505060036040518060a00160405280690a968163f0a57b40000081526020016101f48152602001609681526020016276a700815260200160c8815250908060018154018082558091505060019003905f5260205f2090600502015f909190919091505f820151815f0155602082015181600101556040820151816002015560608201518160030155608082015181600401555050565b6104446104f5565b5050506105f8565b5f828152602081815260408083206001600160a01b038516845290915281205460ff166104ec575f838152602081815260408083206001600160a01b03861684529091529020805460ff191660011790556104a43390565b6001600160a01b0316826001600160a01b0316847f2f8788117e7eff1d82e926ec794901d17c78024a50270940304540a733656f0d60405160405180910390a45060016104ef565b505f5b92915050565b5f61050b62015180670de0b6b3a76400006105af565b905069152d02c7e14af6800000600a5461052591906105af565b6105309060016105ce565b61053a90826105e1565b600b5550565b80516001600160a01b0381168114610556575f5ffd5b919050565b5f5f5f6060848603121561056d575f5ffd5b61057684610540565b925061058460208501610540565b915061059260408501610540565b90509250925092565b634e487b7160e01b5f52601160045260245ffd5b5f826105c957634e487b7160e01b5f52601260045260245ffd5b500490565b808201808211156104ef576104ef61059b565b80820281158282048414176104ef576104ef61059b565b61168d806106055f395ff3fe608060405234801561000f575f5ffd5b50600436106101e7575f3560e01c80637b0a47ee11610109578063c34531531161009e578063e49eaee01161006e578063e49eaee014610455578063f05b306b1461045e578063f7c483a614610467578063f7c618c11461047a575f5ffd5b8063c34531531461041d578063c8f33c9114610430578063d547741f14610439578063df136d651461044c575f5ffd5b80639b66e5b7116100d95780639b66e5b7146103db578063a217fddf146103fa578063a694fc3a14610401578063b09be35c14610414575f5ffd5b80637b0a47ee14610397578063817b1cd2146103a05780638b876347146103a957806391d14854146103c8575f5ffd5b80632f2ff15d1161017f5780633cd078141161014f5780633cd078141461032c5780635c975abb146103355780636d750d801461034057806372f702f314610367575f5ffd5b80632f2ff15d146102eb57806336568abe146102fe5780633660106e14610311578063372500ab14610324575f5ffd5b806321f28b19116101ba57806321f28b19146102a2578063248a9ca3146102ab57806325aa3984146102cd5780632e17de78146102d6575f5ffd5b806301ffc9a7146101eb578063039af9eb1461021357806316934fc41461024e578063214405a91461028b575b5f5ffd5b6101fe6101f9366004611429565b61048d565b60405190151581526020015b60405180910390f35b610226610221366004611450565b6104c3565b604080519586526020860194909452928401919091526060830152608082015260a00161020a565b61022661025c366004611482565b600460208190525f91825260409091208054600182015460028301546003840154939094015491939092909185565b61029460065481565b60405190815260200161020a565b61029460095481565b6102946102b9366004611450565b5f9081526020819052604090206001015490565b61029460085481565b6102e96102e4366004611450565b610502565b005b6102e96102f936600461149b565b6106fc565b6102e961030c36600461149b565b610726565b61029461031f366004611482565b61075e565b6102e9610854565b61029460105481565b60015460ff166101fe565b6102947f0f51adb3f49e4a9bbb17b3783f025995eaf8c24be2c8eefff214bdfda05ef94d81565b60015461037f9061010090046001600160a01b031681565b6040516001600160a01b03909116815260200161020a565b610294600b5481565b610294600a5481565b6102946103b7366004611482565b600e6020525f908152604090205481565b6101fe6103d636600461149b565b610886565b6102946103e9366004611482565b60056020525f908152604090205481565b6102945f81565b6102e961040f366004611450565b6108ae565b610294600f5481565b61022661042b366004611482565b610a15565b610294600c5481565b6102e961044736600461149b565b610b08565b610294600d5481565b61029460075481565b61029460115481565b6102e96104753660046114c5565b610b2c565b60025461037f906001600160a01b031681565b5f6001600160e01b03198216637965db0b60e01b14806104bd57506301ffc9a760e01b6001600160e01b03198316145b92915050565b600381815481106104d2575f80fd5b5f918252602090912060059091020180546001820154600283015460038401546004909401549294509092909185565b61050a610d9c565b610512610db7565b335f908152600460205260409020805482111561056b5760405162461bcd60e51b8152602060048201526012602482015271496e73756666696369656e74207374616b6560701b60448201526064015b60405180910390fd5b600381600401548154811061058257610582611543565b905f5260205f2090600502016003015481600101546105a1919061156b565b4210156105df5760405162461bcd60e51b815260206004820152600c60248201526b14dd1a5b1b081b1bd8dad95960a21b6044820152606401610562565b6105e833610ddb565b6105f133610f10565b81815f015f828254610603919061157e565b9250508190555081600a5f82825461061b919061157e565b909155505060015461063c9061010090046001600160a01b03163384610fa4565b5f610649825f0154610fd9565b905081600401548114610693576004820181905560405181815233907fa3f9159b0f8e37ad233c38f01317295984b2365aac02d2f555e91e395e64b6269060200160405180910390a25b61069b611043565b600382015460405133917f7fc4727e062e336010f2c282598ef5f14facb3de68cf8195c2f23e1454b2b74e916106d991878252602082015260400190565b60405180910390a250506106f960015f5160206116385f395f51905f5255565b50565b5f828152602081905260409020600101546107168161108e565b6107208383611098565b50505050565b6001600160a01b038116331461074f5760405163334bd91960e11b815260040160405180910390fd5b6107598282611127565b505050565b6001600160a01b0381165f908152600460208181526040808420815160a08101835281548082526001830154948201949094526002820154928101929092526003810154606083015290920154608083015282036107be57505f92915050565b5f60038260800151815481106107d6576107d6611543565b5f9182526020808320600592830201600101546001600160a01b038816845290829052604083205490935060649161080e9190611591565b61081891906115a8565b6011549091505f8161082a848661156b565b610834919061156b565b905060075481116108455780610849565b6007545b979650505050505050565b61085c610d9c565b61086533610ddb565b61086e33610f10565b61088460015f5160206116385f395f51905f5255565b565b5f918252602082815260408084206001600160a01b0393909316845291905290205460ff1690565b6108b6610d9c565b6108be610db7565b5f81116108fe5760405162461bcd60e51b815260206004820152600e60248201526d043616e6e6f74207374616b6520360941b6044820152606401610562565b61090733610ddb565b6001546109249061010090046001600160a01b0316333084611190565b335f908152600460205260408120805490910361094957426001820181905560028201555b81815f015f82825461095b919061156b565b9250508190555081600a5f828254610973919061156b565b909155505080545f9061098590610fd9565b9050816004015481146109cf576004820181905560405181815233907fa3f9159b0f8e37ad233c38f01317295984b2365aac02d2f555e91e395e64b6269060200160405180910390a25b6109d7611043565b600482015460405133917f1449c6dd7851abc30abf37f57715f492010519147cc2652fbc38202c18a6ee90916106d991878252602082015260400190565b6001600160a01b0381165f908152600460208181526040808420815160a0810183528154815260018201549381019390935260028101549183019190915260038101546060830152909101546080820152819081908190819081610a78886111c6565b825160208401516080850151604051631b30083760e11b81526001600160a01b038d166004820152939450919290919084903090633660106e90602401602060405180830381865afa158015610ad0573d5f5f3e3d5ffd5b505050506040513d601f19601f82011682018060405250810190610af491906115c7565b939c929b5090995097509095509350505050565b5f82815260208190526040902060010154610b228161108e565b6107208383611127565b7f0f51adb3f49e4a9bbb17b3783f025995eaf8c24be2c8eefff214bdfda05ef94d610b568161108e565b6040516d185b9bdb585b1e57dc995c1bdc9d60921b60208201525f90602e01604051602081830303815290604052805190602001208484604051602001610b9e9291906115de565b6040516020818303038152906040528051906020012003610bc25750600f54610c29565b6040516e6272696467655f736563757269747960881b6020820152602f01604051602081830303815290604052805190602001208484604051602001610c099291906115de565b6040516020818303038152906040528051906020012003610c2957506010545b8015610d95576002546040516370a0823160e01b815230600482015282916001600160a01b0316906370a0823190602401602060405180830381865afa158015610c75573d5f5f3e3d5ffd5b505050506040513d601f19601f82011682018060405250810190610c9991906115c7565b1015610ce75760405162461bcd60e51b815260206004820152601b60248201527f496e73756666696369656e74207265776172642062616c616e636500000000006044820152606401610562565b6001600160a01b0385165f9081526005602052604081208054600a9290610d0f90849061156b565b90915550610d1e905085610ddb565b6001600160a01b0385165f9081526004602052604081206003018054839290610d4890849061156b565b92505081905550846001600160a01b03167f131b1d91d30b28cd7a945ae7755fe691c76be72281b787f50e85c8b89d061620828686604051610d8c939291906115ed565b60405180910390a25b5050505050565b610da46112f2565b60025f5160206116385f395f51905f5255565b60015460ff16156108845760405163d93c066560e01b815260040160405180910390fd5b600a5415610eb6575f600c5442610df2919061157e565b6001600160a01b0383165f90815260046020818152604092839020835160a08101855281548152600182015492810192909252600281015493820193909352600383015460608201529101546080820152600a5491925090610e55906064611591565b6003826080015181548110610e6c57610e6c611543565b905f5260205f20906005020160040154600b5484610e8a9190611591565b610e949190611591565b610e9e91906115a8565b600d5f828254610eae919061156b565b909155505050505b42600c55610ec3816111c6565b6001600160a01b0382165f9081526004602052604081206003018054909190610eed90849061156b565b9091555050600d546001600160a01b039091165f908152600e6020526040902055565b6001600160a01b0381165f908152600460205260409020600301548015610fa0576001600160a01b038083165f90815260046020526040812060030155600254610f5c91168383610fa4565b816001600160a01b03167ffc30cddea38e2bf4d6ea7d3f9ed3b6ad7f176419f4963bd81318067a4aee73fe82604051610f9791815260200190565b60405180910390a25b5050565b610fb18383836001611321565b61075957604051635274afe760e01b81526001600160a01b0384166004820152602401610562565b6003545f905b801561103b576003610ff260018361157e565b8154811061100257611002611543565b905f5260205f2090600502015f015483106110295761102260018261157e565b9392505050565b8061103381611622565b915050610fdf565b505f92915050565b5f61105962015180670de0b6b3a76400006115a8565b905069152d02c7e14af6800000600a5461107391906115a8565b61107e90600161156b565b6110889082611591565b600b5550565b6106f98133611383565b5f6110a38383610886565b611120575f838152602081815260408083206001600160a01b03861684529091529020805460ff191660011790556110d83390565b6001600160a01b0316826001600160a01b0316847f2f8788117e7eff1d82e926ec794901d17c78024a50270940304540a733656f0d60405160405180910390a45060016104bd565b505f6104bd565b5f6111328383610886565b15611120575f838152602081815260408083206001600160a01b0386168085529252808320805460ff1916905551339286917ff6391f5c32d9c69d2a47ea670b442974b53935d1edc7fd64eb21e047a839171b9190a45060016104bd565b61119e8484848460016113bc565b61072057604051635274afe760e01b81526001600160a01b0385166004820152602401610562565b6001600160a01b0381165f908152600460208181526040808420815160a081018352815480825260018301549482019490945260028201549281019290925260038101546060830152909201546080830152820361122657505f92915050565b600d54600a54156112a8575f600c5442611240919061157e565b9050600a5460646112519190611591565b600384608001518154811061126857611268611543565b905f5260205f20906005020160040154600b54836112869190611591565b6112909190611591565b61129a91906115a8565b6112a4908361156b565b9150505b6001600160a01b0384165f908152600e6020526040902054670de0b6b3a7640000906112d4908361157e565b83516112e09190611591565b6112ea91906115a8565b949350505050565b5f5160206116385f395f51905f525460020361088457604051633ee5aeb560e01b815260040160405180910390fd5b60405163a9059cbb60e01b5f8181526001600160a01b038616600452602485905291602083604481808b5af1925060015f5114831661137757838315161561136b573d5f823e3d81fd5b5f873b113d1516831692505b60405250949350505050565b61138d8282610886565b610fa05760405163e2517d3f60e01b81526001600160a01b038216600482015260248101839052604401610562565b6040516323b872dd60e01b5f8181526001600160a01b038781166004528616602452604485905291602083606481808c5af1925060015f5114831661141857838315161561140c573d5f823e3d81fd5b5f883b113d1516831692505b604052505f60605295945050505050565b5f60208284031215611439575f5ffd5b81356001600160e01b031981168114611022575f5ffd5b5f60208284031215611460575f5ffd5b5035919050565b80356001600160a01b038116811461147d575f5ffd5b919050565b5f60208284031215611492575f5ffd5b61102282611467565b5f5f604083850312156114ac575f5ffd5b823591506114bc60208401611467565b90509250929050565b5f5f5f604084860312156114d7575f5ffd5b6114e084611467565b9250602084013567ffffffffffffffff8111156114fb575f5ffd5b8401601f8101861361150b575f5ffd5b803567ffffffffffffffff811115611521575f5ffd5b866020828401011115611532575f5ffd5b939660209190910195509293505050565b634e487b7160e01b5f52603260045260245ffd5b634e487b7160e01b5f52601160045260245ffd5b808201808211156104bd576104bd611557565b818103818111156104bd576104bd611557565b80820281158282048414176104bd576104bd611557565b5f826115c257634e487b7160e01b5f52601260045260245ffd5b500490565b5f602082840312156115d7575f5ffd5b5051919050565b818382375f9101908152919050565b83815260406020820152816040820152818360608301375f818301606090810191909152601f909201601f1916010192915050565b5f8161163057611630611557565b505f19019056fe9b779b17422d0df92223018b32b4d1fa46e071723d6817e2486d003becc55f00a26469706673582212202bb8cab3c8b034f4e3ac64a4bf8107bc5dbcac6b271edf297d308503b70f2e1264736f6c634300081c0033",
  "linkReferences": {},
  "deployedLinkReferences": {},
  "immutableReferences": {},
  "inputSourceName": "project/contracts/SentinelStaking.sol",
  "buildInfoId": "solc-0_8_28-56b4d38520a07143560cd43eeb820c3102363d0a"
}