{
  "_format": "hh3-artifact-1",
  "contractName": "SentinelSecurityTokenization",
  "sourceName": "contracts/SentinelSecurityTokenization.sol",
  "abi": [
    {
      "inputs": [],
      "stateMutability": "nonpayable",
      "type": "constructor"
    },
    {
      "inputs": [
        {
          "internalType": "address",
          "name": "owner",
          "type": "address"
        }
      ],
      "name": "OwnableInvalidOwner",
      "type": "error"
    },
    {
      "inputs": [
        {
          "internalType": "address",
          "name": "account",
          "type": "address"
        }
      ],
      "name": "OwnableUnauthorizedAccount",
      "type": "error"
    },
    {
      "inputs": [],
      "name": "ReentrancyGuardReentrantCall",
      "type": "error"
    },
    {
      "anonymous": false,
      "inputs": [
        {
          "indexed": true,
          "internalType": "address",
          "name": "previousOwner",
          "type": "address"
        },
        {
          "indexed": true,
          "internalType": "address",
          "name": "newOwner",
          "type": "address"
        }
      ],
      "name": "OwnershipTransferred",
      "type": "event"
    },
    {
      "anonymous": false,
      "inputs": [
        {
          "indexed": true,
          "internalType": "uint256",
          "name": "tokenId",
          "type": "uint256"
        },
        {
          "indexed": true,
          "internalType": "address",
          "name": "creator",
          "type": "address"
        },
        {
          "indexed": false,
          "internalType": "enum SentinelSecurityTokenization.AssetType",
          "name": "assetType",
          "type": "uint8"
        }
      ],
      "name": "SecurityNFTMinted",
      "type": "event"
    },
    {
      "anonymous": false,
      "inputs": [
        {
          "indexed": true,
          "internalType": "address",
          "name": "tokenAddress",
          "type": "address"
        },
        {
          "indexed": false,
          "internalType": "string",
          "name": "name",
          "type": "string"
        },
        {
          "indexed": false,
          "internalType": "enum SentinelSecurityTokenization.AssetType",
          "name": "assetType",
          "type": "uint8"
        }
      ],
      "name": "SecurityTokenCreated",
      "type": "event"
    },
    {
      "anonymous": false,
      "inputs": [
        {
          "indexed": true,
          "internalType": "address",
          "name": "token",
          "type": "address"
        },
        {
          "indexed": true,
          "internalType": "address",
          "name": "from",
          "type": "address"
        },
        {
          "indexed": true,
          "internalType": "address",
          "name": "to",
          "type": "address"
        },
        {
          "indexed": false,
          "internalType": "uint256",
          "name": "amount",
          "type": "uint256"
        }
      ],
      "name": "TokenTransferred",
      "type": "event"
    },
    {
      "inputs": [
        {
          "internalType": "uint256",
          "name": "",
          "type": "uint256"
        }
      ],
      "name": "activeTokens",
      "outputs": [
        {
          "internalType": "address",
          "name": "",
          "type": "address"
        }
      ],
      "stateMutability": "view",
      "type": "function"
    },
    {
      "inputs": [
        {
          "internalType": "uint256",
          "name": "tokenId",
          "type": "uint256"
        },
        {
          "internalType": "address",
          "name": "holder",
          "type": "address"
        },
        {
          "internalType": "bool",
          "name": "authorized",
          "type": "bool"
        }
      ],
      "name": "authorizeNFTHolder",
      "outputs": [],
      "stateMutability": "nonpayable",
      "type": "function"
    },
    {
      "inputs": [
        {
          "internalType": "string",
          "name": "name",
          "type": "string"
        },
        {
          "internalType": "string",
          "name": "symbol",
          "type": "string"
        },
        {
          "internalType": "uint256",
          "name": "initialSupply",
          "type": "uint256"
        },
        {
          "internalType": "enum SentinelSecurityTokenization.AssetType",
          "name": "assetType",
          "type": "uint8"
        },
        {
          "internalType": "uint256",
          "name": "expiryDate",
          "type": "uint256"
        },
        {
          "internalType": "string",
          "name": "metadataURI",
          "type": "string"
        }
      ],
      "name": "createSecurityToken",
      "outputs": [
        {
          "internalType": "address",
          "name": "",
          "type": "address"
        }
      ],
      "stateMutability": "payable",
      "type": "function"
    },
    {
      "inputs": [
        {
          "internalType": "address",
          "name": "tokenAddress",
          "type": "address"
        }
      ],
      "name": "deactivateToken",
      "outputs": [],
      "stateMutability": "nonpayable",
      "type": "function"
    },
    {
      "inputs": [],
      "name": "getActiveTokens",
      "outputs": [
        {
          "internalType": "address[]",
          "name": "",
          "type": "address[]"
        }
      ],
      "stateMutability": "view",
      "type": "function"
    },
    {
      "inputs": [
        {
          "internalType": "uint256",
          "name": "tokenId",
          "type": "uint256"
        }
      ],
      "name": "getNFTDetails",
      "outputs": [
        {
          "internalType": "address",
          "name": "creator",
          "type": "address"
        },
        {
          "internalType": "enum SentinelSecurityTokenization.AssetType",
          "name": "assetType",
          "type": "uint8"
        },
        {
          "internalType": "string",
          "name": "title",
          "type": "string"
        },
        {
          "internalType": "uint256",
          "name": "value",
          "type": "uint256"
        },
        {
          "internalType": "bool",
          "name": "isTransferable",
          "type": "bool"
        }
      ],
      "stateMutability": "view",
      "type": "function"
    },
    {
      "inputs": [
        {
          "internalType": "address",
          "name": "tokenAddress",
          "type": "address"
        }
      ],
      "name": "getTokenDetails",
      "outputs": [
        {
          "components": [
            {
              "internalType": "address",
              "name": "tokenAddress",
              "type": "address"
            },
            {
              "internalType": "string",
              "name": "name",
              "type": "string"
            },
            {
              "internalType": "string",
              "name": "symbol",
              "type": "string"
            },
            {
              "internalType": "uint256",
              "name": "totalSupply",
              "type": "uint256"
            },
            {
              "internalType": "address",
              "name": "creator",
              "type": "address"
            },
            {
              "internalType": "enum SentinelSecurityTokenization.AssetType",
              "name": "assetType",
              "type": "uint8"
            },
            {
              "internalType": "uint256",
              "name": "issueDate",
              "type": "uint256"
            },
            {
              "internalType": "uint256",
              "name": "expiryDate",
              "type": "uint256"
            },
            {
              "internalType": "string",
              "name": "metadataURI",
              "type": "string"
            },
            {
              "internalType": "bool",
              "name": "isActive",
              "type": "bool"
            }
          ],
          "internalType": "struct SentinelSecurityTokenization.SecurityToken",
          "name": "",
          "type": "tuple"
        }
      ],
      "stateMutability": "view",
      "type": "function"
    },
    {
      "inputs": [
        {
          "internalType": "uint256",
          "name": "tokenId",
          "type": "uint256"
        },
        {
          "internalType": "address",
          "name": "holder",
          "type": "address"
        }
      ],
      "name": "isAuthorizedHolder",
      "outputs": [
        {
          "internalType": "bool",
          "name": "",
          "type": "bool"
        }
      ],
      "stateMutability": "view",
      "type": "function"
    },
    {
      "inputs": [
        {
          "internalType": "enum SentinelSecurityTokenization.AssetType",
          "name": "assetType",
          "type": "uint8"
        },
        {
          "internalType": "string",
          "name": "title",
          "type": "string"
        },
        {
          "internalType": "string",
          "name": "description",
          "type": "string"
        },
        {
          "internalType": "string",
          "name": "metadataURI",
          "type": "string"
        },
        {
          "internalType": "uint256",
          "name": "value",
          "type": "uint256"
        },
        {
          "internalType": "bool",
          "name": "isTransferable",
          "type": "bool"
        }
      ],
      "name": "mintSecurityNFT",
      "outputs": [
        {
          "internalType": "uint256",
          "name": "",
          "type": "uint256"
        }
      ],
      "stateMutability": "payable",
      "type": "function"
    },
    {
      "inputs": [],
      "name": "nextNFTId",
      "outputs": [
        {
          "internalType": "uint256",
          "name": "",
          "type": "uint256"
        }
      ],
      "stateMutability": "view",
      "type": "function"
    },
    {
      "inputs": [
        {
          "internalType": "uint256",
          "name": "",
          "type": "uint256"
        },
        {
          "internalType": "address",
          "name": "",
          "type": "address"
        }
      ],
      "name": "nftAuthorizedHolders",
      "outputs": [
        {
          "internalType": "bool",
          "name": "",
          "type": "bool"
        }
      ],
      "stateMutability": "view",
      "type": "function"
    },
    {
      "inputs": [],
      "name": "owner",
      "outputs": [
        {
          "internalType": "address",
          "name": "",
          "type": "address"
        }
      ],
      "stateMutability": "view",
      "type": "function"
    },
    {
      "inputs": [],
      "name": "platformFee",
      "outputs": [
        {
          "internalType": "uint256",
          "name": "",
          "type": "uint256"
        }
      ],
      "stateMutability": "view",
      "type": "function"
    },
    {
      "inputs": [
        {
          "internalType": "address",
          "name": "tokenAddress",
          "type": "address"
        },
        {
          "internalType": "uint256",
          "name": "amount",
          "type": "uint256"
        }
      ],
      "name": "redeemSecurityAsset",
      "outputs": [],
      "stateMutability": "nonpayable",
      "type": "function"
    },
    {
      "inputs": [],
      "name": "renounceOwnership",
      "outputs": [],
      "stateMutability": "nonpayable",
      "type": "function"
    },
    {
      "inputs": [
        {
          "internalType": "uint256",
          "name": "",
          "type": "uint256"
        }
      ],
      "name": "securityNFTs",
      "outputs": [
        {
          "internalType": "uint256",
          "name": "tokenId",
          "type": "uint256"
        },
        {
          "internalType": "address",
          "name": "creator",
          "type": "address"
        },
        {
          "internalType": "enum SentinelSecurityTokenization.AssetType",
          "name": "assetType",
          "type": "uint8"
        },
        {
          "internalType": "string",
          "name": "title",
          "type": "string"
        },
        {
          "internalType": "string",
          "name": "description",
          "type": "string"
        },
        {
          "internalType": "string",
          "name": "metadataURI",
          "type": "string"
        },
        {
          "internalType": "uint256",
          "name": "issueDate",
          "type": "uint256"
        },
        {
          "internalType": "uint256",
          "name": "value",
          "type": "uint256"
        },
        {
          "internalType": "bool",
          "name": "isTransferable",
          "type": "bool"
        }
      ],
      "stateMutability": "view",
      "type": "function"
    },
    {
      "inputs": [
        {
          "internalType": "address",
          "name": "",
          "type": "address"
        }
      ],
      "name": "securityTokens",
      "outputs": [
        {
          "internalType": "address",
          "name": "tokenAddress",
          "type": "address"
        },
        {
          "internalType": "string",
          "name": "name",
          "type": "string"
        },
        {
          "internalType": "string",
          "name": "symbol",
          "type": "string"
        },
        {
          "internalType": "uint256",
          "name": "totalSupply",
          "type": "uint256"
        },
        {
          "internalType": "address",
          "name": "creator",
          "type": "address"
        },
        {
          "internalType": "enum SentinelSecurityTokenization.AssetType",
          "name": "assetType",
          "type": "uint8"
        },
        {
          "internalType": "uint256",
          "name": "issueDate",
          "type": "uint256"
        },
        {
          "internalType": "uint256",
          "name": "expiryDate",
          "type": "uint256"
        },
        {
          "internalType": "string",
          "name": "metadataURI",
          "type": "string"
        },
        {
          "internalType": "bool",
          "name": "isActive",
          "type": "bool"
        }
      ],
      "stateMutability": "view",
      "type": "function"
    },
    {
      "inputs": [
        {
          "internalType": "uint256",
          "name": "newFee",
          "type": "uint256"
        }
      ],
      "name": "setPlatformFee",
      "outputs": [],
      "stateMutability": "nonpayable",
      "type": "function"
    },
    {
      "inputs": [
        {
          "internalType": "address",
          "name": "newOwner",
          "type": "address"
        }
      ],
      "name": "transferOwnership",
      "outputs": [],
      "stateMutability": "nonpayable",
      "type": "function"
    },
    {
      "inputs": [
        {
          "internalType": "uint256",
          "name": "tokenId",
          "type": "uint256"
        },
        {
          "internalType": "address",
          "name": "to",
          "type": "address"
        }
      ],
      "name": "transferSecurityNFT",
      "outputs": [],
      "stateMutability": "nonpayable",
      "type": "function"
    },
    {
      "inputs": [
        {
          "internalType": "address",
          "name": "tokenAddress",
          "type": "address"
        },
        {
          "internalType": "address",
          "name": "to",
          "type": "address"
        },
        {
          "internalType": "uint256",
          "name": "amount",
          "type": "uint256"
        }
      ],
      "name": "transferSecurityToken",
      "outputs": [],
      "stateMutability": "nonpayable",
      "type": "function"
    },
    {
      "inputs": [],
      "name": "withdrawFees",
      "outputs": [],
      "stateMutability": "nonpayable",
      "type": "function"
    }
  ],
  "bytecode": "0x608060405260016005556101f46006553480156019575f5ffd5b503380603e57604051631e4fbdf760e01b81525f600482015260240160405180910390fd5b604581606e565b5060017f9b779b17422d0df92223018b32b4d1fa46e071723d6817e2486d003becc55f005560bd565b5f80546001600160a01b038381166001600160a01b0319831681178455604051919092169283917f8be0079c531659141344cd1fd0a4f28419497f9722a3daafe3b4186f6b6457e09190a35050565b61335f806100ca5f395ff3fe608060405260043610610131575f3560e01c80638da5cb5b116100a8578063af1082cc1161006d578063af1082cc14610398578063b6cf88ec146103b7578063bcf9e9af146103ca578063c78e1453146103e9578063c909adc014610408578063f2fde38b1461041d575f5ffd5b80638da5cb5b146102de57806390b404c81461030e57806395d0196214610321578063972048b6146103405780639f224f3514610379575f5ffd5b8063476343ee116100f9578063476343ee1461021a5780635f5817e31461022e57806368173bcf1461024f578063715018a61461026e57806382260f351461028257806388aa8bee146102b2575f5ffd5b806312e8e2c314610135578063137581a41461015657806315db871514610193578063193ade35146101c857806326232a2e146101f7575b5f5ffd5b348015610140575f5ffd5b5061015461014f366004611d8a565b61043c565b005b348015610161575f5ffd5b50610175610170366004611d8a565b610498565b60405161018a99989796959493929190611e03565b60405180910390f35b34801561019e575f5ffd5b506101b26101ad366004611e9f565b610689565b60405161018a9a99989796959493929190611ebf565b3480156101d3575f5ffd5b506101e76101e2366004611f54565b61088a565b604051901515815260200161018a565b348015610202575f5ffd5b5061020c60065481565b60405190815260200161018a565b348015610225575f5ffd5b506101546108b6565b348015610239575f5ffd5b506102426108f8565b60405161018a9190611f7e565b34801561025a575f5ffd5b50610154610269366004611e9f565b610958565b348015610279575f5ffd5b50610154610983565b34801561028d575f5ffd5b506102a161029c366004611d8a565b610996565b60405161018a959493929190611fc9565b3480156102bd575f5ffd5b506102d16102cc366004611e9f565b610c0e565b60405161018a9190612010565b3480156102e9575f5ffd5b505f546001600160a01b03165b6040516001600160a01b03909116815260200161018a565b6102f661031c36600461219d565b610e76565b34801561032c575f5ffd5b5061015461033b36600461224d565b61115f565b34801561034b575f5ffd5b506101e761035a366004611f54565b600360209081525f928352604080842090915290825290205460ff1681565b348015610384575f5ffd5b506102f6610393366004611d8a565b6114cf565b3480156103a3575f5ffd5b506101546103b2366004611f54565b6114f7565b61020c6103c5366004612282565b6115ba565b3480156103d5575f5ffd5b506101546103e436600461233d565b6117a6565b3480156103f4575f5ffd5b50610154610403366004612377565b611b7d565b348015610413575f5ffd5b5061020c60055481565b348015610428575f5ffd5b50610154610437366004611e9f565b611c0d565b610444611c47565b6103e88111156104935760405162461bcd60e51b81526020600482015260156024820152744665652063616e6e6f74206578636565642031302560581b60448201526064015b60405180910390fd5b600655565b600260208190525f918252604090912080546001820154928201805491936001600160a01b03811693600160a01b90910460ff16929091906104d9906123b4565b80601f0160208091040260200160405190810160405280929190818152602001828054610505906123b4565b80156105505780601f1061052757610100808354040283529160200191610550565b820191905f5260205f20905b81548152906001019060200180831161053357829003601f168201915b505050505090806003018054610565906123b4565b80601f0160208091040260200160405190810160405280929190818152602001828054610591906123b4565b80156105dc5780601f106105b3576101008083540402835291602001916105dc565b820191905f5260205f20905b8154815290600101906020018083116105bf57829003601f168201915b5050505050908060040180546105f1906123b4565b80601f016020809104026020016040519081016040528092919081815260200182805461061d906123b4565b80156106685780601f1061063f57610100808354040283529160200191610668565b820191905f5260205f20905b81548152906001019060200180831161064b57829003601f168201915b50505050600583015460068401546007909401549293909290915060ff1689565b600160208190525f9182526040909120805491810180546001600160a01b03909316926106b5906123b4565b80601f01602080910402602001604051908101604052809291908181526020018280546106e1906123b4565b801561072c5780601f106107035761010080835404028352916020019161072c565b820191905f5260205f20905b81548152906001019060200180831161070f57829003601f168201915b505050505090806002018054610741906123b4565b80601f016020809104026020016040519081016040528092919081815260200182805461076d906123b4565b80156107b85780601f1061078f576101008083540402835291602001916107b8565b820191905f5260205f20905b81548152906001019060200180831161079b57829003601f168201915b505050506003830154600484015460058501546006860154600787018054969794966001600160a01b0385169650600160a01b90940460ff16949293919291610800906123b4565b80601f016020809104026020016040519081016040528092919081815260200182805461082c906123b4565b80156108775780601f1061084e57610100808354040283529160200191610877565b820191905f5260205f20905b81548152906001019060200180831161085a57829003601f168201915b5050506008909301549192505060ff168a565b5f8281526003602090815260408083206001600160a01b038516845290915290205460ff165b92915050565b6108be611c47565b5f80546040516001600160a01b03909116914780156108fc02929091818181858888f193505050501580156108f5573d5f5f3e3d5ffd5b50565b6060600480548060200260200160405190810160405280929190818152602001828054801561094e57602002820191905f5260205f20905b81546001600160a01b03168152600190910190602001808311610930575b5050505050905090565b610960611c47565b6001600160a01b03165f908152600160205260409020600801805460ff19169055565b61098b611c47565b6109945f611c73565b565b5f8181526002602090815260408083208151610120810183528154815260018201546001600160a01b0381169482019490945284936060938593849384939092830190600160a01b900460ff1660058111156109f4576109f4611da1565b6005811115610a0557610a05611da1565b8152602001600282018054610a19906123b4565b80601f0160208091040260200160405190810160405280929190818152602001828054610a45906123b4565b8015610a905780601f10610a6757610100808354040283529160200191610a90565b820191905f5260205f20905b815481529060010190602001808311610a7357829003601f168201915b50505050508152602001600382018054610aa9906123b4565b80601f0160208091040260200160405190810160405280929190818152602001828054610ad5906123b4565b8015610b205780601f10610af757610100808354040283529160200191610b20565b820191905f5260205f20905b815481529060010190602001808311610b0357829003601f168201915b50505050508152602001600482018054610b39906123b4565b80601f0160208091040260200160405190810160405280929190818152602001828054610b65906123b4565b8015610bb05780601f10610b8757610100808354040283529160200191610bb0565b820191905f5260205f20905b815481529060010190602001808311610b9357829003601f168201915b50505091835250506005820154602080830191909152600683015460408084019190915260079093015460ff161515606092830152830151918301519083015160e084015161010090940151929b919a509850919650945092505050565b610c16611d0c565b6001600160a01b038083165f908152600160208181526040928390208351610140810190945280549094168352908301805492939291840191610c58906123b4565b80601f0160208091040260200160405190810160405280929190818152602001828054610c84906123b4565b8015610ccf5780601f10610ca657610100808354040283529160200191610ccf565b820191905f5260205f20905b815481529060010190602001808311610cb257829003601f168201915b50505050508152602001600282018054610ce8906123b4565b80601f0160208091040260200160405190810160405280929190818152602001828054610d14906123b4565b8015610d5f5780601f10610d3657610100808354040283529160200191610d5f565b820191905f5260205f20905b815481529060010190602001808311610d4257829003601f168201915b50505091835250506003820154602082015260048201546001600160a01b0381166040830152606090910190600160a01b900460ff166005811115610da657610da6611da1565b6005811115610db757610db7611da1565b81526020016005820154815260200160068201548152602001600782018054610ddf906123b4565b80601f0160208091040260200160405190810160405280929190818152602001828054610e0b906123b4565b8015610e565780601f10610e2d57610100808354040283529160200191610e56565b820191905f5260205f20905b815481529060010190602001808311610e3957829003601f168201915b50505091835250506008919091015460ff16151560209091015292915050565b5f610e7f611cc2565b600654341015610ecd5760405162461bcd60e51b8152602060048201526019602482015278496e73756666696369656e7420706c6174666f726d2066656560381b604482015260640161048a565b5f8511610f0d5760405162461bcd60e51b815260206004820152600e60248201526d496e76616c696420737570706c7960901b604482015260640161048a565b5f87878733604051610f1e90611d7d565b610f2b94939291906123ec565b604051809103905ff080158015610f44573d5f5f3e3d5ffd5b5090505f819050604051806101400160405280826001600160a01b031681526020018a8152602001898152602001888152602001336001600160a01b03168152602001876005811115610f9957610f99611da1565b815242602080830191909152604080830189905260608301889052600160809093018390526001600160a01b038581165f90815284845291909120845181546001600160a01b0319169216919091178155908301519091820190610ffd908261247d565b5060408201516002820190611012908261247d565b506060820151600382015560808201516004820180546001600160a01b039092166001600160a01b031983168117825560a0850151926001600160a81b03191617600160a01b83600581111561106a5761106a611da1565b021790555060c0820151600582015560e082015160068201556101008201516007820190611098908261247d565b5061012091909101516008909101805460ff1916911515919091179055600480546001810182555f919091527f8a35acfbc15ff81a39ae7d344fd709f28e8600b4aa8c65c6b64bfe7fe36bd19b0180546001600160a01b0319166001600160a01b0383169081179091556040517f222554c4305647c9c616cce3e262b67684177863272fa89ed631dc0b6c9eae5e90611134908c908a90612538565b60405180910390a291505061115560015f51602061330a5f395f51905f5255565b9695505050505050565b611167611cc2565b6001600160a01b038083165f9081526001602081815260408084208151610140810190925280549095168152918401805493949293918401916111a9906123b4565b80601f01602080910402602001604051908101604052809291908181526020018280546111d5906123b4565b80156112205780601f106111f757610100808354040283529160200191611220565b820191905f5260205f20905b81548152906001019060200180831161120357829003601f168201915b50505050508152602001600282018054611239906123b4565b80601f0160208091040260200160405190810160405280929190818152602001828054611265906123b4565b80156112b05780601f10611287576101008083540402835291602001916112b0565b820191905f5260205f20905b81548152906001019060200180831161129357829003601f168201915b50505091835250506003820154602082015260048201546001600160a01b0381166040830152606090910190600160a01b900460ff1660058111156112f7576112f7611da1565b600581111561130857611308611da1565b81526020016005820154815260200160068201548152602001600782018054611330906123b4565b80601f016020809104026020016040519081016040528092919081815260200182805461135c906123b4565b80156113a75780601f1061137e576101008083540402835291602001916113a7565b820191905f5260205f20905b81548152906001019060200180831161138a57829003601f168201915b50505091835250506008919091015460ff1615156020909101526101208101519091506114095760405162461bcd60e51b815260206004820152601060248201526f546f6b656e206e6f742061637469766560801b604482015260640161048a565b60808101516001600160a01b031633146114595760405162461bcd60e51b81526020600482015260116024820152702737ba103a37b5b2b71031b932b0ba37b960791b604482015260640161048a565b60405163079cc67960e41b8152336004820152602481018390526001600160a01b038416906379cc6790906044015f604051808303815f87803b15801561149e575f5ffd5b505af11580156114b0573d5f5f3e3d5ffd5b50505050506114cb60015f51602061330a5f395f51905f5255565b5050565b600481815481106114de575f80fd5b5f918252602090912001546001600160a01b0316905081565b6114ff611cc2565b5f82815260026020526040902060018101546001600160a01b031633146115585760405162461bcd60e51b815260206004820152600d60248201526c2737ba1027232a1037bbb732b960991b604482015260640161048a565b600781015460ff166115a35760405162461bcd60e51b81526020600482015260146024820152734e4654206e6f74207472616e7366657261626c6560601b604482015260640161048a565b506114cb60015f51602061330a5f395f51905f5255565b5f6115c3611cc2565b6006543410156116115760405162461bcd60e51b8152602060048201526019602482015278496e73756666696369656e7420706c6174666f726d2066656560381b604482015260640161048a565b600580545f918261162183612559565b909155506040805161012081018252828152336020820152919250810189600581111561165057611650611da1565b815260208082018a905260408083018a90526060830189905242608084015260a0830188905286151560c0909301929092525f8481526002825282902083518155908301516001820180546001600160a01b039092166001600160a01b031983168117825593850151929390916001600160a81b03191617600160a01b8360058111156116df576116df611da1565b0217905550606082015160028201906116f8908261247d565b506080820151600382019061170d908261247d565b5060a08201516004820190611722908261247d565b5060c0820151600582015560e08201516006820155610100909101516007909101805460ff1916911515919091179055604051339082907fd9c8229c0383762504f423ef622472d971021156b676812e0d60af3ecd4268db90611786908c9061257d565b60405180910390a3905061115560015f51602061330a5f395f51905f5255565b6117ae611cc2565b6001600160a01b038084165f9081526001602081815260408084208151610140810190925280549095168152918401805493949293918401916117f0906123b4565b80601f016020809104026020016040519081016040528092919081815260200182805461181c906123b4565b80156118675780601f1061183e57610100808354040283529160200191611867565b820191905f5260205f20905b81548152906001019060200180831161184a57829003601f168201915b50505050508152602001600282018054611880906123b4565b80601f01602080910402602001604051908101604052809291908181526020018280546118ac906123b4565b80156118f75780601f106118ce576101008083540402835291602001916118f7565b820191905f5260205f20905b8154815290600101906020018083116118da57829003601f168201915b50505091835250506003820154602082015260048201546001600160a01b0381166040830152606090910190600160a01b900460ff16600581111561193e5761193e611da1565b600581111561194f5761194f611da1565b81526020016005820154815260200160068201548152602001600782018054611977906123b4565b80601f01602080910402602001604051908101604052809291908181526020018280546119a3906123b4565b80156119ee5780601f106119c5576101008083540402835291602001916119ee565b820191905f5260205f20905b8154815290600101906020018083116119d157829003601f168201915b50505091835250506008919091015460ff161515602090910152610120810151909150611a505760405162461bcd60e51b815260206004820152601060248201526f546f6b656e206e6f742061637469766560801b604482015260640161048a565b428160e0015111611a935760405162461bcd60e51b815260206004820152600d60248201526c151bdad95b88195e1c1a5c9959609a1b604482015260640161048a565b6040516323b872dd60e01b81523360048201526001600160a01b038481166024830152604482018490528516906323b872dd906064016020604051808303815f875af1158015611ae5573d5f5f3e3d5ffd5b505050506040513d601f19601f82011682018060405250810190611b09919061258b565b50826001600160a01b0316336001600160a01b0316856001600160a01b03167f9af266b6ca4909f988dc948fb50ad15153abbe525351881bad4fa858be96515c85604051611b5991815260200190565b60405180910390a450611b7860015f51602061330a5f395f51905f5255565b505050565b5f83815260026020526040902060018101546001600160a01b03163314611bd85760405162461bcd60e51b815260206004820152600f60248201526e2737ba1027232a1031b932b0ba37b960891b604482015260640161048a565b505f9283526003602090815260408085206001600160a01b039490941685529290529120805460ff1916911515919091179055565b611c15611c47565b6001600160a01b038116611c3e57604051631e4fbdf760e01b81525f600482015260240161048a565b6108f581611c73565b5f546001600160a01b031633146109945760405163118cdaa760e01b815233600482015260240161048a565b5f80546001600160a01b038381166001600160a01b0319831681178455604051919092169283917f8be0079c531659141344cd1fd0a4f28419497f9722a3daafe3b4186f6b6457e09190a35050565b611cca611cdd565b60025f51602061330a5f395f51905f5255565b5f51602061330a5f395f51905f525460020361099457604051633ee5aeb560e01b815260040160405180910390fd5b6040518061014001604052805f6001600160a01b0316815260200160608152602001606081526020015f81526020015f6001600160a01b031681526020015f6005811115611d5c57611d5c611da1565b81526020015f81526020015f8152602001606081526020015f151581525090565b610d63806125a783390190565b5f60208284031215611d9a575f5ffd5b5035919050565b634e487b7160e01b5f52602160045260245ffd5b60068110611dd157634e487b7160e01b5f52602160045260245ffd5b9052565b5f81518084528060208401602086015e5f602082860101526020601f19601f83011685010191505092915050565b8981526001600160a01b0389166020820152611e226040820189611db5565b61012060608201525f611e39610120830189611dd5565b8281036080840152611e4b8189611dd5565b905082810360a0840152611e5f8188611dd5565b60c0840196909652505060e08101929092521515610100909101529695505050505050565b80356001600160a01b0381168114611e9a575f5ffd5b919050565b5f60208284031215611eaf575f5ffd5b611eb882611e84565b9392505050565b6001600160a01b038b168152610140602082018190525f90611ee39083018c611dd5565b8281036040840152611ef5818c611dd5565b606084018b90526001600160a01b038a1660808501529050611f1a60a0840189611db5565b8660c08401528560e0840152828103610100840152611f398186611dd5565b9150508215156101208301529b9a5050505050505050505050565b5f5f60408385031215611f65575f5ffd5b82359150611f7560208401611e84565b90509250929050565b602080825282518282018190525f918401906040840190835b81811015611fbe5783516001600160a01b0316835260209384019390920191600101611f97565b509095945050505050565b6001600160a01b0386168152611fe26020820186611db5565b60a060408201525f611ff760a0830186611dd5565b6060830194909452509015156080909101529392505050565b6020815261202a6020820183516001600160a01b03169052565b5f60208301516101406040840152612046610160840182611dd5565b90506040840151601f198483030160608501526120638282611dd5565b91505060608401516080840152608084015161208a60a08501826001600160a01b03169052565b5060a084015161209d60c0850182611db5565b5060c084015160e084015260e0840151610100840152610100840151601f19848303016101208501526120d08282611dd5565b9150506101208401516120e861014085018215159052565b509392505050565b634e487b7160e01b5f52604160045260245ffd5b5f82601f830112612113575f5ffd5b813567ffffffffffffffff81111561212d5761212d6120f0565b604051601f8201601f19908116603f0116810167ffffffffffffffff8111828210171561215c5761215c6120f0565b604052818152838201602001851015612173575f5ffd5b816020850160208301375f918101602001919091529392505050565b803560068110611e9a575f5ffd5b5f5f5f5f5f5f60c087890312156121b2575f5ffd5b863567ffffffffffffffff8111156121c8575f5ffd5b6121d489828a01612104565b965050602087013567ffffffffffffffff8111156121f0575f5ffd5b6121fc89828a01612104565b955050604087013593506122126060880161218f565b92506080870135915060a087013567ffffffffffffffff811115612234575f5ffd5b61224089828a01612104565b9150509295509295509295565b5f5f6040838503121561225e575f5ffd5b61226783611e84565b946020939093013593505050565b80151581146108f5575f5ffd5b5f5f5f5f5f5f60c08789031215612297575f5ffd5b6122a08761218f565b9550602087013567ffffffffffffffff8111156122bb575f5ffd5b6122c789828a01612104565b955050604087013567ffffffffffffffff8111156122e3575f5ffd5b6122ef89828a01612104565b945050606087013567ffffffffffffffff81111561230b575f5ffd5b61231789828a01612104565b9350506080870135915060a087013561232f81612275565b809150509295509295509295565b5f5f5f6060848603121561234f575f5ffd5b61235884611e84565b925061236660208501611e84565b929592945050506040919091013590565b5f5f5f60608486031215612389575f5ffd5b8335925061239960208501611e84565b915060408401356123a981612275565b809150509250925092565b600181811c908216806123c857607f821691505b6020821081036123e657634e487b7160e01b5f52602260045260245ffd5b50919050565b608081525f6123fe6080830187611dd5565b82810360208401526124108187611dd5565b604084019590955250506001600160a01b039190911660609091015292915050565b601f821115611b7857805f5260205f20601f840160051c810160208510156124575750805b601f840160051c820191505b81811015612476575f8155600101612463565b5050505050565b815167ffffffffffffffff811115612497576124976120f0565b6124ab816124a584546123b4565b84612432565b6020601f8211600181146124dd575f83156124c65750848201515b5f19600385901b1c1916600184901b178455612476565b5f84815260208120601f198516915b8281101561250c57878501518255602094850194600190920191016124ec565b508482101561252957868401515f19600387901b60f8161c191681555b50505050600190811b01905550565b604081525f61254a6040830185611dd5565b9050611eb86020830184611db5565b5f6001820161257657634e487b7160e01b5f52601160045260245ffd5b5060010190565b602081016108b08284611db5565b5f6020828403121561259b575f5ffd5b8151611eb88161227556fe608060405234801561000f575f5ffd5b50604051610d63380380610d6383398101604081905261002e916102e4565b808484600361003d83826103f5565b50600461004a82826103f5565b5050506001600160a01b03811661007b57604051631e4fbdf760e01b81525f60048201526024015b60405180910390fd5b61008481610098565b5061008f81836100e9565b505050506104d4565b600580546001600160a01b038381166001600160a01b0319831681179093556040519116919082907f8be0079c531659141344cd1fd0a4f28419497f9722a3daafe3b4186f6b6457e0905f90a35050565b6001600160a01b0382166101125760405163ec442f0560e01b81525f6004820152602401610072565b61011d5f8383610121565b5050565b6001600160a01b03831661014b578060025f82825461014091906104af565b909155506101bb9050565b6001600160a01b0383165f908152602081905260409020548181101561019d5760405163391434e360e21b81526001600160a01b03851660048201526024810182905260448101839052606401610072565b6001600160a01b0384165f9081526020819052604090209082900390555b6001600160a01b0382166101d7576002805482900390556101f5565b6001600160a01b0382165f9081526020819052604090208054820190555b816001600160a01b0316836001600160a01b03167fddf252ad1be2c89b69c2b068fc378daa952ba7f163c4a11628f55a4df523b3ef8360405161023a91815260200190565b60405180910390a3505050565b634e487b7160e01b5f52604160045260245ffd5b5f82601f83011261026a575f5ffd5b81516001600160401b0381111561028357610283610247565b604051601f8201601f19908116603f011681016001600160401b03811182821017156102b1576102b1610247565b6040528181528382016020018510156102c8575f5ffd5b8160208501602083015e5f918101602001919091529392505050565b5f5f5f5f608085870312156102f7575f5ffd5b84516001600160401b0381111561030c575f5ffd5b6103188782880161025b565b602087015190955090506001600160401b03811115610335575f5ffd5b6103418782880161025b565b60408701516060880151919550935090506001600160a01b0381168114610366575f5ffd5b939692955090935050565b600181811c9082168061038557607f821691505b6020821081036103a357634e487b7160e01b5f52602260045260245ffd5b50919050565b601f8211156103f057805f5260205f20601f840160051c810160208510156103ce5750805b601f840160051c820191505b818110156103ed575f81556001016103da565b50505b505050565b81516001600160401b0381111561040e5761040e610247565b6104228161041c8454610371565b846103a9565b6020601f821160018114610454575f831561043d5750848201515b5f19600385901b1c1916600184901b1784556103ed565b5f84815260208120601f198516915b828110156104835787850151825560209485019460019092019101610463565b50848210156104a057868401515f19600387901b60f8161c191681555b50505050600190811b01905550565b808201808211156104ce57634e487b7160e01b5f52601160045260245ffd5b92915050565b610882806104e15f395ff3fe608060405234801561000f575f5ffd5b50600436106100cb575f3560e01c8063715018a61161008857806395d89b411161006357806395d89b41146101a4578063a9059cbb146101ac578063dd62ed3e146101bf578063f2fde38b146101f7575f5ffd5b8063715018a61461016c57806379cc6790146101765780638da5cb5b14610189575f5ffd5b806306fdde03146100cf578063095ea7b3146100ed57806318160ddd1461011057806323b872dd14610122578063313ce5671461013557806370a0823114610144575b5f5ffd5b6100d761020a565b6040516100e491906106f2565b60405180910390f35b6101006100fb366004610742565b61029a565b60405190151581526020016100e4565b6002545b6040519081526020016100e4565b61010061013036600461076a565b6102b3565b604051601281526020016100e4565b6101146101523660046107a4565b6001600160a01b03165f9081526020819052604090205490565b6101746102d6565b005b610174610184366004610742565b6102e9565b6005546040516001600160a01b0390911681526020016100e4565b6100d76102ff565b6101006101ba366004610742565b61030e565b6101146101cd3660046107c4565b6001600160a01b039182165f90815260016020908152604080832093909416825291909152205490565b6101746102053660046107a4565b61031b565b606060038054610219906107f5565b80601f0160208091040260200160405190810160405280929190818152602001828054610245906107f5565b80156102905780601f1061026757610100808354040283529160200191610290565b820191905f5260205f20905b81548152906001019060200180831161027357829003601f168201915b5050505050905090565b5f336102a781858561035d565b60019150505b92915050565b5f336102c085828561036f565b6102cb8585856103eb565b506001949350505050565b6102de610448565b6102e75f610475565b565b6102f1610448565b6102fb82826104c6565b5050565b606060048054610219906107f5565b5f336102a78185856103eb565b610323610448565b6001600160a01b03811661035157604051631e4fbdf760e01b81525f60048201526024015b60405180910390fd5b61035a81610475565b50565b61036a83838360016104fa565b505050565b6001600160a01b038381165f908152600160209081526040808320938616835292905220545f198110156103e557818110156103d757604051637dc7a0d960e11b81526001600160a01b03841660048201526024810182905260448101839052606401610348565b6103e584848484035f6104fa565b50505050565b6001600160a01b03831661041457604051634b637e8f60e11b81525f6004820152602401610348565b6001600160a01b03821661043d5760405163ec442f0560e01b81525f6004820152602401610348565b61036a8383836105cc565b6005546001600160a01b031633146102e75760405163118cdaa760e01b8152336004820152602401610348565b600580546001600160a01b038381166001600160a01b0319831681179093556040519116919082907f8be0079c531659141344cd1fd0a4f28419497f9722a3daafe3b4186f6b6457e0905f90a35050565b6001600160a01b0382166104ef57604051634b637e8f60e11b81525f6004820152602401610348565b6102fb825f836105cc565b6001600160a01b0384166105235760405163e602df0560e01b81525f6004820152602401610348565b6001600160a01b03831661054c57604051634a1406b160e11b81525f6004820152602401610348565b6001600160a01b038085165f90815260016020908152604080832093871683529290522082905580156103e557826001600160a01b0316846001600160a01b03167f8c5be1e5ebec7d5bd14f71427d1e84f3dd0314c0f7b2291e5b200ac8c7c3b925846040516105be91815260200190565b60405180910390a350505050565b6001600160a01b0383166105f6578060025f8282546105eb919061082d565b909155506106669050565b6001600160a01b0383165f90815260208190526040902054818110156106485760405163391434e360e21b81526001600160a01b03851660048201526024810182905260448101839052606401610348565b6001600160a01b0384165f9081526020819052604090209082900390555b6001600160a01b038216610682576002805482900390556106a0565b6001600160a01b0382165f9081526020819052604090208054820190555b816001600160a01b0316836001600160a01b03167fddf252ad1be2c89b69c2b068fc378daa952ba7f163c4a11628f55a4df523b3ef836040516106e591815260200190565b60405180910390a3505050565b602081525f82518060208401528060208501604085015e5f604082850101526040601f19601f83011684010191505092915050565b80356001600160a01b038116811461073d575f5ffd5b919050565b5f5f60408385031215610753575f5ffd5b61075c83610727565b946020939093013593505050565b5f5f5f6060848603121561077c575f5ffd5b61078584610727565b925061079360208501610727565b929592945050506040919091013590565b5f602082840312156107b4575f5ffd5b6107bd82610727565b9392505050565b5f5f604083850312156107d5575f5ffd5b6107de83610727565b91506107ec60208401610727565b90509250929050565b600181811c9082168061080957607f821691505b60208210810361082757634e487b7160e01b5f52602260045260245ffd5b50919050565b808201808211156102ad57634e487b7160e01b5f52601160045260245ffdfea26469706673582212204fd7bcf58ddd243945e922d069a68699f985960782a1663ede1afb8ffaa3f53d64736f6c634300081c00339b779b17422d0df92223018b32b4d1fa46e071723d6817e2486d003becc55f00a2646970667358221220a6e14812c67e8fd65313773ac12b7abf75caeb7040205bc2ff78351e84c21ff764736f6c634300081c0033",
  "linkReferences": {},
  "deployedLinkReferences": {},
  "immutableReferences": {},
  "inputSourceName": "project/contracts/SentinelSecurityTokenization.sol",
  "buildInfoId": "solc-0_8_28-1b5c21a21cac4f08cf2c8993926ccb888320140e"
}