{
  "_format": "hh3-artifact-1",
  "contractName": "SentinelENSManager",
  "sourceName": "contracts/SentinelENSManager.sol",
  "abi": [
    {
      "inputs": [],
      "stateMutability": "nonpayable",
      "type": "constructor"
    },
    {
      "anonymous": false,
      "inputs": [
        {
          "indexed": true,
          "internalType": "address",
          "name": "contractAddr",
          "type": "address"
        },
        {
          "indexed": true,
          "internalType": "bytes32",
          "name": "node",
          "type": "bytes32"
        },
        {
          "indexed": false,
          "internalType": "string",
          "name": "name",
          "type": "string"
        }
      ],
      "name": "ContractRegistered",
      "type": "event"
    },
    {
      "anonymous": false,
      "inputs": [
        {
          "indexed": true,
          "internalType": "bytes32",
          "name": "node",
          "type": "bytes32"
        },
        {
          "indexed": true,
          "internalType": "address",
          "name": "owner",
          "type": "address"
        },
        {
          "indexed": false,
          "internalType": "string",
          "name": "name",
          "type": "string"
        }
      ],
      "name": "ENSNameRegistered",
      "type": "event"
    },
    {
      "inputs": [
        {
          "internalType": "bytes32",
          "name": "",
          "type": "bytes32"
        }
      ],
      "name": "contractNodes",
      "outputs": [
        {
          "internalType": "address",
          "name": "",
          "type": "address"
        }
      ],
      "stateMutability": "view",
      "type": "function"
    },
    {
      "inputs": [
        {
          "internalType": "address",
          "name": "",
          "type": "address"
        }
      ],
      "name": "contractToNode",
      "outputs": [
        {
          "internalType": "bytes32",
          "name": "",
          "type": "bytes32"
        }
      ],
      "stateMutability": "view",
      "type": "function"
    },
    {
      "inputs": [
        {
          "internalType": "address",
          "name": "",
          "type": "address"
        }
      ],
      "name": "getContractENS",
      "outputs": [
        {
          "internalType": "string",
          "name": "",
          "type": "string"
        }
      ],
      "stateMutability": "pure",
      "type": "function"
    },
    {
      "inputs": [
        {
          "internalType": "address",
          "name": "",
          "type": "address"
        },
        {
          "internalType": "string",
          "name": "",
          "type": "string"
        },
        {
          "internalType": "address",
          "name": "",
          "type": "address"
        }
      ],
      "name": "registerContract",
      "outputs": [
        {
          "internalType": "bool",
          "name": "",
          "type": "bool"
        },
        {
          "internalType": "string",
          "name": "",
          "type": "string"
        }
      ],
      "stateMutability": "pure",
      "type": "function"
    },
    {
      "inputs": [
        {
          "internalType": "string",
          "name": "",
          "type": "string"
        }
      ],
      "name": "resolveContract",
      "outputs": [
        {
          "internalType": "address",
          "name": "",
          "type": "address"
        }
      ],
      "stateMutability": "pure",
      "type": "function"
    },
    {
      "inputs": [
        {
          "internalType": "bytes32",
          "name": "",
          "type": "bytes32"
        },
        {
          "internalType": "address",
          "name": "",
          "type": "address"
        }
      ],
      "name": "updateContractAddress",
      "outputs": [],
      "stateMutability": "pure",
      "type": "function"
    }
  ],
  "bytecode": "0x6080604052348015600e575f5ffd5b506103a98061001c5f395ff3fe608060405234801561000f575f5ffd5b5060043610610060575f3560e01c8063232cdee614610064578063769150961461009657806378785b28146100c357806382a8e6f2146100f0578063a15050a014610111578063d6c3b8b114610125575b5f5ffd5b6100796100723660046101bc565b5f92915050565b6040516001600160a01b0390911681526020015b60405180910390f35b6100b56100a4366004610216565b60016020525f908152604090205481565b60405190815260200161008d565b6100e36100d1366004610216565b5060408051602081019091525f815290565b60405161008d9190610264565b6101036100fe366004610276565b61014d565b60405161008d9291906102d7565b61012361011f3660046102f9565b5050565b005b610079610133366004610323565b5f602081905290815260409020546001600160a01b031681565b5f60605f60405180606001604052806039815260200161033b603991399150915094509492505050565b5f5f83601f840112610187575f5ffd5b50813567ffffffffffffffff81111561019e575f5ffd5b6020830191508360208285010111156101b5575f5ffd5b9250929050565b5f5f602083850312156101cd575f5ffd5b823567ffffffffffffffff8111156101e3575f5ffd5b6101ef85828601610177565b90969095509350505050565b80356001600160a01b0381168114610211575f5ffd5b919050565b5f60208284031215610226575f5ffd5b61022f826101fb565b9392505050565b5f81518084528060208401602086015e5f602082860101526020601f19601f83011685010191505092915050565b602081525f61022f6020830184610236565b5f5f5f5f60608587031215610289575f5ffd5b610292856101fb565b9350602085013567ffffffffffffffff8111156102ad575f5ffd5b6102b987828801610177565b90945092506102cc9050604086016101fb565b905092959194509250565b8215158152604060208201525f6102f16040830184610236565b949350505050565b5f5f6040838503121561030a575f5ffd5b8235915061031a602084016101fb565b90509250929050565b5f60208284031215610333575f5ffd5b503591905056fe454e5320696e746567726174696f6e2064697361626c6564202d2076756c6e65726162696c69747920696e20454e5320636f6e747261637473a2646970667358221220a125226b0d447cea2bae3aca7582a63e7aa49cdb89ac8d6abfd242d3778fc46064736f6c634300081c0033",
  "linkReferences": {},
  "deployedLinkReferences": {},
  "immutableReferences": {},
  "inputSourceName": "project/contracts/SentinelENSManager.sol",
  "buildInfoId": "solc-0_8_28-56b4d38520a07143560cd43eeb820c3102363d0a"
}