{
  "_format": "hh3-artifact-1",
  "contractName": "SentinelAMM",
  "sourceName": "contracts/SentinelAMM.sol",
  "abi": [
    {
      "inputs": [
        {
          "internalType": "address",
          "name": "initialOwner",
          "type": "address"
        }
      ],
      "stateMutability": "nonpayable",
      "type": "constructor"
    },
    {
      "inputs": [
        {
          "internalType": "address",
          "name": "owner",
          "type": "address"
        }
      ],
      "name": "OwnableInvalidOwner",
      "type": "error"
    },
    {
      "inputs": [
        {
          "internalType": "address",
          "name": "account",
          "type": "address"
        }
      ],
      "name": "OwnableUnauthorizedAccount",
      "type": "error"
    },
    {
      "inputs": [],
      "name": "ReentrancyGuardReentrantCall",
      "type": "error"
    },
    {
      "anonymous": false,
      "inputs": [
        {
          "indexed": true,
          "internalType": "uint256",
          "name": "poolId",
          "type": "uint256"
        },
        {
          "indexed": true,
          "internalType": "address",
          "name": "provider",
          "type": "address"
        },
        {
          "indexed": false,
          "internalType": "uint256",
          "name": "protectionAmount",
          "type": "uint256"
        }
      ],
      "name": "ImpermanentLossProtected",
      "type": "event"
    },
    {
      "anonymous": false,
      "inputs": [
        {
          "indexed": true,
          "internalType": "uint256",
          "name": "poolId",
          "type": "uint256"
        },
        {
          "indexed": true,
          "internalType": "address",
          "name": "provider",
          "type": "address"
        },
        {
          "indexed": false,
          "internalType": "uint256",
          "name": "amount0",
          "type": "uint256"
        },
        {
          "indexed": false,
          "internalType": "uint256",
          "name": "amount1",
          "type": "uint256"
        },
        {
          "indexed": false,
          "internalType": "uint256",
          "name": "liquidity",
          "type": "uint256"
        }
      ],
      "name": "LiquidityAdded",
      "type": "event"
    },
    {
      "anonymous": false,
      "inputs": [
        {
          "indexed": true,
          "internalType": "uint256",
          "name": "poolId",
          "type": "uint256"
        },
        {
          "indexed": true,
          "internalType": "address",
          "name": "provider",
          "type": "address"
        },
        {
          "indexed": false,
          "internalType": "uint256",
          "name": "amount0",
          "type": "uint256"
        },
        {
          "indexed": false,
          "internalType": "uint256",
          "name": "amount1",
          "type": "uint256"
        },
        {
          "indexed": false,
          "internalType": "uint256",
          "name": "liquidity",
          "type": "uint256"
        }
      ],
      "name": "LiquidityRemoved",
      "type": "event"
    },
    {
      "anonymous": false,
      "inputs": [
        {
          "indexed": true,
          "internalType": "address",
          "name": "previousOwner",
          "type": "address"
        },
        {
          "indexed": true,
          "internalType": "address",
          "name": "newOwner",
          "type": "address"
        }
      ],
      "name": "OwnershipTransferred",
      "type": "event"
    },
    {
      "anonymous": false,
      "inputs": [
        {
          "indexed": true,
          "internalType": "uint256",
          "name": "poolId",
          "type": "uint256"
        },
        {
          "indexed": false,
          "internalType": "address",
          "name": "token0",
          "type": "address"
        },
        {
          "indexed": false,
          "internalType": "address",
          "name": "token1",
          "type": "address"
        },
        {
          "indexed": false,
          "internalType": "uint256",
          "name": "feeTier",
          "type": "uint256"
        }
      ],
      "name": "PoolCreated",
      "type": "event"
    },
    {
      "anonymous": false,
      "inputs": [
        {
          "indexed": true,
          "internalType": "uint256",
          "name": "poolId",
          "type": "uint256"
        },
        {
          "indexed": false,
          "internalType": "uint256",
          "name": "newRatio",
          "type": "uint256"
        },
        {
          "indexed": false,
          "internalType": "string",
          "name": "reason",
          "type": "string"
        }
      ],
      "name": "PoolRebalanced",
      "type": "event"
    },
    {
      "anonymous": false,
      "inputs": [
        {
          "indexed": true,
          "internalType": "uint256",
          "name": "poolId",
          "type": "uint256"
        },
        {
          "indexed": true,
          "internalType": "address",
          "name": "trader",
          "type": "address"
        },
        {
          "indexed": false,
          "internalType": "address",
          "name": "tokenIn",
          "type": "address"
        },
        {
          "indexed": false,
          "internalType": "address",
          "name": "tokenOut",
          "type": "address"
        },
        {
          "indexed": false,
          "internalType": "uint256",
          "name": "amountIn",
          "type": "uint256"
        },
        {
          "indexed": false,
          "internalType": "uint256",
          "name": "amountOut",
          "type": "uint256"
        }
      ],
      "name": "SwapExecuted",
      "type": "event"
    },
    {
      "inputs": [],
      "name": "IMPERMANENT_LOSS_THRESHOLD",
      "outputs": [
        {
          "internalType": "uint256",
          "name": "",
          "type": "uint256"
        }
      ],
      "stateMutability": "view",
      "type": "function"
    },
    {
      "inputs": [],
      "name": "MAX_VOLATILITY_INDEX",
      "outputs": [
        {
          "internalType": "uint256",
          "name": "",
          "type": "uint256"
        }
      ],
      "stateMutability": "view",
      "type": "function"
    },
    {
      "inputs": [],
      "name": "REBALANCE_COOLDOWN",
      "outputs": [
        {
          "internalType": "uint256",
          "name": "",
          "type": "uint256"
        }
      ],
      "stateMutability": "view",
      "type": "function"
    },
    {
      "inputs": [
        {
          "internalType": "uint256",
          "name": "poolId",
          "type": "uint256"
        },
        {
          "internalType": "uint256",
          "name": "amount0",
          "type": "uint256"
        },
        {
          "internalType": "uint256",
          "name": "amount1",
          "type": "uint256"
        },
        {
          "internalType": "uint256",
          "name": "minPrice",
          "type": "uint256"
        },
        {
          "internalType": "uint256",
          "name": "maxPrice",
          "type": "uint256"
        },
        {
          "internalType": "bool",
          "name": "autoRebalance",
          "type": "bool"
        }
      ],
      "name": "addQuantumLiquidity",
      "outputs": [],
      "stateMutability": "nonpayable",
      "type": "function"
    },
    {
      "inputs": [
        {
          "internalType": "address",
          "name": "user",
          "type": "address"
        },
        {
          "internalType": "uint256",
          "name": "positionIndex",
          "type": "uint256"
        }
      ],
      "name": "claimImpermanentLossProtection",
      "outputs": [],
      "stateMutability": "nonpayable",
      "type": "function"
    },
    {
      "inputs": [
        {
          "internalType": "uint256",
          "name": "poolId",
          "type": "uint256"
        },
        {
          "internalType": "address",
          "name": "tokenIn",
          "type": "address"
        },
        {
          "internalType": "uint256",
          "name": "amountIn",
          "type": "uint256"
        },
        {
          "internalType": "uint256",
          "name": "minAmountOut",
          "type": "uint256"
        }
      ],
      "name": "executeQuantumSwap",
      "outputs": [
        {
          "internalType": "uint256",
          "name": "amountOut",
          "type": "uint256"
        }
      ],
      "stateMutability": "nonpayable",
      "type": "function"
    },
    {
      "inputs": [
        {
          "internalType": "uint256",
          "name": "",
          "type": "uint256"
        }
      ],
      "name": "feeTiers",
      "outputs": [
        {
          "internalType": "uint256",
          "name": "",
          "type": "uint256"
        }
      ],
      "stateMutability": "view",
      "type": "function"
    },
    {
      "inputs": [
        {
          "internalType": "uint256",
          "name": "poolId",
          "type": "uint256"
        }
      ],
      "name": "getQuantumPoolStats",
      "outputs": [
        {
          "internalType": "uint256",
          "name": "reserve0",
          "type": "uint256"
        },
        {
          "internalType": "uint256",
          "name": "reserve1",
          "type": "uint256"
        },
        {
          "internalType": "uint256",
          "name": "liquidity",
          "type": "uint256"
        },
        {
          "internalType": "uint256",
          "name": "feeTier",
          "type": "uint256"
        },
        {
          "internalType": "uint256",
          "name": "volatility",
          "type": "uint256"
        },
        {
          "internalType": "uint256",
          "name": "predictedAPY",
          "type": "uint256"
        },
        {
          "internalType": "uint256",
          "name": "impermanentLossRisk",
          "type": "uint256"
        }
      ],
      "stateMutability": "view",
      "type": "function"
    },
    {
      "inputs": [],
      "name": "owner",
      "outputs": [
        {
          "internalType": "address",
          "name": "",
          "type": "address"
        }
      ],
      "stateMutability": "view",
      "type": "function"
    },
    {
      "inputs": [],
      "name": "poolCount",
      "outputs": [
        {
          "internalType": "uint256",
          "name": "",
          "type": "uint256"
        }
      ],
      "stateMutability": "view",
      "type": "function"
    },
    {
      "inputs": [
        {
          "internalType": "uint256",
          "name": "",
          "type": "uint256"
        }
      ],
      "name": "pools",
      "outputs": [
        {
          "internalType": "address",
          "name": "token0",
          "type": "address"
        },
        {
          "internalType": "address",
          "name": "token1",
          "type": "address"
        },
        {
          "internalType": "uint256",
          "name": "reserve0",
          "type": "uint256"
        },
        {
          "internalType": "uint256",
          "name": "reserve1",
          "type": "uint256"
        },
        {
          "internalType": "uint256",
          "name": "totalLiquidity",
          "type": "uint256"
        },
        {
          "internalType": "uint256",
          "name": "feeTier",
          "type": "uint256"
        },
        {
          "internalType": "uint256",
          "name": "volatilityIndex",
          "type": "uint256"
        },
        {
          "internalType": "uint256",
          "name": "impermanentLossProtection",
          "type": "uint256"
        },
        {
          "internalType": "uint256",
          "name": "lastRebalance",
          "type": "uint256"
        },
        {
          "internalType": "bool",
          "name": "isActive",
          "type": "bool"
        }
      ],
      "stateMutability": "view",
      "type": "function"
    },
    {
      "inputs": [
        {
          "internalType": "uint256",
          "name": "poolId",
          "type": "uint256"
        }
      ],
      "name": "rebalanceQuantumPool",
      "outputs": [],
      "stateMutability": "nonpayable",
      "type": "function"
    },
    {
      "inputs": [
        {
          "internalType": "uint256",
          "name": "",
          "type": "uint256"
        }
      ],
      "name": "rebalanceStrategies",
      "outputs": [
        {
          "internalType": "uint256",
          "name": "targetRatio",
          "type": "uint256"
        },
        {
          "internalType": "uint256",
          "name": "rebalanceThreshold",
          "type": "uint256"
        },
        {
          "internalType": "uint256",
          "name": "maxSlippage",
          "type": "uint256"
        },
        {
          "internalType": "uint256",
          "name": "cooldownPeriod",
          "type": "uint256"
        },
        {
          "internalType": "bool",
          "name": "impermanentLossProtection",
          "type": "bool"
        },
        {
          "internalType": "uint256",
          "name": "volatilityAdjustment",
          "type": "uint256"
        }
      ],
      "stateMutability": "view",
      "type": "function"
    },
    {
      "inputs": [],
      "name": "renounceOwnership",
      "outputs": [],
      "stateMutability": "nonpayable",
      "type": "function"
    },
    {
      "inputs": [],
      "name": "totalFeesCollected",
      "outputs": [
        {
          "internalType": "uint256",
          "name": "",
          "type": "uint256"
        }
      ],
      "stateMutability": "view",
      "type": "function"
    },
    {
      "inputs": [],
      "name": "totalValueLocked",
      "outputs": [
        {
          "internalType": "uint256",
          "name": "",
          "type": "uint256"
        }
      ],
      "stateMutability": "view",
      "type": "function"
    },
    {
      "inputs": [
        {
          "internalType": "address",
          "name": "newOwner",
          "type": "address"
        }
      ],
      "name": "transferOwnership",
      "outputs": [],
      "stateMutability": "nonpayable",
      "type": "function"
    },
    {
      "inputs": [
        {
          "internalType": "address",
          "name": "",
          "type": "address"
        },
        {
          "internalType": "uint256",
          "name": "",
          "type": "uint256"
        }
      ],
      "name": "userPositions",
      "outputs": [
        {
          "internalType": "uint256",
          "name": "poolId",
          "type": "uint256"
        },
        {
          "internalType": "uint256",
          "name": "liquidityAmount",
          "type": "uint256"
        },
        {
          "internalType": "uint256",
          "name": "token0Amount",
          "type": "uint256"
        },
        {
          "internalType": "uint256",
          "name": "token1Amount",
          "type": "uint256"
        },
        {
          "internalType": "uint256",
          "name": "entryTime",
          "type": "uint256"
        },
        {
          "internalType": "uint256",
          "name": "lastRebalance",
          "type": "uint256"
        },
        {
          "internalType": "uint256",
          "name": "performanceScore",
          "type": "uint256"
        },
        {
          "internalType": "bool",
          "name": "autoRebalance",
          "type": "bool"
        },
        {
          "internalType": "uint256",
          "name": "minPrice",
          "type": "uint256"
        },
        {
          "internalType": "uint256",
          "name": "maxPrice",
          "type": "uint256"
        }
      ],
      "stateMutability": "view",
      "type": "function"
    }
  ],
  "bytecode": "0x61010060405260016080908152600560a052601e60c052606460e0526100299060079060046103ce565b50348015610035575f5ffd5b50604051611ddc380380611ddc83398101604081905261005491610430565b8060017f9b779b17422d0df92223018b32b4d1fa46e071723d6817e2486d003becc55f00556001600160a01b0381166100a757604051631e4fbdf760e01b81525f60048201526024015b60405180910390fd5b6100b08161011a565b506001600160a01b0381166100f75760405162461bcd60e51b815260206004820152600d60248201526c24b73b30b634b21037bbb732b960991b604482015260640161009e565b6101046001600281610169565b50610113600360046002610169565b5050610495565b5f80546001600160a01b038381166001600160a01b0319831681178455604051919092169283917f8be0079c531659141344cd1fd0a4f28419497f9722a3daafe3b4186f6b6457e09190a35050565b5f826001600160a01b0316846001600160a01b0316036101b95760405162461bcd60e51b815260206004820152600b60248201526a53616d6520746f6b656e7360a81b604482015260640161009e565b5f600783815481106101cd576101cd61045d565b905f5260205f200154116102165760405162461bcd60e51b815260206004820152601060248201526f24b73b30b634b2103332b2903a34b2b960811b604482015260640161009e565b600480545f918261022683610471565b909155505f818152600160208190526040822080546001600160a01b03808b166001600160a01b03199283161783559282018054938a1693909116929092179091556002810182905560038101829055600401556007805491925090849081106102925761029261045d565b5f91825260208083209091015483835260018083526040808520600580820194909455600a6006820155606460078083018290554260088401556009909201805460ff199081168617909155835160c08101855261138881526101f4818901908152818601938452610e106060830190815260808301888152603260a085019081528d8d5260039b8c905297909b2092518355905196820196909655915160028301559351958101959095559451600485018054911515919093161790915551910155805482917ff756876565d755443228c555dcee8573d6405d9be751ac121eb5e386ed86913a91889188918890811061038f5761038f61045d565b5f9182526020918290200154604080516001600160a01b03958616815294909316918401919091529082015260600160405180910390a2949350505050565b828054828255905f5260205f2090810192821561040c579160200282015b8281111561040c578251829060ff169055916020019190600101906103ec565b5061041892915061041c565b5090565b5b80821115610418575f815560010161041d565b5f60208284031215610440575f5ffd5b81516001600160a01b0381168114610456575f5ffd5b9392505050565b634e487b7160e01b5f52603260045260245ffd5b5f6001820161048e57634e487b7160e01b5f52601160045260245ffd5b5060010190565b61193a806104a25f395ff3fe608060405234801561000f575f5ffd5b5060043610610111575f3560e01c8063a37aa3c31161009e578063bd7cf7c51161006e578063bd7cf7c51461038d578063e33c733f146103a0578063ec18154e146103b3578063f2fde38b146103bc578063f525cb68146103cf575f5ffd5b8063a37aa3c3146101fe578063a59e5fcd14610275578063ac4afa38146102bd578063acf038e514610384575f5ffd5b80635e1b4d99116100e45780635e1b4d991461016b57806360c6d8ae146101ca578063715018a6146101d35780638da5cb5b146101db5780638faee2a8146101f5575f5ffd5b806318d7baed14610115578063230ed44a146101305780633e4e9d8b146101435780634721d93e14610156575b5f5ffd5b61011d606481565b6040519081526020015b60405180910390f35b61011d61013e366004611702565b6103d8565b61011d610151366004611734565b6103f7565b610169610164366004611779565b610881565b005b61017e6101793660046117ca565b610d94565b604080519a8b5260208b0199909952978901969096526060880194909452608087019290925260a086015260c0850152151560e084015261010083015261012082015261014001610127565b61011d60065481565b610169610e04565b5f546040516001600160a01b039091168152602001610127565b61011d610e1081565b61024661020c366004611702565b600360208190525f9182526040909120805460018201546002830154938301546004840154600590940154929491939192909160ff169086565b6040805196875260208701959095529385019290925260608401521515608083015260a082015260c001610127565b610288610283366004611702565b610e17565b604080519788526020880196909652948601939093526060850191909152608084015260a083015260c082015260e001610127565b61032d6102cb366004611702565b600160208190525f918252604090912080549181015460028201546003830154600484015460058501546006860154600787015460088801546009909801546001600160a01b03998a1699909716979596949593949293919290919060ff168a565b604080516001600160a01b039b8c1681529a90991660208b0152978901969096526060880194909452608087019290925260a086015260c085015260e0840152610100830152151561012082015261014001610127565b61011d6101f481565b61016961039b366004611702565b610e79565b6101696103ae3660046117ca565b61100f565b61011d60055481565b6101696103ca3660046117f2565b6111f6565b61011d60045481565b600781815481106103e7575f80fd5b5f91825260209091200154905081565b5f610400611233565b600454851061042a5760405162461bcd60e51b81526004016104219061180b565b60405180910390fd5b5f858152600160205260409020600981015460ff1661047d5760405162461bcd60e51b815260206004820152600f60248201526e506f6f6c206e6f742061637469766560881b6044820152606401610421565b80546001600160a01b03868116911614806104a7575060018101546001600160a01b038681169116145b6104e35760405162461bcd60e51b815260206004820152600d60248201526c24b73b30b634b2103a37b5b2b760991b6044820152606401610421565b5f6127108260050154866104f79190611845565b6105019190611870565b90505f61050e828761188f565b83549091506001600160a01b03908116908816036105ba57610539818460020154856003015461124e565b93508484101561058b5760405162461bcd60e51b815260206004820152601a60248201527f496e73756666696369656e74206f757470757420616d6f756e740000000000006044820152606401610421565b85836002015461059b91906118a2565b600284015560038301546105b090859061188f565b600384015561064a565b6105cd818460030154856002015461124e565b93508484101561061f5760405162461bcd60e51b815260206004820152601a60248201527f496e73756666696369656e74206f757470757420616d6f756e740000000000006044820152606401610421565b85836003015461062f91906118a2565b6003840155600283015461064490859061188f565b60028401555b6040516323b872dd60e01b8152336004820152306024820152604481018790526001600160a01b038816906323b872dd906064016020604051808303815f875af115801561069a573d5f5f3e3d5ffd5b505050506040513d601f19601f820116820180604052508101906106be91906118b5565b6107025760405162461bcd60e51b8152602060048201526015602482015274125b9c1d5d081d1c985b9cd9995c8819985a5b1959605a1b6044820152606401610421565b82545f906001600160a01b038981169116146107285783546001600160a01b0316610737565b60018401546001600160a01b03165b60405163a9059cbb60e01b8152336004820152602481018790529091506001600160a01b0382169063a9059cbb906044016020604051808303815f875af1158015610784573d5f5f3e3d5ffd5b505050506040513d601f19601f820116820180604052508101906107a891906118b5565b6107ed5760405162461bcd60e51b815260206004820152601660248201527513dd5d1c1d5d081d1c985b9cd9995c8819985a5b195960521b6044820152606401610421565b826006546107fb91906118a2565b60065561080989888761133c565b604080516001600160a01b038a81168252831660208201529081018890526060810186905233908a907f7d52dd3ec2b5b193fe77bae34cf749a007f751f47b24c6c175bfa7bf8a4df90e9060800160405180910390a35050505061087960015f5160206118e55f395f51905f5255565b949350505050565b610889611233565b60045486106108aa5760405162461bcd60e51b81526004016104219061180b565b5f868152600160205260409020600981015460ff166108fd5760405162461bcd60e51b815260206004820152600f60248201526e506f6f6c206e6f742061637469766560881b6044820152606401610421565b8284106109435760405162461bcd60e51b8152602060048201526014602482015273496e76616c696420707269636520626f756e647360601b6044820152606401610421565b5f8611801561095157505f85115b61098f5760405162461bcd60e51b815260206004820152600f60248201526e496e76616c696420616d6f756e747360881b6044820152606401610421565b80546040516323b872dd60e01b8152336004820152306024820152604481018890526001600160a01b03909116906323b872dd906064016020604051808303815f875af11580156109e2573d5f5f3e3d5ffd5b505050506040513d601f19601f82011682018060405250810190610a0691906118b5565b610a4b5760405162461bcd60e51b8152602060048201526016602482015275151bdad95b8c081d1c985b9cd9995c8819985a5b195960521b6044820152606401610421565b60018101546040516323b872dd60e01b8152336004820152306024820152604481018790526001600160a01b03909116906323b872dd906064016020604051808303815f875af1158015610aa1573d5f5f3e3d5ffd5b505050506040513d601f19601f82011682018060405250810190610ac591906118b5565b610b0a5760405162461bcd60e51b8152602060048201526016602482015275151bdad95b8c481d1c985b9cd9995c8819985a5b195960521b6044820152606401610421565b5f81600401545f03610b2f57610b28610b238789611845565b6113bb565b9050610b82565b5f8260020154836004015489610b459190611845565b610b4f9190611870565b90505f8360030154846004015489610b679190611845565b610b719190611870565b9050610b7d8282611513565b925050505b868260020154610b9291906118a2565b60028301556003820154610ba79087906118a2565b60038301556004820154610bbc9082906118a2565b6004830155335f908152600a83016020526040902054610bdd9082906118a2565b82600a015f336001600160a01b03166001600160a01b031681526020019081526020015f208190555060025f336001600160a01b03166001600160a01b031681526020019081526020015f206040518061014001604052808a815260200183815260200189815260200188815260200142815260200142815260200160648152602001851515815260200187815260200186815250908060018154018082558091505060019003905f5260205f2090600a02015f909190919091505f820151815f01556020820151816001015560408201518160020155606082015181600301556080820151816004015560a0820151816005015560c0820151816006015560e0820151816007015f6101000a81548160ff0219169083151502179055506101008201518160080155610120820151816009015550508587600554610d2291906118a2565b610d2c91906118a2565b6005556040805188815260208101889052908101829052339089907f089607a52cca0d390ff7d0ad4e97545804dcc41418e1daee9ec3948596fec9449060600160405180910390a35050610d8c60015f5160206118e55f395f51905f5255565b505050505050565b6002602052815f5260405f208181548110610dad575f80fd5b5f9182526020909120600a90910201805460018201546002830154600384015460048501546005860154600687015460078801546008890154600990990154979a5095985093969295919490939260ff909116918a565b610e0c611527565b610e155f611553565b565b5f81815260016020526040812081908190819081908190819081610e3a8a6115a2565b90505f610e468b611601565b6002840154600385015460048601546005870154600690970154929f919e509c50949a5098509196509094509092505050565b6004548110610e9a5760405162461bcd60e51b81526004016104219061180b565b5f81815260016020908152604080832060039283905292206008830154918101549091610ec6916118a2565b421015610f155760405162461bcd60e51b815260206004820152601960248201527f526562616c616e636520636f6f6c646f776e20616374697665000000000000006044820152606401610421565b5f82600301548360020154612710610f2d9190611845565b610f379190611870565b82549091505f818311610f5357610f4e838361188f565b610f5d565b610f5d828461188f565b90505f82610f6c836064611845565b610f769190611870565b90508460010154811061100657610f8e878585611631565b42600887015560405187907fde0c2001c20aaa3a04fade95e7573dd3a31ea74133abc0d946a9fac9d2136fd990610ffd90868152604060208201819052601b908201527f41492d706f776572656420726174696f20636f7272656374696f6e0000000000606082015260800190565b60405180910390a25b50505050505050565b6001600160a01b0382165f9081526002602052604090205481106110685760405162461bcd60e51b815260206004820152601060248201526f24b73b30b634b2103837b9b4ba34b7b760811b6044820152606401610421565b6001600160a01b0382165f908152600260205260408120805483908110611091576110916118d0565b5f9182526020808320600a90920290910180548084526001808452604080862081516101408101835293845291840154948301949094526002830154938201939093526003820154606082015260048201546080820152600582015460a0820152600682015460c0820152600782015460ff16151560e082015260088201546101008201526009820154610120820152909350909190611131908361169b565b90505f8360030154846002015461114891906118a2565b90505f828211611158575f611179565b81611163848261188f565b61116f90612710611845565b6111799190611870565b90506101f48110611006575f612710836111956101f48561188f565b61119f9190611845565b6111a99190611870565b86546040518281529192506001600160a01b038a16917f31bbb5ea8cba6d1b3ee8e19e899b3e4a889ac311574a3ff62796846d37c66b5d9060200160405180910390a35050505050505050565b6111fe611527565b6001600160a01b03811661122757604051631e4fbdf760e01b81525f6004820152602401610421565b61123081611553565b50565b61123b6116d3565b60025f5160206118e55f395f51905f5255565b5f5f841161129e5760405162461bcd60e51b815260206004820152601960248201527f496e73756666696369656e7420696e70757420616d6f756e74000000000000006044820152606401610421565b5f831180156112ac57505f82115b6112f15760405162461bcd60e51b8152602060048201526016602482015275496e73756666696369656e74206c697175696469747960501b6044820152606401610421565b5f6112fe856103e5611845565b90505f61130b8483611845565b90505f8261131b876103e8611845565b61132591906118a2565b90506113318183611870565b979650505050505050565b5f8381526001602052604081209061135e84845f82821882841102821861151e565b90505f8260030154836002015461137591906118a2565b90505f81611384846064611845565b61138e9190611870565b90506113aa8185600601546113a391906118a2565b6064611513565b846006018190555050505050505050565b5f600182116113c8575090565b816001600160801b82106113e15760809190911c9060401b5b6801000000000000000082106113fc5760409190911c9060201b5b64010000000082106114135760209190911c9060101b5b6201000082106114285760109190911c9060081b5b610100821061143c5760089190911c9060041b5b6010821061144f5760049190911c9060021b5b6004821061145b5760011b5b600302600190811c908185816114735761147361185c565b048201901c9050600181858161148b5761148b61185c565b048201901c905060018185816114a3576114a361185c565b048201901c905060018185816114bb576114bb61185c565b048201901c905060018185816114d3576114d361185c565b048201901c905060018185816114eb576114eb61185c565b048201901c905061150a8185816115045761150461185c565b04821190565b90039392505050565b5f8282188284100282185b90505b92915050565b5f546001600160a01b03163314610e155760405163118cdaa760e01b8152336004820152602401610421565b5f80546001600160a01b038381166001600160a01b0319831681178455604051919092169283917f8be0079c531659141344cd1fd0a4f28419497f9722a3daafe3b4186f6b6457e09190a35050565b5f818152600160205260408120600581015482906115c29061016d611845565b6115cd906018611845565b90505f826006015460056115e19190611845565b90506115f86115f082846118a2565b611388611513565b95945050505050565b5f818152600160205260408120600681015461162a9061162290600a611845565b6103e8611513565b9392505050565b5f8381526001602052604081206003810154600282015491929161165591906118a2565b90505f611664846127106118a2565b61166e8584611845565b6116789190611870565b60028401819055905061168b818361188f565b8360030181905550505050505050565b5f5f826003015483600201546116b191906118a2565b90505f83600401548560200151836116c99190611845565b6115f89190611870565b5f5160206118e55f395f51905f5254600203610e1557604051633ee5aeb560e01b815260040160405180910390fd5b5f60208284031215611712575f5ffd5b5035919050565b80356001600160a01b038116811461172f575f5ffd5b919050565b5f5f5f5f60808587031215611747575f5ffd5b8435935061175760208601611719565b93969395505050506040820135916060013590565b8015158114611230575f5ffd5b5f5f5f5f5f5f60c0878903121561178e575f5ffd5b863595506020870135945060408701359350606087013592506080870135915060a08701356117bc8161176c565b809150509295509295509295565b5f5f604083850312156117db575f5ffd5b6117e483611719565b946020939093013593505050565b5f60208284031215611802575f5ffd5b61151e82611719565b6020808252600c908201526b125b9d985b1a59081c1bdbdb60a21b604082015260600190565b634e487b7160e01b5f52601160045260245ffd5b808202811582820484141761152157611521611831565b634e487b7160e01b5f52601260045260245ffd5b5f8261188a57634e487b7160e01b5f52601260045260245ffd5b500490565b8181038181111561152157611521611831565b8082018082111561152157611521611831565b5f602082840312156118c5575f5ffd5b815161162a8161176c565b634e487b7160e01b5f52603260045260245ffdfe9b779b17422d0df92223018b32b4d1fa46e071723d6817e2486d003becc55f00a2646970667358221220e541bfde9f63cf4da0885159fdc63bcd2d9d9b46676af87ed3c79e4892d6b41364736f6c634300081c0033",
  "linkReferences": {},
  "deployedLinkReferences": {},
  "immutableReferences": {},
  "inputSourceName": "project/contracts/SentinelAMM.sol",
  "buildInfoId": "solc-0_8_28-56b4d38520a07143560cd43eeb820c3102363d0a"
}