{
  "_format": "hh3-artifact-1",
  "contractName": "SentinelCrossChainSecurityOracle",
  "sourceName": "contracts/SentinelCrossChainSecurityOracle.sol",
  "abi": [
    {
      "inputs": [
        {
          "internalType": "address",
          "name": "_lzEndpoint",
          "type": "address"
        }
      ],
      "stateMutability": "nonpayable",
      "type": "constructor"
    },
    {
      "inputs": [],
      "name": "ECDSAInvalidSignature",
      "type": "error"
    },
    {
      "inputs": [
        {
          "internalType": "uint256",
          "name": "length",
          "type": "uint256"
        }
      ],
      "name": "ECDSAInvalidSignatureLength",
      "type": "error"
    },
    {
      "inputs": [
        {
          "internalType": "bytes32",
          "name": "s",
          "type": "bytes32"
        }
      ],
      "name": "ECDSAInvalidSignatureS",
      "type": "error"
    },
    {
      "inputs": [
        {
          "internalType": "address",
          "name": "owner",
          "type": "address"
        }
      ],
      "name": "OwnableInvalidOwner",
      "type": "error"
    },
    {
      "inputs": [
        {
          "internalType": "address",
          "name": "account",
          "type": "address"
        }
      ],
      "name": "OwnableUnauthorizedAccount",
      "type": "error"
    },
    {
      "anonymous": false,
      "inputs": [
        {
          "indexed": true,
          "internalType": "uint16",
          "name": "chainId",
          "type": "uint16"
        },
        {
          "indexed": false,
          "internalType": "string",
          "name": "alertType",
          "type": "string"
        },
        {
          "indexed": false,
          "internalType": "uint256",
          "name": "severity",
          "type": "uint256"
        }
      ],
      "name": "AlertTriggered",
      "type": "event"
    },
    {
      "anonymous": false,
      "inputs": [
        {
          "indexed": true,
          "internalType": "uint16",
          "name": "chainId",
          "type": "uint16"
        },
        {
          "indexed": true,
          "internalType": "address",
          "name": "oracleAddress",
          "type": "address"
        }
      ],
      "name": "ChainOracleUpdated",
      "type": "event"
    },
    {
      "anonymous": false,
      "inputs": [
        {
          "indexed": false,
          "internalType": "uint256",
          "name": "globalThreatLevel",
          "type": "uint256"
        },
        {
          "indexed": false,
          "internalType": "uint256",
          "name": "activeChains",
          "type": "uint256"
        }
      ],
      "name": "MetricsAggregated",
      "type": "event"
    },
    {
      "anonymous": false,
      "inputs": [
        {
          "indexed": true,
          "internalType": "address",
          "name": "previousOwner",
          "type": "address"
        },
        {
          "indexed": true,
          "internalType": "address",
          "name": "newOwner",
          "type": "address"
        }
      ],
      "name": "OwnershipTransferred",
      "type": "event"
    },
    {
      "anonymous": false,
      "inputs": [
        {
          "indexed": true,
          "internalType": "uint16",
          "name": "chainId",
          "type": "uint16"
        },
        {
          "indexed": true,
          "internalType": "bytes32",
          "name": "dataHash",
          "type": "bytes32"
        },
        {
          "indexed": false,
          "internalType": "uint256",
          "name": "threatLevel",
          "type": "uint256"
        }
      ],
      "name": "SecurityDataReported",
      "type": "event"
    },
    {
      "anonymous": false,
      "inputs": [
        {
          "indexed": false,
          "internalType": "uint16",
          "name": "_dstChainId",
          "type": "uint16"
        },
        {
          "indexed": false,
          "internalType": "uint16",
          "name": "_type",
          "type": "uint16"
        },
        {
          "indexed": false,
          "internalType": "uint256",
          "name": "_minDstGas",
          "type": "uint256"
        }
      ],
      "name": "SetMinDstGas",
      "type": "event"
    },
    {
      "anonymous": false,
      "inputs": [
        {
          "indexed": false,
          "internalType": "address",
          "name": "precrime",
          "type": "address"
        }
      ],
      "name": "SetPrecrime",
      "type": "event"
    },
    {
      "anonymous": false,
      "inputs": [
        {
          "indexed": false,
          "internalType": "uint16",
          "name": "_remoteChainId",
          "type": "uint16"
        },
        {
          "indexed": false,
          "internalType": "bytes",
          "name": "_path",
          "type": "bytes"
        }
      ],
      "name": "SetTrustedRemote",
      "type": "event"
    },
    {
      "anonymous": false,
      "inputs": [
        {
          "indexed": false,
          "internalType": "uint16",
          "name": "_remoteChainId",
          "type": "uint16"
        },
        {
          "indexed": false,
          "internalType": "bytes",
          "name": "_remoteAddress",
          "type": "bytes"
        }
      ],
      "name": "SetTrustedRemoteAddress",
      "type": "event"
    },
    {
      "inputs": [],
      "name": "DATA_FRESHNESS_THRESHOLD",
      "outputs": [
        {
          "internalType": "uint256",
          "name": "",
          "type": "uint256"
        }
      ],
      "stateMutability": "view",
      "type": "function"
    },
    {
      "inputs": [],
      "name": "DEFAULT_PAYLOAD_SIZE_LIMIT",
      "outputs": [
        {
          "internalType": "uint256",
          "name": "",
          "type": "uint256"
        }
      ],
      "stateMutability": "view",
      "type": "function"
    },
    {
      "inputs": [],
      "name": "TRUST_THRESHOLD",
      "outputs": [
        {
          "internalType": "uint256",
          "name": "",
          "type": "uint256"
        }
      ],
      "stateMutability": "view",
      "type": "function"
    },
    {
      "inputs": [
        {
          "internalType": "address",
          "name": "reporter",
          "type": "address"
        }
      ],
      "name": "addAuthorizedReporter",
      "outputs": [],
      "stateMutability": "nonpayable",
      "type": "function"
    },
    {
      "inputs": [],
      "name": "aggregateSecurityMetrics",
      "outputs": [],
      "stateMutability": "nonpayable",
      "type": "function"
    },
    {
      "inputs": [],
      "name": "aggregatedMetrics",
      "outputs": [
        {
          "internalType": "uint256",
          "name": "globalThreatLevel",
          "type": "uint256"
        },
        {
          "internalType": "uint256",
          "name": "totalChains",
          "type": "uint256"
        },
        {
          "internalType": "uint256",
          "name": "activeChains",
          "type": "uint256"
        },
        {
          "internalType": "uint256",
          "name": "averageTrustScore",
          "type": "uint256"
        },
        {
          "internalType": "uint256",
          "name": "lastAggregation",
          "type": "uint256"
        }
      ],
      "stateMutability": "view",
      "type": "function"
    },
    {
      "inputs": [
        {
          "internalType": "address",
          "name": "",
          "type": "address"
        }
      ],
      "name": "authorizedReporters",
      "outputs": [
        {
          "internalType": "bool",
          "name": "",
          "type": "bool"
        }
      ],
      "stateMutability": "view",
      "type": "function"
    },
    {
      "inputs": [
        {
          "internalType": "uint16",
          "name": "",
          "type": "uint16"
        }
      ],
      "name": "chainConfigs",
      "outputs": [
        {
          "internalType": "uint16",
          "name": "chainId",
          "type": "uint16"
        },
        {
          "internalType": "address",
          "name": "oracleAddress",
          "type": "address"
        },
        {
          "internalType": "bool",
          "name": "isActive",
          "type": "bool"
        },
        {
          "internalType": "uint256",
          "name": "lastUpdate",
          "type": "uint256"
        },
        {
          "internalType": "uint256",
          "name": "trustScore",
          "type": "uint256"
        }
      ],
      "stateMutability": "view",
      "type": "function"
    },
    {
      "inputs": [
        {
          "internalType": "uint16",
          "name": "chainId",
          "type": "uint16"
        },
        {
          "internalType": "address",
          "name": "oracleAddress",
          "type": "address"
        },
        {
          "internalType": "uint256",
          "name": "initialTrustScore",
          "type": "uint256"
        }
      ],
      "name": "configureChainOracle",
      "outputs": [],
      "stateMutability": "nonpayable",
      "type": "function"
    },
    {
      "inputs": [
        {
          "internalType": "uint16",
          "name": "chainId",
          "type": "uint16"
        }
      ],
      "name": "deactivateChainOracle",
      "outputs": [],
      "stateMutability": "nonpayable",
      "type": "function"
    },
    {
      "inputs": [
        {
          "internalType": "uint16",
          "name": "_srcChainId",
          "type": "uint16"
        },
        {
          "internalType": "bytes",
          "name": "_srcAddress",
          "type": "bytes"
        }
      ],
      "name": "forceResumeReceive",
      "outputs": [],
      "stateMutability": "nonpayable",
      "type": "function"
    },
    {
      "inputs": [
        {
          "internalType": "uint16",
          "name": "chainId",
          "type": "uint16"
        }
      ],
      "name": "getChainSecurityData",
      "outputs": [
        {
          "components": [
            {
              "internalType": "uint256",
              "name": "timestamp",
              "type": "uint256"
            },
            {
              "internalType": "uint256",
              "name": "threatLevel",
              "type": "uint256"
            },
            {
              "internalType": "uint256",
              "name": "anomalyCount",
              "type": "uint256"
            },
            {
              "internalType": "uint256",
              "name": "activeAlerts",
              "type": "uint256"
            },
            {
              "internalType": "bytes32",
              "name": "dataHash",
              "type": "bytes32"
            },
            {
              "internalType": "address",
              "name": "reporter",
              "type": "address"
            },
            {
              "internalType": "uint16",
              "name": "sourceChain",
              "type": "uint16"
            }
          ],
          "internalType": "struct SentinelCrossChainSecurityOracle.SecurityData",
          "name": "",
          "type": "tuple"
        }
      ],
      "stateMutability": "view",
      "type": "function"
    },
    {
      "inputs": [
        {
          "internalType": "uint16",
          "name": "_version",
          "type": "uint16"
        },
        {
          "internalType": "uint16",
          "name": "_chainId",
          "type": "uint16"
        },
        {
          "internalType": "address",
          "name": "",
          "type": "address"
        },
        {
          "internalType": "uint256",
          "name": "_configType",
          "type": "uint256"
        }
      ],
      "name": "getConfig",
      "outputs": [
        {
          "internalType": "bytes",
          "name": "",
          "type": "bytes"
        }
      ],
      "stateMutability": "view",
      "type": "function"
    },
    {
      "inputs": [],
      "name": "getGlobalSecurityMetrics",
      "outputs": [
        {
          "internalType": "uint256",
          "name": "globalThreatLevel",
          "type": "uint256"
        },
        {
          "internalType": "uint256",
          "name": "totalChains",
          "type": "uint256"
        },
        {
          "internalType": "uint256",
          "name": "activeChains",
          "type": "uint256"
        },
        {
          "internalType": "uint256",
          "name": "averageTrustScore",
          "type": "uint256"
        }
      ],
      "stateMutability": "view",
      "type": "function"
    },
    {
      "inputs": [
        {
          "internalType": "uint16",
          "name": "_remoteChainId",
          "type": "uint16"
        }
      ],
      "name": "getTrustedRemoteAddress",
      "outputs": [
        {
          "internalType": "bytes",
          "name": "",
          "type": "bytes"
        }
      ],
      "stateMutability": "view",
      "type": "function"
    },
    {
      "inputs": [
        {
          "internalType": "uint16",
          "name": "_srcChainId",
          "type": "uint16"
        },
        {
          "internalType": "bytes",
          "name": "_srcAddress",
          "type": "bytes"
        }
      ],
      "name": "isTrustedRemote",
      "outputs": [
        {
          "internalType": "bool",
          "name": "",
          "type": "bool"
        }
      ],
      "stateMutability": "view",
      "type": "function"
    },
    {
      "inputs": [],
      "name": "lzEndpoint",
      "outputs": [
        {
          "internalType": "contract ILayerZeroEndpoint",
          "name": "",
          "type": "address"
        }
      ],
      "stateMutability": "view",
      "type": "function"
    },
    {
      "inputs": [
        {
          "internalType": "uint16",
          "name": "_srcChainId",
          "type": "uint16"
        },
        {
          "internalType": "bytes",
          "name": "_srcAddress",
          "type": "bytes"
        },
        {
          "internalType": "uint64",
          "name": "_nonce",
          "type": "uint64"
        },
        {
          "internalType": "bytes",
          "name": "_payload",
          "type": "bytes"
        }
      ],
      "name": "lzReceive",
      "outputs": [],
      "stateMutability": "nonpayable",
      "type": "function"
    },
    {
      "inputs": [
        {
          "internalType": "uint16",
          "name": "",
          "type": "uint16"
        },
        {
          "internalType": "uint16",
          "name": "",
          "type": "uint16"
        }
      ],
      "name": "minDstGasLookup",
      "outputs": [
        {
          "internalType": "uint256",
          "name": "",
          "type": "uint256"
        }
      ],
      "stateMutability": "view",
      "type": "function"
    },
    {
      "inputs": [],
      "name": "owner",
      "outputs": [
        {
          "internalType": "address",
          "name": "",
          "type": "address"
        }
      ],
      "stateMutability": "view",
      "type": "function"
    },
    {
      "inputs": [
        {
          "internalType": "uint16",
          "name": "",
          "type": "uint16"
        }
      ],
      "name": "payloadSizeLimitLookup",
      "outputs": [
        {
          "internalType": "uint256",
          "name": "",
          "type": "uint256"
        }
      ],
      "stateMutability": "view",
      "type": "function"
    },
    {
      "inputs": [],
      "name": "precrime",
      "outputs": [
        {
          "internalType": "address",
          "name": "",
          "type": "address"
        }
      ],
      "stateMutability": "view",
      "type": "function"
    },
    {
      "inputs": [
        {
          "internalType": "address",
          "name": "reporter",
          "type": "address"
        }
      ],
      "name": "removeAuthorizedReporter",
      "outputs": [],
      "stateMutability": "nonpayable",
      "type": "function"
    },
    {
      "inputs": [],
      "name": "renounceOwnership",
      "outputs": [],
      "stateMutability": "nonpayable",
      "type": "function"
    },
    {
      "inputs": [
        {
          "internalType": "uint16",
          "name": "sourceChain",
          "type": "uint16"
        },
        {
          "internalType": "uint256",
          "name": "threatLevel",
          "type": "uint256"
        },
        {
          "internalType": "uint256",
          "name": "anomalyCount",
          "type": "uint256"
        },
        {
          "internalType": "uint256",
          "name": "activeAlerts",
          "type": "uint256"
        },
        {
          "internalType": "bytes32",
          "name": "dataHash",
          "type": "bytes32"
        },
        {
          "internalType": "bytes",
          "name": "signature",
          "type": "bytes"
        }
      ],
      "name": "reportSecurityData",
      "outputs": [],
      "stateMutability": "nonpayable",
      "type": "function"
    },
    {
      "inputs": [
        {
          "internalType": "bytes32",
          "name": "",
          "type": "bytes32"
        }
      ],
      "name": "securityData",
      "outputs": [
        {
          "internalType": "uint256",
          "name": "timestamp",
          "type": "uint256"
        },
        {
          "internalType": "uint256",
          "name": "threatLevel",
          "type": "uint256"
        },
        {
          "internalType": "uint256",
          "name": "anomalyCount",
          "type": "uint256"
        },
        {
          "internalType": "uint256",
          "name": "activeAlerts",
          "type": "uint256"
        },
        {
          "internalType": "bytes32",
          "name": "dataHash",
          "type": "bytes32"
        },
        {
          "internalType": "address",
          "name": "reporter",
          "type": "address"
        },
        {
          "internalType": "uint16",
          "name": "sourceChain",
          "type": "uint16"
        }
      ],
      "stateMutability": "view",
      "type": "function"
    },
    {
      "inputs": [
        {
          "internalType": "uint16",
          "name": "_version",
          "type": "uint16"
        },
        {
          "internalType": "uint16",
          "name": "_chainId",
          "type": "uint16"
        },
        {
          "internalType": "uint256",
          "name": "_configType",
          "type": "uint256"
        },
        {
          "internalType": "bytes",
          "name": "_config",
          "type": "bytes"
        }
      ],
      "name": "setConfig",
      "outputs": [],
      "stateMutability": "nonpayable",
      "type": "function"
    },
    {
      "inputs": [
        {
          "internalType": "uint16",
          "name": "_dstChainId",
          "type": "uint16"
        },
        {
          "internalType": "uint16",
          "name": "_packetType",
          "type": "uint16"
        },
        {
          "internalType": "uint256",
          "name": "_minGas",
          "type": "uint256"
        }
      ],
      "name": "setMinDstGas",
      "outputs": [],
      "stateMutability": "nonpayable",
      "type": "function"
    },
    {
      "inputs": [
        {
          "internalType": "uint16",
          "name": "_dstChainId",
          "type": "uint16"
        },
        {
          "internalType": "uint256",
          "name": "_size",
          "type": "uint256"
        }
      ],
      "name": "setPayloadSizeLimit",
      "outputs": [],
      "stateMutability": "nonpayable",
      "type": "function"
    },
    {
      "inputs": [
        {
          "internalType": "address",
          "name": "_precrime",
          "type": "address"
        }
      ],
      "name": "setPrecrime",
      "outputs": [],
      "stateMutability": "nonpayable",
      "type": "function"
    },
    {
      "inputs": [
        {
          "internalType": "uint16",
          "name": "_version",
          "type": "uint16"
        }
      ],
      "name": "setReceiveVersion",
      "outputs": [],
      "stateMutability": "nonpayable",
      "type": "function"
    },
    {
      "inputs": [
        {
          "internalType": "uint16",
          "name": "_version",
          "type": "uint16"
        }
      ],
      "name": "setSendVersion",
      "outputs": [],
      "stateMutability": "nonpayable",
      "type": "function"
    },
    {
      "inputs": [
        {
          "internalType": "uint16",
          "name": "_remoteChainId",
          "type": "uint16"
        },
        {
          "internalType": "bytes",
          "name": "_path",
          "type": "bytes"
        }
      ],
      "name": "setTrustedRemote",
      "outputs": [],
      "stateMutability": "nonpayable",
      "type": "function"
    },
    {
      "inputs": [
        {
          "internalType": "uint16",
          "name": "_remoteChainId",
          "type": "uint16"
        },
        {
          "internalType": "bytes",
          "name": "_remoteAddress",
          "type": "bytes"
        }
      ],
      "name": "setTrustedRemoteAddress",
      "outputs": [],
      "stateMutability": "nonpayable",
      "type": "function"
    },
    {
      "inputs": [
        {
          "internalType": "uint16",
          "name": "dstChainId",
          "type": "uint16"
        },
        {
          "internalType": "uint256",
          "name": "threatLevel",
          "type": "uint256"
        },
        {
          "internalType": "uint256",
          "name": "anomalyCount",
          "type": "uint256"
        },
        {
          "internalType": "uint256",
          "name": "activeAlerts",
          "type": "uint256"
        },
        {
          "internalType": "address payable",
          "name": "refundAddress",
          "type": "address"
        },
        {
          "internalType": "address",
          "name": "zroPaymentAddress",
          "type": "address"
        },
        {
          "internalType": "bytes",
          "name": "adapterParams",
          "type": "bytes"
        }
      ],
      "name": "shareSecurityData",
      "outputs": [],
      "stateMutability": "payable",
      "type": "function"
    },
    {
      "inputs": [
        {
          "internalType": "address",
          "name": "newOwner",
          "type": "address"
        }
      ],
      "name": "transferOwnership",
      "outputs": [],
      "stateMutability": "nonpayable",
      "type": "function"
    },
    {
      "inputs": [
        {
          "internalType": "uint16",
          "name": "",
          "type": "uint16"
        }
      ],
      "name": "trustedRemoteLookup",
      "outputs": [
        {
          "internalType": "bytes",
          "name": "",
          "type": "bytes"
        }
      ],
      "stateMutability": "view",
      "type": "function"
    },
    {
      "inputs": [
        {
          "internalType": "uint16",
          "name": "chainId",
          "type": "uint16"
        },
        {
          "internalType": "uint256",
          "name": "newScore",
          "type": "uint256"
        }
      ],
      "name": "updateChainTrustScore",
      "outputs": [],
      "stateMutability": "nonpayable",
      "type": "function"
    }
  ],
  "bytecode": "0x60a060405234801561000f575f5ffd5b5060405161306438038061306483398101604081905261002e916100c8565b80338061005457604051631e4fbdf760e01b81525f600482015260240160405180910390fd5b61005d81610079565b506001600160a01b0316608052505f6009819055600a556100f5565b5f80546001600160a01b038381166001600160a01b0319831681178455604051919092169283917f8be0079c531659141344cd1fd0a4f28419497f9722a3daafe3b4186f6b6457e09190a35050565b5f602082840312156100d8575f5ffd5b81516001600160a01b03811681146100ee575f5ffd5b9392505050565b608051612f2661013e5f395f81816104f6015281816108a601528181610d2f01528181610dd101528181610ef0015281816115af015281816119d601526121be0152612f265ff3fe60806040526004361061021c575f3560e01c8063b353aaa71161011e578063da70fd61116100a8578063ec6f68061161006d578063ec6f68061461078d578063f2fde38b146107a0578063f4406a5b146107bf578063f5ecbdbc146107de578063fa24d788146107fd575f5ffd5b8063da70fd61146106fc578063dc8548d41461071b578063df2a5b3b14610730578063e63fb88f1461074f578063eb8d72b71461076e575f5ffd5b8063c4461834116100ee578063c4461834146105a4578063c818b6d5146105b9578063cbed8b9c146105cd578063d160a3c2146105ec578063d7313e861461067f575f5ffd5b8063b353aaa7146104e5578063b68e57f114610518578063b88c1cae14610537578063baf3292d14610585575f5ffd5b80636f592f73116101aa5780638da5cb5b1161016f5780638da5cb5b14610439578063950c8a74146104695780639f38369a14610488578063a6b2f395146104a7578063a6c3d165146104c6575f5ffd5b80636f592f7314610377578063715018a6146103af5780637533d788146103c3578063830d9cf8146103ef5780638cfd8f5c14610403575f5ffd5b806310ddb137116101f057806310ddb1371461029e5780633a41429a146102bd5780633d8b38f6146103005780633f1f4fa41461031f57806342d65a8d14610358575f5ffd5b80621d35671461022057806304cc7a101461024157806307e0db17146102605780630df374831461027f575b5f5ffd5b34801561022b575f5ffd5b5061023f61023a36600461252f565b6108a3565b005b34801561024c575f5ffd5b5061023f61025b366004612636565b610ace565b34801561026b575f5ffd5b5061023f61027a3660046126e5565b610d0e565b34801561028a575f5ffd5b5061023f610299366004612700565b610d92565b3480156102a9575f5ffd5b5061023f6102b83660046126e5565b610db0565b3480156102c8575f5ffd5b506102eb6102d736600461273e565b60076020525f908152604090205460ff1681565b60405190151581526020015b60405180910390f35b34801561030b575f5ffd5b506102eb61031a366004612759565b610e08565b34801561032a575f5ffd5b5061034a6103393660046126e5565b60036020525f908152604090205481565b6040519081526020016102f7565b348015610363575f5ffd5b5061023f610372366004612759565b610ed1565b348015610382575f5ffd5b50600854600954600a54600b546040805194855260208501939093529183015260608201526080016102f7565b3480156103ba575f5ffd5b5061023f610f52565b3480156103ce575f5ffd5b506103e26103dd3660046126e5565b610f65565b6040516102f791906127d7565b3480156103fa575f5ffd5b5061034a604681565b34801561040e575f5ffd5b5061034a61041d3660046127e9565b600260209081525f928352604080842090915290825290205481565b348015610444575f5ffd5b505f546001600160a01b03165b6040516001600160a01b0390911681526020016102f7565b348015610474575f5ffd5b50600454610451906001600160a01b031681565b348015610493575f5ffd5b506103e26104a23660046126e5565b610ffc565b3480156104b2575f5ffd5b5061023f6104c136600461273e565b61110d565b3480156104d1575f5ffd5b5061023f6104e0366004612759565b611135565b3480156104f0575f5ffd5b506104517f000000000000000000000000000000000000000000000000000000000000000081565b348015610523575f5ffd5b5061023f610532366004612820565b6111bd565b348015610542575f5ffd5b50600854600954600a54600b54600c5461055d949392919085565b604080519586526020860194909452928401919091526060830152608082015260a0016102f7565b348015610590575f5ffd5b5061023f61059f36600461273e565b611326565b3480156105af575f5ffd5b5061034a61271081565b3480156105c4575f5ffd5b5061023f611382565b3480156105d8575f5ffd5b5061023f6105e736600461285e565b611590565b3480156105f7575f5ffd5b506106446106063660046126e5565b60056020525f908152604090208054600182015460029092015461ffff8216926201000083046001600160a01b031692600160b01b900460ff169185565b6040805161ffff90961686526001600160a01b039094166020860152911515928401929092526060830191909152608082015260a0016102f7565b34801561068a575f5ffd5b5061069e6106993660046126e5565b611620565b6040516102f79190815181526020808301519082015260408083015190820152606080830151908201526080808301519082015260a0808301516001600160a01b03169082015260c09182015161ffff169181019190915260e00190565b348015610707575f5ffd5b5061023f610716366004612700565b61169f565b348015610726575f5ffd5b5061034a610e1081565b34801561073b575f5ffd5b5061023f61074a3660046128cb565b611707565b34801561075a575f5ffd5b5061023f61076936600461273e565b611770565b348015610779575f5ffd5b5061023f610788366004612759565b61179b565b61023f61079b3660046128f8565b6117f4565b3480156107ab575f5ffd5b5061023f6107ba36600461273e565b61192d565b3480156107ca575f5ffd5b5061023f6107d93660046126e5565b61196a565b3480156107e9575f5ffd5b506103e26107f8366004612989565b6119a5565b348015610808575f5ffd5b506108616108173660046129d7565b60066020525f908152604090208054600182015460028301546003840154600485015460059095015493949293919290916001600160a01b03811690600160a01b900461ffff1687565b60408051978852602088019690965294860193909352606085019190915260808401526001600160a01b031660a083015261ffff1660c082015260e0016102f7565b337f00000000000000000000000000000000000000000000000000000000000000006001600160a01b0316146109205760405162461bcd60e51b815260206004820152601e60248201527f4c7a4170703a20696e76616c696420656e64706f696e742063616c6c6572000060448201526064015b60405180910390fd5b61ffff86165f908152600160205260408120805461093d906129ee565b80601f0160208091040260200160405190810160405280929190818152602001828054610969906129ee565b80156109b45780601f1061098b576101008083540402835291602001916109b4565b820191905f5260205f20905b81548152906001019060200180831161099757829003601f168201915b505050505090508051868690501480156109ce57505f8151115b80156109f65750805160208201206040516109ec9088908890612a26565b6040518091039020145b610a515760405162461bcd60e51b815260206004820152602660248201527f4c7a4170703a20696e76616c696420736f757263652073656e64696e6720636f6044820152651b9d1c9858dd60d21b6064820152608401610917565b610ac58787878080601f0160208091040260200160405190810160405280939291908181526020018383808284375f9201919091525050604080516020601f8a018190048102820181019092528881528a9350915088908890819084018382808284375f92019190915250611a5292505050565b50505050505050565b61ffff86165f90815260056020526040902054600160b01b900460ff16610b2e5760405162461bcd60e51b815260206004820152601460248201527310da185a5b881b9bdd0818dbdb999a59dd5c995960621b6044820152606401610917565b335f9081526007602052604090205460ff1680610b6b575061ffff86165f908152600560205260409020546201000090046001600160a01b031633145b610baf5760405162461bcd60e51b81526020600482015260156024820152742ab730baba3437b934bd32b2103932b837b93a32b960591b6044820152606401610917565b805115610bc457610bc4868686868686611c72565b5f6040518060e00160405280428152602001878152602001868152602001858152602001848152602001336001600160a01b031681526020018861ffff1681525090508060065f8581526020019081526020015f205f820151815f01556020820151816001015560408201518160020155606082015181600301556080820151816004015560a0820151816005015f6101000a8154816001600160a01b0302191690836001600160a01b0316021790555060c08201518160050160146101000a81548161ffff021916908361ffff1602179055509050504260055f8961ffff1661ffff1681526020019081526020015f2060010181905550610cc68782611d58565b828761ffff167f61807077bf521d6f7a6ba561162304a49382212990f864584e8baa2e891ca91f88604051610cfd91815260200190565b60405180910390a350505050505050565b610d16611ecd565b6040516307e0db1760e01b815261ffff821660048201527f00000000000000000000000000000000000000000000000000000000000000006001600160a01b0316906307e0db17906024015b5f604051808303815f87803b158015610d79575f5ffd5b505af1158015610d8b573d5f5f3e3d5ffd5b5050505050565b610d9a611ecd565b61ffff9091165f90815260036020526040902055565b610db8611ecd565b6040516310ddb13760e01b815261ffff821660048201527f00000000000000000000000000000000000000000000000000000000000000006001600160a01b0316906310ddb13790602401610d62565b61ffff83165f9081526001602052604081208054829190610e28906129ee565b80601f0160208091040260200160405190810160405280929190818152602001828054610e54906129ee565b8015610e9f5780601f10610e7657610100808354040283529160200191610e9f565b820191905f5260205f20905b815481529060010190602001808311610e8257829003601f168201915b505050505090508383604051610eb6929190612a26565b60405180910390208180519060200120149150509392505050565b610ed9611ecd565b6040516342d65a8d60e01b81526001600160a01b037f000000000000000000000000000000000000000000000000000000000000000016906342d65a8d90610f2990869086908690600401612a5d565b5f604051808303815f87803b158015610f40575f5ffd5b505af1158015610ac5573d5f5f3e3d5ffd5b610f5a611ecd565b610f635f611ef9565b565b60016020525f908152604090208054610f7d906129ee565b80601f0160208091040260200160405190810160405280929190818152602001828054610fa9906129ee565b8015610ff45780601f10610fcb57610100808354040283529160200191610ff4565b820191905f5260205f20905b815481529060010190602001808311610fd757829003601f168201915b505050505081565b61ffff81165f9081526001602052604081208054606092919061101e906129ee565b80601f016020809104026020016040519081016040528092919081815260200182805461104a906129ee565b80156110955780601f1061106c57610100808354040283529160200191611095565b820191905f5260205f20905b81548152906001019060200180831161107857829003601f168201915b5050505050905080515f036110ec5760405162461bcd60e51b815260206004820152601d60248201527f4c7a4170703a206e6f20747275737465642070617468207265636f72640000006044820152606401610917565b6111065f601483516110fe9190612a8e565b839190611f48565b9392505050565b611115611ecd565b6001600160a01b03165f908152600760205260409020805460ff19169055565b61113d611ecd565b81813060405160200161115293929190612aa1565b60408051601f1981840301815291815261ffff85165f9081526001602052209061117c9082612b0b565b507f8c0400cfe2d1199b1a725c78960bcc2a344d869b80590d0f2bd005db15a572ce8383836040516111b093929190612a5d565b60405180910390a1505050565b6111c5611ecd565b606481111561120c5760405162461bcd60e51b8152602060048201526013602482015272496e76616c69642074727573742073636f726560681b6044820152606401610917565b6040805160a08101825261ffff8086168083526001600160a01b03808716602080860191825260018688018181524260608901908152608089018b81525f97885260059094529890952096518754935195511515600160b01b0260ff60b01b199690951662010000026001600160b01b03199094169616959095179190911792909216178355925190820155905160029091015560095415806112ce575061ffff83165f908152600560205260409020546201000090046001600160a01b0316155b156112e85760098054905f6112e283612bc5565b91905055505b6040516001600160a01b0383169061ffff8516907f39d4b891043df7d3a413a901fdb065a9469296749b7665901470bc164ed82178905f90a3505050565b61132e611ecd565b600480546001600160a01b0319166001600160a01b0383169081179091556040519081527f5db758e995a17ec1ad84bdef7e8c3293a0bd6179bcce400dff5d4c3d87db726b9060200160405180910390a150565b5f808060015b60648161ffff16116115285761ffff81165f90815260056020526040902054600160b01b900460ff16156115165761ffff8181165f90815260056020908152604091829020825160a081018452815494851681526201000085046001600160a01b031692810192909252600160b01b90930460ff16151591810191909152600182015460608201819052600290920154608082015290610e109061142c9042612a8e565b11611514575f61143b83612054565b805190915015611512575f60648360800151836020015161145c9190612bdd565b6114669190612bf4565b90506114728188612c13565b96508260800151856114849190612c13565b94508561149081612bc5565b61ffff8087165f908152600d602090815260409182902087518155908701516001820155908601516002820155606086015160038201556080860151600482015560a0860151600591909101805460c0880151909316600160a01b026001600160b01b03199093166001600160a01b0390921691909117919091179055965050505b505b505b8061152081612c26565b915050611388565b50811561158b576115398284612bf4565b600855600a82905561154b8282612bf4565b600b5542600c5560085460408051918252602082018490527f3e1a2525f9ddbb197d4645715634d5160e9f9cea2f6e8b34fa3dfb29886c154f91016111b0565b505050565b611598611ecd565b6040516332fb62e760e21b81526001600160a01b037f0000000000000000000000000000000000000000000000000000000000000000169063cbed8b9c906115ec9088908890889088908890600401612c46565b5f604051808303815f87803b158015611603575f5ffd5b505af1158015611615573d5f5f3e3d5ffd5b505050505050505050565b611628612499565b5061ffff9081165f908152600d6020908152604091829020825160e0810184528154815260018201549281019290925260028101549282019290925260038201546060820152600482015460808201526005909101546001600160a01b03811660a0830152600160a01b900490911660c082015290565b6116a7611ecd565b60648111156116ee5760405162461bcd60e51b8152602060048201526013602482015272496e76616c69642074727573742073636f726560681b6044820152606401610917565b61ffff9091165f90815260056020526040902060020155565b61170f611ecd565b61ffff8381165f8181526002602090815260408083209487168084529482529182902085905581519283528201929092529081018290527f9d5c7c0b934da8fefa9c7760c98383778a12dfbfc0c3b3106518f43fb9508ac0906060016111b0565b611778611ecd565b6001600160a01b03165f908152600760205260409020805460ff19166001179055565b6117a3611ecd565b61ffff83165f9081526001602052604090206117c0828483612c7e565b507ffa41487ad5d6728f0b19276fa1eddc16558578f5109fc39d2dc33c3230470dab8383836040516111b093929190612a5d565b61ffff88165f90815260056020526040902054600160b01b900460ff1661185d5760405162461bcd60e51b815260206004820181905260248201527f44657374696e6174696f6e20636861696e206e6f7420636f6e666967757265646044820152606401610917565b5f8888888842604051602001611877959493929190612d37565b60408051601f19818403018152828252805160209182012061ffff4616918401919091529082018a9052606082018990526080820188905260a0820181905260c0808301525f60e08301819052909250906101000160405160208183030381529060405290506119218a82888888888080601f0160208091040260200160405190810160405280939291908181526020018383808284375f92019190915250349250612099915050565b50505050505050505050565b611935611ecd565b6001600160a01b03811661195e57604051631e4fbdf760e01b81525f6004820152602401610917565b61196781611ef9565b50565b611972611ecd565b61ffff81165f908152600560205260408120805460ff60b01b19169055600980549161199d83612d69565b919050555050565b604051633d7b2f6f60e21b815261ffff808616600483015284166024820152306044820152606481018290526060907f00000000000000000000000000000000000000000000000000000000000000006001600160a01b03169063f5ecbdbc906084015f60405180830381865afa158015611a22573d5f5f3e3d5ffd5b505050506040513d5f823e601f3d908101601f19168201604052611a499190810190612dcb565b95945050505050565b5f5f5f5f5f5f86806020019051810190611a6c9190612e04565b9550955095509550955095505f81511115611a8f57611a8f868686868686611c72565b6040518060e00160405280428152602001868152602001858152602001848152602001838152602001336001600160a01b031681526020018761ffff1681525060065f8481526020019081526020015f205f820151815f01556020820151816001015560408201518160020155606082015181600301556080820151816004015560a0820151816005015f6101000a8154816001600160a01b0302191690836001600160a01b0316021790555060c08201518160050160146101000a81548161ffff021916908361ffff1602179055509050504260055f8861ffff1661ffff1681526020019081526020015f2060010181905550611c278660065f8581526020019081526020015f206040518060e00160405290815f820154815260200160018201548152602001600282015481526020016003820154815260200160048201548152602001600582015f9054906101000a90046001600160a01b03166001600160a01b03166001600160a01b031681526020016005820160149054906101000a900461ffff1661ffff1661ffff1681525050611d58565b818661ffff167f61807077bf521d6f7a6ba561162304a49382212990f864584e8baa2e891ca91f87604051611c5e91815260200190565b60405180910390a350505050505050505050565b5f8686868686604051602001611c8c959493929190612d37565b6040516020818303038152906040528051906020012090505f611ce4611cde837f19457468657265756d205369676e6564204d6573736167653a0a3332000000005f908152601c91909152603c902090565b84612236565b61ffff89165f908152600560205260409020549091506001600160a01b03808316620100009092041614611d4e5760405162461bcd60e51b8152602060048201526011602482015270496e76616c6964207369676e617475726560781b6044820152606401610917565b5050505050505050565b6050816020015110611dd3578161ffff167fb03b57f8a0dfd4f2c2931e44b2b798f4f7458d8e701e57cde281cbab8d6b04118260200151604051611dca9190604080825260119082015270121251d217d5121491505517d311559153607a1b6060820152602081019190915260800190565b60405180910390a25b606481604001511115611e4857604080820151815182815260129281019290925271121251d217d05393d350531657d0d3d5539560721b6060830152602082015261ffff8316907fb03b57f8a0dfd4f2c2931e44b2b798f4f7458d8e701e57cde281cbab8d6b04119060800160405180910390a25b600a81606001511115611ec9578161ffff167fb03b57f8a0dfd4f2c2931e44b2b798f4f7458d8e701e57cde281cbab8d6b04118260600151604051611ec091906040808252601690820152754d554c5449504c455f4143544956455f414c4552545360501b6060820152602081019190915260800190565b60405180910390a25b5050565b5f546001600160a01b03163314610f635760405163118cdaa760e01b8152336004820152602401610917565b5f80546001600160a01b038381166001600160a01b0319831681178455604051919092169283917f8be0079c531659141344cd1fd0a4f28419497f9722a3daafe3b4186f6b6457e09190a35050565b606081611f5681601f612c13565b1015611f955760405162461bcd60e51b815260206004820152600e60248201526d736c6963655f6f766572666c6f7760901b6044820152606401610917565b611f9f8284612c13565b84511015611fe35760405162461bcd60e51b8152602060048201526011602482015270736c6963655f6f75744f66426f756e647360781b6044820152606401610917565b6060821580156120015760405191505f82526020820160405261204b565b6040519150601f8416801560200281840101858101878315602002848b0101015b8183101561203a578051835260209283019201612022565b5050858452601f01601f1916604052505b50949350505050565b61205c612499565b50506040805160e0810182525f80825260208201819052918101829052606081018290526080810182905260a0810182905260c081019190915290565b61ffff86165f90815260016020526040812080546120b6906129ee565b80601f01602080910402602001604051908101604052809291908181526020018280546120e2906129ee565b801561212d5780601f106121045761010080835404028352916020019161212d565b820191905f5260205f20905b81548152906001019060200180831161211057829003601f168201915b5050505050905080515f0361219d5760405162461bcd60e51b815260206004820152603060248201527f4c7a4170703a2064657374696e6174696f6e20636861696e206973206e6f742060448201526f61207472757374656420736f7572636560801b6064820152608401610917565b6121a8878751612260565b60405162c5803160e81b81526001600160a01b037f0000000000000000000000000000000000000000000000000000000000000000169063c58031009084906121ff908b9086908c908c908c908c90600401612e76565b5f604051808303818588803b158015612216575f5ffd5b505af1158015612228573d5f5f3e3d5ffd5b505050505050505050505050565b5f5f5f5f61224486866122d0565b9250925092506122548282612319565b50909150505b92915050565b61ffff82165f908152600360205260408120549081900361228057506127105b8082111561158b5760405162461bcd60e51b815260206004820181905260248201527f4c7a4170703a207061796c6f61642073697a6520697320746f6f206c617267656044820152606401610917565b5f5f5f8351604103612307576020840151604085015160608601515f1a6122f9888285856123d1565b955095509550505050612312565b505081515f91506002905b9250925092565b5f82600381111561232c5761232c612edc565b03612335575050565b600182600381111561234957612349612edc565b036123675760405163f645eedf60e01b815260040160405180910390fd5b600282600381111561237b5761237b612edc565b0361239c5760405163fce698f760e01b815260048101829052602401610917565b60038260038111156123b0576123b0612edc565b03611ec9576040516335e2f38360e21b815260048101829052602401610917565b5f80807f7fffffffffffffffffffffffffffffff5d576e7357a4501ddfe92f46681b20a084111561240a57505f9150600390508261248f565b604080515f808252602082018084528a905260ff891692820192909252606081018790526080810186905260019060a0016020604051602081039080840390855afa15801561245b573d5f5f3e3d5ffd5b5050604051601f1901519150506001600160a01b03811661248657505f92506001915082905061248f565b92505f91508190505b9450945094915050565b6040518060e001604052805f81526020015f81526020015f81526020015f81526020015f81526020015f6001600160a01b031681526020015f61ffff1681525090565b61ffff81168114611967575f5ffd5b5f5f83601f8401126124fb575f5ffd5b5081356001600160401b03811115612511575f5ffd5b602083019150836020828501011115612528575f5ffd5b9250929050565b5f5f5f5f5f5f60808789031215612544575f5ffd5b863561254f816124dc565b955060208701356001600160401b03811115612569575f5ffd5b61257589828a016124eb565b90965094505060408701356001600160401b0381168114612594575f5ffd5b925060608701356001600160401b038111156125ae575f5ffd5b6125ba89828a016124eb565b979a9699509497509295939492505050565b634e487b7160e01b5f52604160045260245ffd5b604051601f8201601f191681016001600160401b0381118282101715612608576126086125cc565b604052919050565b5f6001600160401b03821115612628576126286125cc565b50601f01601f191660200190565b5f5f5f5f5f5f60c0878903121561264b575f5ffd5b8635612656816124dc565b95506020870135945060408701359350606087013592506080870135915060a08701356001600160401b0381111561268c575f5ffd5b8701601f8101891361269c575f5ffd5b80356126af6126aa82612610565b6125e0565b8181528a60208385010111156126c3575f5ffd5b816020840160208301375f602083830101528093505050509295509295509295565b5f602082840312156126f5575f5ffd5b8135611106816124dc565b5f5f60408385031215612711575f5ffd5b823561271c816124dc565b946020939093013593505050565b6001600160a01b0381168114611967575f5ffd5b5f6020828403121561274e575f5ffd5b81356111068161272a565b5f5f5f6040848603121561276b575f5ffd5b8335612776816124dc565b925060208401356001600160401b03811115612790575f5ffd5b61279c868287016124eb565b9497909650939450505050565b5f81518084528060208401602086015e5f602082860101526020601f19601f83011685010191505092915050565b602081525f61110660208301846127a9565b5f5f604083850312156127fa575f5ffd5b8235612805816124dc565b91506020830135612815816124dc565b809150509250929050565b5f5f5f60608486031215612832575f5ffd5b833561283d816124dc565b9250602084013561284d8161272a565b929592945050506040919091013590565b5f5f5f5f5f60808688031215612872575f5ffd5b853561287d816124dc565b9450602086013561288d816124dc565b93506040860135925060608601356001600160401b038111156128ae575f5ffd5b6128ba888289016124eb565b969995985093965092949392505050565b5f5f5f606084860312156128dd575f5ffd5b83356128e8816124dc565b9250602084013561284d816124dc565b5f5f5f5f5f5f5f5f60e0898b03121561290f575f5ffd5b883561291a816124dc565b9750602089013596506040890135955060608901359450608089013561293f8161272a565b935060a089013561294f8161272a565b925060c08901356001600160401b03811115612969575f5ffd5b6129758b828c016124eb565b999c989b5096995094979396929594505050565b5f5f5f5f6080858703121561299c575f5ffd5b84356129a7816124dc565b935060208501356129b7816124dc565b925060408501356129c78161272a565b9396929550929360600135925050565b5f602082840312156129e7575f5ffd5b5035919050565b600181811c90821680612a0257607f821691505b602082108103612a2057634e487b7160e01b5f52602260045260245ffd5b50919050565b818382375f9101908152919050565b81835281816020850137505f828201602090810191909152601f909101601f19169091010190565b61ffff84168152604060208201525f611a49604083018486612a35565b634e487b7160e01b5f52601160045260245ffd5b8181038181111561225a5761225a612a7a565b8284823760609190911b6bffffffffffffffffffffffff19169101908152601401919050565b601f82111561158b57805f5260205f20601f840160051c81016020851015612aec5750805b601f840160051c820191505b81811015610d8b575f8155600101612af8565b81516001600160401b03811115612b2457612b246125cc565b612b3881612b3284546129ee565b84612ac7565b6020601f821160018114612b6a575f8315612b535750848201515b5f19600385901b1c1916600184901b178455610d8b565b5f84815260208120601f198516915b82811015612b995787850151825560209485019460019092019101612b79565b5084821015612bb657868401515f19600387901b60f8161c191681555b50505050600190811b01905550565b5f60018201612bd657612bd6612a7a565b5060010190565b808202811582820484141761225a5761225a612a7a565b5f82612c0e57634e487b7160e01b5f52601260045260245ffd5b500490565b8082018082111561225a5761225a612a7a565b5f61ffff821661ffff8103612c3d57612c3d612a7a565b60010192915050565b61ffff8616815261ffff85166020820152836040820152608060608201525f612c73608083018486612a35565b979650505050505050565b6001600160401b03831115612c9557612c956125cc565b612ca983612ca383546129ee565b83612ac7565b5f601f841160018114612cda575f8515612cc35750838201355b5f19600387901b1c1916600186901b178355610d8b565b5f83815260208120601f198716915b82811015612d095786850135825560209485019460019092019101612ce9565b5086821015612d25575f1960f88860031b161c19848701351681555b505060018560011b0183555050505050565b60f09590951b6001600160f01b0319168552600285019390935260228401919091526042830152606282015260820190565b5f81612d7757612d77612a7a565b505f190190565b5f82601f830112612d8d575f5ffd5b8151612d9b6126aa82612610565b818152846020838601011115612daf575f5ffd5b8160208501602083015e5f918101602001919091529392505050565b5f60208284031215612ddb575f5ffd5b81516001600160401b03811115612df0575f5ffd5b612dfc84828501612d7e565b949350505050565b5f5f5f5f5f5f60c08789031215612e19575f5ffd5b8651612e24816124dc565b6020880151604089015160608a015160808b015160a08c0151949a50929850909650945092506001600160401b03811115612e5d575f5ffd5b612e6989828a01612d7e565b9150509295509295509295565b61ffff8716815260c060208201525f612e9260c08301886127a9565b8281036040840152612ea481886127a9565b6001600160a01b0387811660608601528616608085015283810360a08501529050612ecf81856127a9565b9998505050505050505050565b634e487b7160e01b5f52602160045260245ffdfea2646970667358221220d372857d9ea85efdda4b494be3055581a771c84747bc4a91a45bee80621d4a5e64736f6c634300081c0033",
  "linkReferences": {},
  "deployedLinkReferences": {},
  "immutableReferences": {
    "59452": [
      {
        "length": 32,
        "start": 1270
      },
      {
        "length": 32,
        "start": 2214
      },
      {
        "length": 32,
        "start": 3375
      },
      {
        "length": 32,
        "start": 3537
      },
      {
        "length": 32,
        "start": 3824
      },
      {
        "length": 32,
        "start": 5551
      },
      {
        "length": 32,
        "start": 6614
      },
      {
        "length": 32,
        "start": 8638
      }
    ]
  },
  "inputSourceName": "project/contracts/SentinelCrossChainSecurityOracle.sol",
  "buildInfoId": "solc-0_8_28-1b5c21a21cac4f08cf2c8993926ccb888320140e"
}