{
  "_format": "hh3-artifact-1",
  "contractName": "SentinelSecurityAuditor",
  "sourceName": "contracts/SentinelSecurityAuditor.sol",
  "abi": [
    {
      "inputs": [
        {
          "internalType": "address",
          "name": "initialOwner",
          "type": "address"
        }
      ],
      "stateMutability": "nonpayable",
      "type": "constructor"
    },
    {
      "inputs": [
        {
          "internalType": "address",
          "name": "owner",
          "type": "address"
        }
      ],
      "name": "OwnableInvalidOwner",
      "type": "error"
    },
    {
      "inputs": [
        {
          "internalType": "address",
          "name": "account",
          "type": "address"
        }
      ],
      "name": "OwnableUnauthorizedAccount",
      "type": "error"
    },
    {
      "inputs": [],
      "name": "ReentrancyGuardReentrantCall",
      "type": "error"
    },
    {
      "anonymous": false,
      "inputs": [
        {
          "indexed": true,
          "internalType": "address",
          "name": "recipient",
          "type": "address"
        },
        {
          "indexed": false,
          "internalType": "uint256",
          "name": "severity",
          "type": "uint256"
        },
        {
          "indexed": false,
          "internalType": "string",
          "name": "message",
          "type": "string"
        }
      ],
      "name": "AlertSent",
      "type": "event"
    },
    {
      "anonymous": false,
      "inputs": [
        {
          "indexed": true,
          "internalType": "uint256",
          "name": "logId",
          "type": "uint256"
        },
        {
          "indexed": false,
          "internalType": "string",
          "name": "eventType",
          "type": "string"
        },
        {
          "indexed": false,
          "internalType": "uint256",
          "name": "severity",
          "type": "uint256"
        }
      ],
      "name": "AuditLogCreated",
      "type": "event"
    },
    {
      "anonymous": false,
      "inputs": [
        {
          "indexed": true,
          "internalType": "uint256",
          "name": "ruleId",
          "type": "uint256"
        },
        {
          "indexed": false,
          "internalType": "address",
          "name": "responseContract",
          "type": "address"
        }
      ],
      "name": "AutomatedResponseTriggered",
      "type": "event"
    },
    {
      "anonymous": false,
      "inputs": [
        {
          "indexed": true,
          "internalType": "address",
          "name": "previousOwner",
          "type": "address"
        },
        {
          "indexed": true,
          "internalType": "address",
          "name": "newOwner",
          "type": "address"
        }
      ],
      "name": "OwnershipTransferred",
      "type": "event"
    },
    {
      "anonymous": false,
      "inputs": [
        {
          "indexed": true,
          "internalType": "uint256",
          "name": "incidentId",
          "type": "uint256"
        },
        {
          "indexed": false,
          "internalType": "string",
          "name": "incidentType",
          "type": "string"
        },
        {
          "indexed": false,
          "internalType": "uint256",
          "name": "severity",
          "type": "uint256"
        }
      ],
      "name": "SecurityIncidentReported",
      "type": "event"
    },
    {
      "anonymous": false,
      "inputs": [
        {
          "indexed": false,
          "internalType": "uint256",
          "name": "newScore",
          "type": "uint256"
        },
        {
          "indexed": false,
          "internalType": "string",
          "name": "reason",
          "type": "string"
        }
      ],
      "name": "SecurityScoreUpdated",
      "type": "event"
    },
    {
      "anonymous": false,
      "inputs": [
        {
          "indexed": true,
          "internalType": "uint256",
          "name": "ruleId",
          "type": "uint256"
        },
        {
          "indexed": false,
          "internalType": "string",
          "name": "ruleName",
          "type": "string"
        },
        {
          "indexed": false,
          "internalType": "uint256",
          "name": "severity",
          "type": "uint256"
        }
      ],
      "name": "ThreatDetected",
      "type": "event"
    },
    {
      "inputs": [
        {
          "internalType": "address",
          "name": "recipient",
          "type": "address"
        }
      ],
      "name": "addAlertRecipient",
      "outputs": [],
      "stateMutability": "nonpayable",
      "type": "function"
    },
    {
      "inputs": [
        {
          "internalType": "string",
          "name": "ruleName",
          "type": "string"
        },
        {
          "internalType": "uint256",
          "name": "severity",
          "type": "uint256"
        },
        {
          "internalType": "uint256",
          "name": "threshold",
          "type": "uint256"
        },
        {
          "internalType": "bytes",
          "name": "ruleLogic",
          "type": "bytes"
        }
      ],
      "name": "addThreatRule",
      "outputs": [
        {
          "internalType": "uint256",
          "name": "",
          "type": "uint256"
        }
      ],
      "stateMutability": "nonpayable",
      "type": "function"
    },
    {
      "inputs": [
        {
          "internalType": "uint256",
          "name": "",
          "type": "uint256"
        }
      ],
      "name": "alertRecipients",
      "outputs": [
        {
          "internalType": "address",
          "name": "",
          "type": "address"
        }
      ],
      "stateMutability": "view",
      "type": "function"
    },
    {
      "inputs": [],
      "name": "alertThreshold",
      "outputs": [
        {
          "internalType": "uint256",
          "name": "",
          "type": "uint256"
        }
      ],
      "stateMutability": "view",
      "type": "function"
    },
    {
      "inputs": [
        {
          "internalType": "uint256",
          "name": "",
          "type": "uint256"
        }
      ],
      "name": "auditLogs",
      "outputs": [
        {
          "internalType": "uint256",
          "name": "id",
          "type": "uint256"
        },
        {
          "internalType": "string",
          "name": "eventType",
          "type": "string"
        },
        {
          "internalType": "address",
          "name": "actor",
          "type": "address"
        },
        {
          "internalType": "bytes32",
          "name": "transactionHash",
          "type": "bytes32"
        },
        {
          "internalType": "uint256",
          "name": "timestamp",
          "type": "uint256"
        },
        {
          "internalType": "uint256",
          "name": "severity",
          "type": "uint256"
        },
        {
          "internalType": "string",
          "name": "details",
          "type": "string"
        },
        {
          "internalType": "bool",
          "name": "resolved",
          "type": "bool"
        },
        {
          "internalType": "uint256",
          "name": "resolutionTime",
          "type": "uint256"
        }
      ],
      "stateMutability": "view",
      "type": "function"
    },
    {
      "inputs": [],
      "name": "autoResponseEnabled",
      "outputs": [
        {
          "internalType": "bool",
          "name": "",
          "type": "bool"
        }
      ],
      "stateMutability": "view",
      "type": "function"
    },
    {
      "inputs": [
        {
          "internalType": "uint256",
          "name": "incidentId",
          "type": "uint256"
        }
      ],
      "name": "confirmIncident",
      "outputs": [],
      "stateMutability": "nonpayable",
      "type": "function"
    },
    {
      "inputs": [
        {
          "internalType": "string",
          "name": "eventType",
          "type": "string"
        },
        {
          "internalType": "address",
          "name": "actor",
          "type": "address"
        },
        {
          "internalType": "uint256",
          "name": "severity",
          "type": "uint256"
        },
        {
          "internalType": "string",
          "name": "details",
          "type": "string"
        }
      ],
      "name": "createAuditLog",
      "outputs": [
        {
          "internalType": "uint256",
          "name": "",
          "type": "uint256"
        }
      ],
      "stateMutability": "nonpayable",
      "type": "function"
    },
    {
      "inputs": [
        {
          "internalType": "uint256",
          "name": "offset",
          "type": "uint256"
        },
        {
          "internalType": "uint256",
          "name": "limit",
          "type": "uint256"
        }
      ],
      "name": "getAuditLogs",
      "outputs": [
        {
          "components": [
            {
              "internalType": "uint256",
              "name": "id",
              "type": "uint256"
            },
            {
              "internalType": "string",
              "name": "eventType",
              "type": "string"
            },
            {
              "internalType": "address",
              "name": "actor",
              "type": "address"
            },
            {
              "internalType": "bytes32",
              "name": "transactionHash",
              "type": "bytes32"
            },
            {
              "internalType": "uint256",
              "name": "timestamp",
              "type": "uint256"
            },
            {
              "internalType": "uint256",
              "name": "severity",
              "type": "uint256"
            },
            {
              "internalType": "string",
              "name": "details",
              "type": "string"
            },
            {
              "internalType": "bool",
              "name": "resolved",
              "type": "bool"
            },
            {
              "internalType": "uint256",
              "name": "resolutionTime",
              "type": "uint256"
            }
          ],
          "internalType": "struct SentinelSecurityAuditor.AuditLog[]",
          "name": "",
          "type": "tuple[]"
        }
      ],
      "stateMutability": "view",
      "type": "function"
    },
    {
      "inputs": [],
      "name": "getSecurityDashboard",
      "outputs": [
        {
          "internalType": "uint256",
          "name": "currentThreatLevel",
          "type": "uint256"
        },
        {
          "internalType": "uint256",
          "name": "currentSecurityScore",
          "type": "uint256"
        },
        {
          "internalType": "uint256",
          "name": "activeIncidents",
          "type": "uint256"
        },
        {
          "internalType": "uint256",
          "name": "unresolvedIncidents",
          "type": "uint256"
        },
        {
          "internalType": "uint256",
          "name": "totalAuditLogs",
          "type": "uint256"
        }
      ],
      "stateMutability": "view",
      "type": "function"
    },
    {
      "inputs": [],
      "name": "incidentCount",
      "outputs": [
        {
          "internalType": "uint256",
          "name": "",
          "type": "uint256"
        }
      ],
      "stateMutability": "view",
      "type": "function"
    },
    {
      "inputs": [
        {
          "internalType": "address",
          "name": "",
          "type": "address"
        }
      ],
      "name": "isAlertRecipient",
      "outputs": [
        {
          "internalType": "bool",
          "name": "",
          "type": "bool"
        }
      ],
      "stateMutability": "view",
      "type": "function"
    },
    {
      "inputs": [],
      "name": "lastSecurityUpdate",
      "outputs": [
        {
          "internalType": "uint256",
          "name": "",
          "type": "uint256"
        }
      ],
      "stateMutability": "view",
      "type": "function"
    },
    {
      "inputs": [],
      "name": "logCount",
      "outputs": [
        {
          "internalType": "uint256",
          "name": "",
          "type": "uint256"
        }
      ],
      "stateMutability": "view",
      "type": "function"
    },
    {
      "inputs": [],
      "name": "owner",
      "outputs": [
        {
          "internalType": "address",
          "name": "",
          "type": "address"
        }
      ],
      "stateMutability": "view",
      "type": "function"
    },
    {
      "inputs": [],
      "name": "renounceOwnership",
      "outputs": [],
      "stateMutability": "nonpayable",
      "type": "function"
    },
    {
      "inputs": [
        {
          "internalType": "string",
          "name": "incidentType",
          "type": "string"
        },
        {
          "internalType": "uint256",
          "name": "severity",
          "type": "uint256"
        },
        {
          "internalType": "string",
          "name": "description",
          "type": "string"
        },
        {
          "internalType": "bytes",
          "name": "evidence",
          "type": "bytes"
        }
      ],
      "name": "reportSecurityIncident",
      "outputs": [
        {
          "internalType": "uint256",
          "name": "",
          "type": "uint256"
        }
      ],
      "stateMutability": "nonpayable",
      "type": "function"
    },
    {
      "inputs": [
        {
          "internalType": "uint256",
          "name": "incidentId",
          "type": "uint256"
        }
      ],
      "name": "resolveIncident",
      "outputs": [],
      "stateMutability": "nonpayable",
      "type": "function"
    },
    {
      "inputs": [
        {
          "internalType": "string",
          "name": "",
          "type": "string"
        }
      ],
      "name": "responseContracts",
      "outputs": [
        {
          "internalType": "address",
          "name": "",
          "type": "address"
        }
      ],
      "stateMutability": "view",
      "type": "function"
    },
    {
      "inputs": [],
      "name": "responseCooldown",
      "outputs": [
        {
          "internalType": "uint256",
          "name": "",
          "type": "uint256"
        }
      ],
      "stateMutability": "view",
      "type": "function"
    },
    {
      "inputs": [],
      "name": "ruleCount",
      "outputs": [
        {
          "internalType": "uint256",
          "name": "",
          "type": "uint256"
        }
      ],
      "stateMutability": "view",
      "type": "function"
    },
    {
      "inputs": [
        {
          "internalType": "uint256",
          "name": "",
          "type": "uint256"
        }
      ],
      "name": "securityIncidents",
      "outputs": [
        {
          "internalType": "uint256",
          "name": "id",
          "type": "uint256"
        },
        {
          "internalType": "string",
          "name": "incidentType",
          "type": "string"
        },
        {
          "internalType": "uint256",
          "name": "severity",
          "type": "uint256"
        },
        {
          "internalType": "uint256",
          "name": "timestamp",
          "type": "uint256"
        },
        {
          "internalType": "address",
          "name": "reporter",
          "type": "address"
        },
        {
          "internalType": "string",
          "name": "description",
          "type": "string"
        },
        {
          "internalType": "bool",
          "name": "confirmed",
          "type": "bool"
        },
        {
          "internalType": "bool",
          "name": "resolved",
          "type": "bool"
        },
        {
          "internalType": "uint256",
          "name": "resolutionTime",
          "type": "uint256"
        },
        {
          "internalType": "bytes",
          "name": "evidence",
          "type": "bytes"
        }
      ],
      "stateMutability": "view",
      "type": "function"
    },
    {
      "inputs": [],
      "name": "securityScore",
      "outputs": [
        {
          "internalType": "uint256",
          "name": "",
          "type": "uint256"
        }
      ],
      "stateMutability": "view",
      "type": "function"
    },
    {
      "inputs": [
        {
          "internalType": "uint256",
          "name": "threshold",
          "type": "uint256"
        }
      ],
      "name": "setAlertThreshold",
      "outputs": [],
      "stateMutability": "nonpayable",
      "type": "function"
    },
    {
      "inputs": [
        {
          "internalType": "string",
          "name": "ruleName",
          "type": "string"
        },
        {
          "internalType": "address",
          "name": "responseContract",
          "type": "address"
        }
      ],
      "name": "setAutomatedResponse",
      "outputs": [],
      "stateMutability": "nonpayable",
      "type": "function"
    },
    {
      "inputs": [],
      "name": "threatLevel",
      "outputs": [
        {
          "internalType": "uint256",
          "name": "",
          "type": "uint256"
        }
      ],
      "stateMutability": "view",
      "type": "function"
    },
    {
      "inputs": [
        {
          "internalType": "uint256",
          "name": "",
          "type": "uint256"
        }
      ],
      "name": "threatRules",
      "outputs": [
        {
          "internalType": "string",
          "name": "ruleName",
          "type": "string"
        },
        {
          "internalType": "uint256",
          "name": "severity",
          "type": "uint256"
        },
        {
          "internalType": "uint256",
          "name": "threshold",
          "type": "uint256"
        },
        {
          "internalType": "bool",
          "name": "active",
          "type": "bool"
        },
        {
          "internalType": "uint256",
          "name": "triggerCount",
          "type": "uint256"
        },
        {
          "internalType": "uint256",
          "name": "lastTriggered",
          "type": "uint256"
        },
        {
          "internalType": "bytes",
          "name": "ruleLogic",
          "type": "bytes"
        }
      ],
      "stateMutability": "view",
      "type": "function"
    },
    {
      "inputs": [
        {
          "internalType": "address",
          "name": "newOwner",
          "type": "address"
        }
      ],
      "name": "transferOwnership",
      "outputs": [],
      "stateMutability": "nonpayable",
      "type": "function"
    }
  ],
  "bytecode": "0x608060405234801561000f575f5ffd5b50604051612cf6380380612cf683398101604081905261002e91610386565b806001600160a01b03811661005d57604051631e4fbdf760e01b81525f60048201526024015b60405180910390fd5b610066816100df565b5060017f9b779b17422d0df92223018b32b4d1fa46e071723d6817e2486d003becc55f00556001600160a01b0381166100d15760405162461bcd60e51b815260206004820152600d60248201526c24b73b30b634b21037bbb732b960991b6044820152606401610054565b6100d961012e565b50610529565b5f80546001600160a01b038381166001600160a01b0319831681178455604051919092169283917f8be0079c531659141344cd1fd0a4f28419497f9722a3daafe3b4186f6b6457e09190a35050565b600a6007556103526008556005600f55600b805460ff19166001179055610e10600c5561015961015b565b565b6101b26040518060400160405280601581526020017f686967685f6672657175656e63795f74726164657300000000000000000000008152506006606460405180602001604052805f8152506102b660201b60201c565b506102136040518060400160405280601481526020017f6c617267655f76616c75655f7472616e73666572000000000000000000000000815250600769152d02c7e14af680000060405180602001604052805f8152506102b660201b60201c565b5061026b6040518060400160405280601381526020017f756e617574686f72697a65645f616363657373000000000000000000000000008152506009600160405180602001604052805f8152506102b660201b60201c565b506102b36040518060400160405280600d81526020016c616e6f6d616c795f7370696b6560981b8152506008603260405180602001604052805f8152506102b660201b60201c565b50565b600580545f91829190826102c9836103b3565b909155506040805160e0810182528881526020808201899052818301889052600160608301525f6080830181905260a0830181905260c08301889052848152600290915291909120815192935090918190610324908261046f565b506020820151600182015560408201516002820155606082015160038201805460ff19169115159190911790556080820151600482015560a0820151600582015560c08201516006820190610379908261046f565b5091979650505050505050565b5f60208284031215610396575f5ffd5b81516001600160a01b03811681146103ac575f5ffd5b9392505050565b5f600182016103d057634e487b7160e01b5f52601160045260245ffd5b5060010190565b634e487b7160e01b5f52604160045260245ffd5b600181811c908216806103ff57607f821691505b60208210810361041d57634e487b7160e01b5f52602260045260245ffd5b50919050565b601f82111561046a57805f5260205f20601f840160051c810160208510156104485750805b601f840160051c820191505b81811015610467575f8155600101610454565b50505b505050565b81516001600160401b03811115610488576104886103d7565b61049c8161049684546103eb565b84610423565b6020601f8211600181146104ce575f83156104b75750848201515b5f19600385901b1c1916600184901b178455610467565b5f84815260208120601f198516915b828110156104fd57878501518255602094850194600190920191016104dd565b508482101561051a57868401515f19600387901b60f8161c191681555b50505050600190811b01905550565b6127c0806105365f395ff3fe608060405234801561000f575f5ffd5b50600436106101bb575f3560e01c806381631d2a116100f3578063b70f0c2311610093578063e0e61a011161006e578063e0e61a01146103ef578063f2fde38b146103f8578063f38d8fe81461040b578063f6bcf6331461043b575f5ffd5b8063b70f0c2314610379578063d425d8c4146103ad578063d8cc4d6a146103cf575f5ffd5b8063a09b86ac116100ce578063a09b86ac1461034b578063a503898f14610354578063aad9019c1461035d578063acfbe56514610370575f5ffd5b806381631d2a1461031f5780638da5cb5b146103325780639b82b3d514610342575f5ffd5b80634ffe6ae21161015e578063622529a011610139578063622529a0146102d05780636405e8e4146102fb5780636fa197a814610304578063715018a614610317575f5ffd5b80634ffe6ae21461026f5780635a83f62c1461028257806360760415146102a8575f5ffd5b80632df0cd72116101995780632df0cd721461021f578063338cd274146102325780634b2d9c27146102455780634c5a88e31461025c575f5ffd5b80630f1645af146101bf5780631096fdf1146101e157806318b2432b146101f6575b5f5ffd5b600b546101cc9060ff1681565b60405190151581526020015b60405180910390f35b6101f46101ef366004611e50565b610444565b005b610209610204366004611e50565b610451565b6040516101d89a99989796959493929190611e95565b6101f461022d366004611e50565b610647565b6101f4610240366004611f7a565b610728565b61024e600f5481565b6040519081526020016101d8565b6101f461026a366004611fc9565b610777565b6101f461027d366004611e50565b610804565b610295610290366004611e50565b61093b565b6040516101d89796959493929190611fe2565b6102bb6102b6366004611e50565b610a8c565b6040516101d899989796959493929190612034565b6102e36102de366004611e50565b610bf0565b6040516001600160a01b0390911681526020016101d8565b61024e60075481565b61024e61031236600461209e565b610c18565b6101f4610f0a565b61024e61032d366004612143565b610f1d565b5f546001600160a01b03166102e3565b61024e600c5481565b61024e60065481565b61024e60045481565b61024e61036b3660046121cb565b611194565b61024e60095481565b6102e3610387366004612241565b8051602081830181018051600a825292820191909301209152546001600160a01b031681565b6101cc6103bb366004611fc9565b600e6020525f908152604090205460ff1681565b6103e26103dd3660046122f1565b611212565b6040516101d89190612311565b61024e60085481565b6101f4610406366004611fc9565b6114fb565b610413611535565b604080519586526020860194909452928401919091526060830152608082015260a0016101d8565b61024e60055481565b61044c6115be565b600f55565b60036020525f90815260409020805460018201805491929161047290612400565b80601f016020809104026020016040519081016040528092919081815260200182805461049e90612400565b80156104e95780601f106104c0576101008083540402835291602001916104e9565b820191905f5260205f20905b8154815290600101906020018083116104cc57829003601f168201915b505050600284015460038501546004860154600587018054969793969295506001600160a01b0390911693509061051f90612400565b80601f016020809104026020016040519081016040528092919081815260200182805461054b90612400565b80156105965780601f1061056d57610100808354040283529160200191610596565b820191905f5260205f20905b81548152906001019060200180831161057957829003601f168201915b5050505060068301546007840154600885018054949560ff8085169661010090950416945091926105c690612400565b80601f01602080910402602001604051908101604052809291908181526020018280546105f290612400565b801561063d5780601f106106145761010080835404028352916020019161063d565b820191905f5260205f20905b81548152906001019060200180831161062057829003601f168201915b505050505090508a565b61064f6115be565b600654811061069b5760405162461bcd60e51b8152602060048201526013602482015272125b9d985b1a59081a5b98da59195b9d081251606a1b60448201526064015b60405180910390fd5b5f8181526003602052604090206006015460ff16156106f05760405162461bcd60e51b8152602060048201526011602482015270105b1c9958591e4818dbdb999a5c9b5959607a1b6044820152606401610692565b5f81815260036020526040902060068101805460ff19166001179055600201546107259061071f90600561244c565b5f6115ea565b50565b6107306115be565b80600a8484604051610743929190612463565b90815260405190819003602001902080546001600160a01b03929092166001600160a01b0319909216919091179055505050565b61077f6115be565b6001600160a01b0381165f908152600e602052604090205460ff1661072557600d805460018181019092557fd7b6990105719101dabeb77144f2a3385c8033acd3af97e9423a695e81ad1eb50180546001600160a01b0384166001600160a01b031990911681179091555f908152600e60205260409020805460ff1916909117905550565b61080c6115be565b60065481106108535760405162461bcd60e51b8152602060048201526013602482015272125b9d985b1a59081a5b98da59195b9d081251606a1b6044820152606401610692565b5f8181526003602052604090206006015460ff166108a35760405162461bcd60e51b815260206004820152600d60248201526c139bdd0818dbdb999a5c9b5959609a1b6044820152606401610692565b5f81815260036020526040902060060154610100900460ff16156108fc5760405162461bcd60e51b815260206004820152601060248201526f105b1c9958591e481c995cdbdb1d995960821b6044820152606401610692565b5f81815260036020526040902060068101805461ff00191661010017905542600782015560029081015461072591610934919061244c565b60016115ea565b60026020525f908152604090208054819061095590612400565b80601f016020809104026020016040519081016040528092919081815260200182805461098190612400565b80156109cc5780601f106109a3576101008083540402835291602001916109cc565b820191905f5260205f20905b8154815290600101906020018083116109af57829003601f168201915b505050505090806001015490806002015490806003015f9054906101000a900460ff1690806004015490806005015490806006018054610a0b90612400565b80601f0160208091040260200160405190810160405280929190818152602001828054610a3790612400565b8015610a825780601f10610a5957610100808354040283529160200191610a82565b820191905f5260205f20905b815481529060010190602001808311610a6557829003601f168201915b5050505050905087565b600160208190525f918252604090912080549181018054610aac90612400565b80601f0160208091040260200160405190810160405280929190818152602001828054610ad890612400565b8015610b235780601f10610afa57610100808354040283529160200191610b23565b820191905f5260205f20905b815481529060010190602001808311610b0657829003601f168201915b505050600284015460038501546004860154600587015460068801805497986001600160a01b03909516979396509194509291610b5f90612400565b80601f0160208091040260200160405190810160405280929190818152602001828054610b8b90612400565b8015610bd65780601f10610bad57610100808354040283529160200191610bd6565b820191905f5260205f20905b815481529060010190602001808311610bb957829003601f168201915b505050506007830154600890930154919260ff1691905089565b600d8181548110610bff575f80fd5b5f918252602090912001546001600160a01b0316905081565b5f60018610158015610c2b5750600a8611155b610c6a5760405162461bcd60e51b815260206004820152601060248201526f496e76616c696420736576657269747960801b6044820152606401610692565b600680545f9182610c7a83612472565b9190505590506040518061014001604052808281526020018a8a8080601f0160208091040260200160405190810160405280939291908181526020018383808284375f9201919091525050509082525060208082018a9052426040808401919091523360608401528051601f8a018390048302810183019091528881526080909201919089908990819084018382808284375f9201829052509385525050506020808301829052604080840183905260608401929092528151601f880182900482028101820190925286825260809092019187908790819084018382808284375f92018290525093909452505083815260036020908152604090912083518155908301519091506001820190610d9090826124d5565b50604082015160028201556060820151600382015560808201516004820180546001600160a01b0319166001600160a01b0390921691909117905560a08201516005820190610ddf90826124d5565b5060c082015160068201805460e085015161ffff1990911692151561ff00191692909217610100921515830217905582015160078201556101208201516008820190610e2b90826124d5565b50610e3e915061071f905088600a61244c565b610e6a81888b8b604051602001610e5692919061258f565b6040516020818303038152906040526116d8565b600b5460ff168015610e7d575060078710155b15610ec257610ec289898080601f0160208091040260200160405190810160405280939291908181526020018383808284375f920191909152508b9250611756915050565b807fa54a844553f54854cfd155e4db08a9e08ac6664491c81d883ab3a7137279c22b8a8a8a604051610ef6939291906125bd565b60405180910390a298975050505050505050565b610f126115be565b610f1b5f611788565b565b5f60018410158015610f305750600a8411155b610f6f5760405162461bcd60e51b815260206004820152601060248201526f496e76616c696420736576657269747960801b6044820152606401610692565b600480545f9182610f7f83612472565b91905055905060405180610120016040528082815260200189898080601f0160208091040260200160405190810160405280939291908181526020018383808284375f920191909152505050908252506001600160a01b0388166020820152604001610fe96117d7565b815260200142815260200186815260200185858080601f0160208091040260200160405190810160405280939291908181526020018383808284375f920182905250938552505050602080830182905260409283018290528482526001808252929091208351815590830151909182019061106490826124d5565b5060408201516002820180546001600160a01b0319166001600160a01b03909216919091179055606082015160038201556080820151600482015560a0820151600582015560c082015160068201906110bd90826124d5565b5060e082015160078201805460ff191691151591909117905561010090910151600890910155604080516020601f8a01819004810282018101909252888152611121918a908a90819084018382808284375f920191909152508992506117e9915050565b61112c8560016115ea565b807f4f4dc48c976083a6883c5e4415dfb522447bf3e6958b1e43b61bf8b5d4e982f8898988604051611160939291906125bd565b60405180910390a2600f5485106111895761118981868a8a604051602001610e569291906125f4565b979650505050505050565b5f61119d6115be565b61118987878080601f0160208091040260200160405190810160405280939291908181526020018383808284375f9201919091525050604080516020601f89018190048102820181019092528781528a93508992509088908890819084018382808284375f9201919091525061198d92505050565b606060045483106112565760405162461bcd60e51b815260206004820152600e60248201526d125b9d985b1a59081bd9999cd95d60921b6044820152606401610692565b5f83600454611265919061261a565b8311611271578261127f565b8360045461127f919061261a565b90505f816001600160401b0381111561129a5761129a61222d565b60405190808252806020026020018201604052801561131e57816020015b61130b6040518061012001604052805f8152602001606081526020015f6001600160a01b031681526020015f81526020015f81526020015f8152602001606081526020015f151581526020015f81525090565b8152602001906001900390816112b85790505b5090505f5b828110156114f05760015f611338838961262d565b81526020019081526020015f20604051806101200160405290815f820154815260200160018201805461136a90612400565b80601f016020809104026020016040519081016040528092919081815260200182805461139690612400565b80156113e15780601f106113b8576101008083540402835291602001916113e1565b820191905f5260205f20905b8154815290600101906020018083116113c457829003601f168201915b505050918352505060028201546001600160a01b0316602082015260038201546040820152600482015460608201526005820154608082015260068201805460a09092019161142f90612400565b80601f016020809104026020016040519081016040528092919081815260200182805461145b90612400565b80156114a65780601f1061147d576101008083540402835291602001916114a6565b820191905f5260205f20905b81548152906001019060200180831161148957829003601f168201915b5050509183525050600782015460ff161515602082015260089091015460409091015282518390839081106114dd576114dd612640565b6020908102919091010152600101611323565b509150505b92915050565b6115036115be565b6001600160a01b03811661152c57604051631e4fbdf760e01b81525f6004820152602401610692565b61072581611788565b5f808080808080805b6006548110156115a3575f81815260036020526040902060060154610100900460ff1661159b578161156f81612472565b5f8381526003602052604090206006015490935060ff1615905061159b578261159781612472565b9350505b60010161153e565b50600754600854600454919990985092965090945092509050565b5f546001600160a01b03163314610f1b5760405163118cdaa760e01b8152336004820152602401610692565b801561161857816008546115fe919061262d565b60088190556103e81015611613576103e86008555b611639565b8160085411611627575f611635565b81600854611635919061261a565b6008555b426009556008547fd1ddfef4c79494c5bc0d43e07962cfacd1e5a44671853215c12318f9eccf471a9082611696576040518060400160405280601181526020017014d958dd5c9a5d1e481a5b98da59195b9d607a1b8152506116be565b6040518060400160405280600e81526020016d141bdcda5d1a5d9948195d995b9d60921b8152505b6040516116cc929190612654565b60405180910390a15050565b5f5b600d5481101561175057600d81815481106116f7576116f7612640565b5f918252602090912001546040516001600160a01b03909116907f4d6d8a8003647e66f4cf97e994e27bcb398248b195423b3052520da679c72adf906117409086908690612654565b60405180910390a26001016116da565b50505050565b5f600a836040516117679190612674565b908152604051908190036020019020546001600160a01b031690505b505050565b5f80546001600160a01b038381166001600160a01b0319831681178455604051919092169283917f8be0079c531659141344cd1fd0a4f28419497f9722a3daafe3b4186f6b6457e09190a35050565b5f6117e360014361261a565b40905090565b5f5b600554811015611783575f818152600260205260409020600381015460ff166118145750611985565b80545f906118aa90839061182790612400565b80601f016020809104026020016040519081016040528092919081815260200182805461185390612400565b801561189e5780601f106118755761010080835404028352916020019161189e565b820191905f5260205f20905b81548152906001019060200180831161188157829003601f168201915b50505050508686611a5d565b1561198257600482018054905f6118c083612472565b90915550504260058301555060016118d984600261244c565b6007546118e6919061262d565b6007819055606410156118f95760646007555b600182015460405184917f6a828cd8f571d722b3b457b70dbc696f3685004aaf28c78695f1e57499449f4c9161193091869161268a565b60405180910390a2600b5460ff16801561197457506040515f90600a90611958908590612719565b908152604051908190036020019020546001600160a01b031614155b156119825761198283611c65565b50505b6001016117eb565b600580545f91829190826119a083612472565b909155506040805160e0810182528881526020808201899052818301889052600160608301525f6080830181905260a0830181905260c083018890528481526002909152919091208151929350909181906119fb90826124d5565b506020820151600182015560408201516002820155606082015160038201805460ff19169115159190911790556080820151600482015560a0820151600582015560c08201516006820190611a5090826124d5565b5091979650505050505050565b5f5f84604051602001611a709190612674565b6040516020818303038152906040528051906020012090505f84604051602001611a9a9190612674565b604051602081830303815290604052805190602001209050604051602001611add9074686967685f6672657175656e63795f74726164657360581b815260150190565b6040516020818303038152906040528051906020012082148015611b3257506040516d3a37b5b2b72fba3930b739b332b960911b6020820152602e016040516020818303038152906040528051906020012081145b15611b44575050506005811015611c5e565b604051733630b933b2afbb30b63ab2afba3930b739b332b960611b60208201526034016040516020818303038152906040528051906020012082148015611bbd57506040516e313934b233b2afba3930b739b332b960891b6020820152602f016040516020818303038152906040528051906020012081145b15611bcf575050506007811015611c5e565b60405172756e617574686f72697a65645f61636365737360681b60208201526033016040516020818303038152906040528051906020012082148015611c4657506040516d1858d8d95cdcd7d85d1d195b5c1d60921b6020820152602e016040516020818303038152906040528051906020012081145b15611c58575050506008811015611c5e565b5f925050505b9392505050565b5f81815260026020526040808220815160e08101909252805482908290611c8b90612400565b80601f0160208091040260200160405190810160405280929190818152602001828054611cb790612400565b8015611d025780601f10611cd957610100808354040283529160200191611d02565b820191905f5260205f20905b815481529060010190602001808311611ce557829003601f168201915b50505091835250506001820154602082015260028201546040820152600382015460ff161515606082015260048201546080820152600582015460a082015260068201805460c090920191611d5690612400565b80601f0160208091040260200160405190810160405280929190818152602001828054611d8290612400565b8015611dcd5780601f10611da457610100808354040283529160200191611dcd565b820191905f5260205f20905b815481529060010190602001808311611db057829003601f168201915b50505050508152505090505f600a825f0151604051611dec9190612674565b908152604051908190036020019020546001600160a01b031690508015611783576040516001600160a01b038216815283907f620fd8de0708be00ce14a762a29d14a98699bc84114bc5b19ced945ca78a0ad39060200160405180910390a2505050565b5f60208284031215611e60575f5ffd5b5035919050565b5f81518084528060208401602086015e5f602082860101526020601f19601f83011685010191505092915050565b8a815261014060208201525f611eaf61014083018c611e67565b604083018b9052606083018a90526001600160a01b038916608084015282810360a0840152611ede8189611e67565b905086151560c084015285151560e084015284610100840152828103610120840152611f0a8185611e67565b9d9c50505050505050505050505050565b5f5f83601f840112611f2b575f5ffd5b5081356001600160401b03811115611f41575f5ffd5b602083019150836020828501011115611f58575f5ffd5b9250929050565b80356001600160a01b0381168114611f75575f5ffd5b919050565b5f5f5f60408486031215611f8c575f5ffd5b83356001600160401b03811115611fa1575f5ffd5b611fad86828701611f1b565b9094509250611fc0905060208501611f5f565b90509250925092565b5f60208284031215611fd9575f5ffd5b611c5e82611f5f565b60e081525f611ff460e083018a611e67565b88602084015287604084015286151560608401528560808401528460a084015282810360c08401526120268185611e67565b9a9950505050505050505050565b89815261012060208201525f61204e61012083018b611e67565b6001600160a01b038a166040840152606083018990526080830188905260a0830187905282810360c08401526120848187611e67565b94151560e084015250506101000152979650505050505050565b5f5f5f5f5f5f5f6080888a0312156120b4575f5ffd5b87356001600160401b038111156120c9575f5ffd5b6120d58a828b01611f1b565b9098509650506020880135945060408801356001600160401b038111156120fa575f5ffd5b6121068a828b01611f1b565b90955093505060608801356001600160401b03811115612124575f5ffd5b6121308a828b01611f1b565b989b979a50959850939692959293505050565b5f5f5f5f5f5f60808789031215612158575f5ffd5b86356001600160401b0381111561216d575f5ffd5b61217989828a01611f1b565b909750955061218c905060208801611f5f565b93506040870135925060608701356001600160401b038111156121ad575f5ffd5b6121b989828a01611f1b565b979a9699509497509295939492505050565b5f5f5f5f5f5f608087890312156121e0575f5ffd5b86356001600160401b038111156121f5575f5ffd5b61220189828a01611f1b565b909750955050602087013593506040870135925060608701356001600160401b038111156121ad575f5ffd5b634e487b7160e01b5f52604160045260245ffd5b5f60208284031215612251575f5ffd5b81356001600160401b03811115612266575f5ffd5b8201601f81018413612276575f5ffd5b80356001600160401b0381111561228f5761228f61222d565b604051601f8201601f19908116603f011681016001600160401b03811182821017156122bd576122bd61222d565b6040528181528282016020018610156122d4575f5ffd5b816020840160208301375f91810160200191909152949350505050565b5f5f60408385031215612302575f5ffd5b50508035926020909101359150565b5f602082016020835280845180835260408501915060408160051b8601019250602086015f5b828110156123f457603f1987860301845281518051865260208101516101206020880152612369610120880182611e67565b9050604082015161238560408901826001600160a01b03169052565b50606082015160608801526080820151608088015260a082015160a088015260c082015187820360c08901526123bb8282611e67565b91505060e08201516123d160e089018215159052565b506101009182015196909101959095526020938401939190910190600101612337565b50929695505050505050565b600181811c9082168061241457607f821691505b60208210810361243257634e487b7160e01b5f52602260045260245ffd5b50919050565b634e487b7160e01b5f52601160045260245ffd5b80820281158282048414176114f5576114f5612438565b818382375f9101908152919050565b5f6001820161248357612483612438565b5060010190565b601f82111561178357805f5260205f20601f840160051c810160208510156124af5750805b601f840160051c820191505b818110156124ce575f81556001016124bb565b5050505050565b81516001600160401b038111156124ee576124ee61222d565b612502816124fc8454612400565b8461248a565b6020601f821160018114612534575f831561251d5750848201515b5f19600385901b1c1916600184901b1784556124ce565b5f84815260208120601f198516915b828110156125635787850151825560209485019460019092019101612543565b508482101561258057868401515f19600387901b60f8161c191681555b50505050600190811b01905550565b72029b2b1bab934ba3c9024b731b4b232b73a1d1606d1b8152818360138301375f9101601301908152919050565b60408152826040820152828460608301375f606084830101525f6060601f19601f8601168301019050826020830152949350505050565b6a020bab234ba102637b39d160ad1b81528183600b8301375f9101600b01908152919050565b818103818111156114f5576114f5612438565b808201808211156114f5576114f5612438565b634e487b7160e01b5f52603260045260245ffd5b828152604060208201525f61266c6040830184611e67565b949350505050565b5f82518060208501845e5f920191825250919050565b604081525f5f845461269b81612400565b806040860152600182165f81146126b957600181146126d557612706565b60ff1983166060870152606082151560051b8701019350612706565b875f5260205f205f5b838110156126fd578154888201606001526001909101906020016126de565b87016060019450505b5050506020929092019290925292915050565b5f5f835461272681612400565b60018216801561273d57600181146127525761277f565b60ff198316865281151582028601935061277f565b865f5260205f205f5b838110156127775781548882015260019091019060200161275b565b505081860193505b50919594505050505056fea2646970667358221220b94ed36c60b8d5effef8bfaf7eb252653e65ac99ed6275c82c42afdcba05d3da64736f6c634300081c0033",
  "linkReferences": {},
  "deployedLinkReferences": {},
  "immutableReferences": {},
  "inputSourceName": "project/contracts/SentinelSecurityAuditor.sol",
  "buildInfoId": "solc-0_8_28-1b5c21a21cac4f08cf2c8993926ccb888320140e"
}