{
  "_format": "hh3-artifact-1",
  "contractName": "SentinelCoreLoop",
  "sourceName": "contracts/SentinelCoreLoop.sol",
  "abi": [
    {
      "inputs": [
        {
          "internalType": "address",
          "name": "initialOwner",
          "type": "address"
        }
      ],
      "stateMutability": "nonpayable",
      "type": "constructor"
    },
    {
      "inputs": [],
      "name": "AccessControlBadConfirmation",
      "type": "error"
    },
    {
      "inputs": [
        {
          "internalType": "address",
          "name": "account",
          "type": "address"
        },
        {
          "internalType": "bytes32",
          "name": "neededRole",
          "type": "bytes32"
        }
      ],
      "name": "AccessControlUnauthorizedAccount",
      "type": "error"
    },
    {
      "inputs": [],
      "name": "EnforcedPause",
      "type": "error"
    },
    {
      "inputs": [],
      "name": "ExpectedPause",
      "type": "error"
    },
    {
      "inputs": [
        {
          "internalType": "address",
          "name": "owner",
          "type": "address"
        }
      ],
      "name": "OwnableInvalidOwner",
      "type": "error"
    },
    {
      "inputs": [
        {
          "internalType": "address",
          "name": "account",
          "type": "address"
        }
      ],
      "name": "OwnableUnauthorizedAccount",
      "type": "error"
    },
    {
      "inputs": [],
      "name": "ReentrancyGuardReentrantCall",
      "type": "error"
    },
    {
      "anonymous": false,
      "inputs": [
        {
          "indexed": false,
          "internalType": "string",
          "name": "behavior",
          "type": "string"
        },
        {
          "indexed": false,
          "internalType": "uint256",
          "name": "timestamp",
          "type": "uint256"
        }
      ],
      "name": "AutonomousBehaviorTriggered",
      "type": "event"
    },
    {
      "anonymous": false,
      "inputs": [
        {
          "indexed": true,
          "internalType": "uint256",
          "name": "cycle",
          "type": "uint256"
        },
        {
          "indexed": false,
          "internalType": "uint256",
          "name": "timestamp",
          "type": "uint256"
        }
      ],
      "name": "CoreLoopExecuted",
      "type": "event"
    },
    {
      "anonymous": false,
      "inputs": [
        {
          "indexed": false,
          "internalType": "string",
          "name": "reason",
          "type": "string"
        },
        {
          "indexed": false,
          "internalType": "uint256",
          "name": "severity",
          "type": "uint256"
        }
      ],
      "name": "EmergencyProtocolActivated",
      "type": "event"
    },
    {
      "anonymous": false,
      "inputs": [
        {
          "indexed": false,
          "internalType": "string",
          "name": "reason",
          "type": "string"
        },
        {
          "indexed": false,
          "internalType": "address",
          "name": "initiator",
          "type": "address"
        }
      ],
      "name": "EmergencyShutdownInitiated",
      "type": "event"
    },
    {
      "anonymous": false,
      "inputs": [
        {
          "indexed": true,
          "internalType": "address",
          "name": "previousOwner",
          "type": "address"
        },
        {
          "indexed": true,
          "internalType": "address",
          "name": "newOwner",
          "type": "address"
        }
      ],
      "name": "OwnershipTransferred",
      "type": "event"
    },
    {
      "anonymous": false,
      "inputs": [
        {
          "indexed": false,
          "internalType": "address",
          "name": "account",
          "type": "address"
        }
      ],
      "name": "Paused",
      "type": "event"
    },
    {
      "anonymous": false,
      "inputs": [
        {
          "indexed": false,
          "internalType": "string",
          "name": "reason",
          "type": "string"
        },
        {
          "indexed": false,
          "internalType": "uint256",
          "name": "severity",
          "type": "uint256"
        }
      ],
      "name": "QuantumAlertTriggered",
      "type": "event"
    },
    {
      "anonymous": false,
      "inputs": [
        {
          "indexed": false,
          "internalType": "uint256",
          "name": "coherenceIndex",
          "type": "uint256"
        },
        {
          "indexed": false,
          "internalType": "uint256",
          "name": "entropyLevel",
          "type": "uint256"
        }
      ],
      "name": "QuantumCalibrationCompleted",
      "type": "event"
    },
    {
      "anonymous": false,
      "inputs": [
        {
          "indexed": true,
          "internalType": "bytes32",
          "name": "role",
          "type": "bytes32"
        },
        {
          "indexed": true,
          "internalType": "bytes32",
          "name": "previousAdminRole",
          "type": "bytes32"
        },
        {
          "indexed": true,
          "internalType": "bytes32",
          "name": "newAdminRole",
          "type": "bytes32"
        }
      ],
      "name": "RoleAdminChanged",
      "type": "event"
    },
    {
      "anonymous": false,
      "inputs": [
        {
          "indexed": true,
          "internalType": "bytes32",
          "name": "role",
          "type": "bytes32"
        },
        {
          "indexed": true,
          "internalType": "address",
          "name": "account",
          "type": "address"
        },
        {
          "indexed": true,
          "internalType": "address",
          "name": "sender",
          "type": "address"
        }
      ],
      "name": "RoleGranted",
      "type": "event"
    },
    {
      "anonymous": false,
      "inputs": [
        {
          "indexed": true,
          "internalType": "bytes32",
          "name": "role",
          "type": "bytes32"
        },
        {
          "indexed": true,
          "internalType": "address",
          "name": "account",
          "type": "address"
        },
        {
          "indexed": true,
          "internalType": "address",
          "name": "sender",
          "type": "address"
        }
      ],
      "name": "RoleRevoked",
      "type": "event"
    },
    {
      "anonymous": false,
      "inputs": [
        {
          "indexed": false,
          "internalType": "uint256",
          "name": "securityScore",
          "type": "uint256"
        },
        {
          "indexed": false,
          "internalType": "uint256",
          "name": "anomalyCount",
          "type": "uint256"
        }
      ],
      "name": "SecurityAuditCompleted",
      "type": "event"
    },
    {
      "anonymous": false,
      "inputs": [
        {
          "indexed": false,
          "internalType": "string",
          "name": "component",
          "type": "string"
        },
        {
          "indexed": false,
          "internalType": "address",
          "name": "contractAddress",
          "type": "address"
        }
      ],
      "name": "SystemComponentUpdated",
      "type": "event"
    },
    {
      "anonymous": false,
      "inputs": [
        {
          "indexed": false,
          "internalType": "enum SentinelCoreLoop.SystemStatus",
          "name": "previousStatus",
          "type": "uint8"
        },
        {
          "indexed": false,
          "internalType": "enum SentinelCoreLoop.SystemStatus",
          "name": "newStatus",
          "type": "uint8"
        }
      ],
      "name": "SystemStatusChanged",
      "type": "event"
    },
    {
      "anonymous": false,
      "inputs": [
        {
          "indexed": false,
          "internalType": "bytes32",
          "name": "threatId",
          "type": "bytes32"
        },
        {
          "indexed": false,
          "internalType": "uint256",
          "name": "severity",
          "type": "uint256"
        },
        {
          "indexed": false,
          "internalType": "string",
          "name": "description",
          "type": "string"
        }
      ],
      "name": "ThreatIntercepted",
      "type": "event"
    },
    {
      "anonymous": false,
      "inputs": [
        {
          "indexed": false,
          "internalType": "address",
          "name": "account",
          "type": "address"
        }
      ],
      "name": "Unpaused",
      "type": "event"
    },
    {
      "anonymous": false,
      "inputs": [
        {
          "indexed": false,
          "internalType": "uint256",
          "name": "optimizedAmount",
          "type": "uint256"
        },
        {
          "indexed": false,
          "internalType": "uint256",
          "name": "apyIncrease",
          "type": "uint256"
        }
      ],
      "name": "YieldOptimizationEvent",
      "type": "event"
    },
    {
      "inputs": [],
      "name": "CORE_LOOP_INTERVAL",
      "outputs": [
        {
          "internalType": "uint256",
          "name": "",
          "type": "uint256"
        }
      ],
      "stateMutability": "view",
      "type": "function"
    },
    {
      "inputs": [],
      "name": "CRITICAL_SECURITY_THRESHOLD",
      "outputs": [
        {
          "internalType": "uint256",
          "name": "",
          "type": "uint256"
        }
      ],
      "stateMutability": "view",
      "type": "function"
    },
    {
      "inputs": [],
      "name": "DEFAULT_ADMIN_ROLE",
      "outputs": [
        {
          "internalType": "bytes32",
          "name": "",
          "type": "bytes32"
        }
      ],
      "stateMutability": "view",
      "type": "function"
    },
    {
      "inputs": [],
      "name": "EMERGENCY_ROLE",
      "outputs": [
        {
          "internalType": "bytes32",
          "name": "",
          "type": "bytes32"
        }
      ],
      "stateMutability": "view",
      "type": "function"
    },
    {
      "inputs": [],
      "name": "GOVERNOR_ROLE",
      "outputs": [
        {
          "internalType": "bytes32",
          "name": "",
          "type": "bytes32"
        }
      ],
      "stateMutability": "view",
      "type": "function"
    },
    {
      "inputs": [],
      "name": "MIN_SECURITY_SCORE",
      "outputs": [
        {
          "internalType": "uint256",
          "name": "",
          "type": "uint256"
        }
      ],
      "stateMutability": "view",
      "type": "function"
    },
    {
      "inputs": [],
      "name": "MONITOR_ROLE",
      "outputs": [
        {
          "internalType": "bytes32",
          "name": "",
          "type": "bytes32"
        }
      ],
      "stateMutability": "view",
      "type": "function"
    },
    {
      "inputs": [],
      "name": "OPERATOR_ROLE",
      "outputs": [
        {
          "internalType": "bytes32",
          "name": "",
          "type": "bytes32"
        }
      ],
      "stateMutability": "view",
      "type": "function"
    },
    {
      "inputs": [],
      "name": "QUANTUM_CALIBRATION_INTERVAL",
      "outputs": [
        {
          "internalType": "uint256",
          "name": "",
          "type": "uint256"
        }
      ],
      "stateMutability": "view",
      "type": "function"
    },
    {
      "inputs": [],
      "name": "QUANTUM_ENTROPY_MINIMUM",
      "outputs": [
        {
          "internalType": "uint256",
          "name": "",
          "type": "uint256"
        }
      ],
      "stateMutability": "view",
      "type": "function"
    },
    {
      "inputs": [],
      "name": "SECURITY_AUDIT_INTERVAL",
      "outputs": [
        {
          "internalType": "uint256",
          "name": "",
          "type": "uint256"
        }
      ],
      "stateMutability": "view",
      "type": "function"
    },
    {
      "inputs": [
        {
          "internalType": "uint256",
          "name": "",
          "type": "uint256"
        }
      ],
      "name": "_executeCoreLoopPhases",
      "outputs": [],
      "stateMutability": "nonpayable",
      "type": "function"
    },
    {
      "inputs": [],
      "name": "aetheronBridge",
      "outputs": [
        {
          "internalType": "address",
          "name": "",
          "type": "address"
        }
      ],
      "stateMutability": "view",
      "type": "function"
    },
    {
      "inputs": [
        {
          "internalType": "string",
          "name": "",
          "type": "string"
        }
      ],
      "name": "autonomousBehaviors",
      "outputs": [
        {
          "internalType": "bool",
          "name": "",
          "type": "bool"
        }
      ],
      "stateMutability": "view",
      "type": "function"
    },
    {
      "inputs": [
        {
          "internalType": "string",
          "name": "",
          "type": "string"
        }
      ],
      "name": "behaviorCooldowns",
      "outputs": [
        {
          "internalType": "uint256",
          "name": "",
          "type": "uint256"
        }
      ],
      "stateMutability": "view",
      "type": "function"
    },
    {
      "inputs": [],
      "name": "circuitBreaker",
      "outputs": [
        {
          "internalType": "address",
          "name": "",
          "type": "address"
        }
      ],
      "stateMutability": "view",
      "type": "function"
    },
    {
      "inputs": [],
      "name": "coreComponentsBootstrapped",
      "outputs": [
        {
          "internalType": "bool",
          "name": "",
          "type": "bool"
        }
      ],
      "stateMutability": "view",
      "type": "function"
    },
    {
      "inputs": [],
      "name": "coreMetrics",
      "outputs": [
        {
          "internalType": "uint256",
          "name": "totalValueSecured",
          "type": "uint256"
        },
        {
          "internalType": "uint256",
          "name": "activeSecurityScore",
          "type": "uint256"
        },
        {
          "internalType": "uint256",
          "name": "networkHealthIndex",
          "type": "uint256"
        },
        {
          "internalType": "uint256",
          "name": "quantumResilienceFactor",
          "type": "uint256"
        },
        {
          "internalType": "uint256",
          "name": "lastCoreUpdate",
          "type": "uint256"
        },
        {
          "internalType": "uint256",
          "name": "anomalyCount",
          "type": "uint256"
        },
        {
          "internalType": "uint256",
          "name": "successfulInterceptions",
          "type": "uint256"
        },
        {
          "internalType": "uint256",
          "name": "yieldOptimizationEvents",
          "type": "uint256"
        }
      ],
      "stateMutability": "view",
      "type": "function"
    },
    {
      "inputs": [],
      "name": "currentStatus",
      "outputs": [
        {
          "internalType": "enum SentinelCoreLoop.SystemStatus",
          "name": "",
          "type": "uint8"
        }
      ],
      "stateMutability": "view",
      "type": "function"
    },
    {
      "inputs": [],
      "name": "emergencyRecovery",
      "outputs": [],
      "stateMutability": "nonpayable",
      "type": "function"
    },
    {
      "inputs": [],
      "name": "emergencyShutdown",
      "outputs": [],
      "stateMutability": "nonpayable",
      "type": "function"
    },
    {
      "inputs": [],
      "name": "emergencySystemReset",
      "outputs": [],
      "stateMutability": "nonpayable",
      "type": "function"
    },
    {
      "inputs": [],
      "name": "executeCoreLoop",
      "outputs": [],
      "stateMutability": "nonpayable",
      "type": "function"
    },
    {
      "inputs": [],
      "name": "getCoreMetrics",
      "outputs": [
        {
          "internalType": "uint256",
          "name": "totalValueSecured",
          "type": "uint256"
        },
        {
          "internalType": "uint256",
          "name": "activeSecurityScore",
          "type": "uint256"
        },
        {
          "internalType": "uint256",
          "name": "networkHealthIndex",
          "type": "uint256"
        },
        {
          "internalType": "uint256",
          "name": "anomalyCount",
          "type": "uint256"
        },
        {
          "internalType": "uint256",
          "name": "successfulInterceptions",
          "type": "uint256"
        },
        {
          "internalType": "uint256",
          "name": "yieldOptimizationEvents",
          "type": "uint256"
        }
      ],
      "stateMutability": "view",
      "type": "function"
    },
    {
      "inputs": [],
      "name": "getQuantumState",
      "outputs": [
        {
          "internalType": "uint256",
          "name": "entropy",
          "type": "uint256"
        },
        {
          "internalType": "uint256",
          "name": "coherence",
          "type": "uint256"
        },
        {
          "internalType": "uint256",
          "name": "superposition",
          "type": "uint256"
        },
        {
          "internalType": "bytes32",
          "name": "signature",
          "type": "bytes32"
        }
      ],
      "stateMutability": "view",
      "type": "function"
    },
    {
      "inputs": [
        {
          "internalType": "bytes32",
          "name": "role",
          "type": "bytes32"
        }
      ],
      "name": "getRoleAdmin",
      "outputs": [
        {
          "internalType": "bytes32",
          "name": "",
          "type": "bytes32"
        }
      ],
      "stateMutability": "view",
      "type": "function"
    },
    {
      "inputs": [],
      "name": "getSystemOverview",
      "outputs": [
        {
          "internalType": "enum SentinelCoreLoop.SystemStatus",
          "name": "status",
          "type": "uint8"
        },
        {
          "internalType": "uint256",
          "name": "securityScore",
          "type": "uint256"
        },
        {
          "internalType": "uint256",
          "name": "quantumCoherence",
          "type": "uint256"
        },
        {
          "internalType": "uint256",
          "name": "networkHealth",
          "type": "uint256"
        },
        {
          "internalType": "uint256",
          "name": "totalValueSecured",
          "type": "uint256"
        }
      ],
      "stateMutability": "view",
      "type": "function"
    },
    {
      "inputs": [
        {
          "internalType": "bytes32",
          "name": "role",
          "type": "bytes32"
        },
        {
          "internalType": "address",
          "name": "account",
          "type": "address"
        }
      ],
      "name": "grantRole",
      "outputs": [],
      "stateMutability": "nonpayable",
      "type": "function"
    },
    {
      "inputs": [
        {
          "internalType": "bytes32",
          "name": "role",
          "type": "bytes32"
        },
        {
          "internalType": "address",
          "name": "account",
          "type": "address"
        }
      ],
      "name": "hasRole",
      "outputs": [
        {
          "internalType": "bool",
          "name": "",
          "type": "bool"
        }
      ],
      "stateMutability": "view",
      "type": "function"
    },
    {
      "inputs": [
        {
          "internalType": "address",
          "name": "sentinelInterceptorAddress",
          "type": "address"
        },
        {
          "internalType": "address",
          "name": "aetheronBridgeAddress",
          "type": "address"
        },
        {
          "internalType": "address",
          "name": "quantumGuardAddress",
          "type": "address"
        },
        {
          "internalType": "address",
          "name": "rateLimiterAddress",
          "type": "address"
        },
        {
          "internalType": "address",
          "name": "circuitBreakerAddress",
          "type": "address"
        },
        {
          "internalType": "address",
          "name": "yieldMaximizerAddress",
          "type": "address"
        },
        {
          "internalType": "address",
          "name": "oracleNetworkAddress",
          "type": "address"
        }
      ],
      "name": "initializeCoreComponents",
      "outputs": [],
      "stateMutability": "nonpayable",
      "type": "function"
    },
    {
      "inputs": [
        {
          "internalType": "string",
          "name": "",
          "type": "string"
        }
      ],
      "name": "lastBehaviorExecution",
      "outputs": [
        {
          "internalType": "uint256",
          "name": "",
          "type": "uint256"
        }
      ],
      "stateMutability": "view",
      "type": "function"
    },
    {
      "inputs": [],
      "name": "lastCoreLoopExecution",
      "outputs": [
        {
          "internalType": "uint256",
          "name": "",
          "type": "uint256"
        }
      ],
      "stateMutability": "view",
      "type": "function"
    },
    {
      "inputs": [],
      "name": "lastEmergencyAction",
      "outputs": [
        {
          "internalType": "uint256",
          "name": "",
          "type": "uint256"
        }
      ],
      "stateMutability": "view",
      "type": "function"
    },
    {
      "inputs": [],
      "name": "lastQuantumCalibration",
      "outputs": [
        {
          "internalType": "uint256",
          "name": "",
          "type": "uint256"
        }
      ],
      "stateMutability": "view",
      "type": "function"
    },
    {
      "inputs": [],
      "name": "lastSecurityAudit",
      "outputs": [
        {
          "internalType": "uint256",
          "name": "",
          "type": "uint256"
        }
      ],
      "stateMutability": "view",
      "type": "function"
    },
    {
      "inputs": [],
      "name": "liquidityMining",
      "outputs": [
        {
          "internalType": "address",
          "name": "",
          "type": "address"
        }
      ],
      "stateMutability": "view",
      "type": "function"
    },
    {
      "inputs": [],
      "name": "multiSigVault",
      "outputs": [
        {
          "internalType": "address",
          "name": "",
          "type": "address"
        }
      ],
      "stateMutability": "view",
      "type": "function"
    },
    {
      "inputs": [],
      "name": "oracleNetwork",
      "outputs": [
        {
          "internalType": "address",
          "name": "",
          "type": "address"
        }
      ],
      "stateMutability": "view",
      "type": "function"
    },
    {
      "inputs": [],
      "name": "owner",
      "outputs": [
        {
          "internalType": "address",
          "name": "",
          "type": "address"
        }
      ],
      "stateMutability": "view",
      "type": "function"
    },
    {
      "inputs": [],
      "name": "paused",
      "outputs": [
        {
          "internalType": "bool",
          "name": "",
          "type": "bool"
        }
      ],
      "stateMutability": "view",
      "type": "function"
    },
    {
      "inputs": [],
      "name": "performSystemHealthCheck",
      "outputs": [
        {
          "internalType": "bool",
          "name": "isHealthy",
          "type": "bool"
        },
        {
          "internalType": "string[]",
          "name": "issues",
          "type": "string[]"
        }
      ],
      "stateMutability": "view",
      "type": "function"
    },
    {
      "inputs": [],
      "name": "quantumGuard",
      "outputs": [
        {
          "internalType": "address",
          "name": "",
          "type": "address"
        }
      ],
      "stateMutability": "view",
      "type": "function"
    },
    {
      "inputs": [],
      "name": "quantumState",
      "outputs": [
        {
          "internalType": "uint256",
          "name": "entropyLevel",
          "type": "uint256"
        },
        {
          "internalType": "uint256",
          "name": "coherenceIndex",
          "type": "uint256"
        },
        {
          "internalType": "uint256",
          "name": "superpositionStrength",
          "type": "uint256"
        },
        {
          "internalType": "bytes32",
          "name": "quantumSignature",
          "type": "bytes32"
        },
        {
          "internalType": "uint256",
          "name": "lastQuantumCalibration",
          "type": "uint256"
        }
      ],
      "stateMutability": "view",
      "type": "function"
    },
    {
      "inputs": [],
      "name": "rateLimiter",
      "outputs": [
        {
          "internalType": "address",
          "name": "",
          "type": "address"
        }
      ],
      "stateMutability": "view",
      "type": "function"
    },
    {
      "inputs": [],
      "name": "renounceOwnership",
      "outputs": [],
      "stateMutability": "nonpayable",
      "type": "function"
    },
    {
      "inputs": [
        {
          "internalType": "bytes32",
          "name": "role",
          "type": "bytes32"
        },
        {
          "internalType": "address",
          "name": "callerConfirmation",
          "type": "address"
        }
      ],
      "name": "renounceRole",
      "outputs": [],
      "stateMutability": "nonpayable",
      "type": "function"
    },
    {
      "inputs": [
        {
          "internalType": "bytes32",
          "name": "role",
          "type": "bytes32"
        },
        {
          "internalType": "address",
          "name": "account",
          "type": "address"
        }
      ],
      "name": "revokeRole",
      "outputs": [],
      "stateMutability": "nonpayable",
      "type": "function"
    },
    {
      "inputs": [],
      "name": "rewardAggregator",
      "outputs": [
        {
          "internalType": "address",
          "name": "",
          "type": "address"
        }
      ],
      "stateMutability": "view",
      "type": "function"
    },
    {
      "inputs": [],
      "name": "securityAuditor",
      "outputs": [
        {
          "internalType": "address",
          "name": "",
          "type": "address"
        }
      ],
      "stateMutability": "view",
      "type": "function"
    },
    {
      "inputs": [],
      "name": "sentinelInterceptor",
      "outputs": [
        {
          "internalType": "address",
          "name": "",
          "type": "address"
        }
      ],
      "stateMutability": "view",
      "type": "function"
    },
    {
      "inputs": [
        {
          "internalType": "string",
          "name": "component",
          "type": "string"
        },
        {
          "internalType": "address",
          "name": "contractAddress",
          "type": "address"
        }
      ],
      "name": "setSystemComponent",
      "outputs": [],
      "stateMutability": "nonpayable",
      "type": "function"
    },
    {
      "inputs": [],
      "name": "stakingSystem",
      "outputs": [
        {
          "internalType": "address",
          "name": "",
          "type": "address"
        }
      ],
      "stateMutability": "view",
      "type": "function"
    },
    {
      "inputs": [
        {
          "internalType": "bytes4",
          "name": "interfaceId",
          "type": "bytes4"
        }
      ],
      "name": "supportsInterface",
      "outputs": [
        {
          "internalType": "bool",
          "name": "",
          "type": "bool"
        }
      ],
      "stateMutability": "view",
      "type": "function"
    },
    {
      "inputs": [
        {
          "internalType": "string",
          "name": "behavior",
          "type": "string"
        },
        {
          "internalType": "bool",
          "name": "enabled",
          "type": "bool"
        }
      ],
      "name": "toggleAutonomousBehavior",
      "outputs": [],
      "stateMutability": "nonpayable",
      "type": "function"
    },
    {
      "inputs": [],
      "name": "totalStaked",
      "outputs": [
        {
          "internalType": "uint256",
          "name": "",
          "type": "uint256"
        }
      ],
      "stateMutability": "view",
      "type": "function"
    },
    {
      "inputs": [
        {
          "internalType": "address",
          "name": "newOwner",
          "type": "address"
        }
      ],
      "name": "transferOwnership",
      "outputs": [],
      "stateMutability": "nonpayable",
      "type": "function"
    },
    {
      "inputs": [],
      "name": "validateSystemInvariants",
      "outputs": [
        {
          "internalType": "bool",
          "name": "isValid",
          "type": "bool"
        }
      ],
      "stateMutability": "view",
      "type": "function"
    },
    {
      "inputs": [],
      "name": "yieldMaximizer",
      "outputs": [
        {
          "internalType": "address",
          "name": "",
          "type": "address"
        }
      ],
      "stateMutability": "view",
      "type": "function"
    }
  ],
  "bytecode": "0x608060405234801561000f575f5ffd5b5060405161651e38038061651e83398101604081905261002e91610ac3565b806001600160a01b03811661005d57604051631e4fbdf760e01b81525f60048201526024015b60405180910390fd5b61006681610350565b5060017f9b779b17422d0df92223018b32b4d1fa46e071723d6817e2486d003becc55f00556001600160a01b0381166100d15760405162461bcd60e51b815260206004820152600d60248201526c24b73b30b634b21037bbb732b960991b6044820152606401610054565b6100db5f8261039f565b506101067f97667070c54ef182b0f5858b034beac1b6f3089aa2d3188bb1e8929f4fa9b9298261039f565b506101317f8227712ef8ad39d0f26f06731ef0df8665eb7ada7f41b1ee089adf3c238862a28261039f565b5061015c7fbf233dd2aafeb4d50879c4aa5c81e96d92f6e6945c906a58f9f2d1c1631b4b268261039f565b506101877f7935bd0ae54bc31f548c14dba4d37c5c64b3f8ca900cb468fb8abd54d5894f558261039f565b507ff5d2b9d7b7dcf31fafb527f48cb641b3e286ba85117ea973378ae75f2b0f27c98054600160ff1991821681179092557f63383099118369e3b7e10810450c200ba30ca74f16a798c21d846e7b8f29f8e580548216831790557f42029653146ebe413226ce23cfae86379992b393c3fb402468cadcf83978e51780548216831790557ff4685705f1e8a2b5fd642201d4d95d225954347b60a0666e52091bfb5827846b80548216831790557f7cc2ad579ffe0e9670c4ed407723dde34cdc5f3ce03ea5a5fd278a558b291aec80548216831790557fb5393891b91a131a387ee1b19930cdd1ad27daef25ba41760fd9b6d081b525a180548216831790557f0d60a508ebb86c28623483b6a7bf2e80fc3af8771db795d276285a14f2c2844980548216831790557f2d19eda09601d1463635d7fc9423b306d872432a8744d619896dcaa1b49aef2c805482168317905560045f527fcbc4e5fb02c3d1de23a9f1e014b4d2ee5aeaea9505df5e855c9210bf472495af6020527ffd02b3c5f17049b33cb3cfc1a3d245469deabcec0fb1528b1c0b2cc275f2330480549091169091179055610332610431565b61033a6104f4565b61034261087a565b61034a6108d5565b50610b55565b5f80546001600160a01b038381166001600160a01b0319831681178455604051919092169283917f8be0079c531659141344cd1fd0a4f28419497f9722a3daafe3b4186f6b6457e09190a35050565b5f8281526001602090815260408083206001600160a01b038516845290915281205460ff16610428575f8381526001602081815260408084206001600160a01b0387168086529252808420805460ff19169093179092559051339286917f2f8788117e7eff1d82e926ec794901d17c78024a50270940304540a733656f0d9190a450600161042b565b505f5b92915050565b600f805460ff60a81b1916905560408051610100810182525f80825261035260208301819052605a838501819052605f60608501819052426080860181905260a0860185905260c0860185905260e090950184905260108490556011929092556012556013556014829055601581905560168190556017819055601d829055601e829055601f9190915590517f103f4d5a9cc0a1df9d59b49654a5ad6d55f781452aeca93a598a646a9ec3ee6d916104ea918190610b24565b60405180910390a1565b60016022604051806040016040528060138152602001723a343932b0ba2fb4b73a32b931b2b83a34b7b760691b8152506040516105319190610b3f565b90815260200160405180910390205f6101000a81548160ff02191690831515021790555060016022604051806040016040528060128152602001713cb4b2b6322fb7b83a34b6b4bd30ba34b7b760711b8152506040516105919190610b3f565b90815260200160405180910390205f6101000a81548160ff021916908315150217905550600160226040518060400160405280601381526020017238bab0b73a3ab6afb1b0b634b13930ba34b7b760691b8152506040516105f29190610b3f565b90815260200160405180910390205f6101000a81548160ff021916908315150217905550600160226040518060400160405280601a81526020017f636972637569745f627265616b65725f61637469766174696f6e00000000000081525060405161065d9190610b3f565b90815260200160405180910390205f6101000a81548160ff0219169083151502179055506001602260405180604001604052806012815260200171656d657267656e63795f726573706f6e736560701b8152506040516106bd9190610b3f565b90815260200160405180910390205f6101000a81548160ff02191690831515021790555061012c6023604051806040016040528060138152602001723a343932b0ba2fb4b73a32b931b2b83a34b7b760691b81525060405161071f9190610b3f565b908152602001604051809103902081905550610e106023604051806040016040528060128152602001713cb4b2b6322fb7b83a34b6b4bd30ba34b7b760711b81525060405161076e9190610b3f565b9081526020016040518091039020819055506201518060236040518060400160405280601381526020017238bab0b73a3ab6afb1b0b634b13930ba34b7b760691b8152506040516107bf9190610b3f565b90815260200160405180910390208190555061025860236040518060400160405280601a81526020017f636972637569745f627265616b65725f61637469766174696f6e0000000000008152506040516108199190610b3f565b908152602001604051809103902081905550610708602360405180604001604052806012815260200171656d657267656e63795f726573706f6e736560701b8152506040516108689190610b3f565b90815260405190819003602001902055565b6040518060a0016040528060558152602001605c8152602001605881526020016108a8610a6a60201b60201c565b81524260209182015281516018558101516019556040810151601a556060810151601b5560800151601c55565b5f600f54600160a81b900460ff1660048111156108f4576108f4610af0565b146109415760405162461bcd60e51b815260206004820152601c60248201527f496e76616c696420696e697469616c697a6174696f6e207374617465000000006044820152606401610054565b6011546102ee11156109955760405162461bcd60e51b815260206004820152601660248201527f53656375726974792073636f726520746f6f206c6f77000000000000000000006044820152606401610054565b601854605011156109e85760405162461bcd60e51b815260206004820152601760248201527f5175616e74756d20656e74726f707920746f6f206c6f770000000000000000006044820152606401610054565b610a275f6109fd5f546001600160a01b031690565b5f9182526001602090815260408084206001600160a01b0393909316845291905290205460ff1690565b610a685760405162461bcd60e51b815260206004820152601260248201527113dddb995c881c9bdb19481b9bdd081cd95d60721b6044820152606401610054565b565b6018546040805142602082015244918101919091524360608083019190915230901b6001600160601b031916608082015260948101919091525f9060b40160405160208183030381529060405280519060200120905090565b5f60208284031215610ad3575f5ffd5b81516001600160a01b0381168114610ae9575f5ffd5b9392505050565b634e487b7160e01b5f52602160045260245ffd5b60058110610b2057634e487b7160e01b5f52602160045260245ffd5b9052565b60408101610b328285610b04565b610ae96020830184610b04565b5f82518060208501845e5f920191825250919050565b6159bc80610b625f395ff3fe608060405234801561000f575f5ffd5b506004361061037d575f3560e01c8063715018a6116101d4578063bd73ffc511610109578063d922f9fb116100a9578063ef8a923511610079578063ef8a92351461085a578063f2fde38b1461087b578063f5b541a61461088e578063fe6748f7146108b5575f5ffd5b8063d922f9fb14610809578063d9e6030714610811578063dbbb3c7f14610824578063e6c7381a1461082c575f5ffd5b8063ccc57490116100e4578063ccc57490146107c6578063d3a05d2f146107da578063d47fe0b5146107e3578063d547741f146107f6575f5ffd5b8063bd73ffc5146107ac578063c1e0c971146107b5578063c41041e6146107be575f5ffd5b806391d14854116101745780639d7dce851161014f5780639d7dce851461071d578063a217fddf14610730578063a2ff07d314610737578063b1a40fd114610798575f5ffd5b806391d14854146106e45780639339c5f8146106f75780639c7dff591461070a575f5ffd5b8063817b1cd2116101af578063817b1cd21461067657806385b2d5351461067f5780638cb92ceb146106925780638da5cb5b146106d4575f5ffd5b8063715018a614610639578063726e50b71461064157806375b579c31461064a575f5ffd5b80632af4bbd5116102b55780634f823313116102555780636438c03d116102255780636438c03d146105a957806368f8d7a0146105d45780636efc7189146105e75780636ff35933146105fa575f5ffd5b80634f8233131461057857806353d4fe33146105815780635c975abb14610594578063604486801461059f575f5ffd5b80633403c2fc116102905780633403c2fc1461052e57806336568abe146105365780634d9b47e2146105495780634e8bea0414610570575f5ffd5b80632af4bbd5146104de5780632c671814146105085780632f2ff15d1461051b575f5ffd5b80631da4eb491161032057806321f08b65116102fb57806321f08b651461047f5780632223ad5e14610492578063248a9ca3146104a857806327ff642b146104cb575f5ffd5b80631da4eb49146104455780631f60ec3c1461044f57806320df435914610458575f5ffd5b806304c4e3441161035b57806304c4e344146103eb5780630c0226b31461041657806316efd941146104295780631cba9e011461043c575f5ffd5b806301ffc9a71461038157806303ac1a70146103a9578063040f6d4e146103c0575b5f5ffd5b61039461038f3660046151d1565b6108c8565b60405190151581526020015b60405180910390f35b6103b2601e5481565b6040519081526020016103a0565b6008546103d3906001600160a01b031681565b6040516001600160a01b0390911681526020016103a0565b6103b26103f93660046152a9565b805160208183018101805160248252928201919093012091525481565b6005546103d3906001600160a01b031681565b6007546103d3906001600160a01b031681565b6103b26102ee81565b61044d6108fe565b005b6103b2601d5481565b6103b27fbf233dd2aafeb4d50879c4aa5c81e96d92f6e6945c906a58f9f2d1c1631b4b2681565b600f546103d3906001600160a01b031681565b61049a610bab565b6040516103a0929190615311565b6103b26104b636600461537d565b5f908152600160208190526040909120015490565b61044d6104d93660046153aa565b611018565b600f546011546019546012546010546040516103a095600160a81b900460ff169493929190615429565b600c546103d3906001600160a01b031681565b61044d610529366004615459565b611888565b61044d6118b3565b61044d610544366004615459565b611b1e565b6103b27f8227712ef8ad39d0f26f06731ef0df8665eb7ada7f41b1ee089adf3c238862a281565b61044d611b56565b6103b2610e1081565b6006546103d3906001600160a01b031681565b60025460ff16610394565b6103b26201518081565b6103b26105b73660046152a9565b805160208183018101805160238252928201919093012091525481565b600b546103d3906001600160a01b031681565b600a546103d3906001600160a01b031681565b601054601154601254601554601654601754604080519687526020870195909552938501929092526060840152608083015260a082015260c0016103a0565b61044d611dcc565b6103b260205481565b601854601954601a54601b546040805194855260208501939093529183015260608201526080016103a0565b6103b260215481565b600e546103d3906001600160a01b031681565b601854601954601a54601b54601c546106ac949392919085565b604080519586526020860194909452928401919091526060830152608082015260a0016103a0565b5f546001600160a01b03166103d3565b6103946106f2366004615459565b611ddd565b6009546103d3906001600160a01b031681565b61044d61071836600461537d565b611e07565b600d546103d3906001600160a01b031681565b6103b25f81565b60105460115460125460135460145460155460165460175461075d979695949392919088565b604080519889526020890197909752958701949094526060860192909252608085015260a084015260c083015260e0820152610100016103a0565b600f5461039490600160a01b900460ff1681565b6103b261025881565b6103b2601f5481565b61044d611f2d565b6103b25f5160206158e15f395f51905f5281565b6103b261070881565b61044d6107f136600461547a565b611fe3565b61044d610804366004615459565b612020565b6103b2605081565b61044d61081f3660046154cd565b612045565b61039461273b565b61039461083a3660046152a9565b805160208183018101805160228252928201919093012091525460ff1681565b600f5461086e90600160a81b900460ff1681565b6040516103a0919061554e565b61044d61088936600461555c565b6127ed565b6103b27f97667070c54ef182b0f5858b034beac1b6f3089aa2d3188bb1e8929f4fa9b92981565b6004546103d3906001600160a01b031681565b5f6001600160e01b03198216637965db0b60e01b14806108f857506301ffc9a760e01b6001600160e01b03198316145b92915050565b610906612827565b61090e61284b565b61091661287c565b5f5a90505f610927610e104261559d565b90506207a1208210156109815760405162461bcd60e51b815260206004820152601e60248201527f496e73756666696369656e742067617320666f7220636f7265206c6f6f70000060448201526064015b60405180910390fd5b42601d5561098d612aa1565b156109d7576109d06040518060400160405280601a81526020017f53797374656d20636f6d70726f6d697365206465746563746564000000000000815250612af0565b5050610b80565b604051639c7dff5960e01b8152600481018290523090639c7dff59906024015f604051808303815f87803b158015610a0d575f5ffd5b505af1925050508015610a1e575060015b610ac957610a2a6155b0565b806308c379a003610a595750610a3e6155c8565b80610a495750610a5b565b610a538183612b6b565b50610ace565b505b3d808015610a84576040519150601f19603f3d011682016040523d82523d5f602084013e610a89565b606091505b50610a536040518060400160405280601d81526020017f556e6578706563746564206572726f7220696e20636f7265206c6f6f7000000081525083612b6b565b426014555b610ad6612bc8565b5f5a610ae29084615644565b9050621e8480811115610b425760405162461bcd60e51b815260206004820152602260248201527f436f7265206c6f6f7020676173207573616765206578636565646564206c696d6044820152611a5d60f21b6064820152608401610978565b817f8f90ae0ff40b7364f1ed2713c1ec671ef28081586c52fc80d832b2ab37b3ab1f42604051610b7491815260200190565b60405180910390a25050505b610ba960017f9b779b17422d0df92223018b32b4d1fa46e071723d6817e2486d003becc55f0055565b565b60408051600a80825261016082019092525f916060918391816020015b6060815260200190600190039081610bc85750506011549091505f906102ee1115610c2f57604051806060016040528060268152602001615921602691398282610c1181615657565b935081518110610c2357610c2361566f565b60200260200101819052505b60185460501115610c975760408051808201909152601e81527f5175616e74756d20656e74726f707920637269746963616c6c79206c6f77000060208201528282610c7981615657565b935081518110610c8b57610c8b61566f565b60200260200101819052505b60195460501115610cff5760408051808201909152601a81527f5175616e74756d20636f686572656e636520646567726164656400000000000060208201528282610ce181615657565b935081518110610cf357610cf361566f565b60200260200101819052505b6004600f54600160a81b900460ff166004811115610d1f57610d1f6153f5565b03610d815760408051808201909152601c81527f53797374656d20696e20656d657267656e6379206c6f636b646f776e0000000060208201528282610d6381615657565b935081518110610d7557610d7561566f565b60200260200101819052505b6004546001600160a01b03161580610da357506004546001600160a01b03163b155b15610dea5760405180606001604052806025815260200161589c602591398282610dcc81615657565b935081518110610dde57610dde61566f565b60200260200101819052505b6005546001600160a01b03161580610e0c57506005546001600160a01b03163b155b15610e71576040518060400160405280602081526020017f4165746865726f6e42726964676520636f6d706f6e656e7420696e76616c6964815250828280610e5390615657565b935081518110610e6557610e6561566f565b60200260200101819052505b6008546001600160a01b03161580610e9357506008546001600160a01b03163b155b15610ef55760408051808201909152601e81527f5175616e74756d477561726420636f6d706f6e656e7420696e76616c6964000060208201528282610ed781615657565b935081518110610ee957610ee961566f565b60200260200101819052505b610f02610e106002615683565b601d54610f0f919061569a565b421115610f735760408051808201909152601b81527f436f7265206c6f6f7020657865637574696f6e206f766572647565000000000060208201528282610f5581615657565b935081518110610f6757610f6761566f565b60200260200101819052505b5f8167ffffffffffffffff811115610f8d57610f8d6151f8565b604051908082528060200260200182016040528015610fc057816020015b6060815260200190600190039081610fab5790505b5090505f5b8281101561100c57838181518110610fdf57610fdf61566f565b6020026020010151828281518110610ff957610ff961566f565b6020908102919091010152600101610fc5565b50901594909350915050565b611020612d04565b5f825111801561103257506020825111155b6110775760405162461bcd60e51b8152602060048201526016602482015275496e76616c696420636f6d706f6e656e74206e616d6560501b6044820152606401610978565b6001600160a01b0381166110cd5760405162461bcd60e51b815260206004820152601860248201527f496e76616c696420636f6e7472616374206164647265737300000000000000006044820152606401610978565b306001600160a01b038216036111255760405162461bcd60e51b815260206004820152601c60248201527f43616e6e6f74207365742073656c6620617320636f6d706f6e656e74000000006044820152606401610978565b5f816001600160a01b03163b1161117e5760405162461bcd60e51b815260206004820152601a60248201527f41646472657373206d757374206265206120636f6e74726163740000000000006044820152606401610978565b5f8260405160200161119091906156c4565b6040516020818303038152906040528051906020012090506040516020016111d1907239b2b73a34b732b624b73a32b931b2b83a37b960691b815260130190565b60405160208183030381529060405280519060200120810361123a576004546001600160a01b0380841691160361121a5760405162461bcd60e51b8152600401610978906156cf565b600480546001600160a01b0319166001600160a01b038416179055611834565b6040516d6165746865726f6e42726964676560901b6020820152602e016040516020818303038152906040528051906020012081036112c0576005546001600160a01b038084169116036112a05760405162461bcd60e51b8152600401610978906156cf565b600580546001600160a01b0319166001600160a01b038416179055611834565b6040516a3930ba32a634b6b4ba32b960a91b6020820152602b01604051602081830303815290604052805190602001208103611343576006546001600160a01b038084169116036113235760405162461bcd60e51b8152600401610978906156cf565b600680546001600160a01b0319166001600160a01b038416179055611834565b6040516d31b4b931bab4ba213932b0b5b2b960911b6020820152602e016040516020818303038152906040528051906020012081036113c9576007546001600160a01b038084169116036113a95760405162461bcd60e51b8152600401610978906156cf565b600780546001600160a01b0319166001600160a01b038416179055611834565b6040516b1c5d585b9d1d5b51dd585c9960a21b6020820152602c0160405160208183030381529060405280519060200120810361144d576008546001600160a01b0380841691160361142d5760405162461bcd60e51b8152600401610978906156cf565b600880546001600160a01b0319166001600160a01b038416179055611834565b6040516c1b5d5b1d1a54da59d5985d5b1d609a1b6020820152602d016040516020818303038152906040528051906020012081036114d2576009546001600160a01b038084169116036114b25760405162461bcd60e51b8152600401610978906156cf565b600980546001600160a01b0319166001600160a01b038416179055611834565b6040516c6f7261636c654e6574776f726b60981b6020820152602d0160405160208183030381529060405280519060200120810361155757600a546001600160a01b038084169116036115375760405162461bcd60e51b8152600401610978906156cf565b600a80546001600160a01b0319166001600160a01b038416179055611834565b6040516e39b2b1bab934ba3ca0bab234ba37b960891b6020820152602f016040516020818303038152906040528051906020012081036115de57600b546001600160a01b038084169116036115be5760405162461bcd60e51b8152600401610978906156cf565b600b80546001600160a01b0319166001600160a01b038416179055611834565b6040516d3cb4b2b63226b0bc34b6b4bd32b960911b6020820152602e0160405160208183030381529060405280519060200120810361166457600c546001600160a01b038084169116036116445760405162461bcd60e51b8152600401610978906156cf565b600c80546001600160a01b0319166001600160a01b038416179055611834565b6040516c7374616b696e6753797374656d60981b6020820152602d016040516020818303038152906040528051906020012081036116e957600d546001600160a01b038084169116036116c95760405162461bcd60e51b8152600401610978906156cf565b600d80546001600160a01b0319166001600160a01b038416179055611834565b6040516e6c69717569646974794d696e696e6760881b6020820152602f0160405160208183030381529060405280519060200120810361177057600e546001600160a01b038084169116036117505760405162461bcd60e51b8152600401610978906156cf565b600e80546001600160a01b0319166001600160a01b038416179055611834565b6040516f3932bbb0b93220b3b3b932b3b0ba37b960811b60208201526030016040516020818303038152906040528051906020012081036117f857600f546001600160a01b038084169116036117d85760405162461bcd60e51b8152600401610978906156cf565b600f80546001600160a01b0319166001600160a01b038416179055611834565b60405162461bcd60e51b8152602060048201526011602482015270155b9adb9bdddb8818dbdb5c1bdb995b9d607a1b6044820152606401610978565b61183c612d30565b1561185d57611849612d6f565b600f805460ff60a01b1916600160a01b1790555b5f5160206159015f395f51905f52838360405161187b929190615706565b60405180910390a1505050565b5f82815260016020819052604090912001546118a381612f42565b6118ad8383612f4c565b50505050565b6118dd7fbf233dd2aafeb4d50879c4aa5c81e96d92f6e6945c906a58f9f2d1c1631b4b2633611ddd565b806118fa57506118fa5f5160206158e15f395f51905f5233611ddd565b8061190a575061190a5f33611ddd565b6119565760405162461bcd60e51b815260206004820152601f60248201527f556e617574686f72697a656420656d657267656e63792073687574646f776e006044820152606401610978565b6004600f54600160a81b900460ff166004811115611976576119766153f5565b036119b95760405162461bcd60e51b815260206004820152601360248201527220b63932b0b23c9034b7103637b1b5b237bbb760691b6044820152606401610978565b600f805460ff60a81b198116600160aa1b17909155600160a81b900460ff166119e0612fc2565b6119e8613017565b6004600f54600160a81b900460ff166004811115611a0857611a086153f5565b14611a475760405162461bcd60e51b815260206004820152600f60248201526e14da1d5d191bdddb8819985a5b1959608a1b6044820152606401610978565b60025460ff16611a8f5760405162461bcd60e51b815260206004820152601360248201527210dbdb9d1c9858dd081b9bdd081c185d5cd959606a1b6044820152606401610978565b60408051818152601b818301527f456d657267656e63792073687574646f776e2065786563757465640000000000606082015233602082015290517fbc05cf4fa7ee64565e0f2a42f701e67779580a2877bca3b8dd7986e27a7264ed9181900360800190a15f5160206159475f395f51905f52816004604051611b1392919061572f565b60405180910390a150565b6001600160a01b0381163314611b475760405163334bd91960e11b815260040160405180910390fd5b611b518282613361565b505050565b611b6d5f5160206158e15f395f51905f5233611ddd565b611bb95760405162461bcd60e51b815260206004820152601f60248201527f556e617574686f72697a656420656d657267656e6379207265636f76657279006044820152606401610978565b6004600f54600160a81b900460ff166004811115611bd957611bd96153f5565b14611c1e5760405162461bcd60e51b81526020600482015260156024820152744e6f7420696e206c6f636b646f776e20737461746560581b6044820152606401610978565b6011546102ee1115611c7e5760405162461bcd60e51b815260206004820152602360248201527f53656375726974792073636f726520746f6f206c6f7720666f72207265636f7660448201526265727960e81b6064820152608401610978565b60185460501115611cdd5760405162461bcd60e51b8152602060048201526024808201527f5175616e74756d20656e74726f707920746f6f206c6f7720666f72207265636f6044820152637665727960e01b6064820152608401610978565b600f8054600160a81b60ff60a81b19821681179092550460ff16611cff6133cc565b5f6020556001600f54600160a81b900460ff166004811115611d2357611d236153f5565b14611d625760405162461bcd60e51b815260206004820152600f60248201526e149958dbdd995c9e4819985a5b1959608a1b6044820152606401610978565b60025460ff1615611dad5760405162461bcd60e51b815260206004820152601560248201527410dbdb9d1c9858dd081cdd1a5b1b081c185d5cd959605a1b6044820152606401610978565b5f5160206159475f395f51905f52816001604051611b1392919061572f565b611dd4612d04565b610ba95f613405565b5f9182526001602090815260408084206001600160a01b0393909316845291905290205460ff1690565b333014611e565760405162461bcd60e51b815260206004820152601b60248201527f496e7465726e616c2066756e6374696f6e2063616c6c206f6e6c7900000000006044820152606401610978565b611e5e613454565b610708601f54611e6e919061569a565b4210611e7c57611e7c613654565b611ea76040518060400160405280601381526020015f5160206158c15f395f51905f528152506136fd565b15611eb457611eb4613786565b611ee7604051806040016040528060128152602001713cb4b2b6322fb7b83a34b6b4bd30ba34b7b760711b8152506136fd565b15611ef457611ef4613a47565b611efc613b4c565b62015180601e54611f0d919061569a565b4210611f1b57611f1b613c29565b611f2a42601455601954601355565b50565b611f445f5160206158e15f395f51905f5233611ddd565b611f895760405162461bcd60e51b8152602060048201526016602482015275526571756972657320676f7665726e6f7220726f6c6560501b6044820152606401610978565b611f91613f2a565b604080518181526015918101919091527414de5cdd195b481c995cd95d08195e1958dd5d1959605a1b6060820152600a60208201525f5160206159675f395f51905f52906080015b60405180910390a1565b611feb612d04565b80602283604051611ffc91906156c4565b908152604051908190036020019020805491151560ff199092169190911790555050565b5f828152600160208190526040909120015461203b81612f42565b6118ad8383613361565b61204d612d04565b600f54600160a01b900460ff16156120b35760405162461bcd60e51b8152602060048201526024808201527f436f726520636f6d706f6e656e747320616c726561647920626f6f74737472616044820152631c1c195960e21b6064820152608401610978565b6001600160a01b0387166121095760405162461bcd60e51b815260206004820152601b60248201527f496e76616c69642053656e74696e656c496e746572636570746f7200000000006044820152606401610978565b6001600160a01b0386166121585760405162461bcd60e51b8152602060048201526016602482015275496e76616c6964204165746865726f6e42726964676560501b6044820152606401610978565b6001600160a01b0385166121a55760405162461bcd60e51b8152602060048201526014602482015273125b9d985b1a5908145d585b9d1d5b51dd585c9960621b6044820152606401610978565b5f876001600160a01b03163b116121ce5760405162461bcd60e51b81526004016109789061574a565b5f866001600160a01b03163b116122275760405162461bcd60e51b815260206004820152601d60248201527f4165746865726f6e427269646765206e6f74206120636f6e74726163740000006044820152606401610978565b5f856001600160a01b03163b116122805760405162461bcd60e51b815260206004820152601b60248201527f5175616e74756d4775617264206e6f74206120636f6e747261637400000000006044820152606401610978565b600480546001600160a01b03808a166001600160a01b03199283161790925560058054898416908316179055600880548884169216919091179055841615612337575f846001600160a01b03163b1161231b5760405162461bcd60e51b815260206004820152601a60248201527f526174654c696d69746572206e6f74206120636f6e74726163740000000000006044820152606401610978565b600680546001600160a01b0319166001600160a01b0386161790555b6001600160a01b038316156123bb575f836001600160a01b03163b1161239f5760405162461bcd60e51b815260206004820152601d60248201527f43697263756974427265616b6572206e6f74206120636f6e74726163740000006044820152606401610978565b600780546001600160a01b0319166001600160a01b0385161790555b6001600160a01b0382161561243f575f826001600160a01b03163b116124235760405162461bcd60e51b815260206004820152601d60248201527f5969656c644d6178696d697a6572206e6f74206120636f6e74726163740000006044820152606401610978565b600c80546001600160a01b0319166001600160a01b0384161790555b6001600160a01b038116156124c3575f816001600160a01b03163b116124a75760405162461bcd60e51b815260206004820152601c60248201527f4f7261636c654e6574776f726b206e6f74206120636f6e7472616374000000006044820152606401610978565b600a80546001600160a01b0319166001600160a01b0383161790555b6124cb612d6f565b600f805460ff60a01b1916600160a01b179055604080518181526013818301527239b2b73a34b732b624b73a32b931b2b83a37b960691b60608201526001600160a01b038916602082015290515f5160206159015f395f51905f52916080908290030190a160408051818152600e818301526d6165746865726f6e42726964676560901b60608201526001600160a01b038816602082015290515f5160206159015f395f51905f529181900360800190a160408051818152600c818301526b1c5d585b9d1d5b51dd585c9960a21b60608201526001600160a01b038716602082015290515f5160206159015f395f51905f529181900360800190a16001600160a01b0384161561261f5760408051818152600b818301526a3930ba32a634b6b4ba32b960a91b60608201526001600160a01b038616602082015290515f5160206159015f395f51905f529181900360800190a15b6001600160a01b0383161561267b5760408051818152600e818301526d31b4b931bab4ba213932b0b5b2b960911b60608201526001600160a01b038516602082015290515f5160206159015f395f51905f529181900360800190a15b6001600160a01b038216156126d75760408051818152600e818301526d3cb4b2b63226b0bc34b6b4bd32b960911b60608201526001600160a01b038416602082015290515f5160206159015f395f51905f529181900360800190a15b6001600160a01b038116156127325760408051818152600d818301526c6f7261636c654e6574776f726b60981b60608201526001600160a01b038316602082015290515f5160206159015f395f51905f529181900360800190a15b50505050505050565b5f6004600f54600160a81b900460ff16600481111561275c5761275c6153f5565b111561276757505f90565b6011546103e8101561277857505f90565b6018546064108061278b57506019546064105b1561279557505f90565b6127a142610e1061569a565b601d5411156127af57505f90565b5f6021541180156127dd57506004600f54600160a81b900460ff1660048111156127db576127db6153f5565b145b156127e757505f90565b50600190565b6127f5612d04565b6001600160a01b03811661281e57604051631e4fbdf760e01b81525f6004820152602401610978565b611f2a81613405565b60025460ff1615610ba95760405163d93c066560e01b815260040160405180910390fd5b612853614070565b60027f9b779b17422d0df92223018b32b4d1fa46e071723d6817e2486d003becc55f0055565b90565b610e10601d5461288c919061569a565b4210156128db5760405162461bcd60e51b815260206004820181905260248201527f436f7265206c6f6f7020657865637574696f6e20746f6f206672657175656e746044820152606401610978565b6001600f54600160a81b900460ff1660048111156128fb576128fb6153f5565b148061292457506002600f54600160a81b900460ff166004811115612922576129226153f5565b145b61297b5760405162461bcd60e51b815260206004820152602260248201527f496e76616c69642073797374656d20737461746520666f7220636f7265206c6f60448201526106f760f41b6064820152608401610978565b6129a57f97667070c54ef182b0f5858b034beac1b6f3089aa2d3188bb1e8929f4fa9b92933611ddd565b806129b557506129b55f33611ddd565b612a015760405162461bcd60e51b815260206004820181905260248201527f556e617574686f72697a656420636f7265206c6f6f7020657865637574696f6e6044820152606401610978565b6011546102ee1115612a4e5760405162461bcd60e51b815260206004820152601660248201527553656375726974792073636f726520746f6f206c6f7760501b6044820152606401610978565b60185460501115610ba95760405162461bcd60e51b815260206004820152601860248201527f5175616e74756d20656e74726f707920637269746963616c00000000000000006044820152606401610978565b5f6102586010600101541080612ac35750612abe6002605061559d565b601854105b80612aeb57506004600f54600160a81b900460ff166004811115612ae957612ae96153f5565b145b905090565b612af8613017565b5f5160206159675f395f51905f5281600a604051612b1792919061578c565b60405180910390a15f5160206159475f395f51905f52600f60159054906101000a900460ff166004604051612b4d92919061572f565b60405180910390a150600f805460ff60a81b1916600160aa1b179055565b5f5160206159675f395f51905f5282604051602001612b8a91906157ad565b60408051601f1981840301815290829052612ba79160089061578c565b60405180910390a1601554612bbd90600161569a565b601555505042601455565b601154612c175760405162461bcd60e51b815260206004820152601860248201527f53656375726974792073636f726520636f7272757074656400000000000000006044820152606401610978565b601854612c665760405162461bcd60e51b815260206004820152601760248201527f5175616e74756d20737461746520636f727275707465640000000000000000006044820152606401610978565b6004600f54600160a81b900460ff166004811115612c8657612c866153f5565b141580612cb85750612cb87fbf233dd2aafeb4d50879c4aa5c81e96d92f6e6945c906a58f9f2d1c1631b4b2633611ddd565b610ba95760405162461bcd60e51b815260206004820152601b60248201527f556e617574686f72697a6564206c6f636b646f776e20737461746500000000006044820152606401610978565b5f546001600160a01b03163314610ba95760405163118cdaa760e01b8152336004820152602401610978565b6004545f906001600160a01b031615801590612d5657506005546001600160a01b031615155b8015612aeb5750506008546001600160a01b0316151590565b6004546001600160a01b0316612dc75760405162461bcd60e51b815260206004820152601b60248201527f53656e74696e656c496e746572636570746f72206e6f742073657400000000006044820152606401610978565b6005546001600160a01b0316612e185760405162461bcd60e51b815260206004820152601660248201527510595d1a195c9bdb909c9a5919d9481b9bdd081cd95d60521b6044820152606401610978565b6008546001600160a01b0316612e675760405162461bcd60e51b8152602060048201526014602482015273145d585b9d1d5b51dd585c99081b9bdd081cd95d60621b6044820152606401610978565b6004546001600160a01b03163b612e905760405162461bcd60e51b81526004016109789061574a565b6005546001600160a01b03163b612ee95760405162461bcd60e51b815260206004820152601d60248201527f4165746865726f6e427269646765206e6f74206120636f6e74726163740000006044820152606401610978565b6008546001600160a01b03163b610ba95760405162461bcd60e51b815260206004820152601b60248201527f5175616e74756d4775617264206e6f74206120636f6e747261637400000000006044820152606401610978565b611f2a81336140b2565b5f612f578383611ddd565b612fbb575f8381526001602081815260408084206001600160a01b0387168086529252808420805460ff19169093179092559051339286917f2f8788117e7eff1d82e926ec794901d17c78024a50270940304540a733656f0d9190a45060016108f8565b505f6108f8565b612fca612827565b6002805460ff191660011790557f62e78cea01bee320cd4e420270b5ea74000d11b0c9f74754ebdbfc544b05a258612fff3390565b6040516001600160a01b039091168152602001611fd9565b426020819055505f60226040518060400160405280601381526020015f5160206158c15f395f51905f5281525060405161305191906156c4565b90815260200160405180910390205f6101000a81548160ff0219169083151502179055505f6022604051806040016040528060128152602001713cb4b2b6322fb7b83a34b6b4bd30ba34b7b760711b8152506040516130b091906156c4565b90815260200160405180910390205f6101000a81548160ff0219169083151502179055505f60226040518060400160405280601381526020017238bab0b73a3ab6afb1b0b634b13930ba34b7b760691b81525060405161311091906156c4565b90815260200160405180910390205f6101000a81548160ff0219169083151502179055505f60226040518060400160405280601a81526020015f51602061587c5f395f51905f5281525060405161316791906156c4565b90815260200160405180910390205f6101000a81548160ff0219169083151502179055505f602260405180604001604052806012815260200171656d657267656e63795f726573706f6e736560701b8152506040516131c691906156c4565b90815260200160405180910390205f6101000a81548160ff0219169083151502179055505f1960236040518060400160405280601381526020015f5160206158c15f395f51905f5281525060405161321e91906156c4565b9081526020016040518091039020819055505f196023604051806040016040528060128152602001713cb4b2b6322fb7b83a34b6b4bd30ba34b7b760711b81525060405161326c91906156c4565b9081526020016040518091039020819055505f1960236040518060400160405280601381526020017238bab0b73a3ab6afb1b0b634b13930ba34b7b760691b8152506040516132bb91906156c4565b9081526020016040518091039020819055505f1960236040518060400160405280601a81526020015f51602061587c5f395f51905f5281525060405161330191906156c4565b9081526020016040518091039020819055505f19602360405180604001604052806012815260200171656d657267656e63795f726573706f6e736560701b81525060405161334f91906156c4565b90815260405190819003602001902055565b5f61336c8383611ddd565b15612fbb575f8381526001602090815260408083206001600160a01b0386168085529252808320805460ff1916905551339286917ff6391f5c32d9c69d2a47ea670b442974b53935d1edc7fd64eb21e047a839171b9190a45060016108f8565b6133d46140ef565b6002805460ff191690557f5db9ee0a495bf2e6ff9c91a7834c1ba4fdd244a5e8aa4e537bd38aeae4b073aa33612fff565b5f80546001600160a01b038381166001600160a01b0319831681178455604051919092169283917f8be0079c531659141344cd1fd0a4f28419497f9722a3daafe3b4186f6b6457e09190a35050565b604080514260208083019190915244828401526bffffffffffffffffffffffff1941606090811b82168185015232901b166074830152825180830360680181526088830184528051908201204360a88401524560c88401524760e8808501919091528451808503909101815261010890930190935281519101205f6134da600a846157d2565b90505f6134e86008846157d2565b9050605060185f0154101561353f5760405162461bcd60e51b815260206004820181905260248201527f5175616e74756d20656e74726f707920616c726561647920637269746963616c6044820152606401610978565b601954606410156135925760405162461bcd60e51b815260206004820152601b60248201527f5175616e74756d20636f686572656e636520636f7272757074656400000000006044820152606401610978565b60078211156135c8575f6135a7836005614112565b90506135c38160185f01546135bc9190615644565b6050614124565b601855505b60068111156135ff575f6135dd826002614112565b90506135fa816018600101546135f3919061569a565b6064614112565b601955505b5f613608614133565b905061362f6135f361361b600a8461559d565b601a54613628919061569a565b6032614124565b601a55601854605011156136455761364561415f565b61364d6141cb565b5050505050565b42601f555f61366161431f565b90505f61366c6143a0565b601183905560155490915061368290829061569a565b6015556102588210156136bf576136bf61369b836143f5565b6040516020016136ab91906157e5565b604051602081830303815290604052614486565b60408051838152602081018390527f64e71a6e979a751e648067f03ca2af9e74d2afdd0bb4ba416bb76a149595e66391015b60405180910390a15050565b5f60228260405161370e91906156c4565b9081526040519081900360200190205460ff1661372c57505f919050565b5f60238360405161373d91906156c4565b90815260200160405180910390205490505f60248460405161375f91906156c4565b90815260405190819003602001902054905061377b828261569a565b421015949350505050565b4260246040518060400160405280601381526020015f5160206158c15f395f51905f528152506040516137b991906156c4565b908152602001604051809103902054106138155760405162461bcd60e51b815260206004820152601b60248201527f416c7265616479206578656375746564207468697320626c6f636b00000000006044820152606401610978565b6004600f54600160a81b900460ff166004811115613835576138356153f5565b036138775760405162461bcd60e51b815260206004820152601260248201527129bcb9ba32b69034b7103637b1b5b237bbb760711b6044820152606401610978565b5f5a9050620186a08110156138df5760405162461bcd60e51b815260206004820152602860248201527f496e73756666696369656e742067617320666f722074687265617420696e74656044820152673931b2b83a34b7b760c11b6064820152608401610978565b4260246040518060400160405280601381526020015f5160206158c15f395f51905f5281525060405161391291906156c4565b908152604051908190036020019020555f61392b6144f6565b90505f61393a8251600a614112565b90505f5b818110156139795761c3505a10613979576139718382815181106139645761396461566f565b60200260200101516149d9565b60010161393e565b505f5a6139869085615644565b90506207a1208111156139ea5760405162461bcd60e51b815260206004820152602660248201527f54687265617420696e74657263657074696f6e2067617320757361676520657860448201526518d95959195960d21b6064820152608401610978565b604080518082018252601381525f5160206158c15f395f51905f52602082015290517ff2930ba42f1940a545ab688fd974b0f8456f4a47371282f4b01922b8c25aa4e491613a3991429061578c565b60405180910390a150505050565b426024604051806040016040528060128152602001713cb4b2b6322fb7b83a34b6b4bd30ba34b7b760711b815250604051613a8291906156c4565b908152604051908190036020019020555f613a9b614c5d565b90505f613aa6614cbb565b601780549192505f613ab783615657565b909155505060408051838152602081018390527ffada0c50a8d5e3d28fd982a203beb19eaf6503b4cad7bdb58fcfe731298f38f9910160405180910390a160408051808201825260128152713cb4b2b6322fb7b83a34b6b4bd30ba34b7b760711b602082015290517ff2930ba42f1940a545ab688fd974b0f8456f4a47371282f4b01922b8c25aa4e4916136f191429061578c565b5f613b55614cfd565b60128190559050604681108015613b8957506001600f54600160a81b900460ff166004811115613b8757613b876153f5565b145b15613bc257600f805460ff60a81b1916600160a91b1790556040515f5160206159475f395f51905f5290611b139060019060029061572f565b60558110158015613bf057506002600f54600160a81b900460ff166004811115613bee57613bee6153f5565b145b15611f2a57600f805460ff60a81b1916600160a81b1790556040515f5160206159475f395f51905f5290611b139060029060019061572f565b42601e5410613c8b5760405162461bcd60e51b815260206004820152602860248201527f43616c6962726174696f6e20616c726561647920706572666f726d6564207468604482015267697320626c6f636b60c01b6064820152608401610978565b601854613ce55760405162461bcd60e51b815260206004820152602260248201527f43616e6e6f742063616c6962726174652077697468207a65726f20656e74726f604482015261707960f01b6064820152608401610978565b60185460195442601e819055601b546040515f92613d0e92909143914491329190602001615816565b6040516020818303038152906040528051906020012090505f600a82604051602001613d4c91815266656e74726f707960c81b602082015260270190565b604051602081830303815290604052805190602001205f1c613d6e91906157d2565b90505f600883604051602001613d9891815268636f686572656e636560b81b602082015260290190565b604051602081830303815290604052805190602001205f1c613dba91906157d2565b90505f600a84604051602001613de89181526c39bab832b93837b9b4ba34b7b760991b6020820152602d0190565b604051602081830303815290604052805190602001205f1c613e0a91906157d2565b9050613e30613e298460185f0154613e22919061569a565b6046614124565b605f614112565b601855601954613e50906135f390613e4990859061569a565b6055614124565b601955601a54613e69906135f3906135bc90849061569a565b601a55613e74614d87565b601b55613e7f6141cb565b60185486111580613e91575060195485105b613edd5760405162461bcd60e51b815260206004820152601760248201527f43616c6962726174696f6e20696e6566666563746976650000000000000000006044820152606401610978565b6019546018546040517f5a51e9fac07fd361af7542254f7f0b604a32844fcad7f3629efd9ebed51574a192613f1a92908252602082015260400190565b60405180910390a1505050505050565b600f805460ff60a81b1916905560408051610100810182525f8082526103526020808401829052605a848601819052605f6060808701829052426080880181905260a080890188905260c0890188905260e09098018790526010879055601195909555601292909255601355601492909255601583905560168390556017929092558351928301845260558352605c91830191909152605892820192909252908101613fd4614d87565b81524260209182015281516018558101516019556040810151601a556060810151601b5560800151601c555f601d819055601e819055601f55614015614dbe565b5f600f54600160a81b900460ff166004811115614034576140346153f5565b14610ba95760405162461bcd60e51b815260206004820152600c60248201526b14995cd95d0819985a5b195960a21b6044820152606401610978565b7f9b779b17422d0df92223018b32b4d1fa46e071723d6817e2486d003becc55f0054600203610ba957604051633ee5aeb560e01b815260040160405180910390fd5b6140bc8282611ddd565b6140eb5760405163e2517d3f60e01b81526001600160a01b038216600482015260248101839052604401610978565b5050565b60025460ff16610ba957604051638dfc202b60e01b815260040160405180910390fd5b5f8282188284100282185b9392505050565b5f82821882841102821861411d565b5f60648161414182446157d2565b9050614158614150828461569a565b6103e8614112565b9250505090565b614167613c29565b604080518181526027918101919091527f5175616e74756d20656e74726f70792062656c6f77206d696e696d756d2074686060820152661c995cda1bdb1960ca1b6080820152600960208201525f5160206159675f395f51905f529060a001611fd9565b6018546064101561421e5760405162461bcd60e51b815260206004820152601d60248201527f5175616e74756d20656e74726f7079206f7574206f6620626f756e64730000006044820152606401610978565b601954606410156142715760405162461bcd60e51b815260206004820152601f60248201527f5175616e74756d20636f686572656e6365206f7574206f6620626f756e6473006044820152606401610978565b601a54606410156142d05760405162461bcd60e51b815260206004820152602360248201527f5175616e74756d207375706572706f736974696f6e206f7574206f6620626f756044820152626e647360e81b6064820152608401610978565b601b54610ba95760405162461bcd60e51b815260206004820152601b60248201527f5175616e74756d207369676e617475726520636f7272757074656400000000006044820152606401610978565b6019545f906103209082906143369060029061559d565b90505f600260106002015461434b919061559d565b6016549091505f9061435e906005615683565b90505f818361436d868861569a565b614377919061569a565b614381919061569a565b90506103e881116143925780614396565b6103e85b9550505050505090565b6018545f908190604611156143bd57806143b981615657565b9150505b601254605011156143d657806143d281615657565b9150505b6011546102bc11156143f057806143ec81615657565b9150505b919050565b60605f614401836150fa565b60010190505f8167ffffffffffffffff811115614420576144206151f8565b6040519080825280601f01601f19166020018201604052801561444a576020820181803683370190505b5090508181016020015b5f19016f181899199a1a9b1b9c1cb0b131b232b360811b600a86061a8153600a8504945084614454575b509392505050565b600f805460ff60a81b1916600360a81b1790556144a1612fc2565b5f5160206159675f395f51905f5281600a6040516144c092919061578c565b60405180910390a15f5160206159475f395f51905f52600f60159054906101000a900460ff166003604051611b1392919061572f565b60408051600580825260c08201909252606091905f90826020820160a080368337505060115460185460408051426020808301919091524482840152606082018590526080808301949094528251808303909401845260a090910190915281519101209293505f9291506102ee11156145fb578382106145885760405162461bcd60e51b81526004016109789061584c565b6040517573656375726974795f73636f72655f616e6f6d616c7960501b602082015242603682015260568101829052607601604051602081830303815290604052805190602001208383806145dc90615657565b9450815181106145ee576145ee61566f565b6020026020010181815250505b601854605011156146a3578382106146255760405162461bcd60e51b81526004016109789061584c565b6018546040517f7175616e74756d5f656e74726f70795f637269746963616c0000000000000000602082015242603882015260588101919091526078016040516020818303038152906040528051906020012083838061468490615657565b9450815181106146965761469661566f565b6020026020010181815250505b6012546050111561474b578382106146cd5760405162461bcd60e51b81526004016109789061584c565b6012546040517f6e6574776f726b5f6865616c74685f6465677261646564000000000000000000602082015242603782015260578101919091526077016040516020818303038152906040528051906020012083838061472c90615657565b94508151811061473e5761473e61566f565b6020026020010181815250505b601554600510156147ec578382106147755760405162461bcd60e51b81526004016109789061584c565b601554604051750c2dcdedac2d8f2becce4cae2eacadcc6f2bed0d2ced60531b60208201524260368201526056810191909152607601604051602081830303815290604052805190602001208383806147cd90615657565b9450815181106147df576147df61566f565b6020026020010181815250505b6003600f54600160a81b900460ff16600481111561480c5761480c6153f5565b036148c3578382106148305760405162461bcd60e51b81526004016109789061584c565b600f544290600160a81b900460ff166004811115614850576148506153f5565b60405175656d657267656e63795f73746174655f61637469766560501b602082015260368101929092526056820152607601604051602081830303815290604052805190602001208383806148a490615657565b9450815181106148b6576148b661566f565b6020026020010181815250505b5f5b8281101561493f575f5f1b8482815181106148e2576148e261566f565b6020026020010151036149375760405162461bcd60e51b815260206004820152601b60248201527f496e76616c6964207468726561742049442067656e65726174656400000000006044820152606401610978565b6001016148c5565b505f8267ffffffffffffffff81111561495a5761495a6151f8565b604051908082528060200260200182016040528015614983578160200160208202803683370190505b5090505f5b838110156149cf578481815181106149a2576149a261566f565b60200260200101518282815181106149bc576149bc61566f565b6020908102919091010152600101614988565b5095945050505050565b80614a1a5760405162461bcd60e51b8152602060048201526011602482015270125b9d985b1a59081d1a1c99585d081251607a1b6044820152606401610978565b601b546040515f91614a4391849142916020019283526020830191909152604082015260600190565b60408051601f19818403018152919052805160209091012090505f614a69600a836157d2565b614a7490600161569a565b905060018110158015614a885750600a8111155b614ad45760405162461bcd60e51b815260206004820152601c60248201527f496e76616c69642073657665726974792063616c63756c6174696f6e000000006044820152606401610978565b601654614ae290600161569a565b60165560098110614b3057614b2b6040518060400160405280601b81526020017f437269746963616c2074687265617420696e7465726365707465640000000000815250612af0565b614b80565b60088110614b7657614b2b6040518060400160405280602081526020017f486967682d73657665726974792074687265617420696e746572636570746564815250614486565b6006811015614b2b575b601654614bcf5760405162461bcd60e51b815260206004820152601960248201527f496e74657263657074696f6e206e6f74207265636f72646564000000000000006044820152606401610978565b7f68fe0620f8e2175dccd687a4931796ae46fc6b5b9e1afa25f65bd169f0e7d403838260405161187b92919091825260208201526060604082018190526036908201527f4175746f6e6f6d6f75732074687265617420696e74657263657074696f6e207760808201527534ba341038bab0b73a3ab6903b30b634b230ba34b7b760511b60a082015260c00190565b6019545f90683635c9adc5dea00000908290614c7b90600a9061559d565b90505f6064601060010154614c90919061559d565b9050606481614c9f8486615683565b614ca99190615683565b614cb3919061559d565b935050505090565b601a545f906032908290614cd190600a9061559d565b90505f6014601060020154614ce6919061559d565b905080614cf3838561569a565b614cb3919061569a565b6011545f90602890601e90819084906103e890614d1b908690615683565b614d25919061559d565b90505f606484601860010154614d3b9190615683565b614d45919061559d565b90505f606484601060020154614d5b9190615683565b614d65919061559d565b905080614d72838561569a565b614d7c919061569a565b965050505050505090565b6018546040515f91614da3914291449143913091602001615816565b60405160208183030381529060405280519060200120905090565b600160226040518060400160405280601381526020015f5160206158c15f395f51905f52815250604051614df291906156c4565b90815260200160405180910390205f6101000a81548160ff02191690831515021790555060016022604051806040016040528060128152602001713cb4b2b6322fb7b83a34b6b4bd30ba34b7b760711b815250604051614e5291906156c4565b90815260200160405180910390205f6101000a81548160ff021916908315150217905550600160226040518060400160405280601381526020017238bab0b73a3ab6afb1b0b634b13930ba34b7b760691b815250604051614eb391906156c4565b90815260200160405180910390205f6101000a81548160ff021916908315150217905550600160226040518060400160405280601a81526020015f51602061587c5f395f51905f52815250604051614f0b91906156c4565b90815260200160405180910390205f6101000a81548160ff0219169083151502179055506001602260405180604001604052806012815260200171656d657267656e63795f726573706f6e736560701b815250604051614f6b91906156c4565b90815260200160405180910390205f6101000a81548160ff02191690831515021790555061012c60236040518060400160405280601381526020015f5160206158c15f395f51905f52815250604051614fc491906156c4565b908152602001604051809103902081905550610e106023604051806040016040528060128152602001713cb4b2b6322fb7b83a34b6b4bd30ba34b7b760711b81525060405161501391906156c4565b9081526020016040518091039020819055506201518060236040518060400160405280601381526020017238bab0b73a3ab6afb1b0b634b13930ba34b7b760691b81525060405161506491906156c4565b90815260200160405180910390208190555061025860236040518060400160405280601a81526020015f51602061587c5f395f51905f528152506040516150ab91906156c4565b908152602001604051809103902081905550610708602360405180604001604052806012815260200171656d657267656e63795f726573706f6e736560701b81525060405161334f91906156c4565b5f8072184f03e93ff9f4daa797ed6e38ed64bf6a1f0160401b83106151385772184f03e93ff9f4daa797ed6e38ed64bf6a1f0160401b830492506040015b6d04ee2d6d415b85acef81000000008310615164576d04ee2d6d415b85acef8100000000830492506020015b662386f26fc10000831061518257662386f26fc10000830492506010015b6305f5e100831061519a576305f5e100830492506008015b61271083106151ae57612710830492506004015b606483106151c0576064830492506002015b600a83106108f85760010192915050565b5f602082840312156151e1575f5ffd5b81356001600160e01b03198116811461411d575f5ffd5b634e487b7160e01b5f52604160045260245ffd5b601f8201601f1916810167ffffffffffffffff81118282101715615232576152326151f8565b6040525050565b5f82601f830112615248575f5ffd5b813567ffffffffffffffff811115615262576152626151f8565b604051615279601f8301601f19166020018261520c565b81815284602083860101111561528d575f5ffd5b816020850160208301375f918101602001919091529392505050565b5f602082840312156152b9575f5ffd5b813567ffffffffffffffff8111156152cf575f5ffd5b6152db84828501615239565b949350505050565b5f81518084528060208401602086015e5f602082860101526020601f19601f83011685010191505092915050565b5f6040820184151583526040602084015280845180835260608501915060608160051b8601019250602086015f5b8281101561537057605f1987860301845261535b8583516152e3565b9450602093840193919091019060010161533f565b5092979650505050505050565b5f6020828403121561538d575f5ffd5b5035919050565b80356001600160a01b03811681146143f0575f5ffd5b5f5f604083850312156153bb575f5ffd5b823567ffffffffffffffff8111156153d1575f5ffd5b6153dd85828601615239565b9250506153ec60208401615394565b90509250929050565b634e487b7160e01b5f52602160045260245ffd5b6005811061542557634e487b7160e01b5f52602160045260245ffd5b9052565b60a081016154378288615409565b8560208301528460408301528360608301528260808301529695505050505050565b5f5f6040838503121561546a575f5ffd5b823591506153ec60208401615394565b5f5f6040838503121561548b575f5ffd5b823567ffffffffffffffff8111156154a1575f5ffd5b6154ad85828601615239565b925050602083013580151581146154c2575f5ffd5b809150509250929050565b5f5f5f5f5f5f5f60e0888a0312156154e3575f5ffd5b6154ec88615394565b96506154fa60208901615394565b955061550860408901615394565b945061551660608901615394565b935061552460808901615394565b925061553260a08901615394565b915061554060c08901615394565b905092959891949750929550565b602081016108f88284615409565b5f6020828403121561556c575f5ffd5b61411d82615394565b634e487b7160e01b5f52601260045260245ffd5b634e487b7160e01b5f52601160045260245ffd5b5f826155ab576155ab615575565b500490565b5f60033d11156128795760045f5f3e505f5160e01c90565b5f60443d10156155d55790565b6040513d600319016004823e80513d602482011167ffffffffffffffff821117156155ff57505090565b808201805167ffffffffffffffff81111561561b575050505090565b3d8401600319018282016020011115615635575050505090565b61447e6020828501018561520c565b818103818111156108f8576108f8615589565b5f6001820161566857615668615589565b5060010190565b634e487b7160e01b5f52603260045260245ffd5b80820281158282048414176108f8576108f8615589565b808201808211156108f8576108f8615589565b5f81518060208401855e5f93019283525090919050565b5f61411d82846156ad565b6020808252601b908201527f416c72656164792073657420746f207468697320616464726573730000000000604082015260600190565b604081525f61571860408301856152e3565b905060018060a01b03831660208301529392505050565b6040810161573d8285615409565b61411d6020830184615409565b60208082526022908201527f53656e74696e656c496e746572636570746f72206e6f74206120636f6e74726160408201526118dd60f21b606082015260800190565b604081525f61579e60408301856152e3565b90508260208301529392505050565b70021b7b932903637b7b81032b93937b91d1607d1b81525f61411d60118301846156ad565b5f826157e0576157e0615575565b500690565b7f437269746963616c2073656375726974792073636f72653a200000000000000081525f61411d60198301846156ad565b94855260208501939093526040840191909152606090811b6bffffffffffffffffffffffff191690830152607482015260940190565b602080825260159082015274546872656174206172726179206f766572666c6f7760581b60408201526060019056fe636972637569745f627265616b65725f61637469766174696f6e00000000000053656e74696e656c496e746572636570746f7220636f6d706f6e656e7420696e76616c69647468726561745f696e74657263657074696f6e000000000000000000000000007935bd0ae54bc31f548c14dba4d37c5c64b3f8ca900cb468fb8abd54d5894f55b981579150c3425cb7a64ecca20088f2e1afadfa9cfb8e95ee4c208200accb9e53656375726974792073636f72652062656c6f77206d696e696d756d207468726573686f6c64103f4d5a9cc0a1df9d59b49654a5ad6d55f781452aeca93a598a646a9ec3ee6da26c608a74999938cd1f2430d9cb4711fd2d14b8077c3d5b5773f5fa9d37019fa26469706673582212206ba879a02b1c5b4a2c5755d87706dc66aeb10e190d051a5b987b99be961d2df864736f6c634300081c0033",
  "linkReferences": {},
  "deployedLinkReferences": {},
  "immutableReferences": {},
  "inputSourceName": "project/contracts/SentinelCoreLoop.sol",
  "buildInfoId": "solc-0_8_28-1b5c21a21cac4f08cf2c8993926ccb888320140e"
}