{
  "_format": "hh3-artifact-1",
  "contractName": "SentinelRewardAggregator",
  "sourceName": "contracts/SentinelRewardAggregator.sol",
  "abi": [
    {
      "inputs": [
        {
          "internalType": "address",
          "name": "_stakingContract",
          "type": "address"
        },
        {
          "internalType": "address",
          "name": "_liquidityMiningContract",
          "type": "address"
        },
        {
          "internalType": "address",
          "name": "_governanceTokenContract",
          "type": "address"
        },
        {
          "internalType": "address",
          "name": "_referralSystemContract",
          "type": "address"
        }
      ],
      "stateMutability": "nonpayable",
      "type": "constructor"
    },
    {
      "inputs": [
        {
          "internalType": "address",
          "name": "owner",
          "type": "address"
        }
      ],
      "name": "OwnableInvalidOwner",
      "type": "error"
    },
    {
      "inputs": [
        {
          "internalType": "address",
          "name": "account",
          "type": "address"
        }
      ],
      "name": "OwnableUnauthorizedAccount",
      "type": "error"
    },
    {
      "inputs": [],
      "name": "ReentrancyGuardReentrantCall",
      "type": "error"
    },
    {
      "anonymous": false,
      "inputs": [
        {
          "indexed": true,
          "internalType": "address",
          "name": "previousOwner",
          "type": "address"
        },
        {
          "indexed": true,
          "internalType": "address",
          "name": "newOwner",
          "type": "address"
        }
      ],
      "name": "OwnershipTransferred",
      "type": "event"
    },
    {
      "anonymous": false,
      "inputs": [
        {
          "indexed": true,
          "internalType": "address",
          "name": "user",
          "type": "address"
        },
        {
          "indexed": false,
          "internalType": "uint256",
          "name": "amount",
          "type": "uint256"
        },
        {
          "indexed": false,
          "internalType": "string",
          "name": "rewardType",
          "type": "string"
        }
      ],
      "name": "RewardClaimed",
      "type": "event"
    },
    {
      "anonymous": false,
      "inputs": [
        {
          "indexed": true,
          "internalType": "address",
          "name": "user",
          "type": "address"
        },
        {
          "components": [
            {
              "internalType": "uint256",
              "name": "stakingRewards",
              "type": "uint256"
            },
            {
              "internalType": "uint256",
              "name": "liquidityRewards",
              "type": "uint256"
            },
            {
              "internalType": "uint256",
              "name": "governanceRewards",
              "type": "uint256"
            },
            {
              "internalType": "uint256",
              "name": "referralRewards",
              "type": "uint256"
            },
            {
              "internalType": "uint256",
              "name": "securityRewards",
              "type": "uint256"
            },
            {
              "internalType": "uint256",
              "name": "totalAPY",
              "type": "uint256"
            },
            {
              "internalType": "uint256",
              "name": "lastUpdate",
              "type": "uint256"
            }
          ],
          "indexed": false,
          "internalType": "struct SentinelRewardAggregator.UserRewards",
          "name": "rewards",
          "type": "tuple"
        }
      ],
      "name": "RewardsUpdated",
      "type": "event"
    },
    {
      "anonymous": false,
      "inputs": [
        {
          "components": [
            {
              "internalType": "uint256",
              "name": "stakingAPY",
              "type": "uint256"
            },
            {
              "internalType": "uint256",
              "name": "liquidityAPY",
              "type": "uint256"
            },
            {
              "internalType": "uint256",
              "name": "governanceAPY",
              "type": "uint256"
            },
            {
              "internalType": "uint256",
              "name": "referralAPY",
              "type": "uint256"
            },
            {
              "internalType": "uint256",
              "name": "securityAPY",
              "type": "uint256"
            },
            {
              "internalType": "uint256",
              "name": "totalAPY",
              "type": "uint256"
            },
            {
              "internalType": "uint256",
              "name": "timestamp",
              "type": "uint256"
            }
          ],
          "indexed": false,
          "internalType": "struct SentinelRewardAggregator.SystemAPY",
          "name": "newAPY",
          "type": "tuple"
        }
      ],
      "name": "SystemAPYUpdated",
      "type": "event"
    },
    {
      "inputs": [],
      "name": "BASE_APY",
      "outputs": [
        {
          "internalType": "uint256",
          "name": "",
          "type": "uint256"
        }
      ],
      "stateMutability": "view",
      "type": "function"
    },
    {
      "inputs": [],
      "name": "GOVERNANCE_WEIGHT",
      "outputs": [
        {
          "internalType": "uint256",
          "name": "",
          "type": "uint256"
        }
      ],
      "stateMutability": "view",
      "type": "function"
    },
    {
      "inputs": [],
      "name": "LIQUIDITY_WEIGHT",
      "outputs": [
        {
          "internalType": "uint256",
          "name": "",
          "type": "uint256"
        }
      ],
      "stateMutability": "view",
      "type": "function"
    },
    {
      "inputs": [],
      "name": "MAX_APY",
      "outputs": [
        {
          "internalType": "uint256",
          "name": "",
          "type": "uint256"
        }
      ],
      "stateMutability": "view",
      "type": "function"
    },
    {
      "inputs": [],
      "name": "MAX_MULTIPLIER",
      "outputs": [
        {
          "internalType": "uint256",
          "name": "",
          "type": "uint256"
        }
      ],
      "stateMutability": "view",
      "type": "function"
    },
    {
      "inputs": [],
      "name": "REFERRAL_WEIGHT",
      "outputs": [
        {
          "internalType": "uint256",
          "name": "",
          "type": "uint256"
        }
      ],
      "stateMutability": "view",
      "type": "function"
    },
    {
      "inputs": [],
      "name": "SECURITY_WEIGHT",
      "outputs": [
        {
          "internalType": "uint256",
          "name": "",
          "type": "uint256"
        }
      ],
      "stateMutability": "view",
      "type": "function"
    },
    {
      "inputs": [],
      "name": "STAKING_WEIGHT",
      "outputs": [
        {
          "internalType": "uint256",
          "name": "",
          "type": "uint256"
        }
      ],
      "stateMutability": "view",
      "type": "function"
    },
    {
      "inputs": [
        {
          "internalType": "address",
          "name": "user",
          "type": "address"
        }
      ],
      "name": "claimAllRewards",
      "outputs": [],
      "stateMutability": "nonpayable",
      "type": "function"
    },
    {
      "inputs": [],
      "name": "currentSystemAPY",
      "outputs": [
        {
          "internalType": "uint256",
          "name": "stakingAPY",
          "type": "uint256"
        },
        {
          "internalType": "uint256",
          "name": "liquidityAPY",
          "type": "uint256"
        },
        {
          "internalType": "uint256",
          "name": "governanceAPY",
          "type": "uint256"
        },
        {
          "internalType": "uint256",
          "name": "referralAPY",
          "type": "uint256"
        },
        {
          "internalType": "uint256",
          "name": "securityAPY",
          "type": "uint256"
        },
        {
          "internalType": "uint256",
          "name": "totalAPY",
          "type": "uint256"
        },
        {
          "internalType": "uint256",
          "name": "timestamp",
          "type": "uint256"
        }
      ],
      "stateMutability": "view",
      "type": "function"
    },
    {
      "inputs": [],
      "name": "getSystemAPY",
      "outputs": [
        {
          "components": [
            {
              "internalType": "uint256",
              "name": "stakingAPY",
              "type": "uint256"
            },
            {
              "internalType": "uint256",
              "name": "liquidityAPY",
              "type": "uint256"
            },
            {
              "internalType": "uint256",
              "name": "governanceAPY",
              "type": "uint256"
            },
            {
              "internalType": "uint256",
              "name": "referralAPY",
              "type": "uint256"
            },
            {
              "internalType": "uint256",
              "name": "securityAPY",
              "type": "uint256"
            },
            {
              "internalType": "uint256",
              "name": "totalAPY",
              "type": "uint256"
            },
            {
              "internalType": "uint256",
              "name": "timestamp",
              "type": "uint256"
            }
          ],
          "internalType": "struct SentinelRewardAggregator.SystemAPY",
          "name": "",
          "type": "tuple"
        }
      ],
      "stateMutability": "view",
      "type": "function"
    },
    {
      "inputs": [
        {
          "internalType": "address",
          "name": "user",
          "type": "address"
        }
      ],
      "name": "getUserRewardBreakdown",
      "outputs": [
        {
          "internalType": "uint256",
          "name": "stakingAPY",
          "type": "uint256"
        },
        {
          "internalType": "uint256",
          "name": "liquidityAPY",
          "type": "uint256"
        },
        {
          "internalType": "uint256",
          "name": "governanceAPY",
          "type": "uint256"
        },
        {
          "internalType": "uint256",
          "name": "referralAPY",
          "type": "uint256"
        },
        {
          "internalType": "uint256",
          "name": "securityAPY",
          "type": "uint256"
        },
        {
          "internalType": "uint256",
          "name": "totalAPY",
          "type": "uint256"
        }
      ],
      "stateMutability": "pure",
      "type": "function"
    },
    {
      "inputs": [
        {
          "internalType": "address",
          "name": "user",
          "type": "address"
        }
      ],
      "name": "getUserTotalAPY",
      "outputs": [
        {
          "internalType": "uint256",
          "name": "",
          "type": "uint256"
        }
      ],
      "stateMutability": "view",
      "type": "function"
    },
    {
      "inputs": [],
      "name": "governanceTokenContract",
      "outputs": [
        {
          "internalType": "address",
          "name": "",
          "type": "address"
        }
      ],
      "stateMutability": "view",
      "type": "function"
    },
    {
      "inputs": [],
      "name": "liquidityMiningContract",
      "outputs": [
        {
          "internalType": "address",
          "name": "",
          "type": "address"
        }
      ],
      "stateMutability": "view",
      "type": "function"
    },
    {
      "inputs": [],
      "name": "owner",
      "outputs": [
        {
          "internalType": "address",
          "name": "",
          "type": "address"
        }
      ],
      "stateMutability": "view",
      "type": "function"
    },
    {
      "inputs": [],
      "name": "performanceMultiplier",
      "outputs": [
        {
          "internalType": "uint256",
          "name": "",
          "type": "uint256"
        }
      ],
      "stateMutability": "view",
      "type": "function"
    },
    {
      "inputs": [],
      "name": "referralSystemContract",
      "outputs": [
        {
          "internalType": "address",
          "name": "",
          "type": "address"
        }
      ],
      "stateMutability": "view",
      "type": "function"
    },
    {
      "inputs": [],
      "name": "renounceOwnership",
      "outputs": [],
      "stateMutability": "nonpayable",
      "type": "function"
    },
    {
      "inputs": [],
      "name": "stakingContract",
      "outputs": [
        {
          "internalType": "address",
          "name": "",
          "type": "address"
        }
      ],
      "stateMutability": "view",
      "type": "function"
    },
    {
      "inputs": [
        {
          "internalType": "address",
          "name": "newOwner",
          "type": "address"
        }
      ],
      "name": "transferOwnership",
      "outputs": [],
      "stateMutability": "nonpayable",
      "type": "function"
    },
    {
      "inputs": [
        {
          "internalType": "uint256",
          "name": "systemHealthScore",
          "type": "uint256"
        }
      ],
      "name": "updatePerformanceMultiplier",
      "outputs": [],
      "stateMutability": "nonpayable",
      "type": "function"
    },
    {
      "inputs": [],
      "name": "updateSystemAPY",
      "outputs": [],
      "stateMutability": "nonpayable",
      "type": "function"
    },
    {
      "inputs": [
        {
          "internalType": "address",
          "name": "user",
          "type": "address"
        }
      ],
      "name": "updateUserRewards",
      "outputs": [],
      "stateMutability": "nonpayable",
      "type": "function"
    },
    {
      "inputs": [
        {
          "internalType": "address",
          "name": "",
          "type": "address"
        }
      ],
      "name": "userRewards",
      "outputs": [
        {
          "internalType": "uint256",
          "name": "stakingRewards",
          "type": "uint256"
        },
        {
          "internalType": "uint256",
          "name": "liquidityRewards",
          "type": "uint256"
        },
        {
          "internalType": "uint256",
          "name": "governanceRewards",
          "type": "uint256"
        },
        {
          "internalType": "uint256",
          "name": "referralRewards",
          "type": "uint256"
        },
        {
          "internalType": "uint256",
          "name": "securityRewards",
          "type": "uint256"
        },
        {
          "internalType": "uint256",
          "name": "totalAPY",
          "type": "uint256"
        },
        {
          "internalType": "uint256",
          "name": "lastUpdate",
          "type": "uint256"
        }
      ],
      "stateMutability": "view",
      "type": "function"
    }
  ],
  "bytecode": "0x60806040526064600d55348015610014575f5ffd5b50604051610e56380380610e5683398101604081905261003391610293565b338061005857604051631e4fbdf760e01b81525f600482015260240160405180910390fd5b610061816100e1565b5060017f9b779b17422d0df92223018b32b4d1fa46e071723d6817e2486d003becc55f0055600180546001600160a01b038087166001600160a01b031992831617909255600280548684169083161790556003805485841690831617905560048054928416929091169190911790556100d8610130565b50505050610347565b5f80546001600160a01b038381166001600160a01b0319831681178455604051919092169283917f8be0079c531659141344cd1fd0a4f28419497f9722a3daafe3b4186f6b6457e09190a35050565b61015e60068190556101906007819055610145600881905560646009819055604b600a81905561016394939291906101d3565b600b81905542600c8190556040805160065481526007546020820152600854818301526009546060820152600a54608082015260a081019390935260c0830191909152517f1d696dd4484689d5673dab91038088a55c518b36cb287ec9166fe735a08900709181900360e00190a1565b5f8060646101e26005856102f8565b6101ed600a876102f8565b6101f8600f896102f8565b610203601e8b6102f8565b61020e60288d6102f8565b6102189190610315565b6102229190610315565b61022c9190610315565b6102369190610315565b6102409190610328565b9050606461024e82826102f8565b6102589190610328565b90506101f48111610269578061026d565b6101f45b979650505050505050565b80516001600160a01b038116811461028e575f5ffd5b919050565b5f5f5f5f608085870312156102a6575f5ffd5b6102af85610278565b93506102bd60208601610278565b92506102cb60408601610278565b91506102d960608601610278565b905092959194509250565b634e487b7160e01b5f52601160045260245ffd5b808202811582820484141761030f5761030f6102e4565b92915050565b8082018082111561030f5761030f6102e4565b5f8261034257634e487b7160e01b5f52601260045260245ffd5b500490565b610b02806103545f395ff3fe608060405234801561000f575f5ffd5b506004361061016d575f3560e01c8063794dd67f116100d9578063d878fe0311610093578063f1efca651161006e578063f1efca65146103a4578063f2fde38b146103ac578063f31878ae146103bf578063fe2e7e8a146103d2575f5ffd5b8063d878fe031461036b578063e991560f1461037e578063ee99205c14610391575f5ffd5b8063794dd67f146102d2578063822bf3311461032f5780638da5cb5b14610342578063a485b78614610352578063a994ba451461035b578063b3a591a514610363575f5ffd5b80633d92f4e21161012a5780633d92f4e2146102725780634ca19fd61461027b5780635d6a618d146102845780636fdbe0021461028c578063715018a6146102b75780637422e1af146102bf575f5ffd5b80630660f1e81461017157806306cd4755146101f7578063150670201461020c5780632e469fa71461024c57806334f1f5e71461026257806336bbd7721461026a575b5f5ffd5b6101bd61017f3660046109c2565b6005602052805f5260405f205f91509050805f0154908060010154908060020154908060030154908060040154908060050154908060060154905087565b604080519788526020880196909652948601939093526060850191909152608084015260a083015260c082015260e0015b60405180910390f35b61020a6102053660046109ef565b6103f4565b005b61021f61021a3660046109c2565b610435565b604080519687526020870195909552938501929092526060840152608083015260a082015260c0016101ee565b610254600a81565b6040519081526020016101ee565b610254600581565b610254600f81565b6102546101f481565b61025461012c81565b610254609681565b60045461029f906001600160a01b031681565b6040516001600160a01b0390911681526020016101ee565b61020a61046c565b60025461029f906001600160a01b031681565b6102da61047f565b6040516101ee91905f60e082019050825182526020830151602083015260408301516040830152606083015160608301526080830151608083015260a083015160a083015260c083015160c083015292915050565b61025461033d3660046109c2565b6104fd565b5f546001600160a01b031661029f565b610254600d5481565b61020a61050d565b610254601e81565b60035461029f906001600160a01b031681565b61020a61038c3660046109c2565b61051d565b60015461029f906001600160a01b031681565b610254602881565b61020a6103ba3660046109c2565b61067c565b61020a6103cd3660046109c2565b6106b6565b600654600754600854600954600a54600b54600c546101bd9695949392919087565b6103fc61078a565b605f811061040c576096600d5550565b605a811061041c57607d600d5550565b6050811061042c57606e600d5550565b6064600d555b50565b5f808080808061015e6101906101456064604b8561045686868686866107b6565b959d949c50929a50909850965091945092505050565b61047461078a565b61047d5f61085b565b565b6104b86040518060e001604052805f81526020015f81526020015f81526020015f81526020015f81526020015f81526020015f81525090565b506040805160e08101825260065481526007546020820152600854918101919091526009546060820152600a546080820152600b5460a0820152600c5460c082015290565b5f610507826108aa565b92915050565b61051561078a565b61047d610903565b610525610978565b336001600160a01b038216148061054557505f546001600160a01b031633145b6105855760405162461bcd60e51b815260206004820152600c60248201526b155b985d5d1a1bdc9a5e995960a21b60448201526064015b60405180910390fd5b6001600160a01b0381165f908152600560205260408120600481015460038201546002830154600184015484549495946105bf9190610a1a565b6105c99190610a1a565b6105d39190610a1a565b6105dd9190610a1a565b90508015610664575f80835560018301819055600283018190556003830181905560048301556040516001600160a01b038416907fc7207087d1b9602815027342116944238a53ba3db91a70042ead521a6fcff5c89061065b9084815260406020820181905260039082015262185b1b60ea1b606082015260800190565b60405180910390a25b505061043260015f516020610aad5f395f51905f5255565b61068461078a565b6001600160a01b0381166106ad57604051631e4fbdf760e01b81525f600482015260240161057c565b6104328161085b565b6106be610978565b6001600160a01b0381165f90815260056020526040902068056bc75e2d631000008155680821ab0d441498000060018201556802b5e3af16b1880000600282015568015af1d78b58c400006003820155678ac7230489e800006004820155610725826108aa565b60058201554260068201556040516001600160a01b038316907f53688503b7d5da9c20d4884eae71dae917239a36ff0fdb903cbab7439dc90a189061076b908490610a2d565b60405180910390a25061043260015f516020610aad5f395f51905f5255565b5f546001600160a01b0316331461047d5760405163118cdaa760e01b815233600482015260240161057c565b5f8060646107c5600585610a76565b6107d0600a87610a76565b6107db600f89610a76565b6107e6601e8b610a76565b6107f160288d610a76565b6107fb9190610a1a565b6108059190610a1a565b61080f9190610a1a565b6108199190610a1a565b6108239190610a8d565b905060646108318282610a76565b61083b9190610a8d565b90506101f4811161084c5780610850565b6101f45b979650505050505050565b5f80546001600160a01b038381166001600160a01b0319831681178455604051919092169283917f8be0079c531659141344cd1fd0a4f28419497f9722a3daafe3b4186f6b6457e09190a35050565b5f61015e6101906101456064604b856108c686868686866107b6565b90506064600d54826108d89190610a76565b6108e29190610a8d565b90506101f481116108f357806108f7565b6101f45b98975050505050505050565b61015e60068190556101906007819055610145600881905560646009819055604b600a81905561093694939291906107b6565b600b5542600c556040517f1d696dd4484689d5673dab91038088a55c518b36cb287ec9166fe735a08900709061096e90600690610a2d565b60405180910390a1565b610980610993565b60025f516020610aad5f395f51905f5255565b5f516020610aad5f395f51905f525460020361047d57604051633ee5aeb560e01b815260040160405180910390fd5b5f602082840312156109d2575f5ffd5b81356001600160a01b03811681146109e8575f5ffd5b9392505050565b5f602082840312156109ff575f5ffd5b5035919050565b634e487b7160e01b5f52601160045260245ffd5b8082018082111561050757610507610a06565b8154815260018201546020820152600282015460408201526003820154606082015260048201546080820152600582015460a0820152600682015460c082015260e08101610507565b808202811582820484141761050757610507610a06565b5f82610aa757634e487b7160e01b5f52601260045260245ffd5b50049056fe9b779b17422d0df92223018b32b4d1fa46e071723d6817e2486d003becc55f00a2646970667358221220440eb1e4aab20e9c7f21572d661a4d35e180a95077199cad281376e7945014c664736f6c634300081c0033",
  "linkReferences": {},
  "deployedLinkReferences": {},
  "immutableReferences": {},
  "inputSourceName": "project/contracts/SentinelRewardAggregator.sol",
  "buildInfoId": "solc-0_8_28-56b4d38520a07143560cd43eeb820c3102363d0a"
}