{
  "_format": "hh3-artifact-1",
  "contractName": "SentinelQuantumGuard",
  "sourceName": "contracts/SentinelQuantumGuard.sol",
  "abi": [
    {
      "inputs": [
        {
          "internalType": "address",
          "name": "initialOwner",
          "type": "address"
        }
      ],
      "stateMutability": "nonpayable",
      "type": "constructor"
    },
    {
      "inputs": [],
      "name": "ECDSAInvalidSignature",
      "type": "error"
    },
    {
      "inputs": [
        {
          "internalType": "uint256",
          "name": "length",
          "type": "uint256"
        }
      ],
      "name": "ECDSAInvalidSignatureLength",
      "type": "error"
    },
    {
      "inputs": [
        {
          "internalType": "bytes32",
          "name": "s",
          "type": "bytes32"
        }
      ],
      "name": "ECDSAInvalidSignatureS",
      "type": "error"
    },
    {
      "inputs": [],
      "name": "EnforcedPause",
      "type": "error"
    },
    {
      "inputs": [],
      "name": "ExpectedPause",
      "type": "error"
    },
    {
      "inputs": [
        {
          "internalType": "address",
          "name": "owner",
          "type": "address"
        }
      ],
      "name": "OwnableInvalidOwner",
      "type": "error"
    },
    {
      "inputs": [
        {
          "internalType": "address",
          "name": "account",
          "type": "address"
        }
      ],
      "name": "OwnableUnauthorizedAccount",
      "type": "error"
    },
    {
      "inputs": [],
      "name": "ReentrancyGuardReentrantCall",
      "type": "error"
    },
    {
      "anonymous": false,
      "inputs": [
        {
          "indexed": true,
          "internalType": "address",
          "name": "oracle",
          "type": "address"
        },
        {
          "indexed": false,
          "internalType": "uint256",
          "name": "newReputation",
          "type": "uint256"
        }
      ],
      "name": "OracleReputationUpdated",
      "type": "event"
    },
    {
      "anonymous": false,
      "inputs": [
        {
          "indexed": true,
          "internalType": "address",
          "name": "previousOwner",
          "type": "address"
        },
        {
          "indexed": true,
          "internalType": "address",
          "name": "newOwner",
          "type": "address"
        }
      ],
      "name": "OwnershipTransferred",
      "type": "event"
    },
    {
      "anonymous": false,
      "inputs": [
        {
          "indexed": false,
          "internalType": "address",
          "name": "account",
          "type": "address"
        }
      ],
      "name": "Paused",
      "type": "event"
    },
    {
      "anonymous": false,
      "inputs": [
        {
          "indexed": true,
          "internalType": "bytes32",
          "name": "proofId",
          "type": "bytes32"
        },
        {
          "indexed": true,
          "internalType": "address",
          "name": "prover",
          "type": "address"
        }
      ],
      "name": "QuantumProofSubmitted",
      "type": "event"
    },
    {
      "anonymous": false,
      "inputs": [
        {
          "indexed": false,
          "internalType": "enum SentinelQuantumGuard.SecurityLevel",
          "name": "newLevel",
          "type": "uint8"
        },
        {
          "indexed": false,
          "internalType": "string",
          "name": "reason",
          "type": "string"
        }
      ],
      "name": "SecurityLevelChanged",
      "type": "event"
    },
    {
      "anonymous": false,
      "inputs": [
        {
          "indexed": true,
          "internalType": "bytes32",
          "name": "txHash",
          "type": "bytes32"
        },
        {
          "indexed": false,
          "internalType": "uint256",
          "name": "securityScore",
          "type": "uint256"
        }
      ],
      "name": "TransactionValidated",
      "type": "event"
    },
    {
      "anonymous": false,
      "inputs": [
        {
          "indexed": false,
          "internalType": "address",
          "name": "account",
          "type": "address"
        }
      ],
      "name": "Unpaused",
      "type": "event"
    },
    {
      "inputs": [],
      "name": "MAX_SECURITY_SCORE",
      "outputs": [
        {
          "internalType": "uint256",
          "name": "",
          "type": "uint256"
        }
      ],
      "stateMutability": "view",
      "type": "function"
    },
    {
      "inputs": [],
      "name": "MIN_ORACLE_REPUTATION",
      "outputs": [
        {
          "internalType": "uint256",
          "name": "",
          "type": "uint256"
        }
      ],
      "stateMutability": "view",
      "type": "function"
    },
    {
      "inputs": [],
      "name": "PROOF_VALIDITY_PERIOD",
      "outputs": [
        {
          "internalType": "uint256",
          "name": "",
          "type": "uint256"
        }
      ],
      "stateMutability": "view",
      "type": "function"
    },
    {
      "inputs": [],
      "name": "QUANTUM_SECURITY_LEVEL",
      "outputs": [
        {
          "internalType": "uint256",
          "name": "",
          "type": "uint256"
        }
      ],
      "stateMutability": "view",
      "type": "function"
    },
    {
      "inputs": [],
      "name": "currentSecurityLevel",
      "outputs": [
        {
          "internalType": "enum SentinelQuantumGuard.SecurityLevel",
          "name": "",
          "type": "uint8"
        }
      ],
      "stateMutability": "view",
      "type": "function"
    },
    {
      "inputs": [
        {
          "internalType": "enum SentinelQuantumGuard.SecurityLevel",
          "name": "newLevel",
          "type": "uint8"
        },
        {
          "internalType": "string",
          "name": "reason",
          "type": "string"
        }
      ],
      "name": "escalateSecurityLevel",
      "outputs": [],
      "stateMutability": "nonpayable",
      "type": "function"
    },
    {
      "inputs": [],
      "name": "falsePositiveRate",
      "outputs": [
        {
          "internalType": "uint256",
          "name": "",
          "type": "uint256"
        }
      ],
      "stateMutability": "view",
      "type": "function"
    },
    {
      "inputs": [],
      "name": "getSecurityStatus",
      "outputs": [
        {
          "internalType": "uint256",
          "name": "securityScore",
          "type": "uint256"
        },
        {
          "internalType": "enum SentinelQuantumGuard.SecurityLevel",
          "name": "level",
          "type": "uint8"
        },
        {
          "internalType": "uint256",
          "name": "validatedTx",
          "type": "uint256"
        },
        {
          "internalType": "uint256",
          "name": "falsePositives",
          "type": "uint256"
        }
      ],
      "stateMutability": "view",
      "type": "function"
    },
    {
      "inputs": [],
      "name": "owner",
      "outputs": [
        {
          "internalType": "address",
          "name": "",
          "type": "address"
        }
      ],
      "stateMutability": "view",
      "type": "function"
    },
    {
      "inputs": [],
      "name": "paused",
      "outputs": [
        {
          "internalType": "bool",
          "name": "",
          "type": "bool"
        }
      ],
      "stateMutability": "view",
      "type": "function"
    },
    {
      "inputs": [
        {
          "internalType": "bytes32",
          "name": "",
          "type": "bytes32"
        }
      ],
      "name": "quantumProofs",
      "outputs": [
        {
          "internalType": "bytes32",
          "name": "commitment",
          "type": "bytes32"
        },
        {
          "internalType": "bytes",
          "name": "proof",
          "type": "bytes"
        },
        {
          "internalType": "uint256",
          "name": "timestamp",
          "type": "uint256"
        },
        {
          "internalType": "address",
          "name": "prover",
          "type": "address"
        },
        {
          "internalType": "bool",
          "name": "verified",
          "type": "bool"
        }
      ],
      "stateMutability": "view",
      "type": "function"
    },
    {
      "inputs": [
        {
          "internalType": "address",
          "name": "oracleAddress",
          "type": "address"
        },
        {
          "internalType": "bytes32",
          "name": "publicKey",
          "type": "bytes32"
        }
      ],
      "name": "registerSecurityOracle",
      "outputs": [],
      "stateMutability": "nonpayable",
      "type": "function"
    },
    {
      "inputs": [],
      "name": "renounceOwnership",
      "outputs": [],
      "stateMutability": "nonpayable",
      "type": "function"
    },
    {
      "inputs": [
        {
          "internalType": "address",
          "name": "",
          "type": "address"
        }
      ],
      "name": "securityOracles",
      "outputs": [
        {
          "internalType": "address",
          "name": "oracleAddress",
          "type": "address"
        },
        {
          "internalType": "bytes32",
          "name": "publicKey",
          "type": "bytes32"
        },
        {
          "internalType": "uint256",
          "name": "reputation",
          "type": "uint256"
        },
        {
          "internalType": "bool",
          "name": "active",
          "type": "bool"
        },
        {
          "internalType": "uint256",
          "name": "lastUpdate",
          "type": "uint256"
        }
      ],
      "stateMutability": "view",
      "type": "function"
    },
    {
      "inputs": [
        {
          "internalType": "bytes32",
          "name": "proofId",
          "type": "bytes32"
        },
        {
          "internalType": "bytes32",
          "name": "commitment",
          "type": "bytes32"
        },
        {
          "internalType": "bytes",
          "name": "proof",
          "type": "bytes"
        },
        {
          "internalType": "bytes",
          "name": "signature",
          "type": "bytes"
        }
      ],
      "name": "submitQuantumProof",
      "outputs": [],
      "stateMutability": "nonpayable",
      "type": "function"
    },
    {
      "inputs": [],
      "name": "systemSecurityScore",
      "outputs": [
        {
          "internalType": "uint256",
          "name": "",
          "type": "uint256"
        }
      ],
      "stateMutability": "view",
      "type": "function"
    },
    {
      "inputs": [],
      "name": "totalValidatedTransactions",
      "outputs": [
        {
          "internalType": "uint256",
          "name": "",
          "type": "uint256"
        }
      ],
      "stateMutability": "view",
      "type": "function"
    },
    {
      "inputs": [
        {
          "internalType": "address",
          "name": "newOwner",
          "type": "address"
        }
      ],
      "name": "transferOwnership",
      "outputs": [],
      "stateMutability": "nonpayable",
      "type": "function"
    },
    {
      "inputs": [
        {
          "internalType": "bytes32",
          "name": "txHash",
          "type": "bytes32"
        },
        {
          "internalType": "bytes32[]",
          "name": "securityProofs",
          "type": "bytes32[]"
        }
      ],
      "name": "validateTransaction",
      "outputs": [
        {
          "internalType": "bool",
          "name": "",
          "type": "bool"
        }
      ],
      "stateMutability": "nonpayable",
      "type": "function"
    },
    {
      "inputs": [
        {
          "internalType": "bytes32",
          "name": "",
          "type": "bytes32"
        }
      ],
      "name": "validatedTransactions",
      "outputs": [
        {
          "internalType": "bool",
          "name": "",
          "type": "bool"
        }
      ],
      "stateMutability": "view",
      "type": "function"
    }
  ],
  "bytecode": "0x608060405234801561000f575f5ffd5b5060405161192338038061192383398101604081905261002e9161013b565b806001600160a01b03811661005d57604051631e4fbdf760e01b81525f60048201526024015b60405180910390fd5b610066816100ec565b5060017f9b779b17422d0df92223018b32b4d1fa46e071723d6817e2486d003becc55f00556001600160a01b0381166100d15760405162461bcd60e51b815260206004820152600d60248201526c24b73b30b634b21037bbb732b960991b6044820152606401610054565b6100e66007805460ff19169055610320600455565b50610168565b5f80546001600160a01b038381166001600160a01b0319831681178455604051919092169283917f8be0079c531659141344cd1fd0a4f28419497f9722a3daafe3b4186f6b6457e09190a35050565b5f6020828403121561014b575f5ffd5b81516001600160a01b0381168114610161575f5ffd5b9392505050565b6117ae806101755f395ff3fe608060405234801561000f575f5ffd5b5060043610610127575f3560e01c8063ab35fd91116100a9578063d35a05f41161006e578063d35a05f4146102d1578063e08d7b65146102d9578063ea72408b146102e2578063f2fde38b146102f5578063fa0c18b514610308575f5ffd5b8063ab35fd911461025f578063b30b827e14610268578063ca8c83c214610271578063cb63d87514610293578063cf255f20146102b7575f5ffd5b806365f09667116100ef57806365f096671461018b578063715018a61461020b57806373efc9f21461021357806376871636146102325780638da5cb5b14610245575f5ffd5b806303f3157f1461012b5780631064452f1461014057806348ca41d01461015c5780635bc9ab56146101655780635c975abb1461016e575b5f5ffd5b61013e6101393660046112bf565b61031b565b005b61014961010081565b6040519081526020015b60405180910390f35b61014960055481565b610149610e1081565b5f54600160a01b900460ff165b6040519015158152602001610153565b6101d761019936600461132e565b600260208190525f9182526040909120805460018201549282015460038301546004909301546001600160a01b039092169392909160ff9091169085565b604080516001600160a01b03909616865260208601949094529284019190915215156060830152608082015260a001610153565b61013e610418565b600454600754600554600654604051610153949360ff16929190611382565b61013e6102403660046113a8565b61042b565b5f546040516001600160a01b039091168152602001610153565b61014960065481565b61014960045481565b61017b61027f36600461142a565b60036020525f908152604090205460ff1681565b6102a66102a136600461142a565b610734565b604051610153959493929190611441565b6007546102c49060ff1681565b604051610153919061149d565b610149606481565b6101496103e881565b61013e6102f03660046114ab565b6107f6565b61013e61030336600461132e565b61091c565b61017b6103163660046114d3565b610959565b610323610c3d565b60075460ff16600381111561033a5761033a61134e565b83600381111561034c5761034c61134e565b116103935760405162461bcd60e51b815260206004820152601260248201527143616e6e6f742064652d657363616c61746560701b60448201526064015b60405180910390fd5b6007805484919060ff191660018360038111156103b2576103b261134e565b021790555060028360038111156103cb576103cb61134e565b036103d8576103d8610c69565b7f20ae0d7f0dace47add91a7c58d3d3492372f7e95feeef5028da203ef22965dc283838360405161040b9392919061154d565b60405180910390a1505050565b610420610c3d565b6104295f610cc8565b565b610433610d17565b856104735760405162461bcd60e51b815260206004820152601060248201526f125b9d985b1a59081c1c9bdbd988125160821b604482015260640161038a565b60208310156104b65760405162461bcd60e51b815260206004820152600f60248201526e141c9bdbd9881d1bdbc81cdb585b1b608a1b604482015260640161038a565b600360075460ff1660038111156104cf576104cf61134e565b036105115760405162461bcd60e51b815260206004820152601260248201527129bcb9ba32b6903637b1b5b2b2103237bbb760711b604482015260640161038a565b5f6105518784848080601f0160208091040260200160405190810160405280939291908181526020018383808284375f92019190915250610d4192505050565b6001600160a01b0381165f9081526002602052604090206003015490915060ff166105b25760405162461bcd60e51b81526020600482015260116024820152704f7261636c65206e6f742061637469766560781b604482015260640161038a565b6001600160a01b0381165f9081526002602081905260409091200154606411156106165760405162461bcd60e51b81526020600482015260156024820152744c6f772072657075746174696f6e206f7261636c6560581b604482015260640161038a565b6040518060a0016040528087815260200186868080601f0160208091040260200160405190810160405280939291908181526020018383808284375f9201829052509385525050426020808501919091526001600160a01b038616604080860191909152600160609095018590528c8452848252909220845181559184015191928301916106a5915082611621565b50604082015160028201556060820151600390910180546080909301511515600160a01b026001600160a81b03199093166001600160a01b03909216919091179190911790556106f6816001610dfb565b6040516001600160a01b0382169088907f1d5b17301e633c4d30c6424f43c5ec202207e158dd710efd92e8c47c5f377ea9905f90a350505050505050565b600160208190525f9182526040909120805491810180546107549061159d565b80601f01602080910402602001604051908101604052809291908181526020018280546107809061159d565b80156107cb5780601f106107a2576101008083540402835291602001916107cb565b820191905f5260205f20905b8154815290600101906020018083116107ae57829003601f168201915b5050505060028301546003909301549192916001600160a01b0381169150600160a01b900460ff1685565b6107fe610c3d565b6001600160a01b03821661084d5760405162461bcd60e51b8152602060048201526016602482015275496e76616c6964206f7261636c65206164647265737360501b604482015260640161038a565b8061088f5760405162461bcd60e51b8152602060048201526012602482015271496e76616c6964207075626c6963206b657960701b604482015260640161038a565b6040805160a0810182526001600160a01b039384168082526020808301948552606483850190815260016060850181815242608087019081525f95865260029485905296909420945185546001600160a01b0319169816979097178455945195830195909555925193810193909355905160038301805460ff191691151591909117905551600490910155565b610924610c3d565b6001600160a01b03811661094d57604051631e4fbdf760e01b81525f600482015260240161038a565b61095681610cc8565b50565b5f60038210156109a15760405162461bcd60e51b8152602060048201526013602482015272496e73756666696369656e742070726f6f667360681b604482015260640161038a565b5f8481526003602052604090205460ff16156109f35760405162461bcd60e51b8152602060048201526011602482015270105b1c9958591e481d985b1a59185d1959607a1b604482015260640161038a565b5f80805b84811015610b3a575f60015f888885818110610a1557610a156116dc565b9050602002013581526020019081526020015f206040518060a00160405290815f8201548152602001600182018054610a4d9061159d565b80601f0160208091040260200160405190810160405280929190818152602001828054610a799061159d565b8015610ac45780601f10610a9b57610100808354040283529160200191610ac4565b820191905f5260205f20905b815481529060010190602001808311610aa757829003601f168201915b5050509183525050600282015460208201526003909101546001600160a01b0381166040830152600160a01b900460ff1615156060909101529050610b098189610ec2565b15610b315782610b1881611704565b935050610b2481610f3e565b610b2e908561171c565b93505b506001016109f7565b50610b4660028561172f565b610b5190600161171c565b811015610ba05760405162461bcd60e51b815260206004820152601960248201527f496e73756666696369656e742076616c69642070726f6f667300000000000000604482015260640161038a565b610baa818361172f565b91506103e88211610bbb5781610bbf565b6103e85b9150610bca82610fe4565b5f868152600360205260408120805460ff191660011790556005805491610bf083611704565b9190505550857f249f0d0dfcf78699bf1348633323bd7ca187fa7c50400cecf9e692c6e28e1ac083604051610c2791815260200190565b60405180910390a2506102ee1115949350505050565b5f546001600160a01b031633146104295760405163118cdaa760e01b815233600482015260240161038a565b610c71610d17565b5f805460ff60a01b1916600160a01b1790557f62e78cea01bee320cd4e420270b5ea74000d11b0c9f74754ebdbfc544b05a258610cab3390565b6040516001600160a01b03909116815260200160405180910390a1565b5f80546001600160a01b038381166001600160a01b0319831681178455604051919092169283917f8be0079c531659141344cd1fd0a4f28419497f9722a3daafe3b4186f6b6457e09190a35050565b5f54600160a01b900460ff16156104295760405163d93c066560e01b815260040160405180910390fd5b6040517f19457468657265756d205369676e6564204d6573736167653a0a3332000000006020820152603c81018390525f908190605c0160408051601f1981840301815291905280516020909101209050610d9c8184611085565b91506001600160a01b038216610df45760405162461bcd60e51b815260206004820152601860248201527f45434453413a20696e76616c6964207369676e61747572650000000000000000604482015260640161038a565b5092915050565b6001600160a01b0382165f9081526002602052604090208115610e49576103de81600201541015610e3b576002810154610e3690600a61171c565b610e3f565b6103e85b6002820155610e74565b600a81600201541115610e6c57600a8160020154610e67919061174e565b610e6e565b5f5b60028201555b42600482015560028101546040519081526001600160a01b038416907f2870d1c2b726c798ed4f513414afcfcf896629c39ba7226cd8b17df08c6f35899060200160405180910390a2505050565b5f610e10836040015142610ed6919061174e565b1115610ee357505f610f38565b60408360200151511015610ef857505f610f38565b82608001511580610f28575060608301516001600160a01b03165f9081526002602052604090206003015460ff16155b15610f3457505f610f38565b5060015b92915050565b60608101516001600160a01b03165f90815260026020819052604082208101546101f4918391610f6d91611761565b90505f846040015142610f80919061174e565b90505f6107088210610f93576032610f96565b60645b60ff1690505f60808760200151511015610fb1576019610fb4565b60325b60ff1690508082610fc5868861171c565b610fcf919061171c565b610fd9919061171c565b979650505050505050565b600a816004546009610ff69190611761565b611000919061171c565b61100a919061172f565b600481905561025811801561103557505f60075460ff1660038111156110325761103261134e565b14155b1561104757506007805460ff19169055565b6102ee6004541080156110705750600160075460ff16600381111561106e5761106e61134e565b105b1561095657506007805460ff19166001179055565b5f5f5f5f61109386866110ad565b9250925092506110a382826110f6565b5090949350505050565b5f5f5f83516041036110e4576020840151604085015160608601515f1a6110d6888285856111b2565b9550955095505050506110ef565b505081515f91506002905b9250925092565b5f8260038111156111095761110961134e565b03611112575050565b60018260038111156111265761112661134e565b036111445760405163f645eedf60e01b815260040160405180910390fd5b60028260038111156111585761115861134e565b036111795760405163fce698f760e01b81526004810182905260240161038a565b600382600381111561118d5761118d61134e565b036111ae576040516335e2f38360e21b81526004810182905260240161038a565b5050565b5f80807f7fffffffffffffffffffffffffffffff5d576e7357a4501ddfe92f46681b20a08411156111eb57505f91506003905082611270565b604080515f808252602082018084528a905260ff891692820192909252606081018790526080810186905260019060a0016020604051602081039080840390855afa15801561123c573d5f5f3e3d5ffd5b5050604051601f1901519150506001600160a01b03811661126757505f925060019150829050611270565b92505f91508190505b9450945094915050565b5f5f83601f84011261128a575f5ffd5b50813567ffffffffffffffff8111156112a1575f5ffd5b6020830191508360208285010111156112b8575f5ffd5b9250929050565b5f5f5f604084860312156112d1575f5ffd5b8335600481106112df575f5ffd5b9250602084013567ffffffffffffffff8111156112fa575f5ffd5b6113068682870161127a565b9497909650939450505050565b80356001600160a01b0381168114611329575f5ffd5b919050565b5f6020828403121561133e575f5ffd5b61134782611313565b9392505050565b634e487b7160e01b5f52602160045260245ffd5b6004811061137e57634e487b7160e01b5f52602160045260245ffd5b9052565b848152608081016113966020830186611362565b60408201939093526060015292915050565b5f5f5f5f5f5f608087890312156113bd575f5ffd5b8635955060208701359450604087013567ffffffffffffffff8111156113e1575f5ffd5b6113ed89828a0161127a565b909550935050606087013567ffffffffffffffff81111561140c575f5ffd5b61141889828a0161127a565b979a9699509497509295939492505050565b5f6020828403121561143a575f5ffd5b5035919050565b85815260a060208201525f85518060a0840152806020880160c085015e5f60c082850181019190915260408401969096526001600160a01b03949094166060830152509015156080820152601f909101601f1916010192915050565b60208101610f388284611362565b5f5f604083850312156114bc575f5ffd5b6114c583611313565b946020939093013593505050565b5f5f5f604084860312156114e5575f5ffd5b83359250602084013567ffffffffffffffff811115611502575f5ffd5b8401601f81018613611512575f5ffd5b803567ffffffffffffffff811115611528575f5ffd5b8660208260051b840101111561153c575f5ffd5b939660209190910195509293505050565b6115578185611362565b60406020820152816040820152818360608301375f818301606090810191909152601f909201601f1916010192915050565b634e487b7160e01b5f52604160045260245ffd5b600181811c908216806115b157607f821691505b6020821081036115cf57634e487b7160e01b5f52602260045260245ffd5b50919050565b601f82111561161c57805f5260205f20601f840160051c810160208510156115fa5750805b601f840160051c820191505b81811015611619575f8155600101611606565b50505b505050565b815167ffffffffffffffff81111561163b5761163b611589565b61164f81611649845461159d565b846115d5565b6020601f821160018114611681575f831561166a5750848201515b5f19600385901b1c1916600184901b178455611619565b5f84815260208120601f198516915b828110156116b05787850151825560209485019460019092019101611690565b50848210156116cd57868401515f19600387901b60f8161c191681555b50505050600190811b01905550565b634e487b7160e01b5f52603260045260245ffd5b634e487b7160e01b5f52601160045260245ffd5b5f60018201611715576117156116f0565b5060010190565b80820180821115610f3857610f386116f0565b5f8261174957634e487b7160e01b5f52601260045260245ffd5b500490565b81810381811115610f3857610f386116f0565b8082028115828204841417610f3857610f386116f056fea2646970667358221220f46729a5e8ca331696acdac2ac704ddd74d31afb7a4ca7083d713bcfbeb84e3264736f6c634300081c0033",
  "linkReferences": {},
  "deployedLinkReferences": {},
  "immutableReferences": {},
  "inputSourceName": "project/contracts/SentinelQuantumGuard.sol",
  "buildInfoId": "solc-0_8_28-1b5c21a21cac4f08cf2c8993926ccb888320140e"
}