{
  "_format": "hh3-artifact-1",
  "contractName": "SentinelChainlinkKeeper",
  "sourceName": "contracts/SentinelChainlinkKeeper.sol",
  "abi": [
    {
      "inputs": [
        {
          "internalType": "address",
          "name": "_sentinelCore",
          "type": "address"
        }
      ],
      "stateMutability": "nonpayable",
      "type": "constructor"
    },
    {
      "anonymous": false,
      "inputs": [
        {
          "indexed": false,
          "internalType": "uint256",
          "name": "newInterval",
          "type": "uint256"
        }
      ],
      "name": "IntervalUpdated",
      "type": "event"
    },
    {
      "anonymous": false,
      "inputs": [
        {
          "indexed": false,
          "internalType": "uint256",
          "name": "timestamp",
          "type": "uint256"
        },
        {
          "indexed": false,
          "internalType": "uint256",
          "name": "gasUsed",
          "type": "uint256"
        }
      ],
      "name": "UpkeepPerformed",
      "type": "event"
    },
    {
      "inputs": [],
      "name": "MAX_PERFORM_GAS",
      "outputs": [
        {
          "internalType": "uint256",
          "name": "",
          "type": "uint256"
        }
      ],
      "stateMutability": "view",
      "type": "function"
    },
    {
      "inputs": [
        {
          "internalType": "bytes",
          "name": "checkData",
          "type": "bytes"
        }
      ],
      "name": "checkUpkeep",
      "outputs": [
        {
          "internalType": "bool",
          "name": "upkeepNeeded",
          "type": "bool"
        },
        {
          "internalType": "bytes",
          "name": "performData",
          "type": "bytes"
        }
      ],
      "stateMutability": "nonpayable",
      "type": "function"
    },
    {
      "inputs": [],
      "name": "lastUpkeepTime",
      "outputs": [
        {
          "internalType": "uint256",
          "name": "",
          "type": "uint256"
        }
      ],
      "stateMutability": "view",
      "type": "function"
    },
    {
      "inputs": [
        {
          "internalType": "bytes",
          "name": "performData",
          "type": "bytes"
        }
      ],
      "name": "performUpkeep",
      "outputs": [],
      "stateMutability": "nonpayable",
      "type": "function"
    },
    {
      "inputs": [],
      "name": "sentinelCore",
      "outputs": [
        {
          "internalType": "contract SentinelCore",
          "name": "",
          "type": "address"
        }
      ],
      "stateMutability": "view",
      "type": "function"
    },
    {
      "inputs": [
        {
          "internalType": "uint256",
          "name": "_interval",
          "type": "uint256"
        }
      ],
      "name": "updateInterval",
      "outputs": [],
      "stateMutability": "nonpayable",
      "type": "function"
    },
    {
      "inputs": [],
      "name": "upkeepInterval",
      "outputs": [
        {
          "internalType": "uint256",
          "name": "",
          "type": "uint256"
        }
      ],
      "stateMutability": "view",
      "type": "function"
    }
  ],
  "bytecode": "0x6080604052610e106002553480156014575f5ffd5b506040516104043803806104048339810160408190526031916058565b5f80546001600160a01b0319166001600160a01b0392909216919091179055426001556083565b5f602082840312156067575f5ffd5b81516001600160a01b0381168114607c575f5ffd5b9392505050565b610374806100905f395ff3fe608060405234801561000f575f5ffd5b506004361061007a575f3560e01c8063d0f0792611610058578063d0f07926146100d0578063d3386809146100e3578063db8f7500146100ec578063fcfb43b1146100f6575f5ffd5b80634585e33b1461007e5780635a74373c146100935780636e04ff0d146100af575b5f5ffd5b61009161008c366004610256565b610120565b005b61009c60025481565b6040519081526020015b60405180910390f35b6100c26100bd366004610256565b6101cd565b6040516100a69291906102c4565b6100916100de366004610302565b61021b565b61009c60015481565b61009c6207a12081565b5f54610108906001600160a01b031681565b6040516001600160a01b0390911681526020016100a6565b5f5a4260015590505f5a6101349083610319565b60408051428152602081018390529192507f9fbc2aeb5bf6200e5499d345acddf1dd462c37becb4673d661250b89ced7ff6a910160405180910390a16207a1208111156101c75760405162461bcd60e51b815260206004820152601960248201527f55706b65657020676173206c696d697420657863656564656400000000000000604482015260640160405180910390fd5b50505050565b5f60605f600254600154426101e29190610319565b108015915060019082906101f35750805b6040805142602082015291955001604051602081830303815290604052925050509250929050565b60028190556040518181527fc6f44473d25b86976ee7357c1339328224e349abc5486edc3007ef658a57608a9060200160405180910390a150565b5f5f60208385031215610267575f5ffd5b823567ffffffffffffffff81111561027d575f5ffd5b8301601f8101851361028d575f5ffd5b803567ffffffffffffffff8111156102a3575f5ffd5b8560208284010111156102b4575f5ffd5b6020919091019590945092505050565b8215158152604060208201525f82518060408401528060208501606085015e5f606082850101526060601f19601f8301168401019150509392505050565b5f60208284031215610312575f5ffd5b5035919050565b8181038181111561033857634e487b7160e01b5f52601160045260245ffd5b9291505056fea26469706673582212206a32997a8f50e5bcc12ef22a81f45e36c4d0d25d7e1593e79d93bfbcced4746264736f6c634300081c0033",
  "linkReferences": {},
  "deployedLinkReferences": {},
  "immutableReferences": {},
  "inputSourceName": "project/contracts/SentinelChainlinkKeeper.sol",
  "buildInfoId": "solc-0_8_28-db7a21a986ef4e497650c452b2f52cba900e7390"
}