{
  "_format": "hh3-artifact-1",
  "contractName": "CircuitBreaker",
  "sourceName": "contracts/CircuitBreaker.sol",
  "abi": [
    {
      "inputs": [
        {
          "internalType": "address",
          "name": "initialOwner",
          "type": "address"
        }
      ],
      "stateMutability": "nonpayable",
      "type": "constructor"
    },
    {
      "inputs": [],
      "name": "AccessControlBadConfirmation",
      "type": "error"
    },
    {
      "inputs": [
        {
          "internalType": "address",
          "name": "account",
          "type": "address"
        },
        {
          "internalType": "bytes32",
          "name": "neededRole",
          "type": "bytes32"
        }
      ],
      "name": "AccessControlUnauthorizedAccount",
      "type": "error"
    },
    {
      "inputs": [],
      "name": "EnforcedPause",
      "type": "error"
    },
    {
      "inputs": [],
      "name": "ExpectedPause",
      "type": "error"
    },
    {
      "inputs": [
        {
          "internalType": "address",
          "name": "owner",
          "type": "address"
        }
      ],
      "name": "OwnableInvalidOwner",
      "type": "error"
    },
    {
      "inputs": [
        {
          "internalType": "address",
          "name": "account",
          "type": "address"
        }
      ],
      "name": "OwnableUnauthorizedAccount",
      "type": "error"
    },
    {
      "anonymous": false,
      "inputs": [
        {
          "indexed": false,
          "internalType": "uint256",
          "name": "chainId",
          "type": "uint256"
        }
      ],
      "name": "CircuitClosed",
      "type": "event"
    },
    {
      "anonymous": false,
      "inputs": [
        {
          "indexed": false,
          "internalType": "uint256",
          "name": "chainId",
          "type": "uint256"
        }
      ],
      "name": "CircuitHalfOpened",
      "type": "event"
    },
    {
      "anonymous": false,
      "inputs": [
        {
          "indexed": false,
          "internalType": "uint256",
          "name": "chainId",
          "type": "uint256"
        },
        {
          "indexed": false,
          "internalType": "uint256",
          "name": "failureCount",
          "type": "uint256"
        }
      ],
      "name": "CircuitOpened",
      "type": "event"
    },
    {
      "anonymous": false,
      "inputs": [
        {
          "indexed": true,
          "internalType": "address",
          "name": "pauser",
          "type": "address"
        }
      ],
      "name": "EmergencyPaused",
      "type": "event"
    },
    {
      "anonymous": false,
      "inputs": [
        {
          "indexed": true,
          "internalType": "address",
          "name": "unpauser",
          "type": "address"
        }
      ],
      "name": "EmergencyUnpaused",
      "type": "event"
    },
    {
      "anonymous": false,
      "inputs": [
        {
          "indexed": true,
          "internalType": "address",
          "name": "reporter",
          "type": "address"
        },
        {
          "indexed": false,
          "internalType": "uint256",
          "name": "chainId",
          "type": "uint256"
        }
      ],
      "name": "FailureRecorded",
      "type": "event"
    },
    {
      "anonymous": false,
      "inputs": [
        {
          "indexed": true,
          "internalType": "address",
          "name": "previousOwner",
          "type": "address"
        },
        {
          "indexed": true,
          "internalType": "address",
          "name": "newOwner",
          "type": "address"
        }
      ],
      "name": "OwnershipTransferred",
      "type": "event"
    },
    {
      "anonymous": false,
      "inputs": [
        {
          "indexed": false,
          "internalType": "address",
          "name": "account",
          "type": "address"
        }
      ],
      "name": "Paused",
      "type": "event"
    },
    {
      "anonymous": false,
      "inputs": [
        {
          "indexed": true,
          "internalType": "bytes32",
          "name": "role",
          "type": "bytes32"
        },
        {
          "indexed": true,
          "internalType": "bytes32",
          "name": "previousAdminRole",
          "type": "bytes32"
        },
        {
          "indexed": true,
          "internalType": "bytes32",
          "name": "newAdminRole",
          "type": "bytes32"
        }
      ],
      "name": "RoleAdminChanged",
      "type": "event"
    },
    {
      "anonymous": false,
      "inputs": [
        {
          "indexed": true,
          "internalType": "bytes32",
          "name": "role",
          "type": "bytes32"
        },
        {
          "indexed": true,
          "internalType": "address",
          "name": "account",
          "type": "address"
        },
        {
          "indexed": true,
          "internalType": "address",
          "name": "sender",
          "type": "address"
        }
      ],
      "name": "RoleGranted",
      "type": "event"
    },
    {
      "anonymous": false,
      "inputs": [
        {
          "indexed": true,
          "internalType": "bytes32",
          "name": "role",
          "type": "bytes32"
        },
        {
          "indexed": true,
          "internalType": "address",
          "name": "account",
          "type": "address"
        },
        {
          "indexed": true,
          "internalType": "address",
          "name": "sender",
          "type": "address"
        }
      ],
      "name": "RoleRevoked",
      "type": "event"
    },
    {
      "anonymous": false,
      "inputs": [
        {
          "indexed": true,
          "internalType": "address",
          "name": "reporter",
          "type": "address"
        },
        {
          "indexed": false,
          "internalType": "uint256",
          "name": "chainId",
          "type": "uint256"
        }
      ],
      "name": "SuccessRecorded",
      "type": "event"
    },
    {
      "anonymous": false,
      "inputs": [
        {
          "indexed": false,
          "internalType": "address",
          "name": "account",
          "type": "address"
        }
      ],
      "name": "Unpaused",
      "type": "event"
    },
    {
      "inputs": [],
      "name": "DEFAULT_ADMIN_ROLE",
      "outputs": [
        {
          "internalType": "bytes32",
          "name": "",
          "type": "bytes32"
        }
      ],
      "stateMutability": "view",
      "type": "function"
    },
    {
      "inputs": [],
      "name": "FAILURE_THRESHOLD",
      "outputs": [
        {
          "internalType": "uint256",
          "name": "",
          "type": "uint256"
        }
      ],
      "stateMutability": "view",
      "type": "function"
    },
    {
      "inputs": [],
      "name": "FAILURE_WINDOW",
      "outputs": [
        {
          "internalType": "uint256",
          "name": "",
          "type": "uint256"
        }
      ],
      "stateMutability": "view",
      "type": "function"
    },
    {
      "inputs": [],
      "name": "MAX_FAILURE_HISTORY",
      "outputs": [
        {
          "internalType": "uint256",
          "name": "",
          "type": "uint256"
        }
      ],
      "stateMutability": "view",
      "type": "function"
    },
    {
      "inputs": [],
      "name": "MONITOR_ROLE",
      "outputs": [
        {
          "internalType": "bytes32",
          "name": "",
          "type": "bytes32"
        }
      ],
      "stateMutability": "view",
      "type": "function"
    },
    {
      "inputs": [],
      "name": "OPERATOR_ROLE",
      "outputs": [
        {
          "internalType": "bytes32",
          "name": "",
          "type": "bytes32"
        }
      ],
      "stateMutability": "view",
      "type": "function"
    },
    {
      "inputs": [],
      "name": "RECOVERY_ATTEMPTS",
      "outputs": [
        {
          "internalType": "uint256",
          "name": "",
          "type": "uint256"
        }
      ],
      "stateMutability": "view",
      "type": "function"
    },
    {
      "inputs": [],
      "name": "TIMEOUT_PERIOD",
      "outputs": [
        {
          "internalType": "uint256",
          "name": "",
          "type": "uint256"
        }
      ],
      "stateMutability": "view",
      "type": "function"
    },
    {
      "inputs": [
        {
          "internalType": "uint256",
          "name": "",
          "type": "uint256"
        }
      ],
      "name": "circuitStates",
      "outputs": [
        {
          "internalType": "enum CircuitBreaker.State",
          "name": "",
          "type": "uint8"
        }
      ],
      "stateMutability": "view",
      "type": "function"
    },
    {
      "inputs": [
        {
          "internalType": "uint256",
          "name": "chainId",
          "type": "uint256"
        }
      ],
      "name": "closeCircuit",
      "outputs": [],
      "stateMutability": "nonpayable",
      "type": "function"
    },
    {
      "inputs": [],
      "name": "emergencyPause",
      "outputs": [],
      "stateMutability": "nonpayable",
      "type": "function"
    },
    {
      "inputs": [],
      "name": "emergencyUnpause",
      "outputs": [],
      "stateMutability": "nonpayable",
      "type": "function"
    },
    {
      "inputs": [
        {
          "internalType": "uint256",
          "name": "",
          "type": "uint256"
        }
      ],
      "name": "failureCounts",
      "outputs": [
        {
          "internalType": "uint256",
          "name": "",
          "type": "uint256"
        }
      ],
      "stateMutability": "view",
      "type": "function"
    },
    {
      "inputs": [
        {
          "internalType": "uint256",
          "name": "",
          "type": "uint256"
        },
        {
          "internalType": "uint256",
          "name": "",
          "type": "uint256"
        }
      ],
      "name": "failureHistory",
      "outputs": [
        {
          "internalType": "uint256",
          "name": "",
          "type": "uint256"
        }
      ],
      "stateMutability": "view",
      "type": "function"
    },
    {
      "inputs": [
        {
          "internalType": "uint256",
          "name": "chainId",
          "type": "uint256"
        }
      ],
      "name": "getCircuitStats",
      "outputs": [
        {
          "internalType": "enum CircuitBreaker.State",
          "name": "state",
          "type": "uint8"
        },
        {
          "internalType": "uint256",
          "name": "failures",
          "type": "uint256"
        },
        {
          "internalType": "uint256",
          "name": "lastFailure",
          "type": "uint256"
        },
        {
          "internalType": "uint256",
          "name": "successCount",
          "type": "uint256"
        },
        {
          "internalType": "bool",
          "name": "isShutdown",
          "type": "bool"
        }
      ],
      "stateMutability": "view",
      "type": "function"
    },
    {
      "inputs": [
        {
          "internalType": "uint256",
          "name": "chainId",
          "type": "uint256"
        }
      ],
      "name": "getFailureHistory",
      "outputs": [
        {
          "internalType": "uint256[]",
          "name": "",
          "type": "uint256[]"
        }
      ],
      "stateMutability": "view",
      "type": "function"
    },
    {
      "inputs": [
        {
          "internalType": "bytes32",
          "name": "role",
          "type": "bytes32"
        }
      ],
      "name": "getRoleAdmin",
      "outputs": [
        {
          "internalType": "bytes32",
          "name": "",
          "type": "bytes32"
        }
      ],
      "stateMutability": "view",
      "type": "function"
    },
    {
      "inputs": [
        {
          "internalType": "bytes32",
          "name": "role",
          "type": "bytes32"
        },
        {
          "internalType": "address",
          "name": "account",
          "type": "address"
        }
      ],
      "name": "grantRole",
      "outputs": [],
      "stateMutability": "nonpayable",
      "type": "function"
    },
    {
      "inputs": [
        {
          "internalType": "uint256",
          "name": "",
          "type": "uint256"
        }
      ],
      "name": "halfOpenSuccessCount",
      "outputs": [
        {
          "internalType": "uint256",
          "name": "",
          "type": "uint256"
        }
      ],
      "stateMutability": "view",
      "type": "function"
    },
    {
      "inputs": [
        {
          "internalType": "bytes32",
          "name": "role",
          "type": "bytes32"
        },
        {
          "internalType": "address",
          "name": "account",
          "type": "address"
        }
      ],
      "name": "hasRole",
      "outputs": [
        {
          "internalType": "bool",
          "name": "",
          "type": "bool"
        }
      ],
      "stateMutability": "view",
      "type": "function"
    },
    {
      "inputs": [
        {
          "internalType": "uint256",
          "name": "chainId",
          "type": "uint256"
        }
      ],
      "name": "isCircuitClosed",
      "outputs": [
        {
          "internalType": "bool",
          "name": "",
          "type": "bool"
        }
      ],
      "stateMutability": "nonpayable",
      "type": "function"
    },
    {
      "inputs": [
        {
          "internalType": "uint256",
          "name": "",
          "type": "uint256"
        }
      ],
      "name": "lastFailureTime",
      "outputs": [
        {
          "internalType": "uint256",
          "name": "",
          "type": "uint256"
        }
      ],
      "stateMutability": "view",
      "type": "function"
    },
    {
      "inputs": [
        {
          "internalType": "uint256",
          "name": "",
          "type": "uint256"
        }
      ],
      "name": "lastSuccessTime",
      "outputs": [
        {
          "internalType": "uint256",
          "name": "",
          "type": "uint256"
        }
      ],
      "stateMutability": "view",
      "type": "function"
    },
    {
      "inputs": [
        {
          "internalType": "uint256",
          "name": "chainId",
          "type": "uint256"
        }
      ],
      "name": "openCircuit",
      "outputs": [],
      "stateMutability": "nonpayable",
      "type": "function"
    },
    {
      "inputs": [],
      "name": "owner",
      "outputs": [
        {
          "internalType": "address",
          "name": "",
          "type": "address"
        }
      ],
      "stateMutability": "view",
      "type": "function"
    },
    {
      "inputs": [],
      "name": "paused",
      "outputs": [
        {
          "internalType": "bool",
          "name": "",
          "type": "bool"
        }
      ],
      "stateMutability": "view",
      "type": "function"
    },
    {
      "inputs": [
        {
          "internalType": "uint256",
          "name": "",
          "type": "uint256"
        }
      ],
      "name": "permanentShutdown",
      "outputs": [
        {
          "internalType": "bool",
          "name": "",
          "type": "bool"
        }
      ],
      "stateMutability": "view",
      "type": "function"
    },
    {
      "inputs": [
        {
          "internalType": "uint256",
          "name": "chainId",
          "type": "uint256"
        },
        {
          "internalType": "uint256",
          "name": "failureSeverity",
          "type": "uint256"
        }
      ],
      "name": "recordFailure",
      "outputs": [],
      "stateMutability": "nonpayable",
      "type": "function"
    },
    {
      "inputs": [
        {
          "internalType": "uint256",
          "name": "chainId",
          "type": "uint256"
        }
      ],
      "name": "recordSuccess",
      "outputs": [],
      "stateMutability": "nonpayable",
      "type": "function"
    },
    {
      "inputs": [],
      "name": "renounceOwnership",
      "outputs": [],
      "stateMutability": "nonpayable",
      "type": "function"
    },
    {
      "inputs": [
        {
          "internalType": "bytes32",
          "name": "role",
          "type": "bytes32"
        },
        {
          "internalType": "address",
          "name": "callerConfirmation",
          "type": "address"
        }
      ],
      "name": "renounceRole",
      "outputs": [],
      "stateMutability": "nonpayable",
      "type": "function"
    },
    {
      "inputs": [
        {
          "internalType": "bytes32",
          "name": "role",
          "type": "bytes32"
        },
        {
          "internalType": "address",
          "name": "account",
          "type": "address"
        }
      ],
      "name": "revokeRole",
      "outputs": [],
      "stateMutability": "nonpayable",
      "type": "function"
    },
    {
      "inputs": [
        {
          "internalType": "bytes4",
          "name": "interfaceId",
          "type": "bytes4"
        }
      ],
      "name": "supportsInterface",
      "outputs": [
        {
          "internalType": "bool",
          "name": "",
          "type": "bool"
        }
      ],
      "stateMutability": "view",
      "type": "function"
    },
    {
      "inputs": [
        {
          "internalType": "address",
          "name": "newOwner",
          "type": "address"
        }
      ],
      "name": "transferOwnership",
      "outputs": [],
      "stateMutability": "nonpayable",
      "type": "function"
    },
    {
      "inputs": [
        {
          "internalType": "uint256",
          "name": "chainId",
          "type": "uint256"
        }
      ],
      "name": "triggerPermanentShutdown",
      "outputs": [],
      "stateMutability": "nonpayable",
      "type": "function"
    }
  ],
  "bytecode": "0x608060405234801561000f575f5ffd5b5060405161179338038061179383398101604081905261002e916101f5565b806001600160a01b03811661005d57604051631e4fbdf760e01b81525f60048201526024015b60405180910390fd5b61006681610114565b506001600160a01b0381166100ad5760405162461bcd60e51b815260206004820152600d60248201526c24b73b30b634b21037bbb732b960991b6044820152606401610054565b6100b75f82610163565b506100e27f97667070c54ef182b0f5858b034beac1b6f3089aa2d3188bb1e8929f4fa9b92982610163565b5061010d7f8227712ef8ad39d0f26f06731ef0df8665eb7ada7f41b1ee089adf3c238862a282610163565b5050610222565b5f80546001600160a01b038381166001600160a01b0319831681178455604051919092169283917f8be0079c531659141344cd1fd0a4f28419497f9722a3daafe3b4186f6b6457e09190a35050565b5f8281526001602090815260408083206001600160a01b038516845290915281205460ff166101ec575f8381526001602081815260408084206001600160a01b0387168086529252808420805460ff19169093179092559051339286917f2f8788117e7eff1d82e926ec794901d17c78024a50270940304540a733656f0d9190a45060016101ef565b505f5b92915050565b5f60208284031215610205575f5ffd5b81516001600160a01b038116811461021b575f5ffd5b9392505050565b6115648061022f5f395ff3fe608060405234801561000f575f5ffd5b5060043610610208575f3560e01c8063715018a61161011f578063b5e4a2e8116100a9578063f1484d5611610079578063f1484d56146104f6578063f2fde38b14610509578063f5b541a61461051c578063f5fce2451461045b578063fcdf42bf14610543575f5ffd5b8063b5e4a2e814610492578063c2e17421146104b1578063d547741f146104c4578063ed04d1ce146104d7575f5ffd5b806391d14854116100ef57806391d1485414610448578063945b9d0f1461045b578063a217fddf14610464578063ae3380ce1461046b578063b38e088314610473575f5ffd5b8063715018a61461040057806388f38d64146104085780638cb0afff1461041b5780638da5cb5b1461042e575f5ffd5b8063458dadde116101a05780635b77c06f116101705780635b77c06f146103905780635c975abb146103af5780635ff4920e146103ba5780636a275fee146103da5780637082afac146103ed575f5ffd5b8063458dadde146103375780634a4e3bd5146103595780634d9b47e21461036157806351858e2714610388575f5ffd5b8063248a9ca3116101db578063248a9ca3146102d85780632f2ff15d1461030957806336568abe1461031c57806342c765851461032f575f5ffd5b806301ffc9a71461020c57806315e18a79146102345780631b8babc5146102495780631ce8232c14610278575b5f5ffd5b61021f61021a3660046112fc565b61054b565b60405190151581526020015b60405180910390f35b61024761024236600461132a565b610581565b005b61026b61025736600461132a565b60036020525f908152604090205460ff1681565b60405161022b9190611375565b6102c761028636600461132a565b5f908152600360209081526040808320546004835281842054600584528285205460088552838620546009909552929094205460ff91821695929392911690565b60405161022b959493929190611383565b6102fb6102e636600461132a565b5f908152600160208190526040909120015490565b60405190815260200161022b565b6102476103173660046113d0565b610762565b61024761032a3660046113d0565b61078d565b6102fb600381565b61021f61034536600461132a565b60096020525f908152604090205460ff1681565b6102476107c5565b6102fb7f8227712ef8ad39d0f26f06731ef0df8665eb7ada7f41b1ee089adf3c238862a281565b610247610804565b6102fb61039e36600461132a565b60066020525f908152604090205481565b60025460ff1661021f565b6103cd6103c836600461132a565b610843565b60405161022b91906113fa565b6102476103e836600461143c565b6108a2565b61021f6103fb36600461132a565b610c45565b610247610d3e565b61024761041636600461132a565b610d51565b61024761042936600461132a565b610d8e565b5f546040516001600160a01b03909116815260200161022b565b61021f6104563660046113d0565b610e39565b6102fb610e1081565b6102fb5f81565b6102fb600581565b6102fb61048136600461132a565b60046020525f908152604090205481565b6102fb6104a036600461132a565b60056020525f908152604090205481565b6102476104bf36600461132a565b610e63565b6102476104d23660046113d0565b610f0b565b6102fb6104e536600461132a565b60086020525f908152604090205481565b6102fb61050436600461143c565b610f30565b61024761051736600461145c565b610f5b565b6102fb7f97667070c54ef182b0f5858b034beac1b6f3089aa2d3188bb1e8929f4fa9b92981565b6102fb606481565b5f6001600160e01b03198216637965db0b60e01b148061057b57506301ffc9a760e01b6001600160e01b03198316145b92915050565b610589610f98565b7f8227712ef8ad39d0f26f06731ef0df8665eb7ada7f41b1ee089adf3c238862a26105b381610fbc565b5f82116105db5760405162461bcd60e51b81526004016105d290611475565b60405180910390fd5b5f82815260066020526040902042905560015f8381526003602052604090205460ff16600281111561060f5761060f611341565b0361066f575f828152600360209081526040808320805460ff19166002179055600882528083209290925590518381527ffa5b841f4aa431c5f30c7ea1d9dc29e217aaaf275b7ff55eb74acc6391a88719910160405180910390a1610729565b60025f8381526003602052604090205460ff16600281111561069357610693611341565b03610729575f8281526008602052604081208054916106b1836114b3565b90915550505f82815260086020526040902054600311610729575f828152600360209081526040808320805460ff1916905560048252808320839055600882528083209290925590518381527f6a8bf15d6b5cc60f47bb5555718518cb39ca68847f6a5eaea72b40ed8a2b2df7910160405180910390a15b60405182815233907f5df81d66d8cda4c4e8cae226da7ceb1a781035d3796d439e2dbcedadd539bb7e9060200160405180910390a25050565b5f828152600160208190526040909120015461077d81610fbc565b6107878383610fc6565b50505050565b6001600160a01b03811633146107b65760405163334bd91960e11b815260040160405180910390fd5b6107c0828261103c565b505050565b5f6107cf81610fbc565b6107d76110a7565b60405133907ff5cbf596165cc457b2cd92e8d8450827ee314968160a5696402d75766fc52caf905f90a250565b5f61080e81610fbc565b6108166110f9565b60405133907fb8fad2fa0ed7a383e747c309ef2c4391d7b65592a48893e57ccc1fab70791456905f90a250565b5f8181526007602090815260409182902080548351818402810184019094528084526060939283018282801561089657602002820191905f5260205f20905b815481526020019060010190808311610882575b50505050509050919050565b6108aa610f98565b7f8227712ef8ad39d0f26f06731ef0df8665eb7ada7f41b1ee089adf3c238862a26108d481610fbc565b5f83116108f35760405162461bcd60e51b81526004016105d290611475565b600182101580156109055750600a8211155b6109445760405162461bcd60e51b815260206004820152601060248201526f496e76616c696420736576657269747960801b60448201526064016105d2565b5f8381526009602052604090205460ff16156109a25760405162461bcd60e51b815260206004820152601a60248201527f436861696e207065726d616e656e746c792073687574646f776e00000000000060448201526064016105d2565b5f8381526004602052604081208054916109bb836114b3565b90915550505f838152600560209081526040808320429081905560078352908320805460018101825581855292842090920155908490525460641015610ab5575f5b5f84815260076020526040902054610a17906001906114cb565b811015610a84575f848152600760205260409020610a368260016114de565b81548110610a4657610a466114f1565b905f5260205f20015460075f8681526020019081526020015f208281548110610a7157610a716114f1565b5f918252602090912001556001016109fd565b505f838152600760205260409020805480610aa157610aa1611505565b600190038181905f5260205f20015f905590555b5f610abf84611136565b905060088310155f5f8681526003602052604090205460ff166002811115610ae957610ae9611341565b03610b7d575f858152600460205260409020546005111580610b085750815b80610b105750805b15610b78575f858152600360209081526040808320805460ff19166001179055600882528083208390556004825291829020548251888152918201527ff3669b8c6eb1bb135e2ae6322ffe3ec6dba9ef00047f1be060e9e5d960b5f7cb910160405180910390a15b610c09565b60025f8681526003602052604090205460ff166002811115610ba157610ba1611341565b03610c09575f858152600360209081526040808320805460ff19166001179055600882528083208390556004825291829020548251888152918201527ff3669b8c6eb1bb135e2ae6322ffe3ec6dba9ef00047f1be060e9e5d960b5f7cb910160405180910390a15b60405185815233907fd94baf05af81ae32fef9778f498da4fd52fe2063df703aada90ff8f72b9bc0869060200160405180910390a25050505050565b5f5f8211610c655760405162461bcd60e51b81526004016105d290611475565b60015f8381526003602052604090205460ff166002811115610c8957610c89611341565b03610d15575f82815260056020526040902054610e1090610caa90426114cb565b1115610d0e575f828152600360209081526040808320805460ff19166002179055600882528083209290925590518381527ffa5b841f4aa431c5f30c7ea1d9dc29e217aaaf275b7ff55eb74acc6391a88719910160405180910390a1506001919050565b505f919050565b5f8281526003602052604081205460ff166002811115610d3757610d37611341565b1492915050565b610d46611221565b610d4f5f61124d565b565b5f610d5b81610fbc565b505f9081526009602090815260408083208054600160ff1991821681179092556003909352922080549091169091179055565b7f97667070c54ef182b0f5858b034beac1b6f3089aa2d3188bb1e8929f4fa9b929610db881610fbc565b5f8211610dd75760405162461bcd60e51b81526004016105d290611475565b5f828152600360209081526040808320805460ff1916905560048252808320839055600882528083209290925590518381527f6a8bf15d6b5cc60f47bb5555718518cb39ca68847f6a5eaea72b40ed8a2b2df791015b60405180910390a15050565b5f9182526001602090815260408084206001600160a01b0393909316845291905290205460ff1690565b7f97667070c54ef182b0f5858b034beac1b6f3089aa2d3188bb1e8929f4fa9b929610e8d81610fbc565b5f8211610eac5760405162461bcd60e51b81526004016105d290611475565b5f828152600360209081526040808320805460ff19166001179055600882528083208390556004825291829020548251858152918201527ff3669b8c6eb1bb135e2ae6322ffe3ec6dba9ef00047f1be060e9e5d960b5f7cb9101610e2d565b5f8281526001602081905260409091200154610f2681610fbc565b610787838361103c565b6007602052815f5260405f208181548110610f49575f80fd5b905f5260205f20015f91509150505481565b610f63611221565b6001600160a01b038116610f8c57604051631e4fbdf760e01b81525f60048201526024016105d2565b610f958161124d565b50565b60025460ff1615610d4f5760405163d93c066560e01b815260040160405180910390fd5b610f95813361129c565b5f610fd18383610e39565b611035575f8381526001602081815260408084206001600160a01b0387168086529252808420805460ff19169093179092559051339286917f2f8788117e7eff1d82e926ec794901d17c78024a50270940304540a733656f0d9190a450600161057b565b505f61057b565b5f6110478383610e39565b15611035575f8381526001602090815260408083206001600160a01b0386168085529252808320805460ff1916905551339286917ff6391f5c32d9c69d2a47ea670b442974b53935d1edc7fd64eb21e047a839171b9190a450600161057b565b6110af6112d9565b6002805460ff191690557f5db9ee0a495bf2e6ff9c91a7834c1ba4fdd244a5e8aa4e537bd38aeae4b073aa335b6040516001600160a01b03909116815260200160405180910390a1565b611101610f98565b6002805460ff191660011790557f62e78cea01bee320cd4e420270b5ea74000d11b0c9f74754ebdbfc544b05a2586110dc3390565b5f8181526007602090815260408083208054825181850281018501909352808352849383018282801561118657602002820191905f5260205f20905b815481526020019060010190808311611172575b5050505050905060038151101561119f57505f92915050565b5f806111ad610e10426114cb565b83519091505b80156112165781846111c66001846114cb565b815181106111d6576111d66114f1565b60200260200101511061120457826111ed816114b3565b935050600383106112045750600195945050505050565b8061120e81611519565b9150506111b3565b505f95945050505050565b5f546001600160a01b03163314610d4f5760405163118cdaa760e01b81523360048201526024016105d2565b5f80546001600160a01b038381166001600160a01b0319831681178455604051919092169283917f8be0079c531659141344cd1fd0a4f28419497f9722a3daafe3b4186f6b6457e09190a35050565b6112a68282610e39565b6112d55760405163e2517d3f60e01b81526001600160a01b0382166004820152602481018390526044016105d2565b5050565b60025460ff16610d4f57604051638dfc202b60e01b815260040160405180910390fd5b5f6020828403121561130c575f5ffd5b81356001600160e01b031981168114611323575f5ffd5b9392505050565b5f6020828403121561133a575f5ffd5b5035919050565b634e487b7160e01b5f52602160045260245ffd5b6003811061137157634e487b7160e01b5f52602160045260245ffd5b9052565b6020810161057b8284611355565b60a081016113918288611355565b85602083015284604083015283606083015282151560808301529695505050505050565b80356001600160a01b03811681146113cb575f5ffd5b919050565b5f5f604083850312156113e1575f5ffd5b823591506113f1602084016113b5565b90509250929050565b602080825282518282018190525f918401906040840190835b81811015611431578351835260209384019390920191600101611413565b509095945050505050565b5f5f6040838503121561144d575f5ffd5b50508035926020909101359150565b5f6020828403121561146c575f5ffd5b611323826113b5565b60208082526010908201526f125b9d985b1a590818da185a5b88125160821b604082015260600190565b634e487b7160e01b5f52601160045260245ffd5b5f600182016114c4576114c461149f565b5060010190565b8181038181111561057b5761057b61149f565b8082018082111561057b5761057b61149f565b634e487b7160e01b5f52603260045260245ffd5b634e487b7160e01b5f52603160045260245ffd5b5f816115275761152761149f565b505f19019056fea264697066735822122016c091529d4ebb27bd1217eeeb0c7705360f12170d158590677e830cb63ddcd564736f6c634300081c0033",
  "linkReferences": {},
  "deployedLinkReferences": {},
  "immutableReferences": {},
  "inputSourceName": "project/contracts/CircuitBreaker.sol",
  "buildInfoId": "solc-0_8_28-56b4d38520a07143560cd43eeb820c3102363d0a"
}