{
  "_format": "hh3-artifact-1",
  "contractName": "SentinelInsuranceProtocol",
  "sourceName": "contracts/SentinelInsuranceProtocol.sol",
  "abi": [
    {
      "inputs": [
        {
          "internalType": "address",
          "name": "_sentinelCore",
          "type": "address"
        },
        {
          "internalType": "address",
          "name": "_sentinelAuditor",
          "type": "address"
        },
        {
          "internalType": "address",
          "name": "initialOwner",
          "type": "address"
        }
      ],
      "stateMutability": "nonpayable",
      "type": "constructor"
    },
    {
      "inputs": [
        {
          "internalType": "address",
          "name": "owner",
          "type": "address"
        }
      ],
      "name": "OwnableInvalidOwner",
      "type": "error"
    },
    {
      "inputs": [
        {
          "internalType": "address",
          "name": "account",
          "type": "address"
        }
      ],
      "name": "OwnableUnauthorizedAccount",
      "type": "error"
    },
    {
      "inputs": [],
      "name": "ReentrancyGuardReentrantCall",
      "type": "error"
    },
    {
      "anonymous": false,
      "inputs": [
        {
          "indexed": true,
          "internalType": "uint256",
          "name": "claimId",
          "type": "uint256"
        },
        {
          "indexed": false,
          "internalType": "enum SentinelInsuranceProtocol.ClaimStatus",
          "name": "status",
          "type": "uint8"
        },
        {
          "indexed": false,
          "internalType": "uint256",
          "name": "payoutAmount",
          "type": "uint256"
        }
      ],
      "name": "ClaimProcessed",
      "type": "event"
    },
    {
      "anonymous": false,
      "inputs": [
        {
          "indexed": true,
          "internalType": "uint256",
          "name": "claimId",
          "type": "uint256"
        },
        {
          "indexed": true,
          "internalType": "uint256",
          "name": "policyId",
          "type": "uint256"
        },
        {
          "indexed": false,
          "internalType": "uint256",
          "name": "claimAmount",
          "type": "uint256"
        }
      ],
      "name": "ClaimSubmitted",
      "type": "event"
    },
    {
      "anonymous": false,
      "inputs": [
        {
          "indexed": true,
          "internalType": "uint256",
          "name": "policyId",
          "type": "uint256"
        }
      ],
      "name": "CoverageActivated",
      "type": "event"
    },
    {
      "anonymous": false,
      "inputs": [
        {
          "indexed": true,
          "internalType": "address",
          "name": "previousOwner",
          "type": "address"
        },
        {
          "indexed": true,
          "internalType": "address",
          "name": "newOwner",
          "type": "address"
        }
      ],
      "name": "OwnershipTransferred",
      "type": "event"
    },
    {
      "anonymous": false,
      "inputs": [
        {
          "indexed": true,
          "internalType": "uint256",
          "name": "policyId",
          "type": "uint256"
        },
        {
          "indexed": true,
          "internalType": "address",
          "name": "policyHolder",
          "type": "address"
        },
        {
          "indexed": false,
          "internalType": "enum SentinelInsuranceProtocol.InsuranceType",
          "name": "insuranceType",
          "type": "uint8"
        }
      ],
      "name": "PolicyCreated",
      "type": "event"
    },
    {
      "anonymous": false,
      "inputs": [
        {
          "indexed": true,
          "internalType": "uint256",
          "name": "policyId",
          "type": "uint256"
        },
        {
          "indexed": false,
          "internalType": "uint256",
          "name": "amount",
          "type": "uint256"
        }
      ],
      "name": "PremiumCollected",
      "type": "event"
    },
    {
      "inputs": [],
      "name": "CLAIM_PROCESSING_TIME",
      "outputs": [
        {
          "internalType": "uint256",
          "name": "",
          "type": "uint256"
        }
      ],
      "stateMutability": "view",
      "type": "function"
    },
    {
      "inputs": [],
      "name": "COVERAGE_PERIOD_MAX",
      "outputs": [
        {
          "internalType": "uint256",
          "name": "",
          "type": "uint256"
        }
      ],
      "stateMutability": "view",
      "type": "function"
    },
    {
      "inputs": [],
      "name": "COVERAGE_PERIOD_MIN",
      "outputs": [
        {
          "internalType": "uint256",
          "name": "",
          "type": "uint256"
        }
      ],
      "stateMutability": "view",
      "type": "function"
    },
    {
      "inputs": [],
      "name": "MAX_COVERAGE",
      "outputs": [
        {
          "internalType": "uint256",
          "name": "",
          "type": "uint256"
        }
      ],
      "stateMutability": "view",
      "type": "function"
    },
    {
      "inputs": [],
      "name": "MAX_PREMIUM_RATE",
      "outputs": [
        {
          "internalType": "uint256",
          "name": "",
          "type": "uint256"
        }
      ],
      "stateMutability": "view",
      "type": "function"
    },
    {
      "inputs": [],
      "name": "MIN_COVERAGE",
      "outputs": [
        {
          "internalType": "uint256",
          "name": "",
          "type": "uint256"
        }
      ],
      "stateMutability": "view",
      "type": "function"
    },
    {
      "inputs": [],
      "name": "MIN_PREMIUM_RATE",
      "outputs": [
        {
          "internalType": "uint256",
          "name": "",
          "type": "uint256"
        }
      ],
      "stateMutability": "view",
      "type": "function"
    },
    {
      "inputs": [],
      "name": "baseRiskScore",
      "outputs": [
        {
          "internalType": "uint256",
          "name": "",
          "type": "uint256"
        }
      ],
      "stateMutability": "view",
      "type": "function"
    },
    {
      "inputs": [
        {
          "internalType": "address",
          "name": "coveredContract",
          "type": "address"
        },
        {
          "internalType": "uint256",
          "name": "coverageAmount",
          "type": "uint256"
        },
        {
          "internalType": "enum SentinelInsuranceProtocol.InsuranceType",
          "name": "insuranceType",
          "type": "uint8"
        },
        {
          "internalType": "uint256",
          "name": "coveragePeriod",
          "type": "uint256"
        }
      ],
      "name": "calculatePremium",
      "outputs": [
        {
          "internalType": "uint256",
          "name": "",
          "type": "uint256"
        }
      ],
      "stateMutability": "pure",
      "type": "function"
    },
    {
      "inputs": [],
      "name": "claimCount",
      "outputs": [
        {
          "internalType": "uint256",
          "name": "",
          "type": "uint256"
        }
      ],
      "stateMutability": "view",
      "type": "function"
    },
    {
      "inputs": [],
      "name": "claimHistoryWeight",
      "outputs": [
        {
          "internalType": "uint256",
          "name": "",
          "type": "uint256"
        }
      ],
      "stateMutability": "view",
      "type": "function"
    },
    {
      "inputs": [
        {
          "internalType": "uint256",
          "name": "",
          "type": "uint256"
        }
      ],
      "name": "claims",
      "outputs": [
        {
          "internalType": "uint256",
          "name": "claimId",
          "type": "uint256"
        },
        {
          "internalType": "uint256",
          "name": "policyId",
          "type": "uint256"
        },
        {
          "internalType": "address",
          "name": "claimant",
          "type": "address"
        },
        {
          "internalType": "uint256",
          "name": "claimAmount",
          "type": "uint256"
        },
        {
          "internalType": "uint256",
          "name": "incidentTimestamp",
          "type": "uint256"
        },
        {
          "internalType": "bytes32",
          "name": "incidentHash",
          "type": "bytes32"
        },
        {
          "internalType": "enum SentinelInsuranceProtocol.ClaimStatus",
          "name": "status",
          "type": "uint8"
        },
        {
          "internalType": "uint256",
          "name": "processingTime",
          "type": "uint256"
        },
        {
          "internalType": "bytes",
          "name": "evidence",
          "type": "bytes"
        }
      ],
      "stateMutability": "view",
      "type": "function"
    },
    {
      "inputs": [
        {
          "internalType": "uint256",
          "name": "policyId",
          "type": "uint256"
        }
      ],
      "name": "getPolicyInfo",
      "outputs": [
        {
          "internalType": "address",
          "name": "policyHolder",
          "type": "address"
        },
        {
          "internalType": "uint256",
          "name": "coverageAmount",
          "type": "uint256"
        },
        {
          "internalType": "uint256",
          "name": "remainingCoverage",
          "type": "uint256"
        },
        {
          "internalType": "enum SentinelInsuranceProtocol.InsuranceType",
          "name": "insuranceType",
          "type": "uint8"
        },
        {
          "internalType": "enum SentinelInsuranceProtocol.PolicyStatus",
          "name": "status",
          "type": "uint8"
        },
        {
          "internalType": "uint256",
          "name": "endTime",
          "type": "uint256"
        }
      ],
      "stateMutability": "view",
      "type": "function"
    },
    {
      "inputs": [
        {
          "internalType": "uint256",
          "name": "poolType",
          "type": "uint256"
        }
      ],
      "name": "getPoolStatistics",
      "outputs": [
        {
          "internalType": "uint256",
          "name": "totalCoverage",
          "type": "uint256"
        },
        {
          "internalType": "uint256",
          "name": "totalPremiums",
          "type": "uint256"
        },
        {
          "internalType": "uint256",
          "name": "utilizationRate",
          "type": "uint256"
        },
        {
          "internalType": "uint256",
          "name": "claimReserve",
          "type": "uint256"
        },
        {
          "internalType": "uint256",
          "name": "poolPolicyCount",
          "type": "uint256"
        }
      ],
      "stateMutability": "view",
      "type": "function"
    },
    {
      "inputs": [
        {
          "internalType": "uint256",
          "name": "",
          "type": "uint256"
        }
      ],
      "name": "insurancePools",
      "outputs": [
        {
          "internalType": "enum SentinelInsuranceProtocol.InsuranceType",
          "name": "poolType",
          "type": "uint8"
        },
        {
          "internalType": "uint256",
          "name": "totalCoverage",
          "type": "uint256"
        },
        {
          "internalType": "uint256",
          "name": "totalPremiums",
          "type": "uint256"
        },
        {
          "internalType": "uint256",
          "name": "lockedFunds",
          "type": "uint256"
        },
        {
          "internalType": "uint256",
          "name": "claimReserve",
          "type": "uint256"
        },
        {
          "internalType": "uint256",
          "name": "utilizationRate",
          "type": "uint256"
        },
        {
          "internalType": "bool",
          "name": "isActive",
          "type": "bool"
        }
      ],
      "stateMutability": "view",
      "type": "function"
    },
    {
      "inputs": [],
      "name": "owner",
      "outputs": [
        {
          "internalType": "address",
          "name": "",
          "type": "address"
        }
      ],
      "stateMutability": "view",
      "type": "function"
    },
    {
      "inputs": [
        {
          "internalType": "uint256",
          "name": "",
          "type": "uint256"
        }
      ],
      "name": "policies",
      "outputs": [
        {
          "internalType": "uint256",
          "name": "policyId",
          "type": "uint256"
        },
        {
          "internalType": "address",
          "name": "policyHolder",
          "type": "address"
        },
        {
          "internalType": "address",
          "name": "coveredContract",
          "type": "address"
        },
        {
          "internalType": "uint256",
          "name": "coverageAmount",
          "type": "uint256"
        },
        {
          "internalType": "uint256",
          "name": "premiumAmount",
          "type": "uint256"
        },
        {
          "internalType": "uint256",
          "name": "coveragePeriod",
          "type": "uint256"
        },
        {
          "internalType": "uint256",
          "name": "startTime",
          "type": "uint256"
        },
        {
          "internalType": "uint256",
          "name": "endTime",
          "type": "uint256"
        },
        {
          "internalType": "enum SentinelInsuranceProtocol.InsuranceType",
          "name": "insuranceType",
          "type": "uint8"
        },
        {
          "internalType": "enum SentinelInsuranceProtocol.PolicyStatus",
          "name": "status",
          "type": "uint8"
        },
        {
          "internalType": "uint256",
          "name": "claimCount",
          "type": "uint256"
        },
        {
          "internalType": "uint256",
          "name": "totalPaid",
          "type": "uint256"
        }
      ],
      "stateMutability": "view",
      "type": "function"
    },
    {
      "inputs": [],
      "name": "policyCount",
      "outputs": [
        {
          "internalType": "uint256",
          "name": "",
          "type": "uint256"
        }
      ],
      "stateMutability": "view",
      "type": "function"
    },
    {
      "inputs": [
        {
          "internalType": "uint256",
          "name": "claimId",
          "type": "uint256"
        },
        {
          "internalType": "bool",
          "name": "approve",
          "type": "bool"
        }
      ],
      "name": "processClaim",
      "outputs": [],
      "stateMutability": "nonpayable",
      "type": "function"
    },
    {
      "inputs": [],
      "name": "protocolSecurityWeight",
      "outputs": [
        {
          "internalType": "uint256",
          "name": "",
          "type": "uint256"
        }
      ],
      "stateMutability": "view",
      "type": "function"
    },
    {
      "inputs": [
        {
          "internalType": "address",
          "name": "coveredContract",
          "type": "address"
        },
        {
          "internalType": "uint256",
          "name": "coverageAmount",
          "type": "uint256"
        },
        {
          "internalType": "enum SentinelInsuranceProtocol.InsuranceType",
          "name": "insuranceType",
          "type": "uint8"
        },
        {
          "internalType": "uint256",
          "name": "coveragePeriod",
          "type": "uint256"
        }
      ],
      "name": "purchaseInsurance",
      "outputs": [
        {
          "internalType": "uint256",
          "name": "",
          "type": "uint256"
        }
      ],
      "stateMutability": "payable",
      "type": "function"
    },
    {
      "inputs": [],
      "name": "renounceOwnership",
      "outputs": [],
      "stateMutability": "nonpayable",
      "type": "function"
    },
    {
      "inputs": [],
      "name": "sentinelAuditor",
      "outputs": [
        {
          "internalType": "address",
          "name": "",
          "type": "address"
        }
      ],
      "stateMutability": "view",
      "type": "function"
    },
    {
      "inputs": [],
      "name": "sentinelCore",
      "outputs": [
        {
          "internalType": "address",
          "name": "",
          "type": "address"
        }
      ],
      "stateMutability": "view",
      "type": "function"
    },
    {
      "inputs": [
        {
          "internalType": "uint256",
          "name": "policyId",
          "type": "uint256"
        },
        {
          "internalType": "bytes32",
          "name": "incidentHash",
          "type": "bytes32"
        },
        {
          "internalType": "bytes",
          "name": "evidence",
          "type": "bytes"
        }
      ],
      "name": "submitClaim",
      "outputs": [
        {
          "internalType": "uint256",
          "name": "",
          "type": "uint256"
        }
      ],
      "stateMutability": "nonpayable",
      "type": "function"
    },
    {
      "inputs": [],
      "name": "totalCoverageProvided",
      "outputs": [
        {
          "internalType": "uint256",
          "name": "",
          "type": "uint256"
        }
      ],
      "stateMutability": "view",
      "type": "function"
    },
    {
      "inputs": [],
      "name": "totalPremiumsCollected",
      "outputs": [
        {
          "internalType": "uint256",
          "name": "",
          "type": "uint256"
        }
      ],
      "stateMutability": "view",
      "type": "function"
    },
    {
      "inputs": [
        {
          "internalType": "address",
          "name": "newOwner",
          "type": "address"
        }
      ],
      "name": "transferOwnership",
      "outputs": [],
      "stateMutability": "nonpayable",
      "type": "function"
    }
  ],
  "bytecode": "0x608060405234801561000f575f5ffd5b506040516122fd3803806122fd83398101604081905261002e91610357565b806001600160a01b03811661005d57604051631e4fbdf760e01b81525f60048201526024015b60405180910390fd5b61006681610121565b5060017f9b779b17422d0df92223018b32b4d1fa46e071723d6817e2486d003becc55f00556001600160a01b0381166100d15760405162461bcd60e51b815260206004820152600d60248201526c24b73b30b634b21037bbb732b960991b6044820152606401610054565b600b80546001600160a01b038086166001600160a01b031992831617909255600c8054928516929091169190911790556101f4600855601e6009556046600a55610119610170565b5050506103e3565b5f80546001600160a01b038381166001600160a01b0319831681178455604051919092169283917f8be0079c531659141344cd1fd0a4f28419497f9722a3daafe3b4186f6b6457e09190a35050565b5f5b600781116102c25760405180610100016040528082600781111561019857610198610397565b60078111156101a9576101a9610397565b81526020015f81526020015f81526020015f81526020015f81526020015f81526020016001151581526020015f6001600160401b038111156101ed576101ed6103ab565b604051908082528060200260200182016040528015610216578160200160208202803683370190505b5090525f82815260026020526040902081518154829060ff1916600183600781111561024457610244610397565b0217905550602082810151600183015560408301516002830155606083015160038301556080830151600483015560a0830151600583015560c083015160068301805460ff191691151591909117905560e083015180516102ab92600785019201906102c5565b5090505080806102ba906103bf565b915050610172565b50565b828054828255905f5260205f20908101928215610318579160200282015b8281111561031857825182546001600160a01b0319166001600160a01b039091161782556020909201916001909101906102e3565b50610324929150610328565b5090565b5b80821115610324575f8155600101610329565b80516001600160a01b0381168114610352575f5ffd5b919050565b5f5f5f60608486031215610369575f5ffd5b6103728461033c565b92506103806020850161033c565b915061038e6040850161033c565b90509250925092565b634e487b7160e01b5f52602160045260245ffd5b634e487b7160e01b5f52604160045260245ffd5b5f600182016103dc57634e487b7160e01b5f52601160045260245ffd5b5060010190565b611f0d806103f05f395ff3fe6080604052600436106101af575f3560e01c80638e783064116100e7578063d3e8948311610087578063ea683dbb11610062578063ea683dbb14610573578063f2fde38b14610588578063fa10d00a146105a7578063fcfb43b1146105bc575f5ffd5b8063d3e894831461044e578063d765ca16146104f0578063de54d4291461055e575f5ffd5b80639efa0aa9116100c25780639efa0aa9146103d2578063a419cb62146103ef578063a888c2cd14610404578063c518fb5f14610438575f5ffd5b80638e783064146103685780639343d0e5146103825780639588d85b146103a1575f5ffd5b80633dadde2011610152578063698a92591161012d578063698a9259146102dc578063715018a6146103235780638da4d3c9146103375780638da5cb5b1461034c575f5ffd5b80633dadde20146102985780635d53deff146102ad5780635e8b948a146102c2575f5ffd5b80632925993d1161018d5780632925993d146102125780632cfae3871461022d57806331de3f551461026457806335446def14610277575f5ffd5b80630f14111c146101b35780631f06cecf146101dc5780631f9d1be9146101f3575b5f5ffd5b3480156101be575f5ffd5b506101c962093a8081565b6040519081526020015b60405180910390f35b3480156101e7575f5ffd5b506101c96301e1338081565b3480156101fe575f5ffd5b506101c961020d3660046119ba565b6105db565b34801561021d575f5ffd5b506101c9670de0b6b3a764000081565b348015610238575f5ffd5b50600c5461024c906001600160a01b031681565b6040516001600160a01b0390911681526020016101d3565b6101c9610272366004611a51565b610a58565b348015610282575f5ffd5b50610296610291366004611a97565b610f73565b005b3480156102a3575f5ffd5b506101c960075481565b3480156102b8575f5ffd5b506101c9600a5481565b3480156102cd575f5ffd5b506101c966b1a2bc2ec5000081565b3480156102e7575f5ffd5b506102fb6102f6366004611ac9565b61127a565b604080519586526020860194909452928401919091526060830152608082015260a0016101d3565b34801561032e575f5ffd5b506102966113a5565b348015610342575f5ffd5b506101c960055481565b348015610357575f5ffd5b505f546001600160a01b031661024c565b348015610373575f5ffd5b506101c966038d7ea4c6800081565b34801561038d575f5ffd5b506101c961039c366004611a51565b6113b8565b3480156103ac575f5ffd5b506103c06103bb366004611ac9565b6113ce565b6040516101d396959493929190611b18565b3480156103dd575f5ffd5b506101c969021e19e0c9bab240000081565b3480156103fa575f5ffd5b506101c960095481565b34801561040f575f5ffd5b5061042361041e366004611ac9565b61151e565b6040516101d399989796959493929190611b60565b348015610443575f5ffd5b506101c962278d0081565b348015610459575f5ffd5b506104d8610468366004611ac9565b600160208190525f918252604090912080549181015460028201546003830154600484015460058501546006860154600787015460088801546009890154600a909901546001600160a01b039889169997909816979596949593949293919260ff8083169361010090930416918c565b6040516101d39c9b9a99989796959493929190611be4565b3480156104fb575f5ffd5b5061054b61050a366004611ac9565b600260208190525f9182526040909120805460018201549282015460038301546004840154600585015460069095015460ff94851696959394929391921687565b6040516101d39796959493929190611c63565b348015610569575f5ffd5b506101c960045481565b34801561057e575f5ffd5b506101c960065481565b348015610593575f5ffd5b506102966105a2366004611ca3565b611601565b3480156105b2575f5ffd5b506101c960085481565b3480156105c7575f5ffd5b50600b5461024c906001600160a01b031681565b5f8481526001602081905260408220908101546001600160a01b0316331461063e5760405162461bcd60e51b81526020600482015260116024820152702737ba103837b634b1bc903437b63232b960791b60448201526064015b60405180910390fd5b5f6008820154610100900460ff16600481111561065d5761065d611ae0565b1461069e5760405162461bcd60e51b8152602060048201526011602482015270506f6c696379206e6f742061637469766560781b6044820152606401610635565b80600701544211156106e35760405162461bcd60e51b815260206004820152600e60248201526d141bdb1a58de48195e1c1a5c995960921b6044820152606401610635565b806006015442101561072f5760405162461bcd60e51b8152602060048201526015602482015274506f6c696379206e6f74207965742061637469766560581b6044820152606401610635565b60028101545f9061074a9087906001600160a01b031661163e565b90505f81116107a55760405162461bcd60e51b815260206004820152602160248201527f496e636964656e74206e6f742076657269666965642062792053656e74696e656044820152601b60fa1b6064820152608401610635565b60408051610180810182528354815260018401546001600160a01b039081166020830152600285015416918101919091526003830154606082015260048301546080820152600583015460a0820152600683015460c082015260078084015460e083015260088401545f92610899929091869161010084019160ff169081111561083157610831611ae0565b600781111561084257610842611ae0565b81526020016008820160019054906101000a900460ff16600481111561086a5761086a611ae0565b600481111561087b5761087b611ae0565b815260200160098201548152602001600a8201548152505083611660565b600580549192505f9190826108ad83611cd0565b9190505590506040518061012001604052808281526020018a8152602001336001600160a01b031681526020018381526020014281526020018981526020015f60048111156108fe576108fe611ae0565b81526020015f815260200188888080601f0160208091040260200160405190810160405280939291908181526020018383808284375f920182905250939094525050838152600360208181526040928390208551815590850151600180830191909155928501516002820180546001600160a01b0319166001600160a01b03909216919091179055606085015191810191909155608084015160048083019190915560a0850151600583015560c08501516006830180549395509093909260ff19169184908111156109d2576109d2611ae0565b021790555060e0820151600782015561010082015160088201906109f69082611d80565b505050600984018054905f610a0a83611cd0565b919050555088817fcf394f7701f2b1dae6f328cbc70c1f155122b124431f95bbf4a483bba685455584604051610a4291815260200190565b60405180910390a393505050505b949350505050565b5f610a616116ad565b670de0b6b3a76400008410158015610a83575069021e19e0c9bab24000008411155b610acf5760405162461bcd60e51b815260206004820152601760248201527f496e76616c696420636f76657261676520616d6f756e740000000000000000006044820152606401610635565b62278d008210158015610ae657506301e133808211155b610b325760405162461bcd60e51b815260206004820152601760248201527f496e76616c696420636f76657261676520706572696f640000000000000000006044820152606401610635565b60025f846007811115610b4757610b47611ae0565b815260208101919091526040015f206006015460ff16610ba95760405162461bcd60e51b815260206004820152601c60248201527f496e737572616e63652074797065206e6f7420617661696c61626c65000000006044820152606401610635565b5f610bb6868686866116db565b905080341015610c085760405162461bcd60e51b815260206004820152601c60248201527f496e73756666696369656e74207072656d69756d207061796d656e74000000006044820152606401610635565b80341115610c9d575f33610c1c8334611e3b565b6040515f81818185875af1925050503d805f8114610c55576040519150601f19603f3d011682016040523d82523d5f602084013e610c5a565b606091505b5050905080610c9b5760405162461bcd60e51b815260206004820152600d60248201526c1499599d5b990819985a5b1959609a1b6044820152606401610635565b505b600480545f9182610cad83611cd0565b919050559050604051806101800160405280828152602001336001600160a01b03168152602001886001600160a01b031681526020018781526020018381526020018581526020014281526020018542610d079190611e4e565b8152602001866007811115610d1e57610d1e611ae0565b81526020015f81525f60208083018290526040928301829052848252600180825291839020845181559084015181830180546001600160a01b03199081166001600160a01b039384161790915593850151600283018054909516911617909255606083015160038301556080830151600483015560a0830151600583015560c0830151600683015560e08301516007808401919091556101008401516008840180549193909260ff19909216918490811115610ddc57610ddc611ae0565b021790555061012082015160088201805461ff001916610100836004811115610e0757610e07611ae0565b0217905550610140820151600982015561016090910151600a909101555f600281876007811115610e3a57610e3a611ae0565b81526020019081526020015f209050868160010154610e599190611e4e565b60018201556002810154610e6e908490611e4e565b60028201556003810154610e83908890611e4e565b60038201556007810180546001810182555f91825260209091200180546001600160a01b03191633179055600654610ebc908890611e4e565b600655600754610ecd908490611e4e565b600755604051339083907fca5b31d57e98675eb52d368189cc8f55467e8853c8149988aae2b6e76ae769f290610f04908a90611e61565b60405180910390a3817f16d8dde3081dcc7b985217559bb5d076bb9cae69d817dd71b8a607cc05a2796584604051610f3e91815260200190565b60405180910390a250915050610a5060017f9b779b17422d0df92223018b32b4d1fa46e071723d6817e2486d003becc55f0055565b610f7b6117d6565b5f82815260036020526040812090600682015460ff166004811115610fa257610fa2611ae0565b14610fef5760405162461bcd60e51b815260206004820152601c60248201527f436c61696d206e6f7420696e207375626d6974746564207374617465000000006044820152606401610635565b6001818101545f908152602091909152604081206008810154909190600290829060ff16600781111561102457611024611ae0565b81526020019081526020015f209050831561120a578260030154816004015410156110915760405162461bcd60e51b815260206004820152601a60248201527f496e73756666696369656e7420636c61696d20726573657276650000000000006044820152606401610635565b82600301544710156110e55760405162461bcd60e51b815260206004820152601d60248201527f496e73756666696369656e7420636f6e74726163742062616c616e63650000006044820152606401610635565b600283015460038401546040515f926001600160a01b031691908381818185875af1925050503d805f8114611135576040519150601f19603f3d011682016040523d82523d5f602084013e61113a565b606091505b50509050806111815760405162461bcd60e51b815260206004820152601360248201527210db185a5b481c185e5bdd5d0819985a5b1959606a1b6044820152606401610635565b836003015483600a01546111959190611e4e565b600a840155600384015460048301546111ae9190611e3b565b6004830155600380850154908301546111c79190611e3b565b60038381019190915560068501805460ff19166004179055426007860155830154600a840154106112045760088301805461ff0019166101001790555b50611220565b60068301805460ff191660031790554260078401555b600683015485907f131884885e3b15c22fcaa4e2b49df807c03ab9e54bc149f6447e3c9166ce88149060ff1686611257575f61125d565b85600301545b60405161126b929190611e6f565b60405180910390a25050505050565b5f81815260026020526040808220815161010081019092528054839283928392839283929091829060ff1660078111156112b6576112b6611ae0565b60078111156112c7576112c7611ae0565b81526020016001820154815260200160028201548152602001600382015481526020016004820154815260200160058201548152602001600682015f9054906101000a900460ff161515151581526020016007820180548060200260200160405190810160405280929190818152602001828054801561136e57602002820191905f5260205f20905b81546001600160a01b03168152600190910190602001808311611350575b505050919092525050506020810151604082015160a0830151608084015160e09094015151929b919a509850919650945092505050565b6113ad6117d6565b6113b65f611802565b565b5f6113c5858585856116db565b95945050505050565b5f81815260016020818152604080842081516101808101835281548152938101546001600160a01b03908116938501939093526002810154909216908301526003810154606083015260048101546080830152600581015460a0830152600681015460c083015260078082015460e084015260088201548493849384938493849384939092909161010084019160ff9091169081111561147057611470611ae0565b600781111561148157611481611ae0565b81526020016008820160019054906101000a900460ff1660048111156114a9576114a9611ae0565b60048111156114ba576114ba611ae0565b815260200160098201548152602001600a8201548152505090505f81610160015182606001516114ea9190611e3b565b6020830151606084015161010085015161012086015160e090960151929d919c50929a509198509296509194509092505050565b600360208190525f9182526040909120805460018201546002830154938301546004840154600585015460068601546007870154600888018054979996986001600160a01b039097169795969495939460ff9093169391929161158090611cfc565b80601f01602080910402602001604051908101604052809291908181526020018280546115ac90611cfc565b80156115f75780601f106115ce576101008083540402835291602001916115f7565b820191905f5260205f20905b8154815290600101906020018083116115da57829003601f168201915b5050505050905089565b6116096117d6565b6001600160a01b03811661163257604051631e4fbdf760e01b81525f6004820152602401610635565b61163b81611802565b50565b5f8061164b600a85611e9a565b611656906001611e4e565b9150505b92915050565b5f5f600a8385606001516116749190611ead565b61167e9190611ec4565b90505f84610160015185606001516116969190611e3b565b90505f6116a38383611851565b9695505050505050565b6116b5611863565b60027f9b779b17422d0df92223018b32b4d1fa46e071723d6817e2486d003becc55f0055565b5f5f6127106116e9856118a5565b6116f39087611ead565b6116fd9190611ec4565b90505f61170a8786611994565b90505f60646117198385611ead565b6117239190611ec4565b90505f6301e13380611736876064611ead565b6117409190611ec4565b90505f606461174f8385611ead565b6117599190611ec4565b90505f670de0b6b3a764000061177666038d7ea4c680008c611ead565b6117809190611ec4565b90505f670de0b6b3a764000061179d66b1a2bc2ec500008d611ead565b6117a79190611ec4565b90506117c6836117b78385611851565b5f82821882841102821861185c565b9c9b505050505050505050505050565b5f546001600160a01b031633146113b65760405163118cdaa760e01b8152336004820152602401610635565b5f80546001600160a01b038381166001600160a01b0319831681178455604051919092169283917f8be0079c531659141344cd1fd0a4f28419497f9722a3daafe3b4186f6b6457e09190a35050565b5f8282188284100282185b9392505050565b7f9b779b17422d0df92223018b32b4d1fa46e071723d6817e2486d003becc55f00546002036113b657604051633ee5aeb560e01b815260040160405180910390fd5b5f808260078111156118b9576118b9611ae0565b036118c657506019919050565b60018260078111156118da576118da611ae0565b036118e75750600f919050565b60028260078111156118fb576118fb611ae0565b036119085750601e919050565b600382600781111561191c5761191c611ae0565b0361192957506014919050565b600482600781111561193d5761193d611ae0565b0361194a57506023919050565b600582600781111561195e5761195e611ae0565b0361196b57506028919050565b600682600781111561197f5761197f611ae0565b0361198c57506032919050565b506019919050565b5f6064818360078111156119aa576119aa611ae0565b0361185c57611656816032611e4e565b5f5f5f5f606085870312156119cd575f5ffd5b8435935060208501359250604085013567ffffffffffffffff8111156119f1575f5ffd5b8501601f81018713611a01575f5ffd5b803567ffffffffffffffff811115611a17575f5ffd5b876020828401011115611a28575f5ffd5b949793965060200194505050565b80356001600160a01b0381168114611a4c575f5ffd5b919050565b5f5f5f5f60808587031215611a64575f5ffd5b611a6d85611a36565b935060208501359250604085013560088110611a87575f5ffd5b9396929550929360600135925050565b5f5f60408385031215611aa8575f5ffd5b8235915060208301358015158114611abe575f5ffd5b809150509250929050565b5f60208284031215611ad9575f5ffd5b5035919050565b634e487b7160e01b5f52602160045260245ffd5b60088110611b0457611b04611ae0565b9052565b6005811061163b5761163b611ae0565b6001600160a01b0387168152602081018690526040810185905260c08101611b436060830186611af4565b611b4c84611b08565b608082019390935260a00152949350505050565b89815288602082015260018060a01b03881660408201528660608201528560808201528460a0820152611b9284611b08565b8360c08201528260e08201526101206101008201525f825180610120840152806020850161014085015e5f6101408285010152610140601f19601f8301168401019150509a9950505050505050505050565b8c81526001600160a01b038c811660208301528b166040820152606081018a90526080810189905260a0810188905260c0810187905260e081018690526101808101611c34610100830187611af4565b611c3d85611b08565b8461012083015283610140830152826101608301529d9c50505050505050505050505050565b60e08101611c71828a611af4565b8760208301528660408301528560608301528460808301528360a083015282151560c083015298975050505050505050565b5f60208284031215611cb3575f5ffd5b61185c82611a36565b634e487b7160e01b5f52601160045260245ffd5b5f60018201611ce157611ce1611cbc565b5060010190565b634e487b7160e01b5f52604160045260245ffd5b600181811c90821680611d1057607f821691505b602082108103611d2e57634e487b7160e01b5f52602260045260245ffd5b50919050565b601f821115611d7b57805f5260205f20601f840160051c81016020851015611d595750805b601f840160051c820191505b81811015611d78575f8155600101611d65565b50505b505050565b815167ffffffffffffffff811115611d9a57611d9a611ce8565b611dae81611da88454611cfc565b84611d34565b6020601f821160018114611de0575f8315611dc95750848201515b5f19600385901b1c1916600184901b178455611d78565b5f84815260208120601f198516915b82811015611e0f5787850151825560209485019460019092019101611def565b5084821015611e2c57868401515f19600387901b60f8161c191681555b50505050600190811b01905550565b8181038181111561165a5761165a611cbc565b8082018082111561165a5761165a611cbc565b6020810161165a8284611af4565b60408101611e7c84611b08565b9281526020015290565b634e487b7160e01b5f52601260045260245ffd5b5f82611ea857611ea8611e86565b500690565b808202811582820484141761165a5761165a611cbc565b5f82611ed257611ed2611e86565b50049056fea2646970667358221220bb9cdfa3f8c4eeaa1207c0eaabd124f83e40836a7f91a615bad16f667830ac0c64736f6c634300081c0033",
  "linkReferences": {},
  "deployedLinkReferences": {},
  "immutableReferences": {},
  "inputSourceName": "project/contracts/SentinelInsuranceProtocol.sol",
  "buildInfoId": "solc-0_8_28-56b4d38520a07143560cd43eeb820c3102363d0a"
}