{
  "_format": "hh-sol-artifact-1",
  "contractName": "AnomalyDetectionOracle",
  "sourceName": "contracts/security/AnomalyDetectionOracle.sol",
  "abi": [
    {
      "inputs": [
        {
          "internalType": "address",
          "name": "_sentinelAddress",
          "type": "address"
        }
      ],
      "stateMutability": "nonpayable",
      "type": "constructor"
    },
    {
      "inputs": [],
      "name": "AccessControlBadConfirmation",
      "type": "error"
    },
    {
      "inputs": [
        {
          "internalType": "address",
          "name": "account",
          "type": "address"
        },
        {
          "internalType": "bytes32",
          "name": "neededRole",
          "type": "bytes32"
        }
      ],
      "name": "AccessControlUnauthorizedAccount",
      "type": "error"
    },
    {
      "inputs": [],
      "name": "ReentrancyGuardReentrantCall",
      "type": "error"
    },
    {
      "anonymous": false,
      "inputs": [
        {
          "indexed": true,
          "internalType": "uint256",
          "name": "id",
          "type": "uint256"
        },
        {
          "indexed": false,
          "internalType": "bool",
          "name": "actionTaken",
          "type": "bool"
        }
      ],
      "name": "AnomalyProcessed",
      "type": "event"
    },
    {
      "anonymous": false,
      "inputs": [
        {
          "indexed": true,
          "internalType": "uint256",
          "name": "id",
          "type": "uint256"
        },
        {
          "indexed": false,
          "internalType": "enum AnomalyDetectionOracle.AnomalyType",
          "name": "anomalyType",
          "type": "uint8"
        },
        {
          "indexed": false,
          "internalType": "uint256",
          "name": "severity",
          "type": "uint256"
        },
        {
          "indexed": false,
          "internalType": "uint256",
          "name": "confidence",
          "type": "uint256"
        }
      ],
      "name": "AnomalyReported",
      "type": "event"
    },
    {
      "anonymous": false,
      "inputs": [
        {
          "indexed": true,
          "internalType": "bytes32",
          "name": "role",
          "type": "bytes32"
        },
        {
          "indexed": true,
          "internalType": "bytes32",
          "name": "previousAdminRole",
          "type": "bytes32"
        },
        {
          "indexed": true,
          "internalType": "bytes32",
          "name": "newAdminRole",
          "type": "bytes32"
        }
      ],
      "name": "RoleAdminChanged",
      "type": "event"
    },
    {
      "anonymous": false,
      "inputs": [
        {
          "indexed": true,
          "internalType": "bytes32",
          "name": "role",
          "type": "bytes32"
        },
        {
          "indexed": true,
          "internalType": "address",
          "name": "account",
          "type": "address"
        },
        {
          "indexed": true,
          "internalType": "address",
          "name": "sender",
          "type": "address"
        }
      ],
      "name": "RoleGranted",
      "type": "event"
    },
    {
      "anonymous": false,
      "inputs": [
        {
          "indexed": true,
          "internalType": "bytes32",
          "name": "role",
          "type": "bytes32"
        },
        {
          "indexed": true,
          "internalType": "address",
          "name": "account",
          "type": "address"
        },
        {
          "indexed": true,
          "internalType": "address",
          "name": "sender",
          "type": "address"
        }
      ],
      "name": "RoleRevoked",
      "type": "event"
    },
    {
      "anonymous": false,
      "inputs": [
        {
          "indexed": false,
          "internalType": "enum AnomalyDetectionOracle.AnomalyType",
          "name": "anomalyType",
          "type": "uint8"
        },
        {
          "indexed": false,
          "internalType": "uint256",
          "name": "oldThreshold",
          "type": "uint256"
        },
        {
          "indexed": false,
          "internalType": "uint256",
          "name": "newThreshold",
          "type": "uint256"
        }
      ],
      "name": "ThresholdUpdated",
      "type": "event"
    },
    {
      "inputs": [],
      "name": "ADMIN_ROLE",
      "outputs": [
        {
          "internalType": "bytes32",
          "name": "",
          "type": "bytes32"
        }
      ],
      "stateMutability": "view",
      "type": "function"
    },
    {
      "inputs": [],
      "name": "DEFAULT_ADMIN_ROLE",
      "outputs": [
        {
          "internalType": "bytes32",
          "name": "",
          "type": "bytes32"
        }
      ],
      "stateMutability": "view",
      "type": "function"
    },
    {
      "inputs": [],
      "name": "REPORTER_ROLE",
      "outputs": [
        {
          "internalType": "bytes32",
          "name": "",
          "type": "bytes32"
        }
      ],
      "stateMutability": "view",
      "type": "function"
    },
    {
      "inputs": [
        {
          "internalType": "address",
          "name": "reporter",
          "type": "address"
        }
      ],
      "name": "addReporter",
      "outputs": [],
      "stateMutability": "nonpayable",
      "type": "function"
    },
    {
      "inputs": [
        {
          "internalType": "enum AnomalyDetectionOracle.AnomalyType",
          "name": "",
          "type": "uint8"
        }
      ],
      "name": "anomalyThresholds",
      "outputs": [
        {
          "internalType": "uint256",
          "name": "",
          "type": "uint256"
        }
      ],
      "stateMutability": "view",
      "type": "function"
    },
    {
      "inputs": [],
      "name": "getCurrentTVL",
      "outputs": [
        {
          "internalType": "uint256",
          "name": "",
          "type": "uint256"
        }
      ],
      "stateMutability": "view",
      "type": "function"
    },
    {
      "inputs": [
        {
          "internalType": "uint256",
          "name": "reportId",
          "type": "uint256"
        }
      ],
      "name": "getReport",
      "outputs": [
        {
          "internalType": "enum AnomalyDetectionOracle.AnomalyType",
          "name": "anomalyType",
          "type": "uint8"
        },
        {
          "internalType": "uint256",
          "name": "severity",
          "type": "uint256"
        },
        {
          "internalType": "uint256",
          "name": "confidence",
          "type": "uint256"
        },
        {
          "internalType": "bytes",
          "name": "data",
          "type": "bytes"
        },
        {
          "internalType": "uint256",
          "name": "timestamp",
          "type": "uint256"
        },
        {
          "internalType": "address",
          "name": "reporter",
          "type": "address"
        },
        {
          "internalType": "bool",
          "name": "processed",
          "type": "bool"
        }
      ],
      "stateMutability": "view",
      "type": "function"
    },
    {
      "inputs": [
        {
          "internalType": "bytes32",
          "name": "role",
          "type": "bytes32"
        }
      ],
      "name": "getRoleAdmin",
      "outputs": [
        {
          "internalType": "bytes32",
          "name": "",
          "type": "bytes32"
        }
      ],
      "stateMutability": "view",
      "type": "function"
    },
    {
      "inputs": [
        {
          "internalType": "bytes32",
          "name": "role",
          "type": "bytes32"
        },
        {
          "internalType": "address",
          "name": "account",
          "type": "address"
        }
      ],
      "name": "grantRole",
      "outputs": [],
      "stateMutability": "nonpayable",
      "type": "function"
    },
    {
      "inputs": [
        {
          "internalType": "bytes32",
          "name": "role",
          "type": "bytes32"
        },
        {
          "internalType": "address",
          "name": "account",
          "type": "address"
        }
      ],
      "name": "hasRole",
      "outputs": [
        {
          "internalType": "bool",
          "name": "",
          "type": "bool"
        }
      ],
      "stateMutability": "view",
      "type": "function"
    },
    {
      "inputs": [
        {
          "internalType": "uint256",
          "name": "reportId",
          "type": "uint256"
        }
      ],
      "name": "processAnomaly",
      "outputs": [],
      "stateMutability": "nonpayable",
      "type": "function"
    },
    {
      "inputs": [
        {
          "internalType": "address",
          "name": "reporter",
          "type": "address"
        }
      ],
      "name": "removeReporter",
      "outputs": [],
      "stateMutability": "nonpayable",
      "type": "function"
    },
    {
      "inputs": [
        {
          "internalType": "bytes32",
          "name": "role",
          "type": "bytes32"
        },
        {
          "internalType": "address",
          "name": "callerConfirmation",
          "type": "address"
        }
      ],
      "name": "renounceRole",
      "outputs": [],
      "stateMutability": "nonpayable",
      "type": "function"
    },
    {
      "inputs": [
        {
          "internalType": "enum AnomalyDetectionOracle.AnomalyType",
          "name": "anomalyType",
          "type": "uint8"
        },
        {
          "internalType": "uint256",
          "name": "severity",
          "type": "uint256"
        },
        {
          "internalType": "uint256",
          "name": "confidence",
          "type": "uint256"
        },
        {
          "internalType": "bytes",
          "name": "data",
          "type": "bytes"
        }
      ],
      "name": "reportAnomaly",
      "outputs": [],
      "stateMutability": "nonpayable",
      "type": "function"
    },
    {
      "inputs": [],
      "name": "reportCounter",
      "outputs": [
        {
          "internalType": "uint256",
          "name": "",
          "type": "uint256"
        }
      ],
      "stateMutability": "view",
      "type": "function"
    },
    {
      "inputs": [
        {
          "internalType": "uint256",
          "name": "",
          "type": "uint256"
        }
      ],
      "name": "reports",
      "outputs": [
        {
          "internalType": "uint256",
          "name": "id",
          "type": "uint256"
        },
        {
          "internalType": "enum AnomalyDetectionOracle.AnomalyType",
          "name": "anomalyType",
          "type": "uint8"
        },
        {
          "internalType": "uint256",
          "name": "severity",
          "type": "uint256"
        },
        {
          "internalType": "uint256",
          "name": "confidence",
          "type": "uint256"
        },
        {
          "internalType": "bytes",
          "name": "data",
          "type": "bytes"
        },
        {
          "internalType": "uint256",
          "name": "timestamp",
          "type": "uint256"
        },
        {
          "internalType": "address",
          "name": "reporter",
          "type": "address"
        },
        {
          "internalType": "bool",
          "name": "processed",
          "type": "bool"
        }
      ],
      "stateMutability": "view",
      "type": "function"
    },
    {
      "inputs": [
        {
          "internalType": "bytes32",
          "name": "role",
          "type": "bytes32"
        },
        {
          "internalType": "address",
          "name": "account",
          "type": "address"
        }
      ],
      "name": "revokeRole",
      "outputs": [],
      "stateMutability": "nonpayable",
      "type": "function"
    },
    {
      "inputs": [],
      "name": "sentinel",
      "outputs": [
        {
          "internalType": "contract SentinelInterceptor",
          "name": "",
          "type": "address"
        }
      ],
      "stateMutability": "view",
      "type": "function"
    },
    {
      "inputs": [
        {
          "internalType": "bytes4",
          "name": "interfaceId",
          "type": "bytes4"
        }
      ],
      "name": "supportsInterface",
      "outputs": [
        {
          "internalType": "bool",
          "name": "",
          "type": "bool"
        }
      ],
      "stateMutability": "view",
      "type": "function"
    },
    {
      "inputs": [
        {
          "internalType": "enum AnomalyDetectionOracle.AnomalyType",
          "name": "anomalyType",
          "type": "uint8"
        },
        {
          "internalType": "uint256",
          "name": "newThreshold",
          "type": "uint256"
        }
      ],
      "name": "updateThreshold",
      "outputs": [],
      "stateMutability": "nonpayable",
      "type": "function"
    }
  ],
  "bytecode": "0x60a0346101e157601f61168938819003918201601f19168301916001600160401b038311848410176101e5578084926020946040528339810103126101e157516001600160a01b038116908190036101e15760017f9b779b17422d0df92223018b32b4d1fa46e071723d6817e2486d003becc55f0055608052610081336101f9565b5061008b3361026f565b5060036020526105f07f3617319a054d772f909f7c479a2cebe5066e836a939412e32403c99029b92eff556101f47fa15bc60c955c405d20d9149c709e2460f1c2d9a497496a7f46004d1772c3054c5561012c7fc3a24b0501bd2c13a7e57f2db4369ec4c223447539fc0724a9d55ac4a06ebd4d5560c87fcbc4e5fb02c3d1de23a9f1e014b4d2ee5aeaea9505df5e855c9210bf472495af5560647f83ec6a1f0257b830b5e016457c9cf1435391bf56cc98f369a58a54fe93772465556103207f405aad32e1adbac89bb7f176e338b8fc6e994ca210c9bb7bdca249b465942250556103b67fc69056f16cbaa3c616b828e333ab7d3a32310765507f8f58359e99ebb7a885f35560075f526103847ff2c49132ed1cee2a7e75bde50d332a2f81f1d01e5456d8a19d1df09bd561dbd2556040516113269081610303823960805181818161010d015281816104360152610f600152f35b5f80fd5b634e487b7160e01b5f52604160045260245ffd5b6001600160a01b0381165f9081525f5160206116695f395f51905f52602052604090205460ff1661026a576001600160a01b03165f8181525f5160206116695f395f51905f5260205260408120805460ff191660011790553391905f5160206116295f395f51905f528180a4600190565b505f90565b6001600160a01b0381165f9081525f5160206116495f395f51905f52602052604090205460ff1661026a576001600160a01b03165f8181525f5160206116495f395f51905f5260205260408120805460ff191660011790553391907fa49807205ce4d355092ef5a8a18f56e8913cf4a201fbe287825b095693c21775905f5160206116295f395f51905f529080a460019056fe6080806040526004361015610012575f80fd5b5f3560e01c90816301ffc9a714610c0957508063062e2ea914610bd85780631140749e1461074e578063248a9ca31461071c5780632f2ff15d146106df57806336568abe1461069b5780633f60d799146106745780634a4bc9b7146105bd5780634e7f9b191461051f5780635de5c212146104b65780637060b4401461041157806375b238fc146103d757806391d148541461038f578063a217fddf14610375578063a4a62301146102b3578063b9bc38f214610296578063c942adf7146101ed578063d547741f146101b0578063dd8755f2146101405763f58c251c146100f8575f80fd5b3461013c575f36600319011261013c576040517f00000000000000000000000000000000000000000000000000000000000000006001600160a01b03168152602090f35b5f80fd5b3461013c57602036600319011261013c576101ae61015c610c89565b610164610de7565b5f5160206112b15f395f51905f525f9081526020527f4cc0a64818843a39e4cd2f1885e814e78757c2ef3df4dd05f82735613da08b12546101a990610e56565b610e56565b61107f565b005b3461013c57604036600319011261013c576101ae6004356101cf610c73565b906101e86101a4825f525f602052600160405f20015490565b611230565b3461013c57602036600319011261013c576004355f52600260205260405f20805460ff6001830154169160ff6002820154610270600384015461023260048601610d2a565b906006600587015496015493610253604051998a998a5260208a0190610c9f565b604088015260608701526101006080870152610100860190610cac565b60a0858101949094526001600160a01b03821660c0860152921c16151560e08301520390f35b3461013c575f36600319011261013c576020600154604051908152f35b3461013c57602036600319011261013c576004356102cf610de7565b805f52600260205260405f20541561033d57805f52600260205260ff600660405f20015460a01c16610304576101ae90610e8e565b60405162461bcd60e51b8152602060048201526011602482015270105b1c9958591e481c1c9bd8d95cdcd959607a1b6044820152606490fd5b60405162461bcd60e51b815260206004820152601060248201526f14995c1bdc9d081b9bdd08199bdd5b9960821b6044820152606490fd5b3461013c575f36600319011261013c5760206040515f8152f35b3461013c57604036600319011261013c576103a8610c73565b6004355f525f60205260405f209060018060a01b03165f52602052602060ff60405f2054166040519015158152f35b3461013c575f36600319011261013c5760206040517fa49807205ce4d355092ef5a8a18f56e8913cf4a201fbe287825b095693c217758152f35b3461013c575f36600319011261013c5760405163760c0aa760e11b81526020816004817f00000000000000000000000000000000000000000000000000000000000000006001600160a01b03165afa80156104ab575f90610478575b602090604051908152f35b506020813d6020116104a3575b8161049260209383610d08565b8101031261013c576020905161046d565b3d9150610485565b6040513d5f823e3d90fd5b3461013c57602036600319011261013c576101ae6104d2610c89565b6104da610de7565b5f5160206112b15f395f51905f525f9081526020527f4cc0a64818843a39e4cd2f1885e814e78757c2ef3df4dd05f82735613da08b125461051a90610e56565b61119f565b3461013c57602036600319011261013c576004355f52600260205261057f60405f2060ff6001820154169060ff60028201549161059a600382015493600583015494610572600460068601549501610d2a565b9160405198898099610c9f565b6020880152604087015260e0606087015260e0860190610cac565b92608085015260018060a01b03811660a085015260a01c16151560c08301520390f35b3461013c57604036600319011261013c57600435600881101561013c576024356105e5610de7565b612710811161063a578161063561061c7f87d1f947185d1826cb773fcc3c76c7282b8e46638a7dda1eeca54a27e4d9d3e094610c5c565b54928061062884610c5c565b5560405193849384610dca565b0390a1005b60405162461bcd60e51b81526020600482015260126024820152710a8d0e4cae6d0ded8c840e8dede40d0d2ced60731b6044820152606490fd5b3461013c575f36600319011261013c5760206040515f5160206112b15f395f51905f528152f35b3461013c57604036600319011261013c576106b4610c73565b336001600160a01b038216036106d0576101ae90600435611230565b63334bd91960e11b5f5260045ffd5b3461013c57604036600319011261013c576101ae6004356106fe610c73565b906107176101a4825f525f602052600160405f20015490565b611117565b3461013c57602036600319011261013c5760206107466004355f525f602052600160405f20015490565b604051908152f35b3461013c57608036600319011261013c57600435600881101561013c576064359060443560243567ffffffffffffffff841161013c573660238501121561013c5783600401359267ffffffffffffffff841161013c57366024858701011161013c57335f9081525f5160206112d15f395f51905f52602052604090205460ff1615610bb45760027f9b779b17422d0df92223018b32b4d1fa46e071723d6817e2486d003becc55f005414610ba55760027f9b779b17422d0df92223018b32b4d1fa46e071723d6817e2486d003becc55f005581151580610b9a575b15610b625760648311610b28576001545f198114610b145760010193846001556040519561010087019680881067ffffffffffffffff891117610aec5760249760405286815260208101918483525f602060408401958887528060608601948b8652836040519e8f926108a583601f19601f8801160185610d08565b848452019101378b0101526080820198895260a082019042825260c083019433865260e08401945f86528a5f52600260205260405f20945185556001850190516008811015610b005760ff8019835416911617905551600284015551600383015560048201985198895167ffffffffffffffff8111610aec576109288254610cd0565b601f8111610aa7575b506020601f8211600114610a3a5790806006959493926109de9a9b9c9d5f92610a2f575b50508160011b915f199060031b1c19161790555b51600582015592519201805491516001600160a81b03199092166001600160a01b03939093169290921790151560a01b60ff60a01b1617905560405185907f76ef8dd6caa9f5f3f722a2eb26dc34a89253dd49c560a44988c276869c4c5eff90806109d688888784610dca565b0390a2610c5c565b5411159081610a23575b50610a14575b60017f9b779b17422d0df92223018b32b4d1fa46e071723d6817e2486d003becc55f0055005b610a1d90610e8e565b806109ee565b604691501015826109e8565b015190508d80610955565b601f19821690835f52805f20915f5b818110610a8f57509183916109de9b9c9d9e60069897969560019510610a77575b505050811b019055610969565b01515f1960f88460031b161c191690558d8080610a6a565b8e830151845560019093019260209283019201610a49565b825f5260205f20601f830160051c81019160208410610ae2575b601f0160051c01905b818110610ad75750610931565b5f8155600101610aca565b9091508190610ac1565b634e487b7160e01b5f52604160045260245ffd5b634e487b7160e01b5f52602160045260245ffd5b634e487b7160e01b5f52601160045260245ffd5b60405162461bcd60e51b8152602060048201526012602482015271496e76616c696420636f6e666964656e636560701b6044820152606490fd5b60405162461bcd60e51b815260206004820152601060248201526f496e76616c696420736576657269747960801b6044820152606490fd5b506064821115610829565b633ee5aeb560e01b5f5260045ffd5b63e2517d3f60e01b5f52336004525f5160206112b15f395f51905f5260245260445ffd5b3461013c57602036600319011261013c57600435600881101561013c57610c00602091610c5c565b54604051908152f35b3461013c57602036600319011261013c576004359063ffffffff60e01b821680920361013c57602091637965db0b60e01b8114908115610c4b575b5015158152f35b6301ffc9a760e01b14905083610c44565b6008811015610b00575f52600360205260405f2090565b602435906001600160a01b038216820361013c57565b600435906001600160a01b038216820361013c57565b906008821015610b005752565b805180835260209291819084018484015e5f828201840152601f01601f1916010190565b90600182811c92168015610cfe575b6020831014610cea57565b634e487b7160e01b5f52602260045260245ffd5b91607f1691610cdf565b90601f8019910116810190811067ffffffffffffffff821117610aec57604052565b9060405191825f825492610d3d84610cd0565b8084529360018116908115610da85750600114610d64575b50610d6292500383610d08565b565b90505f9291925260205f20905f915b818310610d8c575050906020610d62928201015f610d55565b6020919350806001915483858901015201910190918492610d73565b905060209250610d6294915060ff191682840152151560051b8201015f610d55565b604091949392610dde826060810197610c9f565b60208201520152565b335f9081527f7d7ffb7a348e1c6a02869081a26547b49160dd3df72d1d75a570eb9b698292ec602052604090205460ff1615610e1f57565b63e2517d3f60e01b5f52336004527fa49807205ce4d355092ef5a8a18f56e8913cf4a201fbe287825b095693c2177560245260445ffd5b5f8181526020818152604080832033845290915290205460ff1615610e785750565b63e2517d3f60e01b5f523360045260245260445ffd5b805f52600260205260405f205f9060ff60018201541660088110159081610b00578015918215611072575b8215611061575b8215611050575b5050610f12575b600601805460ff60a01b1916600160a01b17905560405190151581527fe58149f4df5b2a8c379d386e5a0205df13c4db655b41b7f71fe3896e42af14d090602090a2565b600481016020610f228254610cd0565b1015610f2f575b50610ece565b610f3890610d2a565b6020815191818082019384920101031261013c575160405163760c0aa760e11b8152909290917f00000000000000000000000000000000000000000000000000000000000000006001600160a01b0316602084600481845afa9384156104ab575f9461101c575b50803b1561013c575f60209460447fe58149f4df5b2a8c379d386e5a0205df13c4db655b41b7f71fe3896e42af14d0978360405195869485936329874f2d60e11b8552600485015260248401525af1908161100c575b50611003575b915091610f29565b60019150610ffb565b5f61101691610d08565b5f610ff5565b9093506020813d602011611048575b8161103860209383610d08565b8101031261013c5751925f610f9f565b3d915061102b565b909150610b00576006145f80610ec7565b809250610b00576007811491610ec0565b506002811491505f610eb9565b6001600160a01b0381165f9081525f5160206112d15f395f51905f52602052604090205460ff16611112576001600160a01b03165f8181525f5160206112d15f395f51905f5260205260408120805460ff191660011790553391905f5160206112b15f395f51905f52907f2f8788117e7eff1d82e926ec794901d17c78024a50270940304540a733656f0d9080a4600190565b505f90565b5f818152602081815260408083206001600160a01b038616845290915290205460ff16611199575f818152602081815260408083206001600160a01b0395909516808452949091528120805460ff19166001179055339291907f2f8788117e7eff1d82e926ec794901d17c78024a50270940304540a733656f0d9080a4600190565b50505f90565b6001600160a01b0381165f9081525f5160206112d15f395f51905f52602052604090205460ff1615611112576001600160a01b03165f8181525f5160206112d15f395f51905f5260205260408120805460ff191690553391905f5160206112b15f395f51905f52907ff6391f5c32d9c69d2a47ea670b442974b53935d1edc7fd64eb21e047a839171b9080a4600190565b5f818152602081815260408083206001600160a01b038616845290915290205460ff1615611199575f818152602081815260408083206001600160a01b0395909516808452949091528120805460ff19169055339291907ff6391f5c32d9c69d2a47ea670b442974b53935d1edc7fd64eb21e047a839171b9080a460019056fe3204c940063673962b481a0395619b3dbbd137589c419e993978c1c71bcf68ec4cc0a64818843a39e4cd2f1885e814e78757c2ef3df4dd05f82735613da08b11a2646970667358221220ec25abcdc43df53a6a2166982b1598f3d57d8b952110fd2714c01e5258d3e0df64736f6c634300081c00332f8788117e7eff1d82e926ec794901d17c78024a50270940304540a733656f0d7d7ffb7a348e1c6a02869081a26547b49160dd3df72d1d75a570eb9b698292ecad3228b676f7d3cd4284a5443f17f1962b36e491b30a40b2405849e597ba5fb5",
  "linkReferences": {},
  "deployedLinkReferences": {}
}