{
  "_format": "hh3-artifact-1",
  "contractName": "SentinelCrossProtocolStandards",
  "sourceName": "contracts/SentinelCrossProtocolStandards.sol",
  "abi": [
    {
      "inputs": [],
      "stateMutability": "nonpayable",
      "type": "constructor"
    },
    {
      "inputs": [
        {
          "internalType": "address",
          "name": "owner",
          "type": "address"
        }
      ],
      "name": "OwnableInvalidOwner",
      "type": "error"
    },
    {
      "inputs": [
        {
          "internalType": "address",
          "name": "account",
          "type": "address"
        }
      ],
      "name": "OwnableUnauthorizedAccount",
      "type": "error"
    },
    {
      "anonymous": false,
      "inputs": [
        {
          "indexed": true,
          "internalType": "address",
          "name": "protocol",
          "type": "address"
        },
        {
          "indexed": true,
          "internalType": "bytes32",
          "name": "standardId",
          "type": "bytes32"
        }
      ],
      "name": "CertificationRevoked",
      "type": "event"
    },
    {
      "anonymous": false,
      "inputs": [
        {
          "indexed": true,
          "internalType": "address",
          "name": "previousOwner",
          "type": "address"
        },
        {
          "indexed": true,
          "internalType": "address",
          "name": "newOwner",
          "type": "address"
        }
      ],
      "name": "OwnershipTransferred",
      "type": "event"
    },
    {
      "anonymous": false,
      "inputs": [
        {
          "indexed": true,
          "internalType": "address",
          "name": "protocol",
          "type": "address"
        },
        {
          "indexed": true,
          "internalType": "bytes32",
          "name": "standardId",
          "type": "bytes32"
        },
        {
          "indexed": false,
          "internalType": "enum SentinelCrossProtocolStandards.ComplianceLevel",
          "name": "level",
          "type": "uint8"
        }
      ],
      "name": "ProtocolCertified",
      "type": "event"
    },
    {
      "anonymous": false,
      "inputs": [
        {
          "indexed": true,
          "internalType": "bytes32",
          "name": "standardId",
          "type": "bytes32"
        },
        {
          "indexed": false,
          "internalType": "enum SentinelCrossProtocolStandards.StandardCategory",
          "name": "category",
          "type": "uint8"
        },
        {
          "indexed": false,
          "internalType": "enum SentinelCrossProtocolStandards.ComplianceLevel",
          "name": "level",
          "type": "uint8"
        }
      ],
      "name": "StandardCreated",
      "type": "event"
    },
    {
      "inputs": [
        {
          "internalType": "uint256",
          "name": "",
          "type": "uint256"
        }
      ],
      "name": "activeStandards",
      "outputs": [
        {
          "internalType": "bytes32",
          "name": "",
          "type": "bytes32"
        }
      ],
      "stateMutability": "view",
      "type": "function"
    },
    {
      "inputs": [
        {
          "internalType": "address",
          "name": "authority",
          "type": "address"
        }
      ],
      "name": "addCertifyingAuthority",
      "outputs": [],
      "stateMutability": "nonpayable",
      "type": "function"
    },
    {
      "inputs": [
        {
          "internalType": "address",
          "name": "protocolAddress",
          "type": "address"
        },
        {
          "internalType": "bytes32",
          "name": "standardId",
          "type": "bytes32"
        },
        {
          "internalType": "enum SentinelCrossProtocolStandards.ComplianceLevel",
          "name": "certifiedLevel",
          "type": "uint8"
        },
        {
          "internalType": "uint256",
          "name": "validityPeriod",
          "type": "uint256"
        },
        {
          "internalType": "string",
          "name": "auditReportURI",
          "type": "string"
        }
      ],
      "name": "certifyProtocol",
      "outputs": [],
      "stateMutability": "nonpayable",
      "type": "function"
    },
    {
      "inputs": [
        {
          "internalType": "uint256",
          "name": "",
          "type": "uint256"
        }
      ],
      "name": "certifyingAuthorities",
      "outputs": [
        {
          "internalType": "address",
          "name": "",
          "type": "address"
        }
      ],
      "stateMutability": "view",
      "type": "function"
    },
    {
      "inputs": [
        {
          "internalType": "enum SentinelCrossProtocolStandards.StandardCategory",
          "name": "category",
          "type": "uint8"
        },
        {
          "internalType": "enum SentinelCrossProtocolStandards.ComplianceLevel",
          "name": "level",
          "type": "uint8"
        },
        {
          "internalType": "string",
          "name": "title",
          "type": "string"
        },
        {
          "internalType": "string",
          "name": "description",
          "type": "string"
        },
        {
          "internalType": "string[]",
          "name": "requirements",
          "type": "string[]"
        }
      ],
      "name": "createStandard",
      "outputs": [
        {
          "internalType": "bytes32",
          "name": "",
          "type": "bytes32"
        }
      ],
      "stateMutability": "nonpayable",
      "type": "function"
    },
    {
      "inputs": [
        {
          "internalType": "bytes32",
          "name": "standardId",
          "type": "bytes32"
        }
      ],
      "name": "deactivateStandard",
      "outputs": [],
      "stateMutability": "nonpayable",
      "type": "function"
    },
    {
      "inputs": [],
      "name": "getActiveStandards",
      "outputs": [
        {
          "internalType": "bytes32[]",
          "name": "",
          "type": "bytes32[]"
        }
      ],
      "stateMutability": "view",
      "type": "function"
    },
    {
      "inputs": [],
      "name": "getCertificationStats",
      "outputs": [
        {
          "internalType": "uint256",
          "name": "totalStandards",
          "type": "uint256"
        },
        {
          "internalType": "uint256",
          "name": "totalCertifications",
          "type": "uint256"
        },
        {
          "internalType": "uint256",
          "name": "activeCertifications",
          "type": "uint256"
        }
      ],
      "stateMutability": "view",
      "type": "function"
    },
    {
      "inputs": [
        {
          "internalType": "address",
          "name": "protocolAddress",
          "type": "address"
        }
      ],
      "name": "getProtocolCertifications",
      "outputs": [
        {
          "components": [
            {
              "internalType": "address",
              "name": "protocolAddress",
              "type": "address"
            },
            {
              "internalType": "bytes32",
              "name": "standardId",
              "type": "bytes32"
            },
            {
              "internalType": "enum SentinelCrossProtocolStandards.ComplianceLevel",
              "name": "certifiedLevel",
              "type": "uint8"
            },
            {
              "internalType": "uint256",
              "name": "certificationDate",
              "type": "uint256"
            },
            {
              "internalType": "uint256",
              "name": "expiryDate",
              "type": "uint256"
            },
            {
              "internalType": "address",
              "name": "certifyingAuthority",
              "type": "address"
            },
            {
              "internalType": "string",
              "name": "auditReportURI",
              "type": "string"
            },
            {
              "internalType": "bool",
              "name": "isActive",
              "type": "bool"
            }
          ],
          "internalType": "struct SentinelCrossProtocolStandards.ProtocolCertification[]",
          "name": "",
          "type": "tuple[]"
        }
      ],
      "stateMutability": "view",
      "type": "function"
    },
    {
      "inputs": [
        {
          "internalType": "bytes32",
          "name": "standardId",
          "type": "bytes32"
        }
      ],
      "name": "getStandard",
      "outputs": [
        {
          "components": [
            {
              "internalType": "bytes32",
              "name": "standardId",
              "type": "bytes32"
            },
            {
              "internalType": "enum SentinelCrossProtocolStandards.StandardCategory",
              "name": "category",
              "type": "uint8"
            },
            {
              "internalType": "enum SentinelCrossProtocolStandards.ComplianceLevel",
              "name": "level",
              "type": "uint8"
            },
            {
              "internalType": "string",
              "name": "title",
              "type": "string"
            },
            {
              "internalType": "string",
              "name": "description",
              "type": "string"
            },
            {
              "internalType": "string[]",
              "name": "requirements",
              "type": "string[]"
            },
            {
              "internalType": "uint256",
              "name": "version",
              "type": "uint256"
            },
            {
              "internalType": "bool",
              "name": "isActive",
              "type": "bool"
            },
            {
              "internalType": "uint256",
              "name": "adoptionCount",
              "type": "uint256"
            },
            {
              "internalType": "address[]",
              "name": "certifiedProtocols",
              "type": "address[]"
            }
          ],
          "internalType": "struct SentinelCrossProtocolStandards.SecurityStandard",
          "name": "",
          "type": "tuple"
        }
      ],
      "stateMutability": "view",
      "type": "function"
    },
    {
      "inputs": [
        {
          "internalType": "enum SentinelCrossProtocolStandards.StandardCategory",
          "name": "category",
          "type": "uint8"
        }
      ],
      "name": "getStandardsByCategory",
      "outputs": [
        {
          "internalType": "bytes32[]",
          "name": "",
          "type": "bytes32[]"
        }
      ],
      "stateMutability": "view",
      "type": "function"
    },
    {
      "inputs": [
        {
          "internalType": "address",
          "name": "authority",
          "type": "address"
        }
      ],
      "name": "isCertifyingAuthority",
      "outputs": [
        {
          "internalType": "bool",
          "name": "",
          "type": "bool"
        }
      ],
      "stateMutability": "view",
      "type": "function"
    },
    {
      "inputs": [
        {
          "internalType": "address",
          "name": "protocolAddress",
          "type": "address"
        },
        {
          "internalType": "bytes32",
          "name": "standardId",
          "type": "bytes32"
        }
      ],
      "name": "isProtocolCertified",
      "outputs": [
        {
          "internalType": "bool",
          "name": "",
          "type": "bool"
        },
        {
          "internalType": "enum SentinelCrossProtocolStandards.ComplianceLevel",
          "name": "",
          "type": "uint8"
        }
      ],
      "stateMutability": "view",
      "type": "function"
    },
    {
      "inputs": [],
      "name": "owner",
      "outputs": [
        {
          "internalType": "address",
          "name": "",
          "type": "address"
        }
      ],
      "stateMutability": "view",
      "type": "function"
    },
    {
      "inputs": [
        {
          "internalType": "address",
          "name": "",
          "type": "address"
        },
        {
          "internalType": "uint256",
          "name": "",
          "type": "uint256"
        }
      ],
      "name": "protocolCertifications",
      "outputs": [
        {
          "internalType": "address",
          "name": "protocolAddress",
          "type": "address"
        },
        {
          "internalType": "bytes32",
          "name": "standardId",
          "type": "bytes32"
        },
        {
          "internalType": "enum SentinelCrossProtocolStandards.ComplianceLevel",
          "name": "certifiedLevel",
          "type": "uint8"
        },
        {
          "internalType": "uint256",
          "name": "certificationDate",
          "type": "uint256"
        },
        {
          "internalType": "uint256",
          "name": "expiryDate",
          "type": "uint256"
        },
        {
          "internalType": "address",
          "name": "certifyingAuthority",
          "type": "address"
        },
        {
          "internalType": "string",
          "name": "auditReportURI",
          "type": "string"
        },
        {
          "internalType": "bool",
          "name": "isActive",
          "type": "bool"
        }
      ],
      "stateMutability": "view",
      "type": "function"
    },
    {
      "inputs": [
        {
          "internalType": "address",
          "name": "authority",
          "type": "address"
        }
      ],
      "name": "removeCertifyingAuthority",
      "outputs": [],
      "stateMutability": "nonpayable",
      "type": "function"
    },
    {
      "inputs": [],
      "name": "renounceOwnership",
      "outputs": [],
      "stateMutability": "nonpayable",
      "type": "function"
    },
    {
      "inputs": [
        {
          "internalType": "address",
          "name": "protocolAddress",
          "type": "address"
        },
        {
          "internalType": "bytes32",
          "name": "standardId",
          "type": "bytes32"
        }
      ],
      "name": "revokeCertification",
      "outputs": [],
      "stateMutability": "nonpayable",
      "type": "function"
    },
    {
      "inputs": [
        {
          "internalType": "bytes32",
          "name": "",
          "type": "bytes32"
        },
        {
          "internalType": "address",
          "name": "",
          "type": "address"
        }
      ],
      "name": "standardAdopters",
      "outputs": [
        {
          "internalType": "bool",
          "name": "",
          "type": "bool"
        }
      ],
      "stateMutability": "view",
      "type": "function"
    },
    {
      "inputs": [
        {
          "internalType": "bytes32",
          "name": "",
          "type": "bytes32"
        }
      ],
      "name": "standards",
      "outputs": [
        {
          "internalType": "bytes32",
          "name": "standardId",
          "type": "bytes32"
        },
        {
          "internalType": "enum SentinelCrossProtocolStandards.StandardCategory",
          "name": "category",
          "type": "uint8"
        },
        {
          "internalType": "enum SentinelCrossProtocolStandards.ComplianceLevel",
          "name": "level",
          "type": "uint8"
        },
        {
          "internalType": "string",
          "name": "title",
          "type": "string"
        },
        {
          "internalType": "string",
          "name": "description",
          "type": "string"
        },
        {
          "internalType": "uint256",
          "name": "version",
          "type": "uint256"
        },
        {
          "internalType": "bool",
          "name": "isActive",
          "type": "bool"
        },
        {
          "internalType": "uint256",
          "name": "adoptionCount",
          "type": "uint256"
        }
      ],
      "stateMutability": "view",
      "type": "function"
    },
    {
      "inputs": [
        {
          "internalType": "address",
          "name": "newOwner",
          "type": "address"
        }
      ],
      "name": "transferOwnership",
      "outputs": [],
      "stateMutability": "nonpayable",
      "type": "function"
    },
    {
      "inputs": [
        {
          "internalType": "bytes32",
          "name": "standardId",
          "type": "bytes32"
        },
        {
          "internalType": "string[]",
          "name": "newRequirements",
          "type": "string[]"
        }
      ],
      "name": "updateStandardVersion",
      "outputs": [],
      "stateMutability": "nonpayable",
      "type": "function"
    }
  ],
  "bytecode": "0x6080604052348015600e575f5ffd5b503380603357604051631e4fbdf760e01b81525f600482015260240160405180910390fd5b603a816082565b506005604d5f546001600160a01b031690565b81546001810183555f928352602090922090910180546001600160a01b0319166001600160a01b0390921691909117905560d1565b5f80546001600160a01b038381166001600160a01b0319831681178455604051919092169283917f8be0079c531659141344cd1fd0a4f28419497f9722a3daafe3b4186f6b6457e09190a35050565b6127b1806100de5f395ff3fe608060405234801561000f575f5ffd5b506004361061013d575f3560e01c80636e9aecbb116100b4578063c74b1ee011610079578063c74b1ee014610306578063c874157a14610319578063d07215c41461032c578063e6927f721461033f578063ee54b65f14610352578063f2fde38b1461037f575f5ffd5b80636e9aecbb14610290578063715018a6146102a35780637a3a7a3f146102ab5780638da5cb5b146102d6578063b355a03c146102e6575f5ffd5b806326abc6821161010557806326abc682146101ee57806328e2452d1461020e578063311ee55b14610231578063390a07bc146102395780635f1957b31461025a5780636afd8a9d1461026d575f5ffd5b806301c9534714610141578063036f042714610171578063047a80e8146101915780630f3e8ba3146101b257806316710b93146101d9575b5f5ffd5b61015461014f366004611dd1565b610392565b604051610168989796959493929190611e4e565b60405180910390f35b61018461017f366004611ed0565b6104ec565b6040516101689190611ef0565b6101a461019f36600461213b565b61067b565b604051908152602001610168565b6101c56101c03660046121e7565b610934565b60405161016898979695949392919061220f565b6101ec6101e7366004612277565b610a2e565b005b6102016101fc3660046122d6565b610d72565b60405161016891906122ef565b610216610f10565b60408051938452602084019290925290820152606001610168565b610201610fb4565b61024c6102473660046121e7565b61100a565b604051610168929190612331565b6101ec610268366004611ed0565b611257565b61028061027b366004611ed0565b611306565b6040519015158152602001610168565b6101ec61029e3660046121e7565b611362565b6101ec6115f0565b6102be6102b9366004611dd1565b611603565b6040516001600160a01b039091168152602001610168565b5f546001600160a01b03166102be565b6102f96102f4366004611dd1565b61162b565b60405161016891906123e4565b6101ec610314366004611ed0565b611991565b6101a4610327366004611dd1565b611a92565b6101ec61033a3660046124c0565b611ab1565b6101ec61034d366004611dd1565b611b3b565b610280610360366004612503565b600360209081525f928352604080842090915290825290205460ff1681565b6101ec61038d366004611ed0565b611bff565b600160208190525f918252604090912080549181015460028201805460ff80841694610100909404169291906103c79061252d565b80601f01602080910402602001604051908101604052809291908181526020018280546103f39061252d565b801561043e5780601f106104155761010080835404028352916020019161043e565b820191905f5260205f20905b81548152906001019060200180831161042157829003601f168201915b5050505050908060030180546104539061252d565b80601f016020809104026020016040519081016040528092919081815260200182805461047f9061252d565b80156104ca5780601f106104a1576101008083540402835291602001916104ca565b820191905f5260205f20905b8154815290600101906020018083116104ad57829003601f168201915b50505050600583015460068401546007909401549293909260ff909116915088565b6001600160a01b0381165f908152600260209081526040808320805482518185028101850190935280835260609492939192909184015b82821015610670575f84815260209081902060408051610100810182526008860290920180546001600160a01b0316835260018101549383019390935260028301549192919083019060ff16600381111561058057610580611de8565b600381111561059157610591611de8565b8152600382015460208201526004820154604082015260058201546001600160a01b031660608201526006820180546080909201916105cf9061252d565b80601f01602080910402602001604051908101604052809291908181526020018280546105fb9061252d565b80156106465780601f1061061d57610100808354040283529160200191610646565b820191905f5260205f20905b81548152906001019060200180831161062957829003601f168201915b50505091835250506007919091015460ff1615156020918201529082526001929092019101610523565b505050509050919050565b5f610684611c3c565b5f8686864260405160200161069c9493929190612565565b60408051601f1981840301815291815281516020928301205f8181526001909352912054909150156107155760405162461bcd60e51b815260206004820152601760248201527f5374616e6461726420616c72656164792065786973747300000000000000000060448201526064015b60405180910390fd5b60405180610140016040528082815260200188600581111561073957610739611de8565b815260200187600381111561075057610750611de8565b8152602001868152602001858152602001848152602001600181526020016001151581526020015f81526020015f6001600160401b0381111561079557610795611fea565b6040519080825280602002602001820160405280156107be578160200160208202803683370190505b5090525f828152600160208181526040909220835181559183015182820180549192909160ff1916908360058111156107f9576107f9611de8565b0217905550604082015160018201805461ff00191661010083600381111561082357610823611de8565b02179055506060820151600282019061083c9082612603565b50608082015160038201906108519082612603565b5060a0820151805161086d916004840191602090910190611cb7565b5060c0820151600582015560e082015160068201805460ff1916911515919091179055610100820151600782015561012082015180516108b7916008840191602090910190611d0b565b5050600480546001810182555f919091527f8a35acfbc15ff81a39ae7d344fd709f28e8600b4aa8c65c6b64bfe7fe36bd19b018290555060405181907f5782fd46a33a21374cc36762e84fbe3c391a8329ca3045f7422870d228f697da90610922908a908a906126bd565b60405180910390a29695505050505050565b6002602052815f5260405f20818154811061094d575f80fd5b5f91825260209091206008909102018054600182015460028301546003840154600485015460058601546006870180546001600160a01b039788169a5095985060ff9094169692959194911692906109a49061252d565b80601f01602080910402602001604051908101604052809291908181526020018280546109d09061252d565b8015610a1b5780601f106109f257610100808354040283529160200191610a1b565b820191905f5260205f20905b8154815290600101906020018083116109fe57829003601f168201915b5050506007909301549192505060ff1688565b610a3733611306565b610a835760405162461bcd60e51b815260206004820152601960248201527f4e6f7420617574686f72697a656420746f206365727469667900000000000000604482015260640161070c565b5f8481526001602052604090206006015460ff16610ad95760405162461bcd60e51b81526020600482015260136024820152725374616e64617264206e6f742061637469766560681b604482015260640161070c565b5f8481526001602081905260409091200154610100900460ff166003811115610b0457610b04611de8565b836003811115610b1657610b16611de8565b1015610b645760405162461bcd60e51b815260206004820152601b60248201527f43657274696669636174696f6e206c6576656c20746f6f206c6f770000000000604482015260640161070c565b5f604051806101000160405280876001600160a01b03168152602001868152602001856003811115610b9857610b98611de8565b81526020014281526020018442610baf91906126ec565b8152336020808301919091526040808301869052600160609093018390526001600160a01b038a81165f90815260028085528382208054808801825590835291859020875160089093020180546001600160a01b03191692909316919091178255928501518185015590840151918101805494955085949193909160ff191690836003811115610c4157610c41611de8565b0217905550606082015160038201556080820151600482015560a08201516005820180546001600160a01b0319166001600160a01b0390921691909117905560c08201516006820190610c949082612603565b5060e091909101516007918201805460ff19169115159190911790555f86815260016020818152604083206008810180549384018155845290832090910180546001600160a01b0319166001600160a01b038b16179055878252909101805491610cfd83612705565b90915550505f8581526003602090815260408083206001600160a01b038a16808552925291829020805460ff1916600117905590518691907f7319db969b98f9e8802ffb2170e1495815991719c07d05d732f0fb0ebd0593d090610d6290889061271d565b60405180910390a3505050505050565b6004546060905f906001600160401b03811115610d9157610d91611fea565b604051908082528060200260200182016040528015610dba578160200160208202803683370190505b5090505f805b600454811015610e7857846005811115610ddc57610ddc611de8565b60015f60048481548110610df257610df261272b565b5f918252602080832090910154835282019290925260400190206001015460ff166005811115610e2457610e24611de8565b03610e705760048181548110610e3c57610e3c61272b565b905f5260205f200154838381518110610e5757610e5761272b565b602090810291909101015281610e6c81612705565b9250505b600101610dc0565b505f816001600160401b03811115610e9257610e92611fea565b604051908082528060200260200182016040528015610ebb578160200160208202803683370190505b5090505f5b82811015610f0757838181518110610eda57610eda61272b565b6020026020010151828281518110610ef457610ef461272b565b6020908102919091010152600101610ec0565b50949350505050565b5f80808080805b600454811015610fa65760015f60048381548110610f3757610f3761272b565b905f5260205f20015481526020019081526020015f206007015483610f5c91906126ec565b925060015f60048381548110610f7457610f7461272b565b905f5260205f20015481526020019081526020015f206008018054905082610f9c91906126ec565b9150600101610f17565b506004549591945092509050565b6060600480548060200260200160405190810160405280929190818152602001828054801561100057602002820191905f5260205f20905b815481526020019060010190808311610fec575b5050505050905090565b6001600160a01b0382165f908152600260209081526040808320805482518185028101850190935280835284938493929190849084015b8282101561118e575f84815260209081902060408051610100810182526008860290920180546001600160a01b0316835260018101549383019390935260028301549192919083019060ff16600381111561109e5761109e611de8565b60038111156110af576110af611de8565b8152600382015460208201526004820154604082015260058201546001600160a01b031660608201526006820180546080909201916110ed9061252d565b80601f01602080910402602001604051908101604052809291908181526020018280546111199061252d565b80156111645780601f1061113b57610100808354040283529160200191611164565b820191905f5260205f20905b81548152906001019060200180831161114757829003601f168201915b50505091835250506007919091015460ff1615156020918201529082526001929092019101611041565b509293505f925050505b815181101561124757848282815181106111b4576111b461272b565b6020026020010151602001511480156111e757508181815181106111da576111da61272b565b602002602001015160e001515b801561120f5750428282815181106112015761120161272b565b602002602001015160800151115b1561123f5760018282815181106112285761122861272b565b602002602001015160400151935093505050611250565b600101611198565b505f5f92509250505b9250929050565b61125f611c3c565b61126881611306565b156112b55760405162461bcd60e51b815260206004820152601e60248201527f416c726561647920612063657274696679696e6720617574686f726974790000604482015260640161070c565b600580546001810182555f919091527f036b6384b5eca791c62761152d0c79bb0604c104a5fb6f4eb0703f3154bb3db00180546001600160a01b0319166001600160a01b0392909216919091179055565b5f805b60055481101561135a57826001600160a01b0316600582815481106113305761133061272b565b5f918252602090912001546001600160a01b0316036113525750600192915050565b600101611309565b505f92915050565b61136b33611306565b6113a85760405162461bcd60e51b815260206004820152600e60248201526d139bdd08185d5d1a1bdc9a5e995960921b604482015260640161070c565b6001600160a01b0382165f908152600260205260408120905b81548110156115ea57828282815481106113dd576113dd61272b565b905f5260205f2090600802016001015414801561141e57508181815481106114075761140761272b565b5f91825260209091206007600890920201015460ff165b156115e2575f8282815481106114365761143661272b565b5f918252602080832060076008909302018201805494151560ff19909516949094179093558582526001909252604081209091018054916114768361273f565b90915550505f8381526003602090815260408083206001600160a01b03881684528252808320805460ff1916905585835260019091528120600801905b81548110156115a657856001600160a01b03168282815481106114d8576114d861272b565b5f918252602090912001546001600160a01b03160361159e578154829061150190600190612754565b815481106115115761151161272b565b905f5260205f20015f9054906101000a90046001600160a01b031682828154811061153e5761153e61272b565b905f5260205f20015f6101000a8154816001600160a01b0302191690836001600160a01b031602179055508180548061157957611579612767565b5f8281526020902081015f1990810180546001600160a01b03191690550190556115a6565b6001016114b3565b5060405184906001600160a01b038716907fa9b60d63076ad03a25b7c82a7bf484df60a4d98b6b595f9b9fbc31b30b73a8a8905f90a3506115ea565b6001016113c1565b50505050565b6115f8611c3c565b6116015f611c68565b565b60058181548110611612575f80fd5b5f918252602090912001546001600160a01b0316905081565b61167f6040805161014081019091525f808252602082019081526020015f81526020016060815260200160608152602001606081526020015f81526020015f151581526020015f8152602001606081525090565b5f828152600160208181526040928390208351610140810190945280548452918201549083019060ff1660058111156116ba576116ba611de8565b60058111156116cb576116cb611de8565b81526020016001820160019054906101000a900460ff1660038111156116f3576116f3611de8565b600381111561170457611704611de8565b81526020016002820180546117189061252d565b80601f01602080910402602001604051908101604052809291908181526020018280546117449061252d565b801561178f5780601f106117665761010080835404028352916020019161178f565b820191905f5260205f20905b81548152906001019060200180831161177257829003601f168201915b505050505081526020016003820180546117a89061252d565b80601f01602080910402602001604051908101604052809291908181526020018280546117d49061252d565b801561181f5780601f106117f65761010080835404028352916020019161181f565b820191905f5260205f20905b81548152906001019060200180831161180257829003601f168201915b5050505050815260200160048201805480602002602001604051908101604052809291908181526020015f905b828210156118f4578382905f5260205f200180546118699061252d565b80601f01602080910402602001604051908101604052809291908181526020018280546118959061252d565b80156118e05780601f106118b7576101008083540402835291602001916118e0565b820191905f5260205f20905b8154815290600101906020018083116118c357829003601f168201915b50505050508152602001906001019061184c565b50505050815260200160058201548152602001600682015f9054906101000a900460ff16151515158152602001600782015481526020016008820180548060200260200160405190810160405280929190818152602001828054801561198157602002820191905f5260205f20905b81546001600160a01b03168152600190910190602001808311611963575b5050505050815250509050919050565b611999611c3c565b5f5b600554811015611a8e57816001600160a01b0316600582815481106119c2576119c261272b565b5f918252602090912001546001600160a01b031603611a8657600580546119eb90600190612754565b815481106119fb576119fb61272b565b5f91825260209091200154600580546001600160a01b039092169183908110611a2657611a2661272b565b905f5260205f20015f6101000a8154816001600160a01b0302191690836001600160a01b031602179055506005805480611a6257611a62612767565b5f8281526020902081015f1990810180546001600160a01b03191690550190555050565b60010161199b565b5050565b60048181548110611aa1575f80fd5b5f91825260209091200154905081565b611ab9611c3c565b5f828152600160205260409020600681015460ff16611b105760405162461bcd60e51b81526020600482015260136024820152725374616e64617264206e6f742061637469766560681b604482015260640161070c565b600581018054905f611b2183612705565b909155505081516115ea9060048301906020850190611cb7565b611b43611c3c565b5f818152600160205260408120600601805460ff191690555b600454811015611a8e578160048281548110611b7a57611b7a61272b565b905f5260205f20015403611bf75760048054611b9890600190612754565b81548110611ba857611ba861272b565b905f5260205f20015460048281548110611bc457611bc461272b565b5f918252602090912001556004805480611be057611be0612767565b600190038181905f5260205f20015f905590555050565b600101611b5c565b611c07611c3c565b6001600160a01b038116611c3057604051631e4fbdf760e01b81525f600482015260240161070c565b611c3981611c68565b50565b5f546001600160a01b031633146116015760405163118cdaa760e01b815233600482015260240161070c565b5f80546001600160a01b038381166001600160a01b0319831681178455604051919092169283917f8be0079c531659141344cd1fd0a4f28419497f9722a3daafe3b4186f6b6457e09190a35050565b828054828255905f5260205f20908101928215611cfb579160200282015b82811115611cfb5782518290611ceb9082612603565b5091602001919060010190611cd5565b50611d07929150611d6a565b5090565b828054828255905f5260205f20908101928215611d5e579160200282015b82811115611d5e57825182546001600160a01b0319166001600160a01b03909116178255602090920191600190910190611d29565b50611d07929150611d86565b80821115611d07575f611d7d8282611d9a565b50600101611d6a565b5b80821115611d07575f8155600101611d87565b508054611da69061252d565b5f825580601f10611db5575050565b601f0160209004905f5260205f2090810190611c399190611d86565b5f60208284031215611de1575f5ffd5b5035919050565b634e487b7160e01b5f52602160045260245ffd5b60068110611e0c57611e0c611de8565b9052565b60048110611e0c57611e0c611de8565b5f81518084528060208401602086015e5f602082860101526020601f19601f83011685010191505092915050565b888152611e5e6020820189611dfc565b611e6b6040820188611e10565b61010060608201525f611e82610100830188611e20565b8281036080840152611e948188611e20565b60a0840196909652505091151560c083015260e09091015295945050505050565b80356001600160a01b0381168114611ecb575f5ffd5b919050565b5f60208284031215611ee0575f5ffd5b611ee982611eb5565b9392505050565b5f602082016020835280845180835260408501915060408160051b8601019250602086015f5b82811015611fc257868503603f19018452815180516001600160a01b031686526020808201519087015260408082015190611f5390880182611e10565b50606081015160608701526080810151608087015260018060a01b0360a08201511660a087015260c081015161010060c0880152611f95610100880182611e20565b905060e08201519150611fac60e088018315159052565b9550506020938401939190910190600101611f16565b50929695505050505050565b803560068110611ecb575f5ffd5b803560048110611ecb575f5ffd5b634e487b7160e01b5f52604160045260245ffd5b604051601f8201601f191681016001600160401b038111828210171561202657612026611fea565b604052919050565b5f82601f83011261203d575f5ffd5b81356001600160401b0381111561205657612056611fea565b612069601f8201601f1916602001611ffe565b81815284602083860101111561207d575f5ffd5b816020850160208301375f918101602001919091529392505050565b5f82601f8301126120a8575f5ffd5b81356001600160401b038111156120c1576120c1611fea565b8060051b6120d160208201611ffe565b918252602081850181019290810190868411156120ec575f5ffd5b6020860192505b838310156121315782356001600160401b03811115612110575f5ffd5b61211f886020838a010161202e565b835250602092830192909101906120f3565b9695505050505050565b5f5f5f5f5f60a0868803121561214f575f5ffd5b61215886611fce565b945061216660208701611fdc565b935060408601356001600160401b03811115612180575f5ffd5b61218c8882890161202e565b93505060608601356001600160401b038111156121a7575f5ffd5b6121b38882890161202e565b92505060808601356001600160401b038111156121ce575f5ffd5b6121da88828901612099565b9150509295509295909350565b5f5f604083850312156121f8575f5ffd5b61220183611eb5565b946020939093013593505050565b6001600160a01b03891681526020810188905261222f6040820188611e10565b85606082015284608082015260018060a01b03841660a082015261010060c08201525f612260610100830185611e20565b905082151560e08301529998505050505050505050565b5f5f5f5f5f60a0868803121561228b575f5ffd5b61229486611eb5565b9450602086013593506122a960408701611fdc565b92506060860135915060808601356001600160401b038111156122ca575f5ffd5b6121da8882890161202e565b5f602082840312156122e6575f5ffd5b611ee982611fce565b602080825282518282018190525f918401906040840190835b81811015612326578351835260209384019390920191600101612308565b509095945050505050565b821515815260408101611ee96020830184611e10565b5f82825180855260208501945060208160051b830101602085015f5b8381101561239557601f1985840301885261237f838351611e20565b6020988901989093509190910190600101612363565b50909695505050505050565b5f8151808452602084019350602083015f5b828110156123da5781516001600160a01b03168652602095860195909101906001016123b3565b5093949350505050565b60208152815160208201525f60208301516124026040840182611dfc565b5060408301516124156060840182611e10565b5060608301516101406080840152612431610160840182611e20565b90506080840151601f198483030160a085015261244e8282611e20565b91505060a0840151601f198483030160c085015261246c8282612347565b91505060c084015160e084015260e084015161248d61010085018215159052565b50610100840151610120840152610120840151601f19848303016101408501526124b782826123a1565b95945050505050565b5f5f604083850312156124d1575f5ffd5b8235915060208301356001600160401b038111156124ed575f5ffd5b6124f985828601612099565b9150509250929050565b5f5f60408385031215612514575f5ffd5b8235915061252460208401611eb5565b90509250929050565b600181811c9082168061254157607f821691505b60208210810361255f57634e487b7160e01b5f52602260045260245ffd5b50919050565b5f6006861061257657612576611de8565b8560f81b82526004851061258c5761258c611de8565b8460f81b600183015283518060208601600285015e6002920191820192909252602201949350505050565b601f8211156125fe57805f5260205f20601f840160051c810160208510156125dc5750805b601f840160051c820191505b818110156125fb575f81556001016125e8565b50505b505050565b81516001600160401b0381111561261c5761261c611fea565b6126308161262a845461252d565b846125b7565b6020601f821160018114612662575f831561264b5750848201515b5f19600385901b1c1916600184901b1784556125fb565b5f84815260208120601f198516915b828110156126915787850151825560209485019460019092019101612671565b50848210156126ae57868401515f19600387901b60f8161c191681555b50505050600190811b01905550565b604081016126cb8285611dfc565b611ee96020830184611e10565b634e487b7160e01b5f52601160045260245ffd5b808201808211156126ff576126ff6126d8565b92915050565b5f60018201612716576127166126d8565b5060010190565b602081016126ff8284611e10565b634e487b7160e01b5f52603260045260245ffd5b5f8161274d5761274d6126d8565b505f190190565b818103818111156126ff576126ff6126d8565b634e487b7160e01b5f52603160045260245ffdfea264697066735822122096e3529f04ab2859f2800d8afc29ed3c1cd56e9797ee0bbd103b2d444a0cd73e64736f6c634300081c0033",
  "linkReferences": {},
  "deployedLinkReferences": {},
  "immutableReferences": {},
  "inputSourceName": "project/contracts/SentinelCrossProtocolStandards.sol",
  "buildInfoId": "solc-0_8_28-1b5c21a21cac4f08cf2c8993926ccb888320140e"
}