{
  "_format": "hh3-artifact-1",
  "contractName": "SentinelUniswapHook",
  "sourceName": "contracts/SentinelUniswapHook.sol",
  "abi": [
    {
      "anonymous": false,
      "inputs": [
        {
          "indexed": true,
          "internalType": "bytes32",
          "name": "poolId",
          "type": "bytes32"
        },
        {
          "indexed": false,
          "internalType": "uint256",
          "name": "severity",
          "type": "uint256"
        }
      ],
      "name": "AnomalyDetected",
      "type": "event"
    },
    {
      "anonymous": false,
      "inputs": [
        {
          "indexed": true,
          "internalType": "bytes32",
          "name": "poolId",
          "type": "bytes32"
        },
        {
          "indexed": false,
          "internalType": "uint24",
          "name": "oldFee",
          "type": "uint24"
        },
        {
          "indexed": false,
          "internalType": "uint24",
          "name": "newFee",
          "type": "uint24"
        }
      ],
      "name": "FeeAdjusted",
      "type": "event"
    },
    {
      "inputs": [],
      "name": "BASE_FEE",
      "outputs": [
        {
          "internalType": "uint24",
          "name": "",
          "type": "uint24"
        }
      ],
      "stateMutability": "view",
      "type": "function"
    },
    {
      "inputs": [],
      "name": "HIGH_SECURITY_FEE",
      "outputs": [
        {
          "internalType": "uint24",
          "name": "",
          "type": "uint24"
        }
      ],
      "stateMutability": "view",
      "type": "function"
    },
    {
      "inputs": [],
      "name": "LOW_SECURITY_FEE",
      "outputs": [
        {
          "internalType": "uint24",
          "name": "",
          "type": "uint24"
        }
      ],
      "stateMutability": "view",
      "type": "function"
    },
    {
      "inputs": [
        {
          "internalType": "bytes32",
          "name": "poolId",
          "type": "bytes32"
        }
      ],
      "name": "getPoolFee",
      "outputs": [
        {
          "internalType": "uint24",
          "name": "",
          "type": "uint24"
        }
      ],
      "stateMutability": "view",
      "type": "function"
    },
    {
      "inputs": [
        {
          "internalType": "bytes32",
          "name": "",
          "type": "bytes32"
        }
      ],
      "name": "poolAnomalyCount",
      "outputs": [
        {
          "internalType": "uint256",
          "name": "",
          "type": "uint256"
        }
      ],
      "stateMutability": "view",
      "type": "function"
    },
    {
      "inputs": [
        {
          "internalType": "bytes32",
          "name": "",
          "type": "bytes32"
        }
      ],
      "name": "poolSecurityScore",
      "outputs": [
        {
          "internalType": "uint256",
          "name": "",
          "type": "uint256"
        }
      ],
      "stateMutability": "view",
      "type": "function"
    },
    {
      "inputs": [
        {
          "internalType": "bytes32",
          "name": "poolId",
          "type": "bytes32"
        },
        {
          "internalType": "uint256",
          "name": "severity",
          "type": "uint256"
        }
      ],
      "name": "recordAnomaly",
      "outputs": [],
      "stateMutability": "nonpayable",
      "type": "function"
    },
    {
      "inputs": [
        {
          "internalType": "bytes32",
          "name": "poolId",
          "type": "bytes32"
        },
        {
          "internalType": "int256",
          "name": "amount",
          "type": "int256"
        }
      ],
      "name": "updateSecurityScore",
      "outputs": [],
      "stateMutability": "nonpayable",
      "type": "function"
    }
  ],
  "bytecode": "0x6080604052348015600e575f5ffd5b506103168061001c5f395ff3fe608060405234801561000f575f5ffd5b5060043610610085575f3560e01c8063b2d1fd1a11610058578063b2d1fd1a146100d2578063b33a4db6146100e5578063b93e40b7146100f8578063cc3d732314610125575f5ffd5b80631174f2d8146100895780633d18651e146100ab57806343f7fcd3146100b4578063a69115cf146100c9575b5f5ffd5b6100926103e881565b60405162ffffff90911681526020015b60405180910390f35b610092610bb881565b6100c76100c2366004610251565b610144565b005b61009261271081565b6100c76100e0366004610251565b6101a0565b6100926100f3366004610271565b610207565b610117610106366004610271565b60016020525f908152604090205481565b6040519081526020016100a2565b610117610133366004610271565b5f6020819052908152604090205481565b5f82815260016020526040812080549161015d8361029c565b9190505550817f82049ab1a1dded6f9505013e08965dc100a583bee68009fc7632982add3b9be98260405161019491815260200190565b60405180910390a25050565b5f82815260208190526040812054908213156101d5575f81116101c3575f6101ce565b6101ce6001826102b4565b90506101f2565b606481106101e45760646101ef565b6101ef8160016102cd565b90505b5f928352602083905260409092209190915550565b5f81815260208181526040808320546001909252822054600a81111561023257506103e89392505050565b605082111561024657506127109392505050565b50610bb89392505050565b5f5f60408385031215610262575f5ffd5b50508035926020909101359150565b5f60208284031215610281575f5ffd5b5035919050565b634e487b7160e01b5f52601160045260245ffd5b5f600182016102ad576102ad610288565b5060010190565b818103818111156102c7576102c7610288565b92915050565b808201808211156102c7576102c761028856fea2646970667358221220752e8c44283aaf607c4a0e66480f24985c7b52c7db257aded3022b5614bfcd3364736f6c634300081c0033",
  "linkReferences": {},
  "deployedLinkReferences": {},
  "immutableReferences": {},
  "inputSourceName": "project/contracts/SentinelUniswapHook.sol",
  "buildInfoId": "solc-0_8_28-1b5c21a21cac4f08cf2c8993926ccb888320140e"
}