{
  "_format": "hh3-artifact-1",
  "contractName": "SentinelGovernance",
  "sourceName": "contracts/SentinelGovernance.sol",
  "abi": [
    {
      "inputs": [
        {
          "internalType": "contract IVotes",
          "name": "_token",
          "type": "address"
        },
        {
          "internalType": "contract TimelockController",
          "name": "_timelock",
          "type": "address"
        }
      ],
      "stateMutability": "nonpayable",
      "type": "constructor"
    },
    {
      "inputs": [],
      "name": "CheckpointUnorderedInsertion",
      "type": "error"
    },
    {
      "inputs": [],
      "name": "FailedCall",
      "type": "error"
    },
    {
      "inputs": [
        {
          "internalType": "address",
          "name": "voter",
          "type": "address"
        }
      ],
      "name": "GovernorAlreadyCastVote",
      "type": "error"
    },
    {
      "inputs": [
        {
          "internalType": "uint256",
          "name": "proposalId",
          "type": "uint256"
        }
      ],
      "name": "GovernorAlreadyQueuedProposal",
      "type": "error"
    },
    {
      "inputs": [],
      "name": "GovernorDisabledDeposit",
      "type": "error"
    },
    {
      "inputs": [
        {
          "internalType": "address",
          "name": "proposer",
          "type": "address"
        },
        {
          "internalType": "uint256",
          "name": "votes",
          "type": "uint256"
        },
        {
          "internalType": "uint256",
          "name": "threshold",
          "type": "uint256"
        }
      ],
      "name": "GovernorInsufficientProposerVotes",
      "type": "error"
    },
    {
      "inputs": [
        {
          "internalType": "uint256",
          "name": "targets",
          "type": "uint256"
        },
        {
          "internalType": "uint256",
          "name": "calldatas",
          "type": "uint256"
        },
        {
          "internalType": "uint256",
          "name": "values",
          "type": "uint256"
        }
      ],
      "name": "GovernorInvalidProposalLength",
      "type": "error"
    },
    {
      "inputs": [
        {
          "internalType": "uint256",
          "name": "quorumNumerator",
          "type": "uint256"
        },
        {
          "internalType": "uint256",
          "name": "quorumDenominator",
          "type": "uint256"
        }
      ],
      "name": "GovernorInvalidQuorumFraction",
      "type": "error"
    },
    {
      "inputs": [
        {
          "internalType": "address",
          "name": "voter",
          "type": "address"
        }
      ],
      "name": "GovernorInvalidSignature",
      "type": "error"
    },
    {
      "inputs": [],
      "name": "GovernorInvalidVoteParams",
      "type": "error"
    },
    {
      "inputs": [],
      "name": "GovernorInvalidVoteType",
      "type": "error"
    },
    {
      "inputs": [
        {
          "internalType": "uint256",
          "name": "votingPeriod",
          "type": "uint256"
        }
      ],
      "name": "GovernorInvalidVotingPeriod",
      "type": "error"
    },
    {
      "inputs": [
        {
          "internalType": "uint256",
          "name": "proposalId",
          "type": "uint256"
        }
      ],
      "name": "GovernorNonexistentProposal",
      "type": "error"
    },
    {
      "inputs": [
        {
          "internalType": "uint256",
          "name": "proposalId",
          "type": "uint256"
        }
      ],
      "name": "GovernorNotQueuedProposal",
      "type": "error"
    },
    {
      "inputs": [
        {
          "internalType": "address",
          "name": "account",
          "type": "address"
        }
      ],
      "name": "GovernorOnlyExecutor",
      "type": "error"
    },
    {
      "inputs": [],
      "name": "GovernorQueueNotImplemented",
      "type": "error"
    },
    {
      "inputs": [
        {
          "internalType": "address",
          "name": "proposer",
          "type": "address"
        }
      ],
      "name": "GovernorRestrictedProposer",
      "type": "error"
    },
    {
      "inputs": [
        {
          "internalType": "uint256",
          "name": "proposalId",
          "type": "uint256"
        },
        {
          "internalType": "address",
          "name": "account",
          "type": "address"
        }
      ],
      "name": "GovernorUnableToCancel",
      "type": "error"
    },
    {
      "inputs": [
        {
          "internalType": "uint256",
          "name": "proposalId",
          "type": "uint256"
        },
        {
          "internalType": "enum IGovernor.ProposalState",
          "name": "current",
          "type": "uint8"
        },
        {
          "internalType": "bytes32",
          "name": "expectedStates",
          "type": "bytes32"
        }
      ],
      "name": "GovernorUnexpectedProposalState",
      "type": "error"
    },
    {
      "inputs": [
        {
          "internalType": "address",
          "name": "account",
          "type": "address"
        },
        {
          "internalType": "uint256",
          "name": "currentNonce",
          "type": "uint256"
        }
      ],
      "name": "InvalidAccountNonce",
      "type": "error"
    },
    {
      "inputs": [],
      "name": "InvalidShortString",
      "type": "error"
    },
    {
      "inputs": [
        {
          "internalType": "uint8",
          "name": "bits",
          "type": "uint8"
        },
        {
          "internalType": "uint256",
          "name": "value",
          "type": "uint256"
        }
      ],
      "name": "SafeCastOverflowedUintDowncast",
      "type": "error"
    },
    {
      "inputs": [
        {
          "internalType": "string",
          "name": "str",
          "type": "string"
        }
      ],
      "name": "StringTooLong",
      "type": "error"
    },
    {
      "anonymous": false,
      "inputs": [],
      "name": "EIP712DomainChanged",
      "type": "event"
    },
    {
      "anonymous": false,
      "inputs": [
        {
          "indexed": true,
          "internalType": "uint256",
          "name": "proposalId",
          "type": "uint256"
        },
        {
          "indexed": false,
          "internalType": "string",
          "name": "reason",
          "type": "string"
        }
      ],
      "name": "EmergencyProtocolActivated",
      "type": "event"
    },
    {
      "anonymous": false,
      "inputs": [
        {
          "indexed": true,
          "internalType": "uint256",
          "name": "proposalId",
          "type": "uint256"
        },
        {
          "indexed": false,
          "internalType": "enum SentinelGovernance.ProposalCategory",
          "name": "category",
          "type": "uint8"
        }
      ],
      "name": "EnhancedProposalCreated",
      "type": "event"
    },
    {
      "anonymous": false,
      "inputs": [
        {
          "indexed": true,
          "internalType": "address",
          "name": "voter",
          "type": "address"
        },
        {
          "indexed": false,
          "internalType": "uint256",
          "name": "newReputation",
          "type": "uint256"
        }
      ],
      "name": "GovernanceReputationUpdated",
      "type": "event"
    },
    {
      "anonymous": false,
      "inputs": [
        {
          "indexed": false,
          "internalType": "uint256",
          "name": "proposalId",
          "type": "uint256"
        }
      ],
      "name": "ProposalCanceled",
      "type": "event"
    },
    {
      "anonymous": false,
      "inputs": [
        {
          "indexed": false,
          "internalType": "uint256",
          "name": "proposalId",
          "type": "uint256"
        },
        {
          "indexed": false,
          "internalType": "address",
          "name": "proposer",
          "type": "address"
        },
        {
          "indexed": false,
          "internalType": "address[]",
          "name": "targets",
          "type": "address[]"
        },
        {
          "indexed": false,
          "internalType": "uint256[]",
          "name": "values",
          "type": "uint256[]"
        },
        {
          "indexed": false,
          "internalType": "string[]",
          "name": "signatures",
          "type": "string[]"
        },
        {
          "indexed": false,
          "internalType": "bytes[]",
          "name": "calldatas",
          "type": "bytes[]"
        },
        {
          "indexed": false,
          "internalType": "uint256",
          "name": "voteStart",
          "type": "uint256"
        },
        {
          "indexed": false,
          "internalType": "uint256",
          "name": "voteEnd",
          "type": "uint256"
        },
        {
          "indexed": false,
          "internalType": "string",
          "name": "description",
          "type": "string"
        }
      ],
      "name": "ProposalCreated",
      "type": "event"
    },
    {
      "anonymous": false,
      "inputs": [
        {
          "indexed": false,
          "internalType": "uint256",
          "name": "proposalId",
          "type": "uint256"
        }
      ],
      "name": "ProposalExecuted",
      "type": "event"
    },
    {
      "anonymous": false,
      "inputs": [
        {
          "indexed": false,
          "internalType": "uint256",
          "name": "proposalId",
          "type": "uint256"
        },
        {
          "indexed": false,
          "internalType": "uint256",
          "name": "etaSeconds",
          "type": "uint256"
        }
      ],
      "name": "ProposalQueued",
      "type": "event"
    },
    {
      "anonymous": false,
      "inputs": [
        {
          "indexed": false,
          "internalType": "uint256",
          "name": "oldProposalThreshold",
          "type": "uint256"
        },
        {
          "indexed": false,
          "internalType": "uint256",
          "name": "newProposalThreshold",
          "type": "uint256"
        }
      ],
      "name": "ProposalThresholdSet",
      "type": "event"
    },
    {
      "anonymous": false,
      "inputs": [
        {
          "indexed": false,
          "internalType": "uint256",
          "name": "oldQuorumNumerator",
          "type": "uint256"
        },
        {
          "indexed": false,
          "internalType": "uint256",
          "name": "newQuorumNumerator",
          "type": "uint256"
        }
      ],
      "name": "QuorumNumeratorUpdated",
      "type": "event"
    },
    {
      "anonymous": false,
      "inputs": [
        {
          "indexed": false,
          "internalType": "address",
          "name": "oldTimelock",
          "type": "address"
        },
        {
          "indexed": false,
          "internalType": "address",
          "name": "newTimelock",
          "type": "address"
        }
      ],
      "name": "TimelockChange",
      "type": "event"
    },
    {
      "anonymous": false,
      "inputs": [
        {
          "indexed": true,
          "internalType": "address",
          "name": "voter",
          "type": "address"
        },
        {
          "indexed": false,
          "internalType": "uint256",
          "name": "proposalId",
          "type": "uint256"
        },
        {
          "indexed": false,
          "internalType": "uint8",
          "name": "support",
          "type": "uint8"
        },
        {
          "indexed": false,
          "internalType": "uint256",
          "name": "weight",
          "type": "uint256"
        },
        {
          "indexed": false,
          "internalType": "string",
          "name": "reason",
          "type": "string"
        }
      ],
      "name": "VoteCast",
      "type": "event"
    },
    {
      "anonymous": false,
      "inputs": [
        {
          "indexed": true,
          "internalType": "address",
          "name": "voter",
          "type": "address"
        },
        {
          "indexed": false,
          "internalType": "uint256",
          "name": "proposalId",
          "type": "uint256"
        },
        {
          "indexed": false,
          "internalType": "uint8",
          "name": "support",
          "type": "uint8"
        },
        {
          "indexed": false,
          "internalType": "uint256",
          "name": "weight",
          "type": "uint256"
        },
        {
          "indexed": false,
          "internalType": "string",
          "name": "reason",
          "type": "string"
        },
        {
          "indexed": false,
          "internalType": "bytes",
          "name": "params",
          "type": "bytes"
        }
      ],
      "name": "VoteCastWithParams",
      "type": "event"
    },
    {
      "anonymous": false,
      "inputs": [
        {
          "indexed": false,
          "internalType": "uint256",
          "name": "oldVotingDelay",
          "type": "uint256"
        },
        {
          "indexed": false,
          "internalType": "uint256",
          "name": "newVotingDelay",
          "type": "uint256"
        }
      ],
      "name": "VotingDelaySet",
      "type": "event"
    },
    {
      "anonymous": false,
      "inputs": [
        {
          "indexed": false,
          "internalType": "uint256",
          "name": "oldVotingPeriod",
          "type": "uint256"
        },
        {
          "indexed": false,
          "internalType": "uint256",
          "name": "newVotingPeriod",
          "type": "uint256"
        }
      ],
      "name": "VotingPeriodSet",
      "type": "event"
    },
    {
      "inputs": [],
      "name": "BALLOT_TYPEHASH",
      "outputs": [
        {
          "internalType": "bytes32",
          "name": "",
          "type": "bytes32"
        }
      ],
      "stateMutability": "view",
      "type": "function"
    },
    {
      "inputs": [],
      "name": "CLOCK_MODE",
      "outputs": [
        {
          "internalType": "string",
          "name": "",
          "type": "string"
        }
      ],
      "stateMutability": "view",
      "type": "function"
    },
    {
      "inputs": [],
      "name": "COUNTING_MODE",
      "outputs": [
        {
          "internalType": "string",
          "name": "",
          "type": "string"
        }
      ],
      "stateMutability": "pure",
      "type": "function"
    },
    {
      "inputs": [],
      "name": "CRITICAL_QUORUM_PERCENTAGE",
      "outputs": [
        {
          "internalType": "uint256",
          "name": "",
          "type": "uint256"
        }
      ],
      "stateMutability": "view",
      "type": "function"
    },
    {
      "inputs": [],
      "name": "CRITICAL_VOTING_PERIOD",
      "outputs": [
        {
          "internalType": "uint256",
          "name": "",
          "type": "uint256"
        }
      ],
      "stateMutability": "view",
      "type": "function"
    },
    {
      "inputs": [],
      "name": "EMERGENCY_QUORUM_PERCENTAGE",
      "outputs": [
        {
          "internalType": "uint256",
          "name": "",
          "type": "uint256"
        }
      ],
      "stateMutability": "view",
      "type": "function"
    },
    {
      "inputs": [],
      "name": "EMERGENCY_VOTING_PERIOD",
      "outputs": [
        {
          "internalType": "uint256",
          "name": "",
          "type": "uint256"
        }
      ],
      "stateMutability": "view",
      "type": "function"
    },
    {
      "inputs": [],
      "name": "EXECUTION_GRACE_PERIOD",
      "outputs": [
        {
          "internalType": "uint256",
          "name": "",
          "type": "uint256"
        }
      ],
      "stateMutability": "view",
      "type": "function"
    },
    {
      "inputs": [],
      "name": "EXTENDED_BALLOT_TYPEHASH",
      "outputs": [
        {
          "internalType": "bytes32",
          "name": "",
          "type": "bytes32"
        }
      ],
      "stateMutability": "view",
      "type": "function"
    },
    {
      "inputs": [],
      "name": "MAX_VOTING_DELAY",
      "outputs": [
        {
          "internalType": "uint256",
          "name": "",
          "type": "uint256"
        }
      ],
      "stateMutability": "view",
      "type": "function"
    },
    {
      "inputs": [],
      "name": "MAX_VOTING_PERIOD",
      "outputs": [
        {
          "internalType": "uint256",
          "name": "",
          "type": "uint256"
        }
      ],
      "stateMutability": "view",
      "type": "function"
    },
    {
      "inputs": [],
      "name": "MIN_VOTING_DELAY",
      "outputs": [
        {
          "internalType": "uint256",
          "name": "",
          "type": "uint256"
        }
      ],
      "stateMutability": "view",
      "type": "function"
    },
    {
      "inputs": [],
      "name": "MIN_VOTING_PERIOD",
      "outputs": [
        {
          "internalType": "uint256",
          "name": "",
          "type": "uint256"
        }
      ],
      "stateMutability": "view",
      "type": "function"
    },
    {
      "inputs": [
        {
          "internalType": "uint256",
          "name": "proposalId",
          "type": "uint256"
        }
      ],
      "name": "canExecute",
      "outputs": [
        {
          "internalType": "bool",
          "name": "",
          "type": "bool"
        }
      ],
      "stateMutability": "view",
      "type": "function"
    },
    {
      "inputs": [
        {
          "internalType": "address[]",
          "name": "targets",
          "type": "address[]"
        },
        {
          "internalType": "uint256[]",
          "name": "values",
          "type": "uint256[]"
        },
        {
          "internalType": "bytes[]",
          "name": "calldatas",
          "type": "bytes[]"
        },
        {
          "internalType": "bytes32",
          "name": "descriptionHash",
          "type": "bytes32"
        }
      ],
      "name": "cancel",
      "outputs": [
        {
          "internalType": "uint256",
          "name": "",
          "type": "uint256"
        }
      ],
      "stateMutability": "nonpayable",
      "type": "function"
    },
    {
      "inputs": [
        {
          "internalType": "uint256",
          "name": "proposalId",
          "type": "uint256"
        },
        {
          "internalType": "uint8",
          "name": "support",
          "type": "uint8"
        }
      ],
      "name": "castVote",
      "outputs": [
        {
          "internalType": "uint256",
          "name": "",
          "type": "uint256"
        }
      ],
      "stateMutability": "nonpayable",
      "type": "function"
    },
    {
      "inputs": [
        {
          "internalType": "uint256",
          "name": "proposalId",
          "type": "uint256"
        },
        {
          "internalType": "uint8",
          "name": "support",
          "type": "uint8"
        },
        {
          "internalType": "address",
          "name": "voter",
          "type": "address"
        },
        {
          "internalType": "bytes",
          "name": "signature",
          "type": "bytes"
        }
      ],
      "name": "castVoteBySig",
      "outputs": [
        {
          "internalType": "uint256",
          "name": "",
          "type": "uint256"
        }
      ],
      "stateMutability": "nonpayable",
      "type": "function"
    },
    {
      "inputs": [
        {
          "internalType": "uint256",
          "name": "proposalId",
          "type": "uint256"
        },
        {
          "internalType": "uint8",
          "name": "support",
          "type": "uint8"
        },
        {
          "internalType": "string",
          "name": "reason",
          "type": "string"
        }
      ],
      "name": "castVoteWithReason",
      "outputs": [
        {
          "internalType": "uint256",
          "name": "",
          "type": "uint256"
        }
      ],
      "stateMutability": "nonpayable",
      "type": "function"
    },
    {
      "inputs": [
        {
          "internalType": "uint256",
          "name": "proposalId",
          "type": "uint256"
        },
        {
          "internalType": "uint8",
          "name": "support",
          "type": "uint8"
        },
        {
          "internalType": "string",
          "name": "reason",
          "type": "string"
        },
        {
          "internalType": "bytes",
          "name": "params",
          "type": "bytes"
        }
      ],
      "name": "castVoteWithReasonAndParams",
      "outputs": [
        {
          "internalType": "uint256",
          "name": "",
          "type": "uint256"
        }
      ],
      "stateMutability": "nonpayable",
      "type": "function"
    },
    {
      "inputs": [
        {
          "internalType": "uint256",
          "name": "proposalId",
          "type": "uint256"
        },
        {
          "internalType": "uint8",
          "name": "support",
          "type": "uint8"
        },
        {
          "internalType": "address",
          "name": "voter",
          "type": "address"
        },
        {
          "internalType": "string",
          "name": "reason",
          "type": "string"
        },
        {
          "internalType": "bytes",
          "name": "params",
          "type": "bytes"
        },
        {
          "internalType": "bytes",
          "name": "signature",
          "type": "bytes"
        }
      ],
      "name": "castVoteWithReasonAndParamsBySig",
      "outputs": [
        {
          "internalType": "uint256",
          "name": "",
          "type": "uint256"
        }
      ],
      "stateMutability": "nonpayable",
      "type": "function"
    },
    {
      "inputs": [],
      "name": "clock",
      "outputs": [
        {
          "internalType": "uint48",
          "name": "",
          "type": "uint48"
        }
      ],
      "stateMutability": "view",
      "type": "function"
    },
    {
      "inputs": [],
      "name": "eip712Domain",
      "outputs": [
        {
          "internalType": "bytes1",
          "name": "fields",
          "type": "bytes1"
        },
        {
          "internalType": "string",
          "name": "name",
          "type": "string"
        },
        {
          "internalType": "string",
          "name": "version",
          "type": "string"
        },
        {
          "internalType": "uint256",
          "name": "chainId",
          "type": "uint256"
        },
        {
          "internalType": "address",
          "name": "verifyingContract",
          "type": "address"
        },
        {
          "internalType": "bytes32",
          "name": "salt",
          "type": "bytes32"
        },
        {
          "internalType": "uint256[]",
          "name": "extensions",
          "type": "uint256[]"
        }
      ],
      "stateMutability": "view",
      "type": "function"
    },
    {
      "inputs": [],
      "name": "emergencyProposalsExecuted",
      "outputs": [
        {
          "internalType": "uint256",
          "name": "",
          "type": "uint256"
        }
      ],
      "stateMutability": "view",
      "type": "function"
    },
    {
      "inputs": [
        {
          "internalType": "address",
          "name": "",
          "type": "address"
        }
      ],
      "name": "emergencyVoters",
      "outputs": [
        {
          "internalType": "bool",
          "name": "",
          "type": "bool"
        }
      ],
      "stateMutability": "view",
      "type": "function"
    },
    {
      "inputs": [
        {
          "internalType": "uint256",
          "name": "",
          "type": "uint256"
        }
      ],
      "name": "enhancedProposals",
      "outputs": [
        {
          "internalType": "uint256",
          "name": "id",
          "type": "uint256"
        },
        {
          "internalType": "enum SentinelGovernance.ProposalCategory",
          "name": "category",
          "type": "uint8"
        },
        {
          "internalType": "uint256",
          "name": "securityImpact",
          "type": "uint256"
        },
        {
          "internalType": "uint256",
          "name": "economicImpact",
          "type": "uint256"
        },
        {
          "internalType": "bool",
          "name": "requiresQuantumValidation",
          "type": "bool"
        },
        {
          "internalType": "bytes32",
          "name": "quantumProof",
          "type": "bytes32"
        }
      ],
      "stateMutability": "view",
      "type": "function"
    },
    {
      "inputs": [
        {
          "internalType": "address[]",
          "name": "targets",
          "type": "address[]"
        },
        {
          "internalType": "uint256[]",
          "name": "values",
          "type": "uint256[]"
        },
        {
          "internalType": "bytes[]",
          "name": "calldatas",
          "type": "bytes[]"
        },
        {
          "internalType": "bytes32",
          "name": "descriptionHash",
          "type": "bytes32"
        }
      ],
      "name": "execute",
      "outputs": [
        {
          "internalType": "uint256",
          "name": "",
          "type": "uint256"
        }
      ],
      "stateMutability": "payable",
      "type": "function"
    },
    {
      "inputs": [],
      "name": "getGovernanceStats",
      "outputs": [
        {
          "internalType": "uint256",
          "name": "totalProposals",
          "type": "uint256"
        },
        {
          "internalType": "uint256",
          "name": "activeProposals",
          "type": "uint256"
        },
        {
          "internalType": "uint256",
          "name": "executedProposals",
          "type": "uint256"
        },
        {
          "internalType": "uint256",
          "name": "averageVotingParticipation",
          "type": "uint256"
        }
      ],
      "stateMutability": "view",
      "type": "function"
    },
    {
      "inputs": [
        {
          "internalType": "address[]",
          "name": "targets",
          "type": "address[]"
        },
        {
          "internalType": "uint256[]",
          "name": "values",
          "type": "uint256[]"
        },
        {
          "internalType": "bytes[]",
          "name": "calldatas",
          "type": "bytes[]"
        },
        {
          "internalType": "bytes32",
          "name": "descriptionHash",
          "type": "bytes32"
        }
      ],
      "name": "getProposalId",
      "outputs": [
        {
          "internalType": "uint256",
          "name": "",
          "type": "uint256"
        }
      ],
      "stateMutability": "view",
      "type": "function"
    },
    {
      "inputs": [
        {
          "internalType": "address",
          "name": "account",
          "type": "address"
        },
        {
          "internalType": "uint256",
          "name": "timepoint",
          "type": "uint256"
        }
      ],
      "name": "getVotes",
      "outputs": [
        {
          "internalType": "uint256",
          "name": "",
          "type": "uint256"
        }
      ],
      "stateMutability": "view",
      "type": "function"
    },
    {
      "inputs": [
        {
          "internalType": "address",
          "name": "account",
          "type": "address"
        },
        {
          "internalType": "uint256",
          "name": "timepoint",
          "type": "uint256"
        },
        {
          "internalType": "bytes",
          "name": "params",
          "type": "bytes"
        }
      ],
      "name": "getVotesWithParams",
      "outputs": [
        {
          "internalType": "uint256",
          "name": "",
          "type": "uint256"
        }
      ],
      "stateMutability": "view",
      "type": "function"
    },
    {
      "inputs": [
        {
          "internalType": "uint256",
          "name": "proposalId",
          "type": "uint256"
        }
      ],
      "name": "getVotingParameters",
      "outputs": [
        {
          "internalType": "uint256",
          "name": "delay",
          "type": "uint256"
        },
        {
          "internalType": "uint256",
          "name": "period",
          "type": "uint256"
        },
        {
          "internalType": "uint256",
          "name": "quorumPercentage",
          "type": "uint256"
        }
      ],
      "stateMutability": "view",
      "type": "function"
    },
    {
      "inputs": [
        {
          "internalType": "address",
          "name": "",
          "type": "address"
        }
      ],
      "name": "governanceReputation",
      "outputs": [
        {
          "internalType": "uint256",
          "name": "",
          "type": "uint256"
        }
      ],
      "stateMutability": "view",
      "type": "function"
    },
    {
      "inputs": [
        {
          "internalType": "uint256",
          "name": "proposalId",
          "type": "uint256"
        },
        {
          "internalType": "address",
          "name": "account",
          "type": "address"
        }
      ],
      "name": "hasVoted",
      "outputs": [
        {
          "internalType": "bool",
          "name": "",
          "type": "bool"
        }
      ],
      "stateMutability": "view",
      "type": "function"
    },
    {
      "inputs": [
        {
          "internalType": "address[]",
          "name": "targets",
          "type": "address[]"
        },
        {
          "internalType": "uint256[]",
          "name": "values",
          "type": "uint256[]"
        },
        {
          "internalType": "bytes[]",
          "name": "calldatas",
          "type": "bytes[]"
        },
        {
          "internalType": "bytes32",
          "name": "descriptionHash",
          "type": "bytes32"
        }
      ],
      "name": "hashProposal",
      "outputs": [
        {
          "internalType": "uint256",
          "name": "",
          "type": "uint256"
        }
      ],
      "stateMutability": "pure",
      "type": "function"
    },
    {
      "inputs": [],
      "name": "name",
      "outputs": [
        {
          "internalType": "string",
          "name": "",
          "type": "string"
        }
      ],
      "stateMutability": "view",
      "type": "function"
    },
    {
      "inputs": [
        {
          "internalType": "address",
          "name": "owner",
          "type": "address"
        }
      ],
      "name": "nonces",
      "outputs": [
        {
          "internalType": "uint256",
          "name": "",
          "type": "uint256"
        }
      ],
      "stateMutability": "view",
      "type": "function"
    },
    {
      "inputs": [
        {
          "internalType": "address",
          "name": "",
          "type": "address"
        },
        {
          "internalType": "address",
          "name": "",
          "type": "address"
        },
        {
          "internalType": "uint256[]",
          "name": "",
          "type": "uint256[]"
        },
        {
          "internalType": "uint256[]",
          "name": "",
          "type": "uint256[]"
        },
        {
          "internalType": "bytes",
          "name": "",
          "type": "bytes"
        }
      ],
      "name": "onERC1155BatchReceived",
      "outputs": [
        {
          "internalType": "bytes4",
          "name": "",
          "type": "bytes4"
        }
      ],
      "stateMutability": "nonpayable",
      "type": "function"
    },
    {
      "inputs": [
        {
          "internalType": "address",
          "name": "",
          "type": "address"
        },
        {
          "internalType": "address",
          "name": "",
          "type": "address"
        },
        {
          "internalType": "uint256",
          "name": "",
          "type": "uint256"
        },
        {
          "internalType": "uint256",
          "name": "",
          "type": "uint256"
        },
        {
          "internalType": "bytes",
          "name": "",
          "type": "bytes"
        }
      ],
      "name": "onERC1155Received",
      "outputs": [
        {
          "internalType": "bytes4",
          "name": "",
          "type": "bytes4"
        }
      ],
      "stateMutability": "nonpayable",
      "type": "function"
    },
    {
      "inputs": [
        {
          "internalType": "address",
          "name": "",
          "type": "address"
        },
        {
          "internalType": "address",
          "name": "",
          "type": "address"
        },
        {
          "internalType": "uint256",
          "name": "",
          "type": "uint256"
        },
        {
          "internalType": "bytes",
          "name": "",
          "type": "bytes"
        }
      ],
      "name": "onERC721Received",
      "outputs": [
        {
          "internalType": "bytes4",
          "name": "",
          "type": "bytes4"
        }
      ],
      "stateMutability": "nonpayable",
      "type": "function"
    },
    {
      "inputs": [
        {
          "internalType": "uint256",
          "name": "proposalId",
          "type": "uint256"
        }
      ],
      "name": "proposalDeadline",
      "outputs": [
        {
          "internalType": "uint256",
          "name": "",
          "type": "uint256"
        }
      ],
      "stateMutability": "view",
      "type": "function"
    },
    {
      "inputs": [
        {
          "internalType": "uint256",
          "name": "proposalId",
          "type": "uint256"
        }
      ],
      "name": "proposalEta",
      "outputs": [
        {
          "internalType": "uint256",
          "name": "",
          "type": "uint256"
        }
      ],
      "stateMutability": "view",
      "type": "function"
    },
    {
      "inputs": [
        {
          "internalType": "uint256",
          "name": "proposalId",
          "type": "uint256"
        }
      ],
      "name": "proposalNeedsQueuing",
      "outputs": [
        {
          "internalType": "bool",
          "name": "",
          "type": "bool"
        }
      ],
      "stateMutability": "view",
      "type": "function"
    },
    {
      "inputs": [
        {
          "internalType": "uint256",
          "name": "proposalId",
          "type": "uint256"
        }
      ],
      "name": "proposalProposer",
      "outputs": [
        {
          "internalType": "address",
          "name": "",
          "type": "address"
        }
      ],
      "stateMutability": "view",
      "type": "function"
    },
    {
      "inputs": [
        {
          "internalType": "uint256",
          "name": "proposalId",
          "type": "uint256"
        }
      ],
      "name": "proposalSnapshot",
      "outputs": [
        {
          "internalType": "uint256",
          "name": "",
          "type": "uint256"
        }
      ],
      "stateMutability": "view",
      "type": "function"
    },
    {
      "inputs": [],
      "name": "proposalThreshold",
      "outputs": [
        {
          "internalType": "uint256",
          "name": "",
          "type": "uint256"
        }
      ],
      "stateMutability": "view",
      "type": "function"
    },
    {
      "inputs": [
        {
          "internalType": "uint256",
          "name": "proposalId",
          "type": "uint256"
        }
      ],
      "name": "proposalVotes",
      "outputs": [
        {
          "internalType": "uint256",
          "name": "againstVotes",
          "type": "uint256"
        },
        {
          "internalType": "uint256",
          "name": "forVotes",
          "type": "uint256"
        },
        {
          "internalType": "uint256",
          "name": "abstainVotes",
          "type": "uint256"
        }
      ],
      "stateMutability": "view",
      "type": "function"
    },
    {
      "inputs": [
        {
          "internalType": "address[]",
          "name": "targets",
          "type": "address[]"
        },
        {
          "internalType": "uint256[]",
          "name": "values",
          "type": "uint256[]"
        },
        {
          "internalType": "bytes[]",
          "name": "calldatas",
          "type": "bytes[]"
        },
        {
          "internalType": "string",
          "name": "description",
          "type": "string"
        }
      ],
      "name": "propose",
      "outputs": [
        {
          "internalType": "uint256",
          "name": "",
          "type": "uint256"
        }
      ],
      "stateMutability": "nonpayable",
      "type": "function"
    },
    {
      "inputs": [
        {
          "internalType": "address[]",
          "name": "targets",
          "type": "address[]"
        },
        {
          "internalType": "uint256[]",
          "name": "values",
          "type": "uint256[]"
        },
        {
          "internalType": "bytes[]",
          "name": "calldatas",
          "type": "bytes[]"
        },
        {
          "internalType": "string",
          "name": "description",
          "type": "string"
        }
      ],
      "name": "proposeEmergency",
      "outputs": [
        {
          "internalType": "uint256",
          "name": "",
          "type": "uint256"
        }
      ],
      "stateMutability": "nonpayable",
      "type": "function"
    },
    {
      "inputs": [
        {
          "internalType": "address[]",
          "name": "targets",
          "type": "address[]"
        },
        {
          "internalType": "uint256[]",
          "name": "values",
          "type": "uint256[]"
        },
        {
          "internalType": "bytes[]",
          "name": "calldatas",
          "type": "bytes[]"
        },
        {
          "internalType": "string",
          "name": "description",
          "type": "string"
        },
        {
          "internalType": "enum SentinelGovernance.ProposalCategory",
          "name": "category",
          "type": "uint8"
        },
        {
          "internalType": "uint256",
          "name": "securityImpact",
          "type": "uint256"
        },
        {
          "internalType": "uint256",
          "name": "economicImpact",
          "type": "uint256"
        }
      ],
      "name": "proposeEnhanced",
      "outputs": [
        {
          "internalType": "uint256",
          "name": "",
          "type": "uint256"
        }
      ],
      "stateMutability": "nonpayable",
      "type": "function"
    },
    {
      "inputs": [
        {
          "internalType": "address[]",
          "name": "targets",
          "type": "address[]"
        },
        {
          "internalType": "uint256[]",
          "name": "values",
          "type": "uint256[]"
        },
        {
          "internalType": "bytes[]",
          "name": "calldatas",
          "type": "bytes[]"
        },
        {
          "internalType": "bytes32",
          "name": "descriptionHash",
          "type": "bytes32"
        }
      ],
      "name": "queue",
      "outputs": [
        {
          "internalType": "uint256",
          "name": "",
          "type": "uint256"
        }
      ],
      "stateMutability": "nonpayable",
      "type": "function"
    },
    {
      "inputs": [
        {
          "internalType": "uint256",
          "name": "timepoint",
          "type": "uint256"
        }
      ],
      "name": "quorum",
      "outputs": [
        {
          "internalType": "uint256",
          "name": "",
          "type": "uint256"
        }
      ],
      "stateMutability": "view",
      "type": "function"
    },
    {
      "inputs": [],
      "name": "quorumDenominator",
      "outputs": [
        {
          "internalType": "uint256",
          "name": "",
          "type": "uint256"
        }
      ],
      "stateMutability": "view",
      "type": "function"
    },
    {
      "inputs": [
        {
          "internalType": "uint256",
          "name": "timepoint",
          "type": "uint256"
        }
      ],
      "name": "quorumNumerator",
      "outputs": [
        {
          "internalType": "uint256",
          "name": "",
          "type": "uint256"
        }
      ],
      "stateMutability": "view",
      "type": "function"
    },
    {
      "inputs": [],
      "name": "quorumNumerator",
      "outputs": [
        {
          "internalType": "uint256",
          "name": "",
          "type": "uint256"
        }
      ],
      "stateMutability": "view",
      "type": "function"
    },
    {
      "inputs": [
        {
          "internalType": "address",
          "name": "target",
          "type": "address"
        },
        {
          "internalType": "uint256",
          "name": "value",
          "type": "uint256"
        },
        {
          "internalType": "bytes",
          "name": "data",
          "type": "bytes"
        }
      ],
      "name": "relay",
      "outputs": [],
      "stateMutability": "payable",
      "type": "function"
    },
    {
      "inputs": [],
      "name": "securityProposalsExecuted",
      "outputs": [
        {
          "internalType": "uint256",
          "name": "",
          "type": "uint256"
        }
      ],
      "stateMutability": "view",
      "type": "function"
    },
    {
      "inputs": [
        {
          "internalType": "uint256",
          "name": "newProposalThreshold",
          "type": "uint256"
        }
      ],
      "name": "setProposalThreshold",
      "outputs": [],
      "stateMutability": "nonpayable",
      "type": "function"
    },
    {
      "inputs": [
        {
          "internalType": "uint48",
          "name": "newVotingDelay",
          "type": "uint48"
        }
      ],
      "name": "setVotingDelay",
      "outputs": [],
      "stateMutability": "nonpayable",
      "type": "function"
    },
    {
      "inputs": [
        {
          "internalType": "uint32",
          "name": "newVotingPeriod",
          "type": "uint32"
        }
      ],
      "name": "setVotingPeriod",
      "outputs": [],
      "stateMutability": "nonpayable",
      "type": "function"
    },
    {
      "inputs": [
        {
          "internalType": "uint256",
          "name": "proposalId",
          "type": "uint256"
        }
      ],
      "name": "state",
      "outputs": [
        {
          "internalType": "enum IGovernor.ProposalState",
          "name": "",
          "type": "uint8"
        }
      ],
      "stateMutability": "view",
      "type": "function"
    },
    {
      "inputs": [
        {
          "internalType": "bytes4",
          "name": "interfaceId",
          "type": "bytes4"
        }
      ],
      "name": "supportsInterface",
      "outputs": [
        {
          "internalType": "bool",
          "name": "",
          "type": "bool"
        }
      ],
      "stateMutability": "view",
      "type": "function"
    },
    {
      "inputs": [],
      "name": "timelock",
      "outputs": [
        {
          "internalType": "address",
          "name": "",
          "type": "address"
        }
      ],
      "stateMutability": "view",
      "type": "function"
    },
    {
      "inputs": [],
      "name": "token",
      "outputs": [
        {
          "internalType": "contract IERC5805",
          "name": "",
          "type": "address"
        }
      ],
      "stateMutability": "view",
      "type": "function"
    },
    {
      "inputs": [],
      "name": "totalProposalsCreated",
      "outputs": [
        {
          "internalType": "uint256",
          "name": "",
          "type": "uint256"
        }
      ],
      "stateMutability": "view",
      "type": "function"
    },
    {
      "inputs": [],
      "name": "totalProposalsExecuted",
      "outputs": [
        {
          "internalType": "uint256",
          "name": "",
          "type": "uint256"
        }
      ],
      "stateMutability": "view",
      "type": "function"
    },
    {
      "inputs": [
        {
          "internalType": "uint256",
          "name": "newQuorumNumerator",
          "type": "uint256"
        }
      ],
      "name": "updateQuorumNumerator",
      "outputs": [],
      "stateMutability": "nonpayable",
      "type": "function"
    },
    {
      "inputs": [
        {
          "internalType": "contract TimelockController",
          "name": "newTimelock",
          "type": "address"
        }
      ],
      "name": "updateTimelock",
      "outputs": [],
      "stateMutability": "nonpayable",
      "type": "function"
    },
    {
      "inputs": [],
      "name": "version",
      "outputs": [
        {
          "internalType": "string",
          "name": "",
          "type": "string"
        }
      ],
      "stateMutability": "view",
      "type": "function"
    },
    {
      "inputs": [],
      "name": "votingDelay",
      "outputs": [
        {
          "internalType": "uint256",
          "name": "",
          "type": "uint256"
        }
      ],
      "stateMutability": "pure",
      "type": "function"
    },
    {
      "inputs": [],
      "name": "votingPeriod",
      "outputs": [
        {
          "internalType": "uint256",
          "name": "",
          "type": "uint256"
        }
      ],
      "stateMutability": "pure",
      "type": "function"
    },
    {
      "stateMutability": "payable",
      "type": "receive"
    }
  ],
  "bytecode": "0x610180604052348015610010575f5ffd5b5060405161592f38038061592f83398101604081905261002f91610729565b806004836201518062093a806127106040518060400160405280601281526020017153656e74696e656c476f7665726e616e636560701b8152508061007861017b60201b60201c565b610082825f610196565b61012052610091816001610196565b61014052815160208084019190912060e052815190820120610100524660a05261011d60e05161010051604080517f8b73c3c69bb8fe3d512ecc4cf759cc79239f7b179b0ffacaa9a75d522b39400f60208201529081019290925260608201524660808201523060a08201525f9060c00160405160208183030381529060405280519060200120905090565b60805250503060c052600361013282826107f9565b5061013e9050836101c8565b6101478261022e565b610150816102d2565b5050506001600160a01b03166101605261016981610313565b50610173816103a8565b50505061094f565b6040805180820190915260018152603160f81b602082015290565b5f6020835110156101b1576101aa83610411565b90506101c2565b816101bc84826107f9565b5060ff90505b92915050565b6008546040805165ffffffffffff928316815291831660208301527fc565b045403dc03c2eea82b81a0465edad9e2e7fc4d97e11421c209da93d7a93910160405180910390a16008805465ffffffffffff191665ffffffffffff92909216919091179055565b8063ffffffff165f0361025b5760405163f1cfbf0560e01b81525f60048201526024015b60405180910390fd5b6008546040805163ffffffff66010000000000009093048316815291831660208301527f7e3f7f0708a84de9203036abaa450dccc85ad5ff52f78c170f3edb55cf5e8828910160405180910390a16008805463ffffffff90921666010000000000000263ffffffff60301b19909216919091179055565b60075460408051918252602082018390527fccb45da8d5717e6c4544694297c4ba5cf151d455c9bb0ed4fc7a38411bc05461910160405180910390a1600755565b6064808211156103405760405163243e544560e01b81526004810183905260248101829052604401610252565b5f61034961044e565b9050610368610356610467565b61035f856104e1565b600a9190610518565b505060408051828152602081018590527f0553476bf02ef2726e8ce5ced78d63e26e602e4a2257b1f559418e24b4633997910160405180910390a1505050565b600b54604080516001600160a01b03928316815291831660208301527f08f74ea46ef7894f65eabfb5e6e695de773a000b47c529ab559178069b226401910160405180910390a1600b80546001600160a01b0319166001600160a01b0392909216919091179055565b5f5f829050601f8151111561043b578260405163305a27a960e01b815260040161025291906108b3565b8051610446826108e8565b179392505050565b5f610459600a610532565b6001600160d01b0316905090565b5f6104726101605190565b6001600160a01b03166391ddadf46040518163ffffffff1660e01b8152600401602060405180830381865afa9250505080156104cb575060408051601f3d908101601f191682019092526104c89181019061090b565b60015b6104dc576104d761057a565b905090565b919050565b5f6001600160d01b03821115610514576040516306dfcc6560e41b815260d0600482015260248101839052604401610252565b5090565b5f80610525858585610584565b915091505b935093915050565b80545f908015610571576105588361054b600184610930565b5f91825260209091200190565b54660100000000000090046001600160d01b0316610573565b5f5b9392505050565b5f6104d7436106e0565b82545f9081908015610683575f6105a08761054b600185610930565b805490915065ffffffffffff80821691660100000000000090046001600160d01b03169088168211156105e657604051632520601d60e01b815260040160405180910390fd5b8765ffffffffffff168265ffffffffffff160361062257825465ffffffffffff1666010000000000006001600160d01b03891602178355610675565b6040805180820190915265ffffffffffff808a1682526001600160d01b03808a1660208085019182528d54600181018f555f8f815291909120945191519092166601000000000000029216919091179101555b945085935061052a92505050565b50506040805180820190915265ffffffffffff80851682526001600160d01b0380851660208085019182528854600181018a555f8a815291822095519251909316660100000000000002919093161792019190915590508161052a565b5f65ffffffffffff821115610514576040516306dfcc6560e41b81526030600482015260248101839052604401610252565b6001600160a01b0381168114610726575f5ffd5b50565b5f5f6040838503121561073a575f5ffd5b825161074581610712565b602084015190925061075681610712565b809150509250929050565b634e487b7160e01b5f52604160045260245ffd5b600181811c9082168061078957607f821691505b6020821081036107a757634e487b7160e01b5f52602260045260245ffd5b50919050565b601f8211156107f457805f5260205f20601f840160051c810160208510156107d25750805b601f840160051c820191505b818110156107f1575f81556001016107de565b50505b505050565b81516001600160401b0381111561081257610812610761565b610826816108208454610775565b846107ad565b6020601f821160018114610858575f83156108415750848201515b5f19600385901b1c1916600184901b1784556107f1565b5f84815260208120601f198516915b828110156108875787850151825560209485019460019092019101610867565b50848210156108a457868401515f19600387901b60f8161c191681555b50505050600190811b01905550565b602081525f82518060208401528060208501604085015e5f604082850101526040601f19601f83011684010191505092915050565b805160208083015191908110156107a7575f1960209190910360031b1b16919050565b5f6020828403121561091b575f5ffd5b815165ffffffffffff81168114610573575f5ffd5b818103818111156101c257634e487b7160e01b5f52601160045260245ffd5b60805160a05160c05160e05161010051610120516101405161016051614f696109c65f395f8181610d780152818161137c0152818161171c01528181611e9d015261299901525f6128dd01525f6128b101525f61395b01525f61393301525f61388e01525f6138b801525f6138e20152614f695ff3fe6080604052600436106103f8575f3560e01c806384b0196e1161020a578063bc197c811161011e578063df91f748116100a8578063ece40cc111610078578063ece40cc114610cdf578063f23a6e6114610cfe578063f8ce560a14610d1d578063fa9483bc14610d3c578063fc0c546a14610d6a575f5ffd5b8063df91f74814610c57578063e48083fe14610c8b578063e540d01d14610ca1578063eb9019d414610cc0575f5ffd5b8063cc63604a116100ee578063cc63604a14610b3c578063cd86d87814610b5b578063d33219b414610bc2578063dd4e2ba514610bdf578063deaaa7cc14610c24575f5ffd5b8063bc197c8114610acc578063c01f9e3714610aeb578063c28bc2fa14610b0a578063c59057e414610b1d575f5ffd5b8063a890c9101161019f578063ab58fb8e1161016f578063ab58fb8e14610a58578063ae63ef3514610a8e578063b1126263146105a0578063b58131b014610aa3578063b6b92f7814610ab7575f5ffd5b8063a890c910146109dc578063a8ea43d3146109fb578063a8f8a66814610a1a578063a9a9529414610a39575f5ffd5b80639a802a6d116101da5780639a802a6d14610974578063a2ed9ddf14610993578063a64e024a146109b2578063a7713a70146109c8575f5ffd5b806384b0196e146108f05780638ff262e31461091757806391ddadf41461093657806397c3d33414610961575f5ffd5b80633932abb11161030c5780635a8581ac116102965780636a022850116102665780636a02285014610834578063790518871461085f5780637b3c71d31461087e5780637d5e81e21461089d5780637ecebe00146108bc575f5ffd5b80635a8581ac146107c35780635b8d0e0d146107d75780635f398a14146107f657806360c4247f14610815575f5ffd5b8063452115d6116102dc578063452115d61461070e5780634bf5d7e91461072d578063544ffc9c1461074157806354fd4d501461077b57806356781388146107a4575f5ffd5b80633932abb114610670578063393c7f1a146106855780633e4f49e61461069a57806343859632146106c6575f5ffd5b806318011a701161038d57806329947a771161035d57806329947a77146105df5780632d63f693146105f45780632fe3e2611461061357806330d2661f146106465780633617c3e11461065b575f5ffd5b806318011a701461058c5780631aae0b1c146105a0578063215809ca146105b65780632656227d146105cc575f5ffd5b806306fdde03116103c857806306fdde03146104c8578063143489d0146104e9578063150b7a0214610535578063160cbed71461056d575f5ffd5b8063017be5f81461043357806301ffc9a71461046557806302a251a31461049457806306f3f9e6146104a9575f5ffd5b3661042f5730610406610d9c565b6001600160a01b03161461042d57604051637485328f60e11b815260040160405180910390fd5b005b5f5ffd5b34801561043e575f5ffd5b5061045261044d366004614097565b610db4565b6040519081526020015b60405180910390f35b348015610470575f5ffd5b5061048461047f36600461416f565b610fc3565b604051901515815260200161045c565b34801561049f575f5ffd5b506203f480610452565b3480156104b4575f5ffd5b5061042d6104c3366004614196565b610fd3565b3480156104d3575f5ffd5b506104dc610fe7565b60405161045c91906141db565b3480156104f4575f5ffd5b5061051d610503366004614196565b5f908152600460205260409020546001600160a01b031690565b6040516001600160a01b03909116815260200161045c565b348015610540575f5ffd5b5061055461054f3660046141ed565b611077565b6040516001600160e01b0319909116815260200161045c565b348015610578575f5ffd5b50610452610587366004614254565b6110b9565b348015610597575f5ffd5b50610452600a81565b3480156105ab575f5ffd5b5061045262093a8081565b3480156105c1575f5ffd5b506104526203f48081565b6104526105da366004614254565b611185565b3480156105ea575f5ffd5b5061045260135481565b3480156105ff575f5ffd5b5061045261060e366004614196565b6112ed565b34801561061e575f5ffd5b506104527f3e83946653575f9a39005e1545185629e92736b7528ab20ca3816f315424a81181565b348015610651575f5ffd5b50610452610e1081565b348015610666575f5ffd5b5061045260115481565b34801561067b575f5ffd5b5062015180610452565b348015610690575f5ffd5b5061045261546081565b3480156106a5575f5ffd5b506106b96106b4366004614196565b61130d565b60405161045c919061430f565b3480156106d1575f5ffd5b506104846106e036600461431d565b5f8281526009602090815260408083206001600160a01b038516845260030190915290205460ff1692915050565b348015610719575f5ffd5b50610452610728366004614254565b611317565b348015610738575f5ffd5b506104dc611378565b34801561074c575f5ffd5b5061076061075b366004614196565b611438565b6040805193845260208401929092529082015260600161045c565b348015610786575f5ffd5b506040805180820190915260018152603160f81b60208201526104dc565b3480156107af575f5ffd5b506104526107be36600461435b565b61145d565b3480156107ce575f5ffd5b50610452600581565b3480156107e2575f5ffd5b506104526107f13660046143c9565b611484565b348015610801575f5ffd5b50610452610810366004614485565b611541565b348015610820575f5ffd5b5061045261082f366004614196565b611566565b34801561083f575f5ffd5b5061045261084e366004614506565b600e6020525f908152604090205481565b34801561086a575f5ffd5b5061042d610879366004614534565b611572565b348015610889575f5ffd5b5061045261089836600461454f565b611583565b3480156108a8575f5ffd5b506104526108b73660046145a4565b6115c9565b3480156108c7575f5ffd5b506104526108d6366004614506565b6001600160a01b03165f9081526002602052604090205490565b3480156108fb575f5ffd5b5061090461167f565b60405161045c979695949392919061467b565b348015610922575f5ffd5b506104526109313660046146ea565b6116c1565b348015610941575f5ffd5b5061094a611719565b60405165ffffffffffff909116815260200161045c565b34801561096c575f5ffd5b506064610452565b34801561097f575f5ffd5b5061045261098e366004614737565b6117a0565b34801561099e575f5ffd5b506107606109ad366004614196565b6117b6565b3480156109bd575f5ffd5b506104526212750081565b3480156109d3575f5ffd5b506104526118d0565b3480156109e7575f5ffd5b5061042d6109f6366004614506565b6118e9565b348015610a06575f5ffd5b50610452610a153660046145a4565b6118fa565b348015610a25575f5ffd5b50610452610a34366004614254565b611af8565b348015610a44575f5ffd5b50610484610a53366004614196565b611b05565b348015610a63575f5ffd5b50610452610a72366004614196565b5f9081526004602052604090206001015465ffffffffffff1690565b348015610a99575f5ffd5b5061045260125481565b348015610aae575f5ffd5b50610452611b0d565b348015610ac2575f5ffd5b5061045260105481565b348015610ad7575f5ffd5b50610554610ae636600461478b565b611b17565b348015610af6575f5ffd5b50610452610b05366004614196565b611b5a565b61042d610b18366004614822565b611b9c565b348015610b28575f5ffd5b50610452610b37366004614254565b611c18565b348015610b47575f5ffd5b50610484610b56366004614196565b611c51565b348015610b66575f5ffd5b50610bb0610b75366004614196565b600d6020525f9081526040902080546001820154600283015460038401546004850154600590950154939460ff938416949293919291169086565b60405161045c96959493929190614871565b348015610bcd575f5ffd5b50600b546001600160a01b031661051d565b348015610bea575f5ffd5b506040805180820190915260208082527f737570706f72743d627261766f2671756f72756d3d666f722c6162737461696e908201526104dc565b348015610c2f575f5ffd5b506104527ff2aad550cf55f045cb27e9c559f9889fdfb6e6cdaa032301d6ea397784ae51d781565b348015610c62575f5ffd5b50610c6b611d89565b60408051948552602085019390935291830152606082015260800161045c565b348015610c96575f5ffd5b506104526201518081565b348015610cac575f5ffd5b5061042d610cbb3660046148a9565b611df5565b348015610ccb575f5ffd5b50610452610cda3660046148cc565b611e06565b348015610cea575f5ffd5b5061042d610cf9366004614196565b611e25565b348015610d09575f5ffd5b50610554610d183660046148f6565b611e36565b348015610d28575f5ffd5b50610452610d37366004614196565b611e79565b348015610d47575f5ffd5b50610484610d56366004614506565b600f6020525f908152604090205460ff1681565b348015610d75575f5ffd5b507f000000000000000000000000000000000000000000000000000000000000000061051d565b5f610daf600b546001600160a01b031690565b905090565b5f60018310158015610dc75750600a8311155b610e185760405162461bcd60e51b815260206004820152601760248201527f496e76616c696420736563757269747920696d7061637400000000000000000060448201526064015b60405180910390fd5b60018210158015610e2a5750600a8211155b610e765760405162461bcd60e51b815260206004820152601760248201527f496e76616c69642065636f6e6f6d696320696d706163740000000000000000006044820152606401610e0f565b5f610e83898989896115c9565b90506040518060c00160405280828152602001866004811115610ea857610ea86142e7565b815260208101869052604081018590526060016001876004811115610ecf57610ecf6142e7565b1480610eec57506003876004811115610eea57610eea6142e7565b145b151581525f6020918201819052838152600d825260409020825181559082015160018083018054909160ff1990911690836004811115610f2e57610f2e6142e7565b02179055506040820151600282015560608201516003820155608082015160048201805460ff191691151591909117905560a09091015160059091015560118054905f610f7a83614961565b9190505550807f659d867739fae5cf0955a15157d00f85afb3b3a1e6247c7bb2b90831bc6e892386604051610faf9190614979565b60405180910390a298975050505050505050565b5f610fcd82611f16565b92915050565b610fdb611f80565b610fe481611ff9565b50565b606060038054610ff690614987565b80601f016020809104026020016040519081016040528092919081815260200182805461102290614987565b801561106d5780601f106110445761010080835404028352916020019161106d565b820191905f5260205f20905b81548152906001019060200180831161105057829003601f168201915b5050505050905090565b5f30611081610d9c565b6001600160a01b0316146110a857604051637485328f60e11b815260040160405180910390fd5b50630a85bd0160e11b949350505050565b5f5f6110c786868686611af8565b90506110dc816110d7600461208e565b6120b0565b505f6110eb82888888886120ed565b905065ffffffffffff811615611162575f82815260046020908152604091829020600101805465ffffffffffff191665ffffffffffff85169081179091558251858152918201527f9a2e42fd6722813d69113e7d0079d3d940171428df7373df9c7f7617cfda2892910160405180910390a161117b565b604051634844252360e11b815260040160405180910390fd5b5095945050505050565b5f5f61119386868686611af8565b90506111b3816111a3600561208e565b6111ad600461208e565b176120b0565b505f818152600460205260409020805460ff60f01b1916600160f01b179055306111db610d9c565b6001600160a01b031614611264575f5b865181101561126257306001600160a01b0316878281518110611210576112106149bf565b60200260200101516001600160a01b03160361125a5761125a85828151811061123b5761123b6149bf565b60200260200101518051906020012060056120fb90919063ffffffff16565b6001016111eb565b505b611271818787878761211c565b3061127a610d9c565b6001600160a01b0316141580156112a657506005546001600160801b03808216600160801b9092041614155b156112b0575f6005555b6040518181527f712ae1383f79ac853f8d882153778e0260ef8f03b504e2866e0593e04d2b291f906020015b60405180910390a195945050505050565b5f90815260046020526040902054600160a01b900465ffffffffffff1690565b5f610fcd82612144565b5f5f61132586868686611af8565b905033611332828261227d565b61136157604051638fe5d8a960e01b8152600481018390526001600160a01b0382166024820152604401610e0f565b61136d878787876122c2565b979650505050505050565b60607f00000000000000000000000000000000000000000000000000000000000000006001600160a01b0316634bf5d7e96040518163ffffffff1660e01b81526004015f60405180830381865afa9250505080156113f757506040513d5f823e601f3d908101601f191682016040526113f491908101906149d3565b60015b611433575060408051808201909152601d81527f6d6f64653d626c6f636b6e756d6265722666726f6d3d64656661756c74000000602082015290565b919050565b5f818152600960205260409020805460018201546002909201549091905b9193909250565b5f8033905061147c84828560405180602001604052805f8152506122cf565b949350505050565b5f6114ca88888888888080601f0160208091040260200160405190810160405280939291908181526020018383808284375f920191909152508a92508991506122f09050565b6114f2576040516394ab6c0760e01b81526001600160a01b0387166004820152602401610e0f565b61153588878988888080601f0160208091040260200160405190810160405280939291908181526020018383808284375f920191909152508a92506123bd915050565b98975050505050505050565b5f5f611550878787878761249b565b905061155c33826124e3565b9695505050505050565b5f610fcd600a83612570565b61157a611f80565b610fe4816125bd565b5f8033905061155c86828787878080601f0160208091040260200160405190810160405280939291908181526020018383808284375f920191909152506122cf92505050565b5f336115d58184612623565b6115fd5760405163d9b3955760e01b81526001600160a01b0382166004820152602401610e0f565b5f611606611b0d565b90508015611672575f61163483600161161d611719565b6116279190614a47565b65ffffffffffff16611e06565b90508181101561167057604051636121770b60e11b81526001600160a01b03841660048201526024810182905260448101839052606401610e0f565b505b61136d87878787866126a7565b5f6060805f5f5f60606116906128aa565b6116986128d6565b604080515f80825260208201909252600f60f81b9b939a50919850469750309650945092509050565b5f6116ce85858585612903565b6116f6576040516394ab6c0760e01b81526001600160a01b0384166004820152602401610e0f565b61171085848660405180602001604052805f8152506122cf565b95945050505050565b5f7f00000000000000000000000000000000000000000000000000000000000000006001600160a01b03166391ddadf46040518163ffffffff1660e01b8152600401602060405180830381865afa925050508015611794575060408051601f3d908101601f1916820190925261179191810190614a65565b60015b61143357610daf61298c565b5f6117ac848484612996565b90505b9392505050565b5f818152600d60209081526040808320815160c081019092528054825260018101548493849384939092909183019060ff1660048111156117f9576117f96142e7565b600481111561180a5761180a6142e7565b8152600282810154602083015260038301546040830152600483015460ff161515606083015260059092015460809091015290915081602001516004811115611855576118556142e7565b0361186f5762015180615460600a93509350935050611456565b600381602001516004811115611887576118876142e7565b036118a15762015180610e10600593509350935050611456565b60085465ffffffffffff16600854600160301b900463ffffffff166118c46118d0565b93509350935050611456565b5f6118db600a612a29565b6001600160d01b0316905090565b6118f1611f80565b610fe481612a6d565b335f908152600e6020526040812054606411156119705760405162461bcd60e51b815260206004820152602e60248201527f496e73756666696369656e742072657075746174696f6e20666f7220656d657260448201526d19d95b98de481c1c9bdc1bdcd85b60921b6064820152608401610e0f565b5f61197d868686866115c9565b6040805160c08101825282815260026020808301918252600883850152600760608401526001608084018190525f60a08501819052868152600d90925293902082518155905181840180549596509294919390929160ff1916908360048111156119e9576119e96142e7565b02179055506040820151600282015560608201516003820155608082015160048201805460ff191691151591909117905560a09091015160059091015560118054905f611a3583614961565b909155505060128054905f611a4983614961565b9190505550807ff836a2e0f762faab02eb7f438439471882fbee63bcb044990599431894755788604051611aae906020808252601a908201527f456d657267656e63792070726f706f73616c2063726561746564000000000000604082015260600190565b60405180910390a2807f659d867739fae5cf0955a15157d00f85afb3b3a1e6247c7bb2b90831bc6e89236002604051611ae79190614979565b60405180910390a295945050505050565b5f61171085858585611c18565b5f6001610fcd565b5f610daf60075490565b5f30611b21610d9c565b6001600160a01b031614611b4857604051637485328f60e11b815260040160405180910390fd5b5063bc197c8160e01b95945050505050565b5f81815260046020526040812054611b8e90600160d01b810463ffffffff1690600160a01b900465ffffffffffff16614a80565b65ffffffffffff1692915050565b611ba4611f80565b5f5f856001600160a01b0316858585604051611bc1929190614a9e565b5f6040518083038185875af1925050503d805f8114611bfb576040519150601f19603f3d011682016040523d82523d5f602084013e611c00565b606091505b5091509150611c0f8282612ad6565b50505050505050565b5f84848484604051602001611c309493929190614b40565b60408051601f19818403018152919052805160209091012095945050505050565b5f6004611c5d8361130d565b6007811115611c6e57611c6e6142e7565b14611c7a57505f919050565b5f828152600d60209081526040808320815160c08101909252805482526001810154919290919083019060ff166004811115611cb857611cb86142e7565b6004811115611cc957611cc96142e7565b81526002820154602082015260038201546040820152600482015460ff161515606082015260059091015460809182015281015190915015611d565760a0810151611d565760405162461bcd60e51b815260206004820152601b60248201527f5175616e74756d2076616c69646174696f6e20726571756972656400000000006044820152606401610e0f565b5f611d6084611b5a565b9050611d6f62093a8082614b8a565b421115611d7f57505f9392505050565b5060019392505050565b6011546010545f91829182918291829060015b838111611de4576001611dae8261130d565b6007811115611dbf57611dbf6142e7565b03611dd25782611dce81614961565b9350505b80611ddc81614961565b915050611d9c565b509196909550909350604b92509050565b611dfd611f80565b610fe481612b13565b5f6117af8383611e2060408051602081019091525f815290565b612996565b611e2d611f80565b610fe481612baf565b5f30611e40610d9c565b6001600160a01b031614611e6757604051637485328f60e11b815260040160405180910390fd5b5063f23a6e6160e01b95945050505050565b604051632394e7a360e21b8152600481018290525f90610fcd906001600160a01b037f00000000000000000000000000000000000000000000000000000000000000001690638e539e8c90602401602060405180830381865afa158015611ee2573d5f5f3e3d5ffd5b505050506040513d601f19601f82011682018060405250810190611f069190614b9d565b611f0f84611566565b6064612bf0565b5f6001600160e01b031982166366defe7760e11b1480611f4657506001600160e01b031982166332a2ad4360e11b145b80611f6157506001600160e01b03198216630271189760e51b145b80610fcd57506301ffc9a760e01b6001600160e01b0319831614610fcd565b33611f89610d9c565b6001600160a01b031614611fb2576040516347096e4760e01b8152336004820152602401610e0f565b30611fbb610d9c565b6001600160a01b031614611ff7575f8036604051611fda929190614a9e565b604051809103902090505b80611ff06005612ca0565b03611fe557505b565b6064808211156120265760405163243e544560e01b81526004810183905260248101829052604401610e0f565b5f61202f6118d0565b905061204e61203c611719565b61204585612cbf565b600a9190612cf6565b505060408051828152602081018590527f0553476bf02ef2726e8ce5ced78d63e26e602e4a2257b1f559418e24b4633997910160405180910390a1505050565b5f8160078111156120a1576120a16142e7565b600160ff919091161b92915050565b5f5f6120bb8461130d565b90505f836120c88361208e565b16036117af578381846040516331b75e4d60e01b8152600401610e0f93929190614bb4565b5f61155c8686868686612d10565b5f6121068383612ea1565b905080612117576121176041612f06565b505050565b6121298585858585612f17565b60108054905f61213883614961565b91905055505050505050565b5f5f61214f83612fa7565b90506005816007811115612165576121656142e7565b146121705792915050565b5f838152600c60205260409081902054600b549151632c258a9f60e11b81526004810182905290916001600160a01b03169063584b153e90602401602060405180830381865afa1580156121c6573d5f5f3e3d5ffd5b505050506040513d601f19601f820116820180604052508101906121ea9190614bd6565b156121f9575060059392505050565b600b54604051632ab0f52960e01b8152600481018390526001600160a01b0390911690632ab0f52990602401602060405180830381865afa158015612240573d5f5f3e3d5ffd5b505050506040513d601f19601f820116820180604052508101906122649190614bd6565b15612273575060079392505050565b5060029392505050565b5f806122888461130d565b6007811115612299576122996142e7565b1480156117af5750505f91825260046020526040909120546001600160a01b0391821691161490565b5f611710858585856130d8565b5f611710858585856122eb60408051602081019091525f815290565b6123bd565b5f61136d856123b77f3e83946653575f9a39005e1545185629e92736b7528ab20ca3816f315424a8118a8a8a6123428c6001600160a01b03165f90815260026020526040902080546001810190915590565b8b516020808e01919091208c518d83012060405161239c98979695949301968752602087019590955260ff9390931660408601526001600160a01b03919091166060850152608084015260a083015260c082015260e00190565b6040516020818303038152906040528051906020012061316f565b8461319b565b5f6123cc866110d7600161208e565b505f6123e1866123db896112ed565b85612996565b90505f6123f1888888858861320b565b905083515f0361244757866001600160a01b03167fb8e138887d0aa13bab447e82de9d5c1777041ecd21ca36ba824ff1e6c07ddda48988848960405161243a9493929190614bf5565b60405180910390a261136d565b866001600160a01b03167fe2babfbac5889a709b63bb7f598b324e08bc5a4fb9ec647fb3cbc9ec07eb87128988848989604051612488959493929190614c1c565b60405180910390a2979650505050505050565b5f8033905061136d87828888888080601f0160208091040260200160405190810160405280939291908181526020018383808284375f920191909152508a92506123bd915050565b5f6124f06103e883614c69565b6001600160a01b0384165f908152600e6020526040902054909150612516908290614b8a565b6001600160a01b0384165f818152600e6020526040908190208390555190917f75dd541cad19d8b7aa6e07340cf8336c4d2df24901095f19c298c2a279a8db8c9161256391815260200190565b60405180910390a2505050565b5f5f5f61257c85613307565b9250925050838265ffffffffffff1611156125a9576125a461259d8561335f565b8690613391565b6125ab565b805b6001600160d01b031695945050505050565b6008546040805165ffffffffffff928316815291831660208301527fc565b045403dc03c2eea82b81a0465edad9e2e7fc4d97e11421c209da93d7a93910160405180910390a16008805465ffffffffffff191665ffffffffffff92909216919091179055565b80515f90603481101561263a576001915050610fcd565b60131981840101516001600160b01b03198116692370726f706f7365723d60b01b1461266b57600192505050610fcd565b5f5f61267b86602a860386613433565b9150915081158061136d5750866001600160a01b0316816001600160a01b031614979650505050505050565b5f6126bb8686868680519060200120611af8565b9050845186511415806126d057508351865114155b806126da57508551155b1561270f57855184518651604051630447b05d60e41b8152600481019390935260248301919091526044820152606401610e0f565b5f81815260046020526040902054600160a01b900465ffffffffffff1615612758578061273b8261130d565b6040516331b75e4d60e01b8152610e0f9291905f90600401614bb4565b5f62015180612765611719565b65ffffffffffff166127779190614b8a565b90505f6203f4805f84815260046020526040902080546001600160a01b0319166001600160a01b0387161781559091506127b08361335f565b815465ffffffffffff91909116600160a01b0265ffffffffffff60a01b199091161781556127dd826134dc565b815463ffffffff91909116600160d01b0263ffffffff60d01b1990911617815588517f7d84a6263ae0d98d3329bd7b46bb4e8d6f98cd35a7adb45c274c8b7fd5ebd5e090859087908c908c906001600160401b0381111561284057612840613e58565b60405190808252806020026020018201604052801561287357816020015b606081526020019060019003908161285e5790505b508c896128808a82614b8a565b8e60405161289699989796959493929190614c88565b60405180910390a150505095945050505050565b6060610daf7f00000000000000000000000000000000000000000000000000000000000000005f61350c565b6060610daf7f0000000000000000000000000000000000000000000000000000000000000000600161350c565b5f611710836123b77ff2aad550cf55f045cb27e9c559f9889fdfb6e6cdaa032301d6ea397784ae51d78888886129558a6001600160a01b03165f90815260026020526040902080546001810190915590565b60408051602081019690965285019390935260ff90911660608401526001600160a01b0316608083015260a082015260c00161239c565b5f610daf4361335f565b5f7f0000000000000000000000000000000000000000000000000000000000000000604051630748d63560e31b81526001600160a01b038681166004830152602482018690529190911690633a46b1a890604401602060405180830381865afa158015612a05573d5f5f3e3d5ffd5b505050506040513d601f19601f820116820180604052508101906117ac9190614b9d565b80545f908015612a6557612a4f83612a42600184614d63565b5f91825260209091200190565b54600160301b90046001600160d01b03166117af565b5f9392505050565b600b54604080516001600160a01b03928316815291831660208301527f08f74ea46ef7894f65eabfb5e6e695de773a000b47c529ab559178069b226401910160405180910390a1600b80546001600160a01b0319166001600160a01b0392909216919091179055565b60608215612ae5575080610fcd565b815115612afa57612af5826135b5565b610fcd565b60405163d6bda27560e01b815260040160405180910390fd5b8063ffffffff165f03612b3b5760405163f1cfbf0560e01b81525f6004820152602401610e0f565b6008546040805163ffffffff600160301b9093048316815291831660208301527f7e3f7f0708a84de9203036abaa450dccc85ad5ff52f78c170f3edb55cf5e8828910160405180910390a16008805463ffffffff909216600160301b0269ffffffff00000000000019909216919091179055565b60075460408051918252602082018390527fccb45da8d5717e6c4544694297c4ba5cf151d455c9bb0ed4fc7a38411bc05461910160405180910390a1600755565b5f5f5f612bfd86866135bd565b91509150815f03612c2157838181612c1757612c17614c55565b04925050506117af565b818411612c3857612c386003851502601118612f06565b5f848688095f868103871696879004966002600389028118808a02820302808a02820302808a02820302808a02820302808a02820302808a02909103029181900381900460010185841190960395909502919093039390930492909217029150509392505050565b5f5f5f612cac846135d9565b91509150816117af576117af6031612f06565b5f6001600160d01b03821115612cf2576040516306dfcc6560e41b815260d0600482015260248101839052604401610e0f565b5090565b5f80612d0385858561364d565b915091505b935093915050565b5f5f600b5f9054906101000a90046001600160a01b03166001600160a01b031663f27a0c926040518163ffffffff1660e01b8152600401602060405180830381865afa158015612d62573d5f5f3e3d5ffd5b505050506040513d601f19601f82011682018060405250810190612d869190614b9d565b90505f3060601b6bffffffffffffffffffffffff19168418600b5460405163b1c5f42760e01b81529192506001600160a01b03169063b1c5f42790612dd7908a908a908a905f908890600401614d76565b602060405180830381865afa158015612df2573d5f5f3e3d5ffd5b505050506040513d601f19601f82011682018060405250810190612e169190614b9d565b5f898152600c602052604080822092909255600b5491516308f2a0bb60e41b81526001600160a01b0390921691638f2a0bb091612e60918b918b918b919088908a90600401614dc3565b5f604051808303815f87803b158015612e77575f5ffd5b505af1158015612e89573d5f5f3e3d5ffd5b505050506115358242612e9c9190614b8a565b61335f565b81545f906001600160801b03600160801b820481169181166001830190911603612ece575f915050610fcd565b6001600160801b038181165f908152600186810160205260409091209490945584549184018116600160801b02911617909255919050565b634e487b715f52806020526024601cfd5b600b546001600160a01b031663e38335e5348686865f3060601b6bffffffffffffffffffffffff191688186040518763ffffffff1660e01b8152600401612f62959493929190614d76565b5f604051808303818588803b158015612f79575f5ffd5b505af1158015612f8b573d5f5f3e3d5ffd5b5050505f9687525050600c602052505060408320929092555050565b5f818152600460205260408120805460ff600160f01b8204811691600160f81b9004168115612fdb57506007949350505050565b8015612fec57506002949350505050565b5f612ff6866112ed565b9050805f0361301b57604051636ad0607560e01b815260048101879052602401610e0f565b5f613024611719565b65ffffffffffff16905080821061304157505f9695505050505050565b5f61304b88611b5a565b905081811061306257506001979650505050505050565b61306b8861379d565b158061308a57505f888152600960205260409020805460019091015411155b1561309d57506003979650505050505050565b5f8881526004602052604090206001015465ffffffffffff165f036130ca57506004979650505050505050565b506005979650505050505050565b5f5f6130e6868686866137d3565b5f818152600c6020526040902054909150801561117b57600b5460405163c4d252f560e01b8152600481018390526001600160a01b039091169063c4d252f5906024015f604051808303815f87803b158015613140575f5ffd5b505af1158015613152573d5f5f3e3d5ffd5b5050505f838152600c602052604081205550509050949350505050565b5f610fcd61317b613882565b8360405161190160f01b8152600281019290925260228201526042902090565b5f836001600160a01b03163b5f036131f9575f5f6131b985856139ab565b5090925090505f8160038111156131d2576131d26142e7565b1480156131f05750856001600160a01b0316826001600160a01b0316145b925050506117af565b6132048484846139f4565b90506117af565b5f8581526009602090815260408083206001600160a01b03881684526003810190925282205460ff161561325d576040516371c6af4960e01b81526001600160a01b0387166004820152602401610e0f565b6001600160a01b0386165f9081526003820160205260409020805460ff1916600117905560ff85166132a65783815f015f82825461329b9190614b8a565b909155506132fc9050565b5f1960ff8616016132c45783816001015f82825461329b9190614b8a565b60011960ff8616016132e35783816002015f82825461329b9190614b8a565b6040516303599be160e11b815260040160405180910390fd5b509195945050505050565b80545f9081908190808203613325575f5f5f93509350935050611456565b5f61333586612a42600185614d63565b546001955065ffffffffffff81169450600160301b90046001600160d01b03169250611456915050565b5f65ffffffffffff821115612cf2576040516306dfcc6560e41b81526030600482015260248101839052604401610e0f565b81545f90818160058111156133ed575f6133aa84613a45565b6133b49085614d63565b5f8881526020902090915081015465ffffffffffff90811690871610156133dd578091506133eb565b6133e8816001614b8a565b92505b505b5f6133fa87878585613b9d565b905080156134275761341187612a42600184614d63565b54600160301b90046001600160d01b031661136d565b505f9695505050505050565b5f5f845183118061344357508284115b1561345257505f905080612d08565b5f61345e856001614b8a565b84118015613486575061060f60f31b61347a8787016020015190565b6001600160f01b031916145b90505f6134968215156002614e1a565b6134a1906028614b8a565b9050806134ae8787614d63565b036134cf575f5f6134c0898989613bf3565b9096509450612d089350505050565b5f5f935093505050612d08565b5f63ffffffff821115612cf2576040516306dfcc6560e41b81526020600482015260248101839052604401610e0f565b606060ff83146135265761351f83613cb4565b9050610fcd565b81805461353290614987565b80601f016020809104026020016040519081016040528092919081815260200182805461355e90614987565b80156135a95780601f10613580576101008083540402835291602001916135a9565b820191905f5260205f20905b81548152906001019060200180831161358c57829003601f168201915b50505050509050610fcd565b805160208201fd5b5f805f1983850993909202808410938190039390930393915050565b80545f9081906001600160801b0380821691600160801b900416810361360457505f93849350915050565b6001600160801b038181165f908152600186810160205260408220805492905586546fffffffffffffffffffffffffffffffff1916938101909216929092179094559293915050565b82545f9081908015613743575f61366987612a42600185614d63565b805490915065ffffffffffff80821691600160301b90046001600160d01b03169088168211156136ac57604051632520601d60e01b815260040160405180910390fd5b8765ffffffffffff168265ffffffffffff16036136e557825465ffffffffffff16600160301b6001600160d01b03891602178355613735565b6040805180820190915265ffffffffffff808a1682526001600160d01b03808a1660208085019182528d54600181018f555f8f81529190912094519151909216600160301b029216919091179101555b9450859350612d0892505050565b50506040805180820190915265ffffffffffff80851682526001600160d01b0380851660208085019182528854600181018a555f8a815291822095519251909316600160301b029190931617920191909155905081612d08565b5f818152600960205260408120600281015460018201546137be9190614b8a565b6137ca610d37856112ed565b11159392505050565b5f5f6137e186868686611af8565b905061382f816137f1600761208e565b6137fb600661208e565b613805600261208e565b6001613812600782614e31565b61381d906002614f25565b6138279190614d63565b1818186120b0565b505f818152600460205260409081902080546001600160f81b0316600160f81b179055517f789cf55be980739dad1d0699b93b58e806b51c9d96619bfa8fe0a28abaa7b30c906112dc9083815260200190565b5f306001600160a01b037f0000000000000000000000000000000000000000000000000000000000000000161480156138da57507f000000000000000000000000000000000000000000000000000000000000000046145b1561390457507f000000000000000000000000000000000000000000000000000000000000000090565b610daf604080517f8b73c3c69bb8fe3d512ecc4cf759cc79239f7b179b0ffacaa9a75d522b39400f60208201527f0000000000000000000000000000000000000000000000000000000000000000918101919091527f000000000000000000000000000000000000000000000000000000000000000060608201524660808201523060a08201525f9060c00160405160208183030381529060405280519060200120905090565b5f5f5f83516041036139e2576020840151604085015160608601515f1a6139d488828585613cf1565b9550955095505050506139ed565b505081515f91506002905b9250925092565b805160408051630b135d3f60e11b8082526004820186905260248201929092525f92906020820185604483015e60205f60648401838a5afa9050825f5114601f3d1116811693505050509392505050565b5f60018211613a52575090565b816001600160801b8210613a6b5760809190911c9060401b5b680100000000000000008210613a865760409190911c9060201b5b6401000000008210613a9d5760209190911c9060101b5b620100008210613ab25760109190911c9060081b5b6101008210613ac65760089190911c9060041b5b60108210613ad95760049190911c9060021b5b60048210613ae55760011b5b600302600190811c90818581613afd57613afd614c55565b048201901c90506001818581613b1557613b15614c55565b048201901c90506001818581613b2d57613b2d614c55565b048201901c90506001818581613b4557613b45614c55565b048201901c90506001818581613b5d57613b5d614c55565b048201901c90506001818581613b7557613b75614c55565b048201901c9050613b94818581613b8e57613b8e614c55565b04821190565b90039392505050565b5f5b81831015613beb575f85815260209020838316600285851804019081015465ffffffffffff86811691161115613bd757809250613be5565b613be2816001614b8a565b93505b50613b9f565b509392505050565b5f808481613c02866001614b8a565b85118015613c2a575061060f60f31b613c1e8388016020015190565b6001600160f01b031916145b90505f613c3a8215156002614e1a565b90505f80613c48838a614b8a565b90505b87811015613ca3575f613c69613c648784016020015190565b613db9565b9050600f8160ff161115613c88575f5f97509750505050505050612d08565b613c93601084614e1a565b60ff909116019150600101613c4b565b506001999098509650505050505050565b60605f613cc083613e31565b6040805160208082528183019092529192505f91906020820181803683375050509182525060208101929092525090565b5f80807f7fffffffffffffffffffffffffffffff5d576e7357a4501ddfe92f46681b20a0841115613d2a57505f91506003905082613daf565b604080515f808252602082018084528a905260ff891692820192909252606081018790526080810186905260019060a0016020604051602081039080840390855afa158015613d7b573d5f5f3e3d5ffd5b5050604051601f1901519150506001600160a01b038116613da657505f925060019150829050613daf565b92505f91508190505b9450945094915050565b5f60f882901c602f81118015613dd25750603a8160ff16105b15613de057602f1901610fcd565b60608160ff16118015613df6575060678160ff16105b15613e045760561901610fcd565b60408160ff16118015613e1a575060478160ff16105b15613e285760361901610fcd565b5060ff92915050565b5f60ff8216601f811115610fcd57604051632cd44ac360e21b815260040160405180910390fd5b634e487b7160e01b5f52604160045260245ffd5b604051601f8201601f191681016001600160401b0381118282101715613e9457613e94613e58565b604052919050565b5f6001600160401b03821115613eb457613eb4613e58565b5060051b60200190565b6001600160a01b0381168114610fe4575f5ffd5b5f82601f830112613ee1575f5ffd5b8135613ef4613eef82613e9c565b613e6c565b8082825260208201915060208360051b860101925085831115613f15575f5ffd5b602085015b8381101561117b578035613f2d81613ebe565b835260209283019201613f1a565b5f82601f830112613f4a575f5ffd5b8135613f58613eef82613e9c565b8082825260208201915060208360051b860101925085831115613f79575f5ffd5b602085015b8381101561117b578035835260209283019201613f7e565b5f6001600160401b03821115613fae57613fae613e58565b50601f01601f191660200190565b5f82601f830112613fcb575f5ffd5b8135602083015f613fde613eef84613f96565b9050828152858383011115613ff1575f5ffd5b828260208301375f92810160200192909252509392505050565b5f82601f83011261401a575f5ffd5b8135614028613eef82613e9c565b8082825260208201915060208360051b860101925085831115614049575f5ffd5b602085015b8381101561117b5780356001600160401b0381111561406b575f5ffd5b61407a886020838a0101613fbc565b8452506020928301920161404e565b803560058110611433575f5ffd5b5f5f5f5f5f5f5f60e0888a0312156140ad575f5ffd5b87356001600160401b038111156140c2575f5ffd5b6140ce8a828b01613ed2565b97505060208801356001600160401b038111156140e9575f5ffd5b6140f58a828b01613f3b565b96505060408801356001600160401b03811115614110575f5ffd5b61411c8a828b0161400b565b95505060608801356001600160401b03811115614137575f5ffd5b6141438a828b01613fbc565b94505061415260808901614089565b9699959850939692959460a0840135945060c09093013592915050565b5f6020828403121561417f575f5ffd5b81356001600160e01b0319811681146117af575f5ffd5b5f602082840312156141a6575f5ffd5b5035919050565b5f81518084528060208401602086015e5f602082860101526020601f19601f83011685010191505092915050565b602081525f6117af60208301846141ad565b5f5f5f5f60808587031215614200575f5ffd5b843561420b81613ebe565b9350602085013561421b81613ebe565b92506040850135915060608501356001600160401b0381111561423c575f5ffd5b61424887828801613fbc565b91505092959194509250565b5f5f5f5f60808587031215614267575f5ffd5b84356001600160401b0381111561427c575f5ffd5b61428887828801613ed2565b94505060208501356001600160401b038111156142a3575f5ffd5b6142af87828801613f3b565b93505060408501356001600160401b038111156142ca575f5ffd5b6142d68782880161400b565b949793965093946060013593505050565b634e487b7160e01b5f52602160045260245ffd5b6008811061430b5761430b6142e7565b9052565b60208101610fcd82846142fb565b5f5f6040838503121561432e575f5ffd5b82359150602083013561434081613ebe565b809150509250929050565b803560ff81168114611433575f5ffd5b5f5f6040838503121561436c575f5ffd5b8235915061437c6020840161434b565b90509250929050565b5f5f83601f840112614395575f5ffd5b5081356001600160401b038111156143ab575f5ffd5b6020830191508360208285010111156143c2575f5ffd5b9250929050565b5f5f5f5f5f5f5f60c0888a0312156143df575f5ffd5b873596506143ef6020890161434b565b955060408801356143ff81613ebe565b945060608801356001600160401b03811115614419575f5ffd5b6144258a828b01614385565b90955093505060808801356001600160401b03811115614443575f5ffd5b61444f8a828b01613fbc565b92505060a08801356001600160401b0381111561446a575f5ffd5b6144768a828b01613fbc565b91505092959891949750929550565b5f5f5f5f5f60808688031215614499575f5ffd5b853594506144a96020870161434b565b935060408601356001600160401b038111156144c3575f5ffd5b6144cf88828901614385565b90945092505060608601356001600160401b038111156144ed575f5ffd5b6144f988828901613fbc565b9150509295509295909350565b5f60208284031215614516575f5ffd5b81356117af81613ebe565b65ffffffffffff81168114610fe4575f5ffd5b5f60208284031215614544575f5ffd5b81356117af81614521565b5f5f5f5f60608587031215614562575f5ffd5b843593506145726020860161434b565b925060408501356001600160401b0381111561458c575f5ffd5b61459887828801614385565b95989497509550505050565b5f5f5f5f608085870312156145b7575f5ffd5b84356001600160401b038111156145cc575f5ffd5b6145d887828801613ed2565b94505060208501356001600160401b038111156145f3575f5ffd5b6145ff87828801613f3b565b93505060408501356001600160401b0381111561461a575f5ffd5b6146268782880161400b565b92505060608501356001600160401b0381111561423c575f5ffd5b5f8151808452602084019350602083015f5b82811015614671578151865260209586019590910190600101614653565b5093949350505050565b60ff60f81b8816815260e060208201525f61469960e08301896141ad565b82810360408401526146ab81896141ad565b606084018890526001600160a01b038716608085015260a0840186905283810360c085015290506146dc8185614641565b9a9950505050505050505050565b5f5f5f5f608085870312156146fd575f5ffd5b8435935061470d6020860161434b565b9250604085013561471d81613ebe565b915060608501356001600160401b0381111561423c575f5ffd5b5f5f5f60608486031215614749575f5ffd5b833561475481613ebe565b92506020840135915060408401356001600160401b03811115614775575f5ffd5b61478186828701613fbc565b9150509250925092565b5f5f5f5f5f60a0868803121561479f575f5ffd5b85356147aa81613ebe565b945060208601356147ba81613ebe565b935060408601356001600160401b038111156147d4575f5ffd5b6147e088828901613f3b565b93505060608601356001600160401b038111156147fb575f5ffd5b61480788828901613f3b565b92505060808601356001600160401b038111156144ed575f5ffd5b5f5f5f5f60608587031215614835575f5ffd5b843561484081613ebe565b93506020850135925060408501356001600160401b0381111561458c575f5ffd5b6005811061430b5761430b6142e7565b86815260c081016148856020830188614861565b60408201959095526060810193909352901515608083015260a09091015292915050565b5f602082840312156148b9575f5ffd5b813563ffffffff811681146117af575f5ffd5b5f5f604083850312156148dd575f5ffd5b82356148e881613ebe565b946020939093013593505050565b5f5f5f5f5f60a0868803121561490a575f5ffd5b853561491581613ebe565b9450602086013561492581613ebe565b9350604086013592506060860135915060808601356001600160401b038111156144ed575f5ffd5b634e487b7160e01b5f52601160045260245ffd5b5f600182016149725761497261494d565b5060010190565b60208101610fcd8284614861565b600181811c9082168061499b57607f821691505b6020821081036149b957634e487b7160e01b5f52602260045260245ffd5b50919050565b634e487b7160e01b5f52603260045260245ffd5b5f602082840312156149e3575f5ffd5b81516001600160401b038111156149f8575f5ffd5b8201601f81018413614a08575f5ffd5b8051614a16613eef82613f96565b818152856020838501011115614a2a575f5ffd5b8160208401602083015e5f91810160200191909152949350505050565b65ffffffffffff8281168282160390811115610fcd57610fcd61494d565b5f60208284031215614a75575f5ffd5b81516117af81614521565b65ffffffffffff8181168382160190811115610fcd57610fcd61494d565b818382375f9101908152919050565b5f8151808452602084019350602083015f5b828110156146715781516001600160a01b0316865260209586019590910190600101614abf565b5f82825180855260208501945060208160051b830101602085015f5b83811015614b3457601f19858403018852614b1e8383516141ad565b6020988901989093509190910190600101614b02565b50909695505050505050565b608081525f614b526080830187614aad565b8281036020840152614b648187614641565b90508281036040840152614b788186614ae6565b91505082606083015295945050505050565b80820180821115610fcd57610fcd61494d565b5f60208284031215614bad575f5ffd5b5051919050565b83815260608101614bc860208301856142fb565b826040830152949350505050565b5f60208284031215614be6575f5ffd5b815180151581146117af575f5ffd5b84815260ff84166020820152826040820152608060608201525f61155c60808301846141ad565b85815260ff8516602082015283604082015260a060608201525f614c4360a08301856141ad565b828103608084015261153581856141ad565b634e487b7160e01b5f52601260045260245ffd5b5f82614c8357634e487b7160e01b5f52601260045260245ffd5b500490565b8981526001600160a01b0389166020820152610120604082018190525f90614cb29083018a614aad565b8281036060840152614cc4818a614641565b9050828103608084015280885180835260208301915060208160051b84010160208b015f5b83811015614d1b57601f19868403018552614d058383516141ad565b6020958601959093509190910190600101614ce9565b505085810360a0870152614d2f818b614ae6565b93505050508560c08401528460e0840152828103610100840152614d5381856141ad565b9c9b505050505050505050505050565b81810381811115610fcd57610fcd61494d565b60a081525f614d8860a0830188614aad565b8281036020840152614d9a8188614641565b90508281036040840152614dae8187614ae6565b60608401959095525050608001529392505050565b60c081525f614dd560c0830189614aad565b8281036020840152614de78189614641565b90508281036040840152614dfb8188614ae6565b60608401969096525050608081019290925260a0909101529392505050565b8082028115828204841417610fcd57610fcd61494d565b60ff8181168382160190811115610fcd57610fcd61494d565b6001815b6001841115612d0857808504811115614e6957614e6961494d565b6001841615614e7757908102905b60019390931c928002614e4e565b5f82614e9357506001610fcd565b81614e9f57505f610fcd565b8160018114614eb55760028114614ebf57614edb565b6001915050610fcd565b60ff841115614ed057614ed061494d565b50506001821b610fcd565b5060208310610133831016604e8410600b8410161715614efe575081810a610fcd565b614f0a5f198484614e4a565b805f1904821115614f1d57614f1d61494d565b029392505050565b5f6117af60ff841683614e8556fea264697066735822122029ae884e44d2d89c97681657cd9fbad1bf3cef284de7f570a5e3c938a1a5832864736f6c634300081c0033",
  "linkReferences": {},
  "deployedLinkReferences": {},
  "immutableReferences": {
    "5190": [
      {
        "length": 32,
        "start": 3448
      },
      {
        "length": 32,
        "start": 4988
      },
      {
        "length": 32,
        "start": 5916
      },
      {
        "length": 32,
        "start": 7837
      },
      {
        "length": 32,
        "start": 10649
      }
    ],
    "15007": [
      {
        "length": 32,
        "start": 14562
      }
    ],
    "15009": [
      {
        "length": 32,
        "start": 14520
      }
    ],
    "15011": [
      {
        "length": 32,
        "start": 14478
      }
    ],
    "15013": [
      {
        "length": 32,
        "start": 14643
      }
    ],
    "15015": [
      {
        "length": 32,
        "start": 14683
      }
    ],
    "15018": [
      {
        "length": 32,
        "start": 10417
      }
    ],
    "15021": [
      {
        "length": 32,
        "start": 10461
      }
    ]
  },
  "inputSourceName": "project/contracts/SentinelGovernance.sol",
  "buildInfoId": "solc-0_8_28-56b4d38520a07143560cd43eeb820c3102363d0a"
}