{
  "_format": "hh3-artifact-1",
  "contractName": "SentinelZKIdentity",
  "sourceName": "contracts/SentinelZKIdentity.sol",
  "abi": [
    {
      "inputs": [
        {
          "internalType": "address",
          "name": "initialOwner",
          "type": "address"
        }
      ],
      "stateMutability": "nonpayable",
      "type": "constructor"
    },
    {
      "inputs": [
        {
          "internalType": "address",
          "name": "owner",
          "type": "address"
        }
      ],
      "name": "OwnableInvalidOwner",
      "type": "error"
    },
    {
      "inputs": [
        {
          "internalType": "address",
          "name": "account",
          "type": "address"
        }
      ],
      "name": "OwnableUnauthorizedAccount",
      "type": "error"
    },
    {
      "inputs": [],
      "name": "ReentrancyGuardReentrantCall",
      "type": "error"
    },
    {
      "anonymous": false,
      "inputs": [
        {
          "indexed": true,
          "internalType": "bytes32",
          "name": "credentialId",
          "type": "bytes32"
        },
        {
          "indexed": true,
          "internalType": "bytes32",
          "name": "identityId",
          "type": "bytes32"
        },
        {
          "indexed": false,
          "internalType": "string",
          "name": "credentialType",
          "type": "string"
        }
      ],
      "name": "CredentialIssued",
      "type": "event"
    },
    {
      "anonymous": false,
      "inputs": [
        {
          "indexed": true,
          "internalType": "address",
          "name": "user",
          "type": "address"
        },
        {
          "indexed": false,
          "internalType": "bytes32",
          "name": "identityHash",
          "type": "bytes32"
        }
      ],
      "name": "IdentityCreated",
      "type": "event"
    },
    {
      "anonymous": false,
      "inputs": [
        {
          "indexed": true,
          "internalType": "bytes32",
          "name": "identityHash",
          "type": "bytes32"
        },
        {
          "indexed": false,
          "internalType": "uint256",
          "name": "trustScore",
          "type": "uint256"
        }
      ],
      "name": "IdentityVerified",
      "type": "event"
    },
    {
      "anonymous": false,
      "inputs": [
        {
          "indexed": true,
          "internalType": "address",
          "name": "previousOwner",
          "type": "address"
        },
        {
          "indexed": true,
          "internalType": "address",
          "name": "newOwner",
          "type": "address"
        }
      ],
      "name": "OwnershipTransferred",
      "type": "event"
    },
    {
      "anonymous": false,
      "inputs": [
        {
          "indexed": true,
          "internalType": "bytes32",
          "name": "proofId",
          "type": "bytes32"
        },
        {
          "indexed": false,
          "internalType": "bool",
          "name": "success",
          "type": "bool"
        }
      ],
      "name": "ZKProofVerified",
      "type": "event"
    },
    {
      "inputs": [],
      "name": "CREDENTIAL_VALIDITY",
      "outputs": [
        {
          "internalType": "uint256",
          "name": "",
          "type": "uint256"
        }
      ],
      "stateMutability": "view",
      "type": "function"
    },
    {
      "inputs": [],
      "name": "IDENTITY_EXPIRY",
      "outputs": [
        {
          "internalType": "uint256",
          "name": "",
          "type": "uint256"
        }
      ],
      "stateMutability": "view",
      "type": "function"
    },
    {
      "inputs": [],
      "name": "MAX_TRUST_SCORE",
      "outputs": [
        {
          "internalType": "uint256",
          "name": "",
          "type": "uint256"
        }
      ],
      "stateMutability": "view",
      "type": "function"
    },
    {
      "inputs": [],
      "name": "MIN_REPUTATION",
      "outputs": [
        {
          "internalType": "uint256",
          "name": "",
          "type": "uint256"
        }
      ],
      "stateMutability": "view",
      "type": "function"
    },
    {
      "inputs": [
        {
          "internalType": "uint256",
          "name": "",
          "type": "uint256"
        }
      ],
      "name": "activeIdentities",
      "outputs": [
        {
          "internalType": "bytes32",
          "name": "",
          "type": "bytes32"
        }
      ],
      "stateMutability": "view",
      "type": "function"
    },
    {
      "inputs": [
        {
          "internalType": "address",
          "name": "user",
          "type": "address"
        },
        {
          "internalType": "uint256",
          "name": "minReputation",
          "type": "uint256"
        },
        {
          "internalType": "uint256",
          "name": "minTrustScore",
          "type": "uint256"
        }
      ],
      "name": "checkIdentityRequirements",
      "outputs": [
        {
          "internalType": "bool",
          "name": "",
          "type": "bool"
        }
      ],
      "stateMutability": "view",
      "type": "function"
    },
    {
      "inputs": [
        {
          "internalType": "bytes32",
          "name": "publicKey",
          "type": "bytes32"
        }
      ],
      "name": "createZKIdentity",
      "outputs": [
        {
          "internalType": "bytes32",
          "name": "",
          "type": "bytes32"
        }
      ],
      "stateMutability": "nonpayable",
      "type": "function"
    },
    {
      "inputs": [
        {
          "internalType": "bytes32",
          "name": "",
          "type": "bytes32"
        }
      ],
      "name": "credentialIssuers",
      "outputs": [
        {
          "internalType": "address",
          "name": "",
          "type": "address"
        }
      ],
      "stateMutability": "view",
      "type": "function"
    },
    {
      "inputs": [
        {
          "internalType": "bytes32",
          "name": "",
          "type": "bytes32"
        }
      ],
      "name": "credentialToOwner",
      "outputs": [
        {
          "internalType": "address",
          "name": "",
          "type": "address"
        }
      ],
      "stateMutability": "view",
      "type": "function"
    },
    {
      "inputs": [
        {
          "internalType": "bytes32",
          "name": "credentialId",
          "type": "bytes32"
        }
      ],
      "name": "getZKCredential",
      "outputs": [
        {
          "internalType": "string",
          "name": "credentialType",
          "type": "string"
        },
        {
          "internalType": "bytes32",
          "name": "issuerId",
          "type": "bytes32"
        },
        {
          "internalType": "uint256",
          "name": "issuanceTime",
          "type": "uint256"
        },
        {
          "internalType": "uint256",
          "name": "expirationTime",
          "type": "uint256"
        },
        {
          "internalType": "bool",
          "name": "isValid",
          "type": "bool"
        },
        {
          "internalType": "bool",
          "name": "isRevoked",
          "type": "bool"
        }
      ],
      "stateMutability": "view",
      "type": "function"
    },
    {
      "inputs": [
        {
          "internalType": "address",
          "name": "user",
          "type": "address"
        }
      ],
      "name": "getZKIdentity",
      "outputs": [
        {
          "internalType": "bytes32",
          "name": "identityHash",
          "type": "bytes32"
        },
        {
          "internalType": "uint256",
          "name": "reputation",
          "type": "uint256"
        },
        {
          "internalType": "uint256",
          "name": "trustScore",
          "type": "uint256"
        },
        {
          "internalType": "bool",
          "name": "isVerified",
          "type": "bool"
        },
        {
          "internalType": "uint256",
          "name": "credentialCount",
          "type": "uint256"
        }
      ],
      "stateMutability": "view",
      "type": "function"
    },
    {
      "inputs": [
        {
          "internalType": "address",
          "name": "",
          "type": "address"
        }
      ],
      "name": "identities",
      "outputs": [
        {
          "internalType": "bytes32",
          "name": "identityHash",
          "type": "bytes32"
        },
        {
          "internalType": "bytes32",
          "name": "publicKey",
          "type": "bytes32"
        },
        {
          "internalType": "uint256",
          "name": "reputation",
          "type": "uint256"
        },
        {
          "internalType": "uint256",
          "name": "trustScore",
          "type": "uint256"
        },
        {
          "internalType": "uint256",
          "name": "creationTime",
          "type": "uint256"
        },
        {
          "internalType": "bool",
          "name": "isActive",
          "type": "bool"
        },
        {
          "internalType": "bool",
          "name": "isVerified",
          "type": "bool"
        }
      ],
      "stateMutability": "view",
      "type": "function"
    },
    {
      "inputs": [
        {
          "internalType": "bytes32",
          "name": "",
          "type": "bytes32"
        }
      ],
      "name": "identityHashToOwner",
      "outputs": [
        {
          "internalType": "address",
          "name": "",
          "type": "address"
        }
      ],
      "stateMutability": "view",
      "type": "function"
    },
    {
      "inputs": [
        {
          "internalType": "bytes32",
          "name": "identityId",
          "type": "bytes32"
        },
        {
          "internalType": "string",
          "name": "credentialType",
          "type": "string"
        },
        {
          "internalType": "bytes32[]",
          "name": "attributes",
          "type": "bytes32[]"
        },
        {
          "internalType": "uint256",
          "name": "validityPeriod",
          "type": "uint256"
        }
      ],
      "name": "issueZKCredential",
      "outputs": [
        {
          "internalType": "bytes32",
          "name": "",
          "type": "bytes32"
        }
      ],
      "stateMutability": "nonpayable",
      "type": "function"
    },
    {
      "inputs": [],
      "name": "owner",
      "outputs": [
        {
          "internalType": "address",
          "name": "",
          "type": "address"
        }
      ],
      "stateMutability": "view",
      "type": "function"
    },
    {
      "inputs": [
        {
          "internalType": "bytes32",
          "name": "",
          "type": "bytes32"
        }
      ],
      "name": "proofs",
      "outputs": [
        {
          "internalType": "bytes32",
          "name": "publicInputsHash",
          "type": "bytes32"
        },
        {
          "internalType": "bool",
          "name": "verified",
          "type": "bool"
        },
        {
          "internalType": "uint256",
          "name": "verificationTime",
          "type": "uint256"
        }
      ],
      "stateMutability": "view",
      "type": "function"
    },
    {
      "inputs": [],
      "name": "renounceOwnership",
      "outputs": [],
      "stateMutability": "nonpayable",
      "type": "function"
    },
    {
      "inputs": [
        {
          "internalType": "bytes32",
          "name": "credentialId",
          "type": "bytes32"
        }
      ],
      "name": "revokeZKCredential",
      "outputs": [],
      "stateMutability": "nonpayable",
      "type": "function"
    },
    {
      "inputs": [
        {
          "components": [
            {
              "internalType": "uint256[2]",
              "name": "a",
              "type": "uint256[2]"
            },
            {
              "internalType": "uint256[2][2]",
              "name": "b",
              "type": "uint256[2][2]"
            },
            {
              "internalType": "uint256[2]",
              "name": "c",
              "type": "uint256[2]"
            },
            {
              "internalType": "uint256[]",
              "name": "inputs",
              "type": "uint256[]"
            },
            {
              "internalType": "bytes32",
              "name": "publicInputsHash",
              "type": "bytes32"
            },
            {
              "internalType": "bool",
              "name": "verified",
              "type": "bool"
            },
            {
              "internalType": "uint256",
              "name": "verificationTime",
              "type": "uint256"
            }
          ],
          "internalType": "struct SentinelZKIdentity.ZKProof",
          "name": "proof",
          "type": "tuple"
        },
        {
          "internalType": "bytes32",
          "name": "publicInputsHash",
          "type": "bytes32"
        },
        {
          "internalType": "string",
          "name": "proofType",
          "type": "string"
        }
      ],
      "name": "submitZKProof",
      "outputs": [
        {
          "internalType": "bool",
          "name": "",
          "type": "bool"
        }
      ],
      "stateMutability": "nonpayable",
      "type": "function"
    },
    {
      "inputs": [
        {
          "internalType": "address",
          "name": "newOwner",
          "type": "address"
        }
      ],
      "name": "transferOwnership",
      "outputs": [],
      "stateMutability": "nonpayable",
      "type": "function"
    },
    {
      "inputs": [
        {
          "internalType": "uint256",
          "name": "",
          "type": "uint256"
        }
      ],
      "name": "verifiedCredentials",
      "outputs": [
        {
          "internalType": "bytes32",
          "name": "",
          "type": "bytes32"
        }
      ],
      "stateMutability": "view",
      "type": "function"
    },
    {
      "inputs": [
        {
          "internalType": "bytes32",
          "name": "credentialId",
          "type": "bytes32"
        },
        {
          "components": [
            {
              "internalType": "uint256[2]",
              "name": "a",
              "type": "uint256[2]"
            },
            {
              "internalType": "uint256[2][2]",
              "name": "b",
              "type": "uint256[2][2]"
            },
            {
              "internalType": "uint256[2]",
              "name": "c",
              "type": "uint256[2]"
            },
            {
              "internalType": "uint256[]",
              "name": "inputs",
              "type": "uint256[]"
            },
            {
              "internalType": "bytes32",
              "name": "publicInputsHash",
              "type": "bytes32"
            },
            {
              "internalType": "bool",
              "name": "verified",
              "type": "bool"
            },
            {
              "internalType": "uint256",
              "name": "verificationTime",
              "type": "uint256"
            }
          ],
          "internalType": "struct SentinelZKIdentity.ZKProof",
          "name": "presentationProof",
          "type": "tuple"
        }
      ],
      "name": "verifyZKCredential",
      "outputs": [
        {
          "internalType": "bool",
          "name": "",
          "type": "bool"
        }
      ],
      "stateMutability": "view",
      "type": "function"
    }
  ],
  "bytecode": "0x608060405234801561000f575f5ffd5b50604051611d17380380611d1783398101604081905261002e91610128565b806001600160a01b03811661005d57604051631e4fbdf760e01b81525f60048201526024015b60405180910390fd5b610066816100d9565b5060017f9b779b17422d0df92223018b32b4d1fa46e071723d6817e2486d003becc55f00556001600160a01b0381166100d35760405162461bcd60e51b815260206004820152600f60248201526e2d25a49d103d32b9379037bbb732b960891b6044820152606401610054565b50610155565b5f80546001600160a01b038381166001600160a01b0319831681178455604051919092169283917f8be0079c531659141344cd1fd0a4f28419497f9722a3daafe3b4186f6b6457e09190a35050565b5f60208284031215610138575f5ffd5b81516001600160a01b038116811461014e575f5ffd5b9392505050565b611bb5806101625f395ff3fe608060405234801561000f575f5ffd5b506004361061013d575f3560e01c80637ab0c957116100b4578063a52ac23911610079578063a52ac23914610359578063e19129a91461036c578063e24519671461037f578063ea01d3a8146103a4578063f2fde38b146103b7578063f653b81e146103ca575f5ffd5b80637ab0c9571461030657806386eab30b146103195780638da5cb5b14610323578063984d2e5f146103335780639e2d342314610346575f5ffd5b806347dcc0761161010557806347dcc076146102395780634cbc4c3714610261578063697c6045146102765780636c3a90a41461027e578063715018a6146102f557806374c8d377146102fd575f5ffd5b80630b88a6ff146101415780631c8294d6146101865780632cf77ab8146101ae57806340368cb7146101c7578063444d95b0146101ea575b5f5ffd5b61016961014f366004611375565b60056020525f90815260409020546001600160a01b031681565b6040516001600160a01b0390911681526020015b60405180910390f35b610169610194366004611375565b60036020525f90815260409020546001600160a01b031681565b6101b96301e1338081565b60405190815260200161017d565b6101da6101d53660046113a3565b610452565b604051901515815260200161017d565b61021e6101f8366004611375565b60026020525f908152604090206009810154600a820154600b90920154909160ff169083565b6040805193845291151560208401529082015260600161017d565b610169610247366004611375565b60046020525f90815260409020546001600160a01b031681565b61027461026f366004611375565b61058c565b005b6101b9606481565b6102cb61028c366004611401565b6001600160a01b03165f908152600160205260409020805460028201546003830154600584015460069094015492949193909261010090910460ff1691565b6040805195865260208601949094529284019190915215156060830152608082015260a00161017d565b610274610693565b6101b96103e881565b6101b9610314366004611375565b6106a6565b6101b962ed4e0081565b5f546001600160a01b0316610169565b6101da61034136600461141a565b6106c5565b6101b961035436600461148e565b610762565b6101b9610367366004611375565b610a5a565b6101da61037a36600461153d565b610bd1565b61039261038d366004611375565b610f75565b60405161017d969594939291906115ab565b6101b96103b2366004611375565b611050565b6102746103c5366004611401565b61105f565b6104196103d8366004611401565b600160208190525f91825260409091208054918101546002820154600383015460048401546005909401549293919290919060ff8082169161010090041687565b6040805197885260208801969096529486019390935260608501919091526080840152151560a0830152151560c082015260e00161017d565b5f5f61045d8461109c565b600781015490915060ff16801561047e57506007810154610100900460ff16155b6104c45760405162461bcd60e51b815260206004820152601260248201527110dc9959195b9d1a585b081a5b9d985b1a5960721b60448201526064015b60405180910390fd5b806005015442111561050d5760405162461bcd60e51b815260206004820152601260248201527110dc9959195b9d1a585b08195e1c1a5c995960721b60448201526064016104bb565b5f84826003015460405160200161055492919091825260208201527f63726564656e7469616c5f70726573656e746174696f6e000000000000000000604082015260570190565b6040516020818303038152906040528051906020012090505f6105808561057a906117aa565b83611123565b93505050505b92915050565b5f6105968261109c565b5f838152600360205260409020549091506001600160a01b031633146105f65760405162461bcd60e51b81526020600482015260156024820152742737ba1031b932b232b73a34b0b61034b9b9bab2b960591b60448201526064016104bb565b60078101805461ff00191661010017905560038101545f90610617906111a5565b6001600160a01b0381165f9081526001602052604090206002015490915061067390603210610646575f61066d565b6001600160a01b0382165f9081526001602052604090206002015461066d90603290611860565b5f6111fe565b6001600160a01b039091165f908152600160205260409020600201555050565b61069b611210565b6106a45f61123c565b565b600681815481106106b5575f80fd5b5f91825260209091200154905081565b6001600160a01b0383165f9081526001602052604081206005015460ff16801561070e57506001600160a01b0384165f90815260016020526040902060050154610100900460ff165b801561073457506001600160a01b0384165f908152600160205260409020600201548311155b801561075a57506001600160a01b0384165f908152600160205260409020600301548211155b949350505050565b5f61076b611210565b62ed4e008211156107be5760405162461bcd60e51b815260206004820152601860248201527f56616c696469747920706572696f6420746f6f206c6f6e67000000000000000060448201526064016104bb565b5f87878742336040516020016107d8959493929190611873565b6040516020818303038152906040528051906020012090505f60015f6107fd8b6111a5565b6001600160a01b0316815260208082019290925260409081015f9081208582526007019092529020828155905060018101610839888a83611921565b506040516001600160601b03193360601b16602082015260340160408051601f198184030181529190528051602090910120600282015560038101899055426004820181905561088a9085906119da565b600582015560078101805461ffff191660011790555f5b85811015610914576040516330ba3a3960e11b6020820152602481018290525f906044016040516020818303038152906040528051906020012090508787838181106108ef576108ef6119ed565b5f938452600886016020908152604090942093029190910135909155506001016108a1565b508186864260405160200161092c9493929190611a01565b60408051601f19818403018152919052805160209091012060068201555f6001816109568c6111a5565b6001600160a01b0316815260208082019290925260409081015f9081206006810180546001818101835591845285842001889055878352600390945291812080546001600160a01b0319163317905560078054938401815590527fa66cc928b5edb82af9bd49922954155ab7b0942694bea4ce44661d9a8736c68890910184905590506109e28a6111a5565b5f848152600560205260409081902080546001600160a01b0319166001600160a01b039390931692909217909155518a9084907f7df63979e70c24ccf13810a2cea606158f4aef30e0186eee3db556c2abda340890610a44908d908d90611a39565b60405180910390a3509098975050505050505050565b335f9081526001602052604081206004015415610ab95760405162461bcd60e51b815260206004820152601760248201527f4964656e7469747920616c72656164792065786973747300000000000000000060448201526064016104bb565b6040516001600160601b03193360601b166020820152603481018390524260548201526d7a6b5f6964656e746974795f763160901b60748201525f9060820160408051808303601f190181528282528051602091820120335f81815260018085528582208481558082018b90556101f460028201556102586003820155426004808301919091556005909101805461ffff1916831790556006805492830190557ff652222313e28459528d920b65115c16c04f3efc82aaedc97be59f3f377c0d3f90910184905583825284529390932080546001600160a01b03191684179055808452935090917fc57bc26436cd8a34f73d087e078b8b500467ab264f8aab6e1afaafa5978483fd910160405180910390a292915050565b335f9081526001602052604081206005015460ff16610c285760405162461bcd60e51b81526020600482015260136024820152724964656e74697479206e6f742061637469766560681b60448201526064016104bb565b5f3385858542604051602001610c42959493929190611a67565b6040516020818303038152906040528051906020012090505f610c6e87610c68906117aa565b87611123565b6040805161012081018252919250819060e08201908a9060029083908390808284375f920182905250928452505060408051808201825260209093019291908b0190600290835b82821015610cf2576040805180820182529080840286019060029083908390808284375f9201919091525050508152600190910190602001610cb5565b5050505081526020018860c00160028060200260405190810160405280929190826002602002808284375f9201919091525050508152602001610d396101008a018a611a9b565b808060200260200160405190810160405280939291908181526020018383602002808284375f92018290525093855250505060208083018a90528415156040808501919091524260609094019390935285825260029081905291902082519091610da491839161128b565b506020820151610dba90600280840191906112c9565b506040820151610dd0906006830190600261128b565b5060608201518051610dec916008840191602090910190611310565b506080820151600982015560a0820151600a8201805460ff191691151591909117905560c090910151600b909101558015610f2f57335f908152600160209081526040918290209151610e5b91017434b232b73a34ba3cafbb32b934b334b1b0ba34b7b760591b815260150190565b604051602081830303815290604052805190602001208686604051602001610e84929190611ae0565b6040516020818303038152906040528051906020012003610f145760058101805461ff0019166101001790556003810154610ed690610ec49060646119da565b6103e85f828218828410028218611209565b600382018190558154604051918252907f524cd89279531e143cb8186b8cc75caff6548ba5d35d8d53f9b943a4ded69fde9060200160405180910390a25b610f288160020154600a610ec491906119da565b6002909101555b817f66d2dc79d8953fadbd0e56c33e50264c7aad1f6eb6484e7678728653eb7b76d782604051610f63911515815260200190565b60405180910390a29695505050505050565b60605f5f5f5f5f5f610f868861109c565b60028101546004820154600583015460078401546001850180549596509460ff80831692610100900416908690610fbc906118a3565b80601f0160208091040260200160405190810160405280929190818152602001828054610fe8906118a3565b80156110335780601f1061100a57610100808354040283529160200191611033565b820191905f5260205f20905b81548152906001019060200180831161101657829003601f168201915b505050505095509650965096509650965096505091939550919395565b600781815481106106b5575f80fd5b611067611210565b6001600160a01b03811661109057604051631e4fbdf760e01b81525f60048201526024016104bb565b6110998161123c565b50565b5f818152600560205260408120546001600160a01b0316806110f75760405162461bcd60e51b815260206004820152601460248201527310dc9959195b9d1a585b081b9bdd08199bdd5b9960621b60448201526064016104bb565b6001600160a01b03165f9081526001602090815260408083209483526007909401905291909120919050565b81518051602091820151828501518051805190850151918501518051908601516040808a015180519089015160608c015192515f9a8b9a6111759a9099909897909690959094939290918e9101611aef565b60408051601f1981840301815291905280516020909101209050605a61119c606483611b60565b10949350505050565b5f818152600460205260408120546001600160a01b0316806105865760405162461bcd60e51b81526020600482015260126024820152711259195b9d1a5d1e481b9bdd08199bdd5b9960721b60448201526064016104bb565b5f8282188284110282185b9392505050565b5f546001600160a01b031633146106a45760405163118cdaa760e01b81523360048201526024016104bb565b5f80546001600160a01b038381166001600160a01b0319831681178455604051919092169283917f8be0079c531659141344cd1fd0a4f28419497f9722a3daafe3b4186f6b6457e09190a35050565b82600281019282156112b9579160200282015b828111156112b957825182559160200191906001019061129e565b506112c5929150611348565b5090565b600483019183908215611304579160200282015b828111156113045782516112f4908390600261128b565b50916020019190600201906112dd565b506112c592915061135c565b828054828255905f5260205f209081019282156112b957916020028201828111156112b957825182559160200191906001019061129e565b5b808211156112c5575f8155600101611349565b808211156112c5575f808255600182015560020161135c565b5f60208284031215611385575f5ffd5b5035919050565b5f610180828403121561139d575f5ffd5b50919050565b5f5f604083850312156113b4575f5ffd5b8235915060208301356001600160401b038111156113d0575f5ffd5b6113dc8582860161138c565b9150509250929050565b80356001600160a01b03811681146113fc575f5ffd5b919050565b5f60208284031215611411575f5ffd5b611209826113e6565b5f5f5f6060848603121561142c575f5ffd5b611435846113e6565b95602085013595506040909401359392505050565b5f5f83601f84011261145a575f5ffd5b5081356001600160401b03811115611470575f5ffd5b602083019150836020828501011115611487575f5ffd5b9250929050565b5f5f5f5f5f5f608087890312156114a3575f5ffd5b8635955060208701356001600160401b038111156114bf575f5ffd5b6114cb89828a0161144a565b90965094505060408701356001600160401b038111156114e9575f5ffd5b8701601f810189136114f9575f5ffd5b80356001600160401b0381111561150e575f5ffd5b8960208260051b8401011115611522575f5ffd5b96999598509396602090940195946060909401359392505050565b5f5f5f5f60608587031215611550575f5ffd5b84356001600160401b03811115611565575f5ffd5b6115718782880161138c565b9450506020850135925060408501356001600160401b03811115611593575f5ffd5b61159f8782880161144a565b95989497509550505050565b60c081525f87518060c08401528060208a0160e085015e5f60e0828501015260e0601f19601f830116840101915050866020830152856040830152846060830152831515608083015282151560a0830152979650505050505050565b634e487b7160e01b5f52604160045260245ffd5b60405160e081016001600160401b038111828210171561163d5761163d611607565b60405290565b604051601f8201601f191681016001600160401b038111828210171561166b5761166b611607565b604052919050565b5f82601f830112611682575f5ffd5b61168c6040611643565b80604084018581111561169d575f5ffd5b845b818110156116b757803584526020938401930161169f565b509095945050505050565b5f82601f8301126116d1575f5ffd5b60406116dc81611643565b8060808501868111156116ed575f5ffd5b855b81811015611710576117018882611673565b845260209093019284016116ef565b50909695505050505050565b5f82601f83011261172b575f5ffd5b81356001600160401b0381111561174457611744611607565b8060051b61175460208201611643565b9182526020818501810192908101908684111561176f575f5ffd5b6020860192505b83831015611791578235825260209283019290910190611776565b9695505050505050565b803580151581146113fc575f5ffd5b5f61018082360312156117bb575f5ffd5b6117c361161b565b6117cd3684611673565b81526117dc36604085016116c2565b60208201526117ee3660c08501611673565b60408201526101008301356001600160401b0381111561180c575f5ffd5b6118183682860161171c565b6060830152506101208301356080820152611836610140840161179b565b60a0820152610160929092013560c08301525090565b634e487b7160e01b5f52601160045260245ffd5b818103818111156105865761058661184c565b85815283856020830137602093019283019190915260601b6001600160601b031916604082015260540192915050565b600181811c908216806118b757607f821691505b60208210810361139d57634e487b7160e01b5f52602260045260245ffd5b601f82111561191c57805f5260205f20601f840160051c810160208510156118fa5750805b601f840160051c820191505b81811015611919575f8155600101611906565b50505b505050565b6001600160401b0383111561193857611938611607565b61194c8361194683546118a3565b836118d5565b5f601f84116001811461197d575f85156119665750838201355b5f19600387901b1c1916600186901b178355611919565b5f83815260208120601f198716915b828110156119ac578685013582556020948501946001909201910161198c565b50868210156119c8575f1960f88860031b161c19848701351681555b505060018560011b0183555050505050565b808201808211156105865761058661184c565b634e487b7160e01b5f52603260045260245ffd5b8481525f6001600160fb1b03841115611a18575f5ffd5b8360051b808660208501376020920191820192909252604001949350505050565b60208152816020820152818360408301375f818301604090810191909152601f909201601f19160101919050565b6bffffffffffffffffffffffff198660601b1681528460148201528284603483013760349201918201526054019392505050565b5f5f8335601e19843603018112611ab0575f5ffd5b8301803591506001600160401b03821115611ac9575f5ffd5b6020019150600581901b3603821315611487575f5ffd5b818382375f9101908152919050565b8a81528960208201528860408201528760608201528660808201528560a08201528460c08201528360e08201525f61010082018451602086015f5b82811015611b48578151845260209384019390910190600101611b2a565b50505092835250506020019998505050505050505050565b5f82611b7a57634e487b7160e01b5f52601260045260245ffd5b50069056fea26469706673582212208ec433a026f104333c887626c68212395da425f66e4197b77e25a2f07c0559f564736f6c634300081c0033",
  "linkReferences": {},
  "deployedLinkReferences": {},
  "immutableReferences": {},
  "inputSourceName": "project/contracts/SentinelZKIdentity.sol",
  "buildInfoId": "solc-0_8_28-1b5c21a21cac4f08cf2c8993926ccb888320140e"
}