{
  "_format": "hh3-artifact-1",
  "contractName": "SentinelLiquidityMining",
  "sourceName": "contracts/SentinelLiquidityMining.sol",
  "abi": [
    {
      "inputs": [
        {
          "internalType": "address",
          "name": "_lpToken",
          "type": "address"
        },
        {
          "internalType": "address",
          "name": "_rewardToken",
          "type": "address"
        },
        {
          "internalType": "uint256",
          "name": "_rewardPerSecond",
          "type": "uint256"
        },
        {
          "internalType": "address",
          "name": "initialOwner",
          "type": "address"
        }
      ],
      "stateMutability": "nonpayable",
      "type": "constructor"
    },
    {
      "inputs": [],
      "name": "AccessControlBadConfirmation",
      "type": "error"
    },
    {
      "inputs": [
        {
          "internalType": "address",
          "name": "account",
          "type": "address"
        },
        {
          "internalType": "bytes32",
          "name": "neededRole",
          "type": "bytes32"
        }
      ],
      "name": "AccessControlUnauthorizedAccount",
      "type": "error"
    },
    {
      "inputs": [],
      "name": "EnforcedPause",
      "type": "error"
    },
    {
      "inputs": [],
      "name": "ExpectedPause",
      "type": "error"
    },
    {
      "inputs": [],
      "name": "ReentrancyGuardReentrantCall",
      "type": "error"
    },
    {
      "inputs": [
        {
          "internalType": "address",
          "name": "token",
          "type": "address"
        }
      ],
      "name": "SafeERC20FailedOperation",
      "type": "error"
    },
    {
      "anonymous": false,
      "inputs": [
        {
          "indexed": true,
          "internalType": "address",
          "name": "user",
          "type": "address"
        },
        {
          "indexed": false,
          "internalType": "uint256",
          "name": "poolId",
          "type": "uint256"
        },
        {
          "indexed": false,
          "internalType": "uint256",
          "name": "amount",
          "type": "uint256"
        }
      ],
      "name": "Deposited",
      "type": "event"
    },
    {
      "anonymous": false,
      "inputs": [
        {
          "indexed": true,
          "internalType": "address",
          "name": "user",
          "type": "address"
        },
        {
          "indexed": false,
          "internalType": "uint256",
          "name": "poolId",
          "type": "uint256"
        },
        {
          "indexed": false,
          "internalType": "uint256",
          "name": "amount",
          "type": "uint256"
        }
      ],
      "name": "EmergencyWithdrawn",
      "type": "event"
    },
    {
      "anonymous": false,
      "inputs": [
        {
          "indexed": true,
          "internalType": "address",
          "name": "user",
          "type": "address"
        },
        {
          "indexed": false,
          "internalType": "uint256",
          "name": "amount",
          "type": "uint256"
        }
      ],
      "name": "FeeShared",
      "type": "event"
    },
    {
      "anonymous": false,
      "inputs": [
        {
          "indexed": true,
          "internalType": "address",
          "name": "user",
          "type": "address"
        },
        {
          "indexed": false,
          "internalType": "uint256",
          "name": "poolId",
          "type": "uint256"
        },
        {
          "indexed": false,
          "internalType": "uint256",
          "name": "amount",
          "type": "uint256"
        }
      ],
      "name": "Harvested",
      "type": "event"
    },
    {
      "anonymous": false,
      "inputs": [
        {
          "indexed": false,
          "internalType": "address",
          "name": "account",
          "type": "address"
        }
      ],
      "name": "Paused",
      "type": "event"
    },
    {
      "anonymous": false,
      "inputs": [
        {
          "indexed": false,
          "internalType": "uint256",
          "name": "poolId",
          "type": "uint256"
        },
        {
          "indexed": false,
          "internalType": "uint256",
          "name": "allocPoint",
          "type": "uint256"
        },
        {
          "indexed": false,
          "internalType": "uint256",
          "name": "baseAPY",
          "type": "uint256"
        }
      ],
      "name": "PoolCreated",
      "type": "event"
    },
    {
      "anonymous": false,
      "inputs": [
        {
          "indexed": true,
          "internalType": "bytes32",
          "name": "role",
          "type": "bytes32"
        },
        {
          "indexed": true,
          "internalType": "bytes32",
          "name": "previousAdminRole",
          "type": "bytes32"
        },
        {
          "indexed": true,
          "internalType": "bytes32",
          "name": "newAdminRole",
          "type": "bytes32"
        }
      ],
      "name": "RoleAdminChanged",
      "type": "event"
    },
    {
      "anonymous": false,
      "inputs": [
        {
          "indexed": true,
          "internalType": "bytes32",
          "name": "role",
          "type": "bytes32"
        },
        {
          "indexed": true,
          "internalType": "address",
          "name": "account",
          "type": "address"
        },
        {
          "indexed": true,
          "internalType": "address",
          "name": "sender",
          "type": "address"
        }
      ],
      "name": "RoleGranted",
      "type": "event"
    },
    {
      "anonymous": false,
      "inputs": [
        {
          "indexed": true,
          "internalType": "bytes32",
          "name": "role",
          "type": "bytes32"
        },
        {
          "indexed": true,
          "internalType": "address",
          "name": "account",
          "type": "address"
        },
        {
          "indexed": true,
          "internalType": "address",
          "name": "sender",
          "type": "address"
        }
      ],
      "name": "RoleRevoked",
      "type": "event"
    },
    {
      "anonymous": false,
      "inputs": [
        {
          "indexed": false,
          "internalType": "address",
          "name": "account",
          "type": "address"
        }
      ],
      "name": "Unpaused",
      "type": "event"
    },
    {
      "anonymous": false,
      "inputs": [
        {
          "indexed": true,
          "internalType": "address",
          "name": "user",
          "type": "address"
        },
        {
          "indexed": false,
          "internalType": "uint256",
          "name": "poolId",
          "type": "uint256"
        },
        {
          "indexed": false,
          "internalType": "uint256",
          "name": "amount",
          "type": "uint256"
        }
      ],
      "name": "Withdrawn",
      "type": "event"
    },
    {
      "inputs": [],
      "name": "BASE_APY",
      "outputs": [
        {
          "internalType": "uint256",
          "name": "",
          "type": "uint256"
        }
      ],
      "stateMutability": "view",
      "type": "function"
    },
    {
      "inputs": [],
      "name": "BRONZE_MULTIPLIER",
      "outputs": [
        {
          "internalType": "uint256",
          "name": "",
          "type": "uint256"
        }
      ],
      "stateMutability": "view",
      "type": "function"
    },
    {
      "inputs": [],
      "name": "DEFAULT_ADMIN_ROLE",
      "outputs": [
        {
          "internalType": "bytes32",
          "name": "",
          "type": "bytes32"
        }
      ],
      "stateMutability": "view",
      "type": "function"
    },
    {
      "inputs": [],
      "name": "GOLD_MULTIPLIER",
      "outputs": [
        {
          "internalType": "uint256",
          "name": "",
          "type": "uint256"
        }
      ],
      "stateMutability": "view",
      "type": "function"
    },
    {
      "inputs": [],
      "name": "MAX_APY",
      "outputs": [
        {
          "internalType": "uint256",
          "name": "",
          "type": "uint256"
        }
      ],
      "stateMutability": "view",
      "type": "function"
    },
    {
      "inputs": [],
      "name": "PLATINUM_MULTIPLIER",
      "outputs": [
        {
          "internalType": "uint256",
          "name": "",
          "type": "uint256"
        }
      ],
      "stateMutability": "view",
      "type": "function"
    },
    {
      "inputs": [],
      "name": "REWARD_DISTRIBUTOR_ROLE",
      "outputs": [
        {
          "internalType": "bytes32",
          "name": "",
          "type": "bytes32"
        }
      ],
      "stateMutability": "view",
      "type": "function"
    },
    {
      "inputs": [],
      "name": "SILVER_MULTIPLIER",
      "outputs": [
        {
          "internalType": "uint256",
          "name": "",
          "type": "uint256"
        }
      ],
      "stateMutability": "view",
      "type": "function"
    },
    {
      "inputs": [],
      "name": "bridgeFeeShareAPY",
      "outputs": [
        {
          "internalType": "uint256",
          "name": "",
          "type": "uint256"
        }
      ],
      "stateMutability": "view",
      "type": "function"
    },
    {
      "inputs": [
        {
          "internalType": "uint256",
          "name": "poolId",
          "type": "uint256"
        },
        {
          "internalType": "uint256",
          "name": "amount",
          "type": "uint256"
        }
      ],
      "name": "deposit",
      "outputs": [],
      "stateMutability": "nonpayable",
      "type": "function"
    },
    {
      "inputs": [
        {
          "internalType": "uint256",
          "name": "feeAmount",
          "type": "uint256"
        }
      ],
      "name": "distributeBridgeFees",
      "outputs": [],
      "stateMutability": "nonpayable",
      "type": "function"
    },
    {
      "inputs": [
        {
          "internalType": "uint256",
          "name": "poolId",
          "type": "uint256"
        }
      ],
      "name": "emergencyWithdraw",
      "outputs": [],
      "stateMutability": "nonpayable",
      "type": "function"
    },
    {
      "inputs": [
        {
          "internalType": "bytes32",
          "name": "role",
          "type": "bytes32"
        }
      ],
      "name": "getRoleAdmin",
      "outputs": [
        {
          "internalType": "bytes32",
          "name": "",
          "type": "bytes32"
        }
      ],
      "stateMutability": "view",
      "type": "function"
    },
    {
      "inputs": [
        {
          "internalType": "uint256",
          "name": "poolId",
          "type": "uint256"
        },
        {
          "internalType": "address",
          "name": "user",
          "type": "address"
        }
      ],
      "name": "getUserAPY",
      "outputs": [
        {
          "internalType": "uint256",
          "name": "",
          "type": "uint256"
        }
      ],
      "stateMutability": "view",
      "type": "function"
    },
    {
      "inputs": [
        {
          "internalType": "bytes32",
          "name": "role",
          "type": "bytes32"
        },
        {
          "internalType": "address",
          "name": "account",
          "type": "address"
        }
      ],
      "name": "grantRole",
      "outputs": [],
      "stateMutability": "nonpayable",
      "type": "function"
    },
    {
      "inputs": [
        {
          "internalType": "uint256",
          "name": "poolId",
          "type": "uint256"
        }
      ],
      "name": "harvest",
      "outputs": [],
      "stateMutability": "nonpayable",
      "type": "function"
    },
    {
      "inputs": [
        {
          "internalType": "bytes32",
          "name": "role",
          "type": "bytes32"
        },
        {
          "internalType": "address",
          "name": "account",
          "type": "address"
        }
      ],
      "name": "hasRole",
      "outputs": [
        {
          "internalType": "bool",
          "name": "",
          "type": "bool"
        }
      ],
      "stateMutability": "view",
      "type": "function"
    },
    {
      "inputs": [],
      "name": "lpToken",
      "outputs": [
        {
          "internalType": "contract IERC20",
          "name": "",
          "type": "address"
        }
      ],
      "stateMutability": "view",
      "type": "function"
    },
    {
      "inputs": [],
      "name": "paused",
      "outputs": [
        {
          "internalType": "bool",
          "name": "",
          "type": "bool"
        }
      ],
      "stateMutability": "view",
      "type": "function"
    },
    {
      "inputs": [
        {
          "internalType": "uint256",
          "name": "poolId",
          "type": "uint256"
        },
        {
          "internalType": "address",
          "name": "user",
          "type": "address"
        }
      ],
      "name": "pendingRewards",
      "outputs": [
        {
          "internalType": "uint256",
          "name": "",
          "type": "uint256"
        }
      ],
      "stateMutability": "view",
      "type": "function"
    },
    {
      "inputs": [
        {
          "internalType": "uint256",
          "name": "",
          "type": "uint256"
        }
      ],
      "name": "pools",
      "outputs": [
        {
          "internalType": "uint256",
          "name": "allocPoint",
          "type": "uint256"
        },
        {
          "internalType": "uint256",
          "name": "lastRewardTime",
          "type": "uint256"
        },
        {
          "internalType": "uint256",
          "name": "accRewardPerShare",
          "type": "uint256"
        },
        {
          "internalType": "uint256",
          "name": "totalStaked",
          "type": "uint256"
        },
        {
          "internalType": "uint256",
          "name": "baseAPY",
          "type": "uint256"
        },
        {
          "internalType": "bool",
          "name": "emergencyWithdrawEnabled",
          "type": "bool"
        }
      ],
      "stateMutability": "view",
      "type": "function"
    },
    {
      "inputs": [
        {
          "internalType": "uint256",
          "name": "",
          "type": "uint256"
        },
        {
          "internalType": "address",
          "name": "",
          "type": "address"
        }
      ],
      "name": "positions",
      "outputs": [
        {
          "internalType": "uint256",
          "name": "amount",
          "type": "uint256"
        },
        {
          "internalType": "uint256",
          "name": "stakedAt",
          "type": "uint256"
        },
        {
          "internalType": "uint256",
          "name": "lastHarvest",
          "type": "uint256"
        },
        {
          "internalType": "uint256",
          "name": "accumulatedRewards",
          "type": "uint256"
        },
        {
          "internalType": "uint256",
          "name": "multiplier",
          "type": "uint256"
        },
        {
          "internalType": "uint256",
          "name": "lockPeriod",
          "type": "uint256"
        }
      ],
      "stateMutability": "view",
      "type": "function"
    },
    {
      "inputs": [],
      "name": "referralAPY",
      "outputs": [
        {
          "internalType": "uint256",
          "name": "",
          "type": "uint256"
        }
      ],
      "stateMutability": "view",
      "type": "function"
    },
    {
      "inputs": [
        {
          "internalType": "bytes32",
          "name": "role",
          "type": "bytes32"
        },
        {
          "internalType": "address",
          "name": "callerConfirmation",
          "type": "address"
        }
      ],
      "name": "renounceRole",
      "outputs": [],
      "stateMutability": "nonpayable",
      "type": "function"
    },
    {
      "inputs": [
        {
          "internalType": "bytes32",
          "name": "role",
          "type": "bytes32"
        },
        {
          "internalType": "address",
          "name": "account",
          "type": "address"
        }
      ],
      "name": "revokeRole",
      "outputs": [],
      "stateMutability": "nonpayable",
      "type": "function"
    },
    {
      "inputs": [],
      "name": "rewardPerSecond",
      "outputs": [
        {
          "internalType": "uint256",
          "name": "",
          "type": "uint256"
        }
      ],
      "stateMutability": "view",
      "type": "function"
    },
    {
      "inputs": [],
      "name": "rewardToken",
      "outputs": [
        {
          "internalType": "contract IERC20",
          "name": "",
          "type": "address"
        }
      ],
      "stateMutability": "view",
      "type": "function"
    },
    {
      "inputs": [],
      "name": "securityRewardAPY",
      "outputs": [
        {
          "internalType": "uint256",
          "name": "",
          "type": "uint256"
        }
      ],
      "stateMutability": "view",
      "type": "function"
    },
    {
      "inputs": [],
      "name": "startTime",
      "outputs": [
        {
          "internalType": "uint256",
          "name": "",
          "type": "uint256"
        }
      ],
      "stateMutability": "view",
      "type": "function"
    },
    {
      "inputs": [
        {
          "internalType": "bytes4",
          "name": "interfaceId",
          "type": "bytes4"
        }
      ],
      "name": "supportsInterface",
      "outputs": [
        {
          "internalType": "bool",
          "name": "",
          "type": "bool"
        }
      ],
      "stateMutability": "view",
      "type": "function"
    },
    {
      "inputs": [],
      "name": "totalAllocPoint",
      "outputs": [
        {
          "internalType": "uint256",
          "name": "",
          "type": "uint256"
        }
      ],
      "stateMutability": "view",
      "type": "function"
    },
    {
      "inputs": [],
      "name": "totalFeeShare",
      "outputs": [
        {
          "internalType": "uint256",
          "name": "",
          "type": "uint256"
        }
      ],
      "stateMutability": "view",
      "type": "function"
    },
    {
      "inputs": [
        {
          "internalType": "address",
          "name": "",
          "type": "address"
        }
      ],
      "name": "userFeeShare",
      "outputs": [
        {
          "internalType": "uint256",
          "name": "",
          "type": "uint256"
        }
      ],
      "stateMutability": "view",
      "type": "function"
    },
    {
      "inputs": [
        {
          "internalType": "uint256",
          "name": "poolId",
          "type": "uint256"
        },
        {
          "internalType": "uint256",
          "name": "amount",
          "type": "uint256"
        }
      ],
      "name": "withdraw",
      "outputs": [],
      "stateMutability": "nonpayable",
      "type": "function"
    }
  ],
  "bytecode": "0x60806040526064600555604b600655601960075534801561001e575f5ffd5b50604051611cf0380380611cf083398101604081905261003d9161046c565b60017f9b779b17422d0df92223018b32b4d1fa46e071723d6817e2486d003becc55f00556001600160a01b0384166100af5760405162461bcd60e51b815260206004820152601060248201526f24b73b30b634b2102628103a37b5b2b760811b60448201526064015b60405180910390fd5b6001600160a01b0383166101055760405162461bcd60e51b815260206004820152601460248201527f496e76616c69642072657761726420746f6b656e00000000000000000000000060448201526064016100a6565b6001600160a01b03811661014b5760405162461bcd60e51b815260206004820152600d60248201526c24b73b30b634b21037bbb732b960991b60448201526064016100a6565b60018054610100600160a81b0319166101006001600160a01b038781169190910291909117909155600280546001600160a01b031916918516919091179055600982905542600a5561019d5f8261020a565b506101c87fb814ff4a26ea3ec5cd1fa579daad86324826254265f3acfec78303a19845b4498261020a565b506101d76103e861012c6102b3565b6101e56105dc61015e6102b3565b6101f36107d06101a46102b3565b610201610bb86101f46102b3565b505050506104f0565b5f828152602081815260408083206001600160a01b038516845290915281205460ff166102aa575f838152602081815260408083206001600160a01b03861684529091529020805460ff191660011790556102623390565b6001600160a01b0316826001600160a01b0316847f2f8788117e7eff1d82e926ec794901d17c78024a50270940304540a733656f0d60405160405180910390a45060016102ad565b505f5b92915050565b8160085f8282546102c491906104ca565b90915550506040805160c081018252838152600a54602082019081525f928201838152606083018481526080840186815260a0850186815260038054600180820183559882905296517fc2575a0e9e593c00f959f8c92f12db2869c3395a3b0502d05e2516446f71f85b60069098029788015594517fc2575a0e9e593c00f959f8c92f12db2869c3395a3b0502d05e2516446f71f85c87015592517fc2575a0e9e593c00f959f8c92f12db2869c3395a3b0502d05e2516446f71f85d86015590517fc2575a0e9e593c00f959f8c92f12db2869c3395a3b0502d05e2516446f71f85e850155517fc2575a0e9e593c00f959f8c92f12db2869c3395a3b0502d05e2516446f71f85f840155517fc2575a0e9e593c00f959f8c92f12db2869c3395a3b0502d05e2516446f71f860909201805460ff191692151592909217909155547f6a0c7fbf44f6331867816b75328f586816c7ff60b5f3b71d7ccd1da786a938989161042f916104dd565b6040805191825260208201859052810183905260600160405180910390a15050565b80516001600160a01b0381168114610467575f5ffd5b919050565b5f5f5f5f6080858703121561047f575f5ffd5b61048885610451565b935061049660208601610451565b9250604085015191506104ab60608601610451565b905092959194509250565b634e487b7160e01b5f52601160045260245ffd5b808201808211156102ad576102ad6104b6565b818103818111156102ad576102ad6104b6565b6117f3806104fd5f395ff3fe608060405234801561000f575f5ffd5b50600436106101fc575f3560e01c80635fcbd28511610114578063b640f85d116100a9578063d5a7760d11610079578063d5a7760d14610438578063ddc6326214610440578063e2bbb15814610453578063e684d71814610466578063f7c618c1146104dd575f5ffd5b8063b640f85d146103f7578063bb2c73481461040a578063d18df53c14610412578063d547741f14610425575f5ffd5b80638f10369a116100e45780638f10369a1461039257806391d148541461039b578063a217fddf146103ae578063ac4afa38146103b5575f5ffd5b80635fcbd2851461033d57806370239c7f1461036d57806378e9792514610380578063872d63a014610389575f5ffd5b806332e4bb0a11610195578063441a3e7011610165578063441a3e70146102fa5780634ca19fd61461030d5780635312ea8e146103165780635c975abb146103295780635ed83d7014610334575f5ffd5b806332e4bb0a146102af57806336568abe146102d65780633d92f4e2146102e957806340bdcb12146102f2575f5ffd5b8063248a9ca3116101d0578063248a9ca31461025157806327e0d885146102735780632f2ff15d1461027b57806331b88af214610290575f5ffd5b8062ae76ff1461020057806301ffc9a71461021c578063127dc2511461023f57806317caf6f114610248575b5f5ffd5b61020960055481565b6040519081526020015b60405180910390f35b61022f61022a366004611630565b6104f0565b6040519015158152602001610213565b610209600b5481565b61020960085481565b61020961025f36600461165e565b5f9081526020819052604090206001015490565b61020960c881565b61028e610289366004611690565b610526565b005b61020961029e3660046116ba565b600c6020525f908152604090205481565b6102097fb814ff4a26ea3ec5cd1fa579daad86324826254265f3acfec78303a19845b44981565b61028e6102e4366004611690565b610550565b6102096101f481565b610209606e81565b61028e6103083660046116d3565b610588565b61020961012c81565b61028e61032436600461165e565b61078c565b60015460ff1661022f565b61020960065481565b6001546103559061010090046001600160a01b031681565b6040516001600160a01b039091168152602001610213565b61020961037b366004611690565b61092d565b610209600a5481565b61020960075481565b61020960095481565b61022f6103a9366004611690565b610a37565b6102095f81565b6103c86103c336600461165e565b610a5f565b6040805196875260208701959095529385019290925260608401526080830152151560a082015260c001610213565b61028e61040536600461165e565b610aa6565b610209607d81565b610209610420366004611690565b610bb2565b61028e610433366004611690565b610d70565b610209609681565b61028e61044e36600461165e565b610d94565b61028e6104613660046116d3565b610ee6565b6104b0610474366004611690565b600460208181525f9384526040808520909152918352912080546001820154600283015460038401549484015460059094015492949193909286565b604080519687526020870195909552938501929092526060840152608083015260a082015260c001610213565b600254610355906001600160a01b031681565b5f6001600160e01b03198216637965db0b60e01b148061052057506301ffc9a760e01b6001600160e01b03198316145b92915050565b5f8281526020819052604090206001015461054081611093565b61054a838361109d565b50505050565b6001600160a01b03811633146105795760405163334bd91960e11b815260040160405180910390fd5b610583828261112c565b505050565b610590611195565b60035482106105ba5760405162461bcd60e51b81526004016105b1906116f3565b60405180910390fd5b5f8281526004602090815260408083203384529091529020805482111561061a5760405162461bcd60e51b8152602060048201526014602482015273496e73756666696369656e742062616c616e636560601b60448201526064016105b1565b610623836111b0565b5f61062e8433611279565b90505f818360030154610641919061172d565b5f6003850181905542600286015584549192508591859190610664908490611740565b92505081905550836003868154811061067f5761067f611753565b905f5260205f2090600602016003015f82825461069c9190611740565b90915550508254156106b95782546106b3906113fc565b60048401555b6001546106d59061010090046001600160a01b03163386611468565b80156106f2576002546106f2906001600160a01b03163383611468565b604080518681526020810186905233917f92ccf450a286a957af52509bc1c9939d1a6a481783e142e41e2499f0bb66ebc6910160405180910390a2801561076f57604080518681526020810183905233917f81ca9b2c230070eaa84787556b1aaf18bf1e2f07ea5d3dae4819db77a1a5b224910160405180910390a25b50505061078860015f51602061179e5f395f51905f5255565b5050565b610794611195565b60035481106107b55760405162461bcd60e51b81526004016105b1906116f3565b5f600382815481106107c9576107c9611753565b5f9182526020909120600690910201600581015490915060ff1661082f5760405162461bcd60e51b815260206004820152601e60248201527f456d657267656e6379207769746864726177206e6f7420656e61626c6564000060448201526064016105b1565b5f82815260046020908152604080832033845290915290208054806108965760405162461bcd60e51b815260206004820152601760248201527f4e6f20706f736974696f6e20746f20776974686472617700000000000000000060448201526064016105b1565b5f8083556003808401829055840180548392906108b4908490611740565b90915550506001546108d59061010090046001600160a01b03163383611468565b604080518581526020810183905233917fb47853100b79d8afa66237bdb4f7f09d96628ee23aa8aac8a8c21a901c67ddb291015b60405180910390a250505061092a60015f51602061179e5f395f51905f5255565b50565b6003545f90831061093f57505f610520565b5f8381526004602081815260408084206001600160a01b03871685528252808420815160c08101835281548082526001830154948201949094526002820154928101929092526003810154606083015292830154608082015260059092015460a08301529091036109b3575f915050610520565b5f600385815481106109c7576109c7611753565b905f5260205f2090600602016004015490505f826080015190505f6006546005546109f2919061172d565b90505f816064610a028587611767565b610a0c919061177e565b610a16919061172d565b90506101f48111610a275780610a2b565b6101f45b98975050505050505050565b5f918252602082815260408084206001600160a01b0393909316845291905290205460ff1690565b60038181548110610a6e575f80fd5b5f9182526020909120600690910201805460018201546002830154600384015460048501546005909501549395509193909260ff1686565b7fb814ff4a26ea3ec5cd1fa579daad86324826254265f3acfec78303a19845b449610ad081611093565b5f8211610b1f5760405162461bcd60e51b815260206004820152601860248201527f43616e6e6f74206469737472696275746520302066656573000000000000000060448201526064016105b1565b5f5b600354811015610583575f60038281548110610b3f57610b3f611753565b905f5260205f209060060201600301541115610baa575f60085460038381548110610b6c57610b6c611753565b905f5260205f2090600602015f015485610b869190611767565b610b90919061177e565b905080600b5f828254610ba3919061172d565b9091555050505b600101610b21565b6003545f908310610bc457505f610520565b5f8381526004602081815260408084206001600160a01b03871685528252808420815160c08101835281548082526001830154948201949094526002820154928101929092526003810154606083015292830154608082015260059092015460a0830152909103610c38575f915050610520565b5f60038581548110610c4c57610c4c611753565b5f9182526020918290206040805160c0810182526006909302909101805483526001810154938301849052600281015491830182905260038101546060840152600481015460808401526005015460ff16151560a08301529092509042118015610cb95750606082015115155b15610d2a575f826020015142610ccf9190611740565b60085484516009549293505f92610ce69085611767565b610cf09190611767565b610cfa919061177e565b6060850151909150610d118264e8d4a51000611767565b610d1b919061177e565b610d25908461172d565b925050505b60608301516040840151845164e8d4a5100090610d48908590611767565b610d52919061177e565b610d5c9190611740565b610d66919061172d565b9695505050505050565b5f82815260208190526040902060010154610d8a81611093565b61054a838361112c565b610d9c611195565b6003548110610dbd5760405162461bcd60e51b81526004016105b1906116f3565b610dc6816111b0565b5f81815260046020908152604080832033845290915290208054610e225760405162461bcd60e51b8152602060048201526013602482015272139bc81c1bdcda5d1a5bdb881a5b881c1bdbdb606a1b60448201526064016105b1565b5f610e2d8333611279565b90505f818360030154610e40919061172d565b90505f8111610e895760405162461bcd60e51b8152602060048201526015602482015274139bc81c995dd85c991cc81d1bc81a185c9d995cdd605a1b60448201526064016105b1565b5f60038401554260028085019190915554610eae906001600160a01b03163383611468565b604080518581526020810183905233917f81ca9b2c230070eaa84787556b1aaf18bf1e2f07ea5d3dae4819db77a1a5b2249101610909565b610eee611195565b610ef661149d565b6003548210610f175760405162461bcd60e51b81526004016105b1906116f3565b5f8111610f595760405162461bcd60e51b815260206004820152601060248201526f043616e6e6f74206465706f73697420360841b60448201526064016105b1565b610f62826111b0565b5f8281526004602090815260408083203384529091529020805415610fad575f610f8c8433611279565b905080826003015f828254610fa1919061172d565b90915550610fbb915050565b426001820181905560028201555b8054610fd090610fcb908461172d565b6113fc565b6004820155600154610ff29061010090046001600160a01b03163330856114c3565b81815f015f828254611004919061172d565b92505081905550816003848154811061101f5761101f611753565b905f5260205f2090600602016003015f82825461103c919061172d565b9091555050604080518481526020810184905233917f73a19dd210f1a7f902193214c0ee91dd35ee5b4d920cba8d519eca65a7b488ca910160405180910390a25061078860015f51602061179e5f395f51905f5255565b61092a81336114f9565b5f6110a88383610a37565b611125575f838152602081815260408083206001600160a01b03861684529091529020805460ff191660011790556110dd3390565b6001600160a01b0316826001600160a01b0316847f2f8788117e7eff1d82e926ec794901d17c78024a50270940304540a733656f0d60405160405180910390a4506001610520565b505f610520565b5f6111378383610a37565b15611125575f838152602081815260408083206001600160a01b0386168085529252808320805460ff1916905551339286917ff6391f5c32d9c69d2a47ea670b442974b53935d1edc7fd64eb21e047a839171b9190a4506001610520565b61119d611532565b60025f51602061179e5f395f51905f5255565b5f600382815481106111c4576111c4611753565b905f5260205f2090600602019050806001015442116111e1575050565b80600301545f036111f6574260019091015550565b5f8160010154426112079190611740565b60085483546009549293505f9261121e9085611767565b6112289190611767565b611232919061177e565b60038401549091506112498264e8d4a51000611767565b611253919061177e565b836002015f828254611265919061172d565b909155505042600190930192909255505050565b5f8281526004602081815260408084206001600160a01b03861685528252808420815160c0810183528154815260018201549381019390935260028101549183019190915260038082015460608401529281015460808301526005015460a0820152815490918391869081106112f1576112f1611753565b5f9182526020918290206040805160c0810182526006909302909101805483526001810154938301849052600281015491830182905260038101546060840152600481015460808401526005015460ff16151560a0830152909250904211801561135e5750606082015115155b156113cf575f8260200151426113749190611740565b60085484516009549293505f9261138b9085611767565b6113959190611767565b61139f919061177e565b60608501519091506113b68264e8d4a51000611767565b6113c0919061177e565b6113ca908461172d565b925050505b6040830151835164e8d4a51000906113e8908490611767565b6113f2919061177e565b610d669190611740565b5f69152d02c7e14af68000008210611416575060c8919050565b690a968163f0a57b400000821061142f57506096919050565b69021e19e0c9bab240000082106114485750607d919050565b683635c9adc5dea0000082106114605750606e919050565b506064919050565b6114758383836001611561565b61058357604051635274afe760e01b81526001600160a01b03841660048201526024016105b1565b60015460ff16156114c15760405163d93c066560e01b815260040160405180910390fd5b565b6114d18484848460016115c3565b61054a57604051635274afe760e01b81526001600160a01b03851660048201526024016105b1565b6115038282610a37565b6107885760405163e2517d3f60e01b81526001600160a01b0382166004820152602481018390526044016105b1565b5f51602061179e5f395f51905f52546002036114c157604051633ee5aeb560e01b815260040160405180910390fd5b60405163a9059cbb60e01b5f8181526001600160a01b038616600452602485905291602083604481808b5af1925060015f511483166115b75783831516156115ab573d5f823e3d81fd5b5f873b113d1516831692505b60405250949350505050565b6040516323b872dd60e01b5f8181526001600160a01b038781166004528616602452604485905291602083606481808c5af1925060015f5114831661161f578383151615611613573d5f823e3d81fd5b5f883b113d1516831692505b604052505f60605295945050505050565b5f60208284031215611640575f5ffd5b81356001600160e01b031981168114611657575f5ffd5b9392505050565b5f6020828403121561166e575f5ffd5b5035919050565b80356001600160a01b038116811461168b575f5ffd5b919050565b5f5f604083850312156116a1575f5ffd5b823591506116b160208401611675565b90509250929050565b5f602082840312156116ca575f5ffd5b61165782611675565b5f5f604083850312156116e4575f5ffd5b50508035926020909101359150565b6020808252600c908201526b125b9d985b1a59081c1bdbdb60a21b604082015260600190565b634e487b7160e01b5f52601160045260245ffd5b8082018082111561052057610520611719565b8181038181111561052057610520611719565b634e487b7160e01b5f52603260045260245ffd5b808202811582820484141761052057610520611719565b5f8261179857634e487b7160e01b5f52601260045260245ffd5b50049056fe9b779b17422d0df92223018b32b4d1fa46e071723d6817e2486d003becc55f00a26469706673582212205f7ef3624d7fdc11756544a179de51e4805f78cd2f6e64287d9ea7092d4f83bf64736f6c634300081c0033",
  "linkReferences": {},
  "deployedLinkReferences": {},
  "immutableReferences": {},
  "inputSourceName": "project/contracts/SentinelLiquidityMining.sol",
  "buildInfoId": "solc-0_8_28-1b5c21a21cac4f08cf2c8993926ccb888320140e"
}