{
  "_format": "hh3-artifact-1",
  "contractName": "SentinelOracleNetwork",
  "sourceName": "contracts/SentinelOracleNetwork.sol",
  "abi": [
    {
      "inputs": [
        {
          "internalType": "address",
          "name": "initialOwner",
          "type": "address"
        }
      ],
      "stateMutability": "nonpayable",
      "type": "constructor"
    },
    {
      "inputs": [],
      "name": "ECDSAInvalidSignature",
      "type": "error"
    },
    {
      "inputs": [
        {
          "internalType": "uint256",
          "name": "length",
          "type": "uint256"
        }
      ],
      "name": "ECDSAInvalidSignatureLength",
      "type": "error"
    },
    {
      "inputs": [
        {
          "internalType": "bytes32",
          "name": "s",
          "type": "bytes32"
        }
      ],
      "name": "ECDSAInvalidSignatureS",
      "type": "error"
    },
    {
      "inputs": [
        {
          "internalType": "address",
          "name": "owner",
          "type": "address"
        }
      ],
      "name": "OwnableInvalidOwner",
      "type": "error"
    },
    {
      "inputs": [
        {
          "internalType": "address",
          "name": "account",
          "type": "address"
        }
      ],
      "name": "OwnableUnauthorizedAccount",
      "type": "error"
    },
    {
      "inputs": [],
      "name": "ReentrancyGuardReentrantCall",
      "type": "error"
    },
    {
      "anonymous": false,
      "inputs": [
        {
          "indexed": true,
          "internalType": "address",
          "name": "activator",
          "type": "address"
        },
        {
          "indexed": false,
          "internalType": "string",
          "name": "reason",
          "type": "string"
        }
      ],
      "name": "EmergencyShutdown",
      "type": "event"
    },
    {
      "anonymous": false,
      "inputs": [
        {
          "indexed": true,
          "internalType": "address",
          "name": "oracle",
          "type": "address"
        },
        {
          "indexed": false,
          "internalType": "uint256",
          "name": "stake",
          "type": "uint256"
        }
      ],
      "name": "OracleRegistered",
      "type": "event"
    },
    {
      "anonymous": false,
      "inputs": [
        {
          "indexed": true,
          "internalType": "address",
          "name": "previousOwner",
          "type": "address"
        },
        {
          "indexed": true,
          "internalType": "address",
          "name": "newOwner",
          "type": "address"
        }
      ],
      "name": "OwnershipTransferred",
      "type": "event"
    },
    {
      "anonymous": false,
      "inputs": [
        {
          "indexed": true,
          "internalType": "string",
          "name": "symbol",
          "type": "string"
        },
        {
          "indexed": false,
          "internalType": "uint256",
          "name": "price",
          "type": "uint256"
        },
        {
          "indexed": true,
          "internalType": "address",
          "name": "oracle",
          "type": "address"
        }
      ],
      "name": "PriceSubmitted",
      "type": "event"
    },
    {
      "anonymous": false,
      "inputs": [
        {
          "indexed": true,
          "internalType": "address",
          "name": "oracle",
          "type": "address"
        },
        {
          "indexed": false,
          "internalType": "uint256",
          "name": "newReputation",
          "type": "uint256"
        }
      ],
      "name": "ReputationUpdated",
      "type": "event"
    },
    {
      "anonymous": false,
      "inputs": [
        {
          "indexed": true,
          "internalType": "string",
          "name": "metric",
          "type": "string"
        },
        {
          "indexed": false,
          "internalType": "uint256",
          "name": "value",
          "type": "uint256"
        },
        {
          "indexed": true,
          "internalType": "address",
          "name": "reporter",
          "type": "address"
        }
      ],
      "name": "SecurityMetricReported",
      "type": "event"
    },
    {
      "inputs": [],
      "name": "MAX_ORACLES",
      "outputs": [
        {
          "internalType": "uint256",
          "name": "",
          "type": "uint256"
        }
      ],
      "stateMutability": "view",
      "type": "function"
    },
    {
      "inputs": [],
      "name": "MAX_REPUTATION",
      "outputs": [
        {
          "internalType": "uint256",
          "name": "",
          "type": "uint256"
        }
      ],
      "stateMutability": "view",
      "type": "function"
    },
    {
      "inputs": [],
      "name": "MIN_STAKE",
      "outputs": [
        {
          "internalType": "uint256",
          "name": "",
          "type": "uint256"
        }
      ],
      "stateMutability": "view",
      "type": "function"
    },
    {
      "inputs": [],
      "name": "PRICE_VALIDITY",
      "outputs": [
        {
          "internalType": "uint256",
          "name": "",
          "type": "uint256"
        }
      ],
      "stateMutability": "view",
      "type": "function"
    },
    {
      "inputs": [],
      "name": "REPUTATION_PENALTY",
      "outputs": [
        {
          "internalType": "uint256",
          "name": "",
          "type": "uint256"
        }
      ],
      "stateMutability": "view",
      "type": "function"
    },
    {
      "inputs": [],
      "name": "REPUTATION_REWARD",
      "outputs": [
        {
          "internalType": "uint256",
          "name": "",
          "type": "uint256"
        }
      ],
      "stateMutability": "view",
      "type": "function"
    },
    {
      "inputs": [],
      "name": "SUBMISSION_WINDOW",
      "outputs": [
        {
          "internalType": "uint256",
          "name": "",
          "type": "uint256"
        }
      ],
      "stateMutability": "view",
      "type": "function"
    },
    {
      "inputs": [
        {
          "internalType": "string",
          "name": "symbol",
          "type": "string"
        },
        {
          "internalType": "uint8",
          "name": "decimals",
          "type": "uint8"
        }
      ],
      "name": "addSupportedAsset",
      "outputs": [],
      "stateMutability": "nonpayable",
      "type": "function"
    },
    {
      "inputs": [],
      "name": "emergencyShutdown",
      "outputs": [
        {
          "internalType": "bool",
          "name": "",
          "type": "bool"
        }
      ],
      "stateMutability": "view",
      "type": "function"
    },
    {
      "inputs": [
        {
          "internalType": "address",
          "name": "oracle",
          "type": "address"
        }
      ],
      "name": "getOracleInfo",
      "outputs": [
        {
          "internalType": "bool",
          "name": "active",
          "type": "bool"
        },
        {
          "internalType": "uint256",
          "name": "reputation",
          "type": "uint256"
        },
        {
          "internalType": "uint256",
          "name": "stake",
          "type": "uint256"
        },
        {
          "internalType": "uint256",
          "name": "lastSubmission",
          "type": "uint256"
        }
      ],
      "stateMutability": "view",
      "type": "function"
    },
    {
      "inputs": [
        {
          "internalType": "string",
          "name": "symbol",
          "type": "string"
        }
      ],
      "name": "getPrice",
      "outputs": [
        {
          "internalType": "uint256",
          "name": "price",
          "type": "uint256"
        },
        {
          "internalType": "uint256",
          "name": "timestamp",
          "type": "uint256"
        },
        {
          "internalType": "uint256",
          "name": "confidence",
          "type": "uint256"
        },
        {
          "internalType": "bool",
          "name": "isValid",
          "type": "bool"
        }
      ],
      "stateMutability": "view",
      "type": "function"
    },
    {
      "inputs": [
        {
          "internalType": "string",
          "name": "metricName",
          "type": "string"
        }
      ],
      "name": "getSecurityMetric",
      "outputs": [
        {
          "internalType": "uint256",
          "name": "latestValue",
          "type": "uint256"
        },
        {
          "internalType": "uint256",
          "name": "timestamp",
          "type": "uint256"
        },
        {
          "internalType": "uint256",
          "name": "averageReliability",
          "type": "uint256"
        }
      ],
      "stateMutability": "view",
      "type": "function"
    },
    {
      "inputs": [],
      "name": "lastSecurityUpdate",
      "outputs": [
        {
          "internalType": "uint256",
          "name": "",
          "type": "uint256"
        }
      ],
      "stateMutability": "view",
      "type": "function"
    },
    {
      "inputs": [
        {
          "internalType": "uint256",
          "name": "",
          "type": "uint256"
        }
      ],
      "name": "metricTypes",
      "outputs": [
        {
          "internalType": "string",
          "name": "",
          "type": "string"
        }
      ],
      "stateMutability": "view",
      "type": "function"
    },
    {
      "inputs": [],
      "name": "networkSecurityScore",
      "outputs": [
        {
          "internalType": "uint256",
          "name": "",
          "type": "uint256"
        }
      ],
      "stateMutability": "view",
      "type": "function"
    },
    {
      "inputs": [
        {
          "internalType": "uint256",
          "name": "",
          "type": "uint256"
        }
      ],
      "name": "oracleList",
      "outputs": [
        {
          "internalType": "address",
          "name": "",
          "type": "address"
        }
      ],
      "stateMutability": "view",
      "type": "function"
    },
    {
      "inputs": [
        {
          "internalType": "address",
          "name": "",
          "type": "address"
        }
      ],
      "name": "oracles",
      "outputs": [
        {
          "internalType": "address",
          "name": "oracleAddress",
          "type": "address"
        },
        {
          "internalType": "bytes32",
          "name": "publicKey",
          "type": "bytes32"
        },
        {
          "internalType": "uint256",
          "name": "reputation",
          "type": "uint256"
        },
        {
          "internalType": "uint256",
          "name": "lastSubmission",
          "type": "uint256"
        },
        {
          "internalType": "uint256",
          "name": "lastSubmissionBlock",
          "type": "uint256"
        },
        {
          "internalType": "bool",
          "name": "active",
          "type": "bool"
        },
        {
          "internalType": "uint256",
          "name": "stake",
          "type": "uint256"
        }
      ],
      "stateMutability": "view",
      "type": "function"
    },
    {
      "inputs": [],
      "name": "owner",
      "outputs": [
        {
          "internalType": "address",
          "name": "",
          "type": "address"
        }
      ],
      "stateMutability": "view",
      "type": "function"
    },
    {
      "inputs": [
        {
          "internalType": "string",
          "name": "",
          "type": "string"
        }
      ],
      "name": "priceFeeds",
      "outputs": [
        {
          "internalType": "string",
          "name": "symbol",
          "type": "string"
        },
        {
          "internalType": "uint256",
          "name": "price",
          "type": "uint256"
        },
        {
          "internalType": "uint256",
          "name": "timestamp",
          "type": "uint256"
        },
        {
          "internalType": "uint256",
          "name": "confidence",
          "type": "uint256"
        },
        {
          "internalType": "uint8",
          "name": "decimals",
          "type": "uint8"
        },
        {
          "internalType": "bool",
          "name": "isActive",
          "type": "bool"
        }
      ],
      "stateMutability": "view",
      "type": "function"
    },
    {
      "inputs": [
        {
          "internalType": "bytes32",
          "name": "publicKey",
          "type": "bytes32"
        }
      ],
      "name": "registerOracle",
      "outputs": [],
      "stateMutability": "payable",
      "type": "function"
    },
    {
      "inputs": [],
      "name": "renounceOwnership",
      "outputs": [],
      "stateMutability": "nonpayable",
      "type": "function"
    },
    {
      "inputs": [
        {
          "internalType": "string",
          "name": "metricName",
          "type": "string"
        },
        {
          "internalType": "uint256",
          "name": "value",
          "type": "uint256"
        },
        {
          "internalType": "bytes",
          "name": "signature",
          "type": "bytes"
        }
      ],
      "name": "reportSecurityMetric",
      "outputs": [],
      "stateMutability": "nonpayable",
      "type": "function"
    },
    {
      "inputs": [
        {
          "internalType": "string",
          "name": "",
          "type": "string"
        },
        {
          "internalType": "uint256",
          "name": "",
          "type": "uint256"
        }
      ],
      "name": "securityMetrics",
      "outputs": [
        {
          "internalType": "string",
          "name": "metricName",
          "type": "string"
        },
        {
          "internalType": "uint256",
          "name": "value",
          "type": "uint256"
        },
        {
          "internalType": "uint256",
          "name": "timestamp",
          "type": "uint256"
        },
        {
          "internalType": "uint256",
          "name": "reliability",
          "type": "uint256"
        },
        {
          "internalType": "address",
          "name": "reporter",
          "type": "address"
        }
      ],
      "stateMutability": "view",
      "type": "function"
    },
    {
      "inputs": [
        {
          "internalType": "address",
          "name": "oracle",
          "type": "address"
        },
        {
          "internalType": "uint256",
          "name": "penalty",
          "type": "uint256"
        }
      ],
      "name": "slashOracle",
      "outputs": [],
      "stateMutability": "nonpayable",
      "type": "function"
    },
    {
      "inputs": [
        {
          "internalType": "string",
          "name": "symbol",
          "type": "string"
        },
        {
          "internalType": "uint256",
          "name": "price",
          "type": "uint256"
        },
        {
          "internalType": "uint256",
          "name": "confidence",
          "type": "uint256"
        },
        {
          "internalType": "bytes",
          "name": "signature",
          "type": "bytes"
        }
      ],
      "name": "submitPriceFeed",
      "outputs": [],
      "stateMutability": "nonpayable",
      "type": "function"
    },
    {
      "inputs": [
        {
          "internalType": "uint256",
          "name": "",
          "type": "uint256"
        }
      ],
      "name": "supportedAssets",
      "outputs": [
        {
          "internalType": "string",
          "name": "",
          "type": "string"
        }
      ],
      "stateMutability": "view",
      "type": "function"
    },
    {
      "inputs": [
        {
          "internalType": "address",
          "name": "newOwner",
          "type": "address"
        }
      ],
      "name": "transferOwnership",
      "outputs": [],
      "stateMutability": "nonpayable",
      "type": "function"
    },
    {
      "inputs": [
        {
          "internalType": "string",
          "name": "reason",
          "type": "string"
        }
      ],
      "name": "triggerEmergencyShutdown",
      "outputs": [],
      "stateMutability": "nonpayable",
      "type": "function"
    }
  ],
  "bytecode": "0x608060405234801561000f575f5ffd5b50604051612a77380380612a7783398101604081905261002e91610295565b806001600160a01b03811661005d57604051631e4fbdf760e01b81525f60048201526024015b60405180910390fd5b610066816100df565b5060017f9b779b17422d0df92223018b32b4d1fa46e071723d6817e2486d003becc55f00556001600160a01b0381166100d15760405162461bcd60e51b815260206004820152600d60248201526c24b73b30b634b21037bbb732b960991b6044820152606401610054565b6100d961012e565b50610414565b5f80546001600160a01b038381166001600160a01b0319831681178455604051919092169283917f8be0079c531659141344cd1fd0a4f28419497f9722a3daafe3b4186f6b6457e09190a35050565b610320600755426008556009805460ff19169055600680546001810182555f9190915260408051808201909152600d81526c185b9bdb585b1e57d8dbdd5b9d609a1b60208201525f516020612a575f395f51905f5290910190610191908261035a565b50600680546001810182555f9190915260408051808201909152600d81526c6272696467655f766f6c756d6560981b60208201525f516020612a575f395f51905f52909101906101e1908261035a565b50600680546001810182555f9190915260408051808201909152601481527f6f7261636c655f70617274696369706174696f6e00000000000000000000000060208201525f516020612a575f395f51905f5290910190610241908261035a565b50600680546001810182555f9190915260408051808201909152600e81526d6e6574776f726b5f757074696d6560901b60208201525f516020612a575f395f51905f5290910190610292908261035a565b50565b5f602082840312156102a5575f5ffd5b81516001600160a01b03811681146102bb575f5ffd5b9392505050565b634e487b7160e01b5f52604160045260245ffd5b600181811c908216806102ea57607f821691505b60208210810361030857634e487b7160e01b5f52602260045260245ffd5b50919050565b601f82111561035557805f5260205f20601f840160051c810160208510156103335750805b601f840160051c820191505b81811015610352575f815560010161033f565b50505b505050565b81516001600160401b03811115610373576103736102c2565b6103878161038184546102d6565b8461030e565b6020601f8211600181146103b9575f83156103a25750848201515b5f19600385901b1c1916600184901b178455610352565b5f84815260208120601f198516915b828110156103e857878501518255602094850194600190920191016103c8565b508482101561040557868401515f19600387901b60f8161c191681555b50505050600190811b01905550565b612636806104215f395ff3fe6080604052600436106101af575f3560e01c8063b40f0bb2116100e7578063cb1c2b5c11610087578063d74f913a11610062578063d74f913a146105e0578063d9cbef6c146104eb578063e74cecbd146105ff578063f2fde38b14610639575f5ffd5b8063cb1c2b5c1461057e578063cb8ae86c1461059a578063d213c0f2146105cb575f5ffd5b8063c240cae3116100c2578063c240cae3146104ff578063c584dba51461052b578063c5fa06491461054a578063c68dbb371461055f575f5ffd5b8063b40f0bb214610416578063bfdb6b0414610435578063bfedbfa0146104eb575f5ffd5b80635f88a61b116101525780638da5cb5b1161012d5780638da5cb5b1461031e5780639bd55ed61461033a578063acfbe56514610359578063addd50991461036e575f5ffd5b80635f88a61b146102e15780636fd465f8146102f5578063715018a61461030a575f5ffd5b8063357aeefb1161018d578063357aeefb1461022d5780634fa469eb146102515780635156af4b14610270578063524f3889146102a0575f5ffd5b806310561215146101b3578063239aad0d146101c85780633403c2fc14610204575b5f5ffd5b6101c66101c1366004611eb0565b610658565b005b3480156101d3575f5ffd5b506101e76101e2366004611eb0565b610866565b6040516001600160a01b0390911681526020015b60405180910390f35b34801561020f575f5ffd5b5060095461021d9060ff1681565b60405190151581526020016101fb565b348015610238575f5ffd5b506102436201518081565b6040519081526020016101fb565b34801561025c575f5ffd5b506101c661026b366004611f0b565b61088e565b34801561027b575f5ffd5b5061028f61028a36600461201f565b610b96565b6040516101fb95949392919061208e565b3480156102ab575f5ffd5b506102bf6102ba3660046120cd565b610c83565b60408051948552602085019390935291830152151560608201526080016101fb565b3480156102ec575f5ffd5b50610243600a81565b348015610300575f5ffd5b5061024360075481565b348015610315575f5ffd5b506101c6610dc5565b348015610329575f5ffd5b505f546001600160a01b03166101e7565b348015610345575f5ffd5b506101c661035436600461210b565b610dd8565b348015610364575f5ffd5b5061024360085481565b348015610379575f5ffd5b506103d561038836600461217d565b600160208190525f918252604090912080549181015460028201546003830154600484015460058501546006909501546001600160a01b0390961695939492939192909160ff9091169087565b604080516001600160a01b03909816885260208801969096529486019390935260608501919091526080840152151560a083015260c082015260e0016101fb565b348015610421575f5ffd5b506101c661043036600461219d565b610f85565b348015610440575f5ffd5b506104c961044f36600461217d565b6001600160a01b039081165f90815260016020818152604092839020835160e081018552815490951685529182015490840152600281015491830182905260038101546060840181905260048201546080850152600582015460ff16151560a0850181905260069092015460c09094018490529093919291565b60408051941515855260208501939093529183015260608201526080016101fb565b3480156104f6575f5ffd5b50610243603281565b34801561050a575f5ffd5b5061051e610519366004611eb0565b61114b565b6040516101fb91906121c5565b348015610536575f5ffd5b506101c66105453660046120cd565b6111f1565b348015610555575f5ffd5b50610243610e1081565b34801561056a575f5ffd5b5061051e610579366004611eb0565b611246565b348015610589575f5ffd5b50610243683635c9adc5dea0000081565b3480156105a5575f5ffd5b506105b96105b43660046121d7565b611255565b6040516101fb96959493929190612210565b3480156105d6575f5ffd5b506102436103e881565b3480156105eb575f5ffd5b506101c66105fa366004612250565b611321565b34801561060a575f5ffd5b5061061e6106193660046120cd565b61158e565b604080519384526020840192909252908201526060016101fb565b348015610644575f5ffd5b506101c661065336600461217d565b6117e4565b683635c9adc5dea000003410156106ab5760405162461bcd60e51b8152602060048201526012602482015271496e73756666696369656e74207374616b6560701b60448201526064015b60405180910390fd5b335f9081526001602052604090206005015460ff16156107025760405162461bcd60e51b8152602060048201526012602482015271105b1c9958591e481c9959da5cdd195c995960721b60448201526064016106a2565b6004546032116107435760405162461bcd60e51b815260206004820152600c60248201526b13995d1ddbdc9ac8199d5b1b60a21b60448201526064016106a2565b806107855760405162461bcd60e51b8152602060048201526012602482015271496e76616c6964207075626c6963206b657960701b60448201526064016106a2565b6040805160e0810182523380825260208083019485526101f483850190815242606085019081525f60808601818152600160a088018181523460c08a0190815288855296829052988320975188546001600160a01b03919091166001600160a01b031991821617895599518882015593516002880155915160038701559051600480870191909155955160058601805491151560ff19909216919091179055915160069094019390935583549283018455929092527f8a35acfbc15ff81a39ae7d344fd709f28e8600b4aa8c65c6b64bfe7fe36bd19b018054909216179055565b60048181548110610875575f80fd5b5f918252602090912001546001600160a01b0316905081565b335f9081526001602052604090206005015460ff166108e65760405162461bcd60e51b81526020600482015260146024820152734e6f7420616e20616374697665206f7261636c6560601b60448201526064016106a2565b60095460ff161561092c5760405162461bcd60e51b815260206004820152601060248201526f2732ba3bb7b9359039b43aba3237bbb760811b60448201526064016106a2565b5f8585854260405160200161094494939291906122d0565b60405160208183030381529060405280519060200120905061099c338285858080601f0160208091040260200160405190810160405280939291908181526020018383808284375f9201919091525061182192505050565b6109dc5760405162461bcd60e51b8152602060048201526011602482015270496e76616c6964207369676e617475726560781b60448201526064016106a2565b6040805160c06020601f8901819004028201810190925260a081018781525f928291908a908a90819085018382808284375f9201829052509385525050506020808301899052426040808501919091523383526001909152902060020154606090910190610a4c90600a906122fe565b8152602001336001600160a01b0316815250905060038787604051610a7292919061231d565b9081526040516020918190038201902080546001810182555f91825291902082518392600502909101908190610aa890826123ad565b506020820151816001015560408201518160020155606082015181600301556080820151816004015f6101000a8154816001600160a01b0302191690836001600160a01b031602179055505050610b3587878080601f0160208091040260200160405190810160405280939291908181526020018383808284375f9201919091525089925061193d915050565b610b40336001611a6f565b6040513390610b52908990899061231d565b604051908190038120878252907f908a375680d126f027e71b0b46a52a917eaa64d4f41a7ad48f3584a7e5756207906020015b60405180910390a350505050505050565b81516020818401810180516003825292820191850191909120919052805482908110610bc0575f80fd5b905f5260205f2090600502015f9150915050805f018054610be09061232c565b80601f0160208091040260200160405190810160405280929190818152602001828054610c0c9061232c565b8015610c575780601f10610c2e57610100808354040283529160200191610c57565b820191905f5260205f20905b815481529060010190602001808311610c3a57829003601f168201915b50505050600183015460028401546003850154600490950154939491939092506001600160a01b031685565b5f5f5f5f5f60028787604051610c9a92919061231d565b90815260200160405180910390206040518060c00160405290815f82018054610cc29061232c565b80601f0160208091040260200160405190810160405280929190818152602001828054610cee9061232c565b8015610d395780601f10610d1057610100808354040283529160200191610d39565b820191905f5260205f20905b815481529060010190602001808311610d1c57829003601f168201915b505050918352505060018201546020820152600282015460408201526003820154606082015260049091015460ff808216608084015261010090910416151560a0918201528101519091505f908015610da4575062015180826040015142610da19190612467565b11155b60208301516040840151606090940151909a93995097509550909350505050565b610dcd611b38565b610dd65f611b64565b565b610de0611b38565b60028383604051610df292919061231d565b9081526040519081900360200190206004015460ff6101009091041615610e5b5760405162461bcd60e51b815260206004820152601760248201527f417373657420616c726561647920737570706f7274656400000000000000000060448201526064016106a2565b6040518060c0016040528084848080601f0160208091040260200160405190810160405280939291908181526020018383808284375f920182905250938552505050602082018190526040808301829052606083019190915260ff84166080830152600160a09092019190915251600290610ed9908690869061231d565b90815260405190819003602001902081518190610ef690826123ad565b506020820151600180830191909155604083015160028301556060830151600383015560808301516004909201805460a09094015115156101000261ffff1990941660ff909316929092179290921790556005805491820181555f527f036b6384b5eca791c62761152d0c79bb0604c104a5fb6f4eb0703f3154bb3db001610f7f83858361247a565b50505050565b610f8d611b38565b6001600160a01b0382165f9081526001602052604090206005015460ff16610feb5760405162461bcd60e51b81526020600482015260116024820152704f7261636c65206e6f742061637469766560781b60448201526064016106a2565b61271081111561102f5760405162461bcd60e51b815260206004820152600f60248201526e496e76616c69642070656e616c747960881b60448201526064016106a2565b6001600160a01b0382165f9081526001602052604081206006015461271090611059908490612533565b61106391906122fe565b6001600160a01b0384165f9081526001602052604090206006015490915061108c908290612467565b6001600160a01b0384165f908152600160205260408120600601919091556110b5908490611a6f565b5f80546040516001600160a01b039091169083908381818185875af1925050503d805f81146110ff576040519150601f19603f3d011682016040523d82523d5f602084013e611104565b606091505b5050905080610f7f5760405162461bcd60e51b8152602060048201526013602482015272115512081d1c985b9cd9995c8819985a5b1959606a1b60448201526064016106a2565b6006818154811061115a575f80fd5b905f5260205f20015f9150905080546111729061232c565b80601f016020809104026020016040519081016040528092919081815260200182805461119e9061232c565b80156111e95780601f106111c0576101008083540402835291602001916111e9565b820191905f5260205f20905b8154815290600101906020018083116111cc57829003601f168201915b505050505081565b6111f9611b38565b6009805460ff1916600117905560405133907fc059eb1d4bd95f8474fba7f0274e10005348381c0963293fafa2b26cb8006c769061123a908590859061254a565b60405180910390a25050565b6005818154811061115a575f80fd5b805160208183018101805160028252928201919093012091528054819061127b9061232c565b80601f01602080910402602001604051908101604052809291908181526020018280546112a79061232c565b80156112f25780601f106112c9576101008083540402835291602001916112f2565b820191905f5260205f20905b8154815290600101906020018083116112d557829003601f168201915b505050506001830154600284015460038501546004909501549394919390925060ff8082169161010090041686565b335f9081526001602052604090206005015460ff166113795760405162461bcd60e51b81526020600482015260146024820152734e6f7420616e20616374697665206f7261636c6560601b60448201526064016106a2565b5f84116113b85760405162461bcd60e51b815260206004820152600d60248201526c496e76616c696420707269636560981b60448201526064016106a2565b6127108311156113ff5760405162461bcd60e51b8152602060048201526012602482015271496e76616c696420636f6e666964656e636560701b60448201526064016106a2565b60095460ff16156114455760405162461bcd60e51b815260206004820152601060248201526f2732ba3bb7b9359039b43aba3237bbb760811b60448201526064016106a2565b5f868686864260405160200161145f959493929190612578565b6040516020818303038152906040528051906020012090506114b7338285858080601f0160208091040260200160405190810160405280939291908181526020018383808284375f9201919091525061182192505050565b6114f75760405162461bcd60e51b8152602060048201526011602482015270496e76616c6964207369676e617475726560781b60448201526064016106a2565b61153a87878080601f0160208091040260200160405190810160405280939291908181526020018383808284375f92019190915250899250889150339050611bb3565b611545336001611a6f565b6040513390611557908990899061231d565b604051908190038120878252907fb31d8cdf84aaec9a22b1890acb135ec7b09f576b9b0045519f3ec51f815fad1d90602001610b85565b5f5f5f5f600386866040516115a492919061231d565b9081526020016040518091039020805480602002602001604051908101604052809291908181526020015f905b828210156116c7578382905f5260205f2090600502016040518060a00160405290815f820180546116019061232c565b80601f016020809104026020016040519081016040528092919081815260200182805461162d9061232c565b80156116785780601f1061164f57610100808354040283529160200191611678565b820191905f5260205f20905b81548152906001019060200180831161165b57829003601f168201915b505050918352505060018281015460208084019190915260028401546040840152600384015460608401526004909301546001600160a01b0316608090920191909152918352920191016115d1565b5050505090505f8151116117145760405162461bcd60e51b81526020600482015260146024820152734e6f206d65747269637320617661696c61626c6560601b60448201526064016106a2565b5f81600183516117249190612467565b8151811061173457611734612597565b602002602001015190505f5f90505f5f90505f600a855111611756575f611764565b600a85516117649190612467565b90505b84518110156117b05784818151811061178257611782612597565b6020026020010151606001518361179991906125ab565b9250816117a5816125be565b925050600101611767565b50826020015183604001515f83116117c8575f6117d2565b6117d283856122fe565b965096509650505050505b9250925092565b6117ec611b38565b6001600160a01b03811661181557604051631e4fbdf760e01b81525f60048201526024016106a2565b61181e81611b64565b50565b6001600160a01b0383165f908152600160208190526040822001546118885760405162461bcd60e51b815260206004820152601860248201527f4e6f207075626c6963206b65792072656769737465726564000000000000000060448201526064016106a2565b7f19457468657265756d205369676e6564204d6573736167653a0a3332000000005f908152601c849052603c8120906118c18285611cbc565b6001600160a01b038088165f81815260016020526040902060040154929350908316149043116119335760405162461bcd60e51b815260206004820152601c60248201527f416c7265616479207375626d6974746564207468697320626c6f636b0000000060448201526064016106a2565b9695505050505050565b6040516c185b9bdb585b1e57d8dbdd5b9d609a1b6020820152602d01604051602081830303815290604052805190602001208260405160200161198091906125d6565b60405160208183030381529060405280519060200120036119cb57600a81106119bb57603281106119b3576101f46119bf565b6102bc6119bf565b6103845b61ffff16600755611a67565b6040516c6272696467655f766f6c756d6560981b6020820152602d016040516020818303038152906040528051906020012082604051602001611a0e91906125d6565b6040516020818303038152906040528051906020012003611a675769152d02c7e14af68000008111611a5b5769021e19e0c9bab24000008111611a53576102ee611a5f565b610352611a5f565b6103b65b61ffff166007555b505042600855565b6001600160a01b0382165f9081526001602052604090208115611abb57600a8160020154611a9d91906125ab565b600282018190556103e81015611ab6576103e860028201555b611ae4565b6032816002015411611acd575f611ade565b60328160020154611ade9190612467565b60028201555b42600382015543600482015560028101546040519081526001600160a01b038416907ffc577563f1b9a0461e24abef1e1fcc0d33d3d881f20b5df6dda59de4aae2c8219060200160405180910390a2505050565b5f546001600160a01b03163314610dd65760405163118cdaa760e01b81523360048201526024016106a2565b5f80546001600160a01b038381166001600160a01b0319831681178455604051919092169283917f8be0079c531659141344cd1fd0a4f28419497f9722a3daafe3b4186f6b6457e09190a35050565b5f600285604051611bc491906125d6565b908152604051908190036020019020600481015490915060ff61010090910416611c265760405162461bcd60e51b8152602060048201526013602482015272105cdcd95d081b9bdd081cdd5c1c1bdc9d1959606a1b60448201526064016106a2565b80600101545f03611c4a576001810184905542600282015560038101839055611cb5565b6001600160a01b0382165f908152600160205260409020600201546103e880611c738388612533565b611c7d8484612467565b8560010154611c8c9190612533565b611c9691906125ab565b611ca091906122fe565b60018401555050426002820155600381018390555b5050505050565b5f5f5f5f611cca8686611ce6565b925092509250611cda8282611d2c565b50909150505b92915050565b5f5f5f8351604103611d1d576020840151604085015160608601515f1a611d0f88828585611de8565b9550955095505050506117dd565b505081515f91506002906117dd565b5f826003811115611d3f57611d3f6125ec565b03611d48575050565b6001826003811115611d5c57611d5c6125ec565b03611d7a5760405163f645eedf60e01b815260040160405180910390fd5b6002826003811115611d8e57611d8e6125ec565b03611daf5760405163fce698f760e01b8152600481018290526024016106a2565b6003826003811115611dc357611dc36125ec565b03611de4576040516335e2f38360e21b8152600481018290526024016106a2565b5050565b5f80807f7fffffffffffffffffffffffffffffff5d576e7357a4501ddfe92f46681b20a0841115611e2157505f91506003905082611ea6565b604080515f808252602082018084528a905260ff891692820192909252606081018790526080810186905260019060a0016020604051602081039080840390855afa158015611e72573d5f5f3e3d5ffd5b5050604051601f1901519150506001600160a01b038116611e9d57505f925060019150829050611ea6565b92505f91508190505b9450945094915050565b5f60208284031215611ec0575f5ffd5b5035919050565b5f5f83601f840112611ed7575f5ffd5b5081356001600160401b03811115611eed575f5ffd5b602083019150836020828501011115611f04575f5ffd5b9250929050565b5f5f5f5f5f60608688031215611f1f575f5ffd5b85356001600160401b03811115611f34575f5ffd5b611f4088828901611ec7565b9096509450506020860135925060408601356001600160401b03811115611f65575f5ffd5b611f7188828901611ec7565b969995985093965092949392505050565b634e487b7160e01b5f52604160045260245ffd5b5f82601f830112611fa5575f5ffd5b81356001600160401b03811115611fbe57611fbe611f82565b604051601f8201601f19908116603f011681016001600160401b0381118282101715611fec57611fec611f82565b604052818152838201602001851015612003575f5ffd5b816020850160208301375f918101602001919091529392505050565b5f5f60408385031215612030575f5ffd5b82356001600160401b03811115612045575f5ffd5b61205185828601611f96565b95602094909401359450505050565b5f81518084528060208401602086015e5f602082860101526020601f19601f83011685010191505092915050565b60a081525f6120a060a0830188612060565b602083019690965250604081019390935260608301919091526001600160a01b0316608090910152919050565b5f5f602083850312156120de575f5ffd5b82356001600160401b038111156120f3575f5ffd5b6120ff85828601611ec7565b90969095509350505050565b5f5f5f6040848603121561211d575f5ffd5b83356001600160401b03811115612132575f5ffd5b61213e86828701611ec7565b909450925050602084013560ff81168114612157575f5ffd5b809150509250925092565b80356001600160a01b0381168114612178575f5ffd5b919050565b5f6020828403121561218d575f5ffd5b61219682612162565b9392505050565b5f5f604083850312156121ae575f5ffd5b6121b783612162565b946020939093013593505050565b602081525f6121966020830184612060565b5f602082840312156121e7575f5ffd5b81356001600160401b038111156121fc575f5ffd5b61220884828501611f96565b949350505050565b60c081525f61222260c0830189612060565b6020830197909752506040810194909452606084019290925260ff166080830152151560a090910152919050565b5f5f5f5f5f5f60808789031215612265575f5ffd5b86356001600160401b0381111561227a575f5ffd5b61228689828a01611ec7565b909750955050602087013593506040870135925060608701356001600160401b038111156122b2575f5ffd5b6122be89828a01611ec7565b979a9699509497509295939492505050565b838582379092019081526020810191909152604001919050565b634e487b7160e01b5f52601160045260245ffd5b5f8261231857634e487b7160e01b5f52601260045260245ffd5b500490565b818382375f9101908152919050565b600181811c9082168061234057607f821691505b60208210810361235e57634e487b7160e01b5f52602260045260245ffd5b50919050565b601f8211156123a857805f5260205f20601f840160051c810160208510156123895750805b601f840160051c820191505b81811015611cb5575f8155600101612395565b505050565b81516001600160401b038111156123c6576123c6611f82565b6123da816123d4845461232c565b84612364565b6020601f82116001811461240c575f83156123f55750848201515b5f19600385901b1c1916600184901b178455611cb5565b5f84815260208120601f198516915b8281101561243b578785015182556020948501946001909201910161241b565b508482101561245857868401515f19600387901b60f8161c191681555b50505050600190811b01905550565b81810381811115611ce057611ce06122ea565b6001600160401b0383111561249157612491611f82565b6124a58361249f835461232c565b83612364565b5f601f8411600181146124d6575f85156124bf5750838201355b5f19600387901b1c1916600186901b178355611cb5565b5f83815260208120601f198716915b8281101561250557868501358255602094850194600190920191016124e5565b5086821015612521575f1960f88860031b161c19848701351681555b505060018560011b0183555050505050565b8082028115828204841417611ce057611ce06122ea565b60208152816020820152818360408301375f818301604090810191909152601f909201601f19160101919050565b8486823790930191825260208201526040810191909152606001919050565b634e487b7160e01b5f52603260045260245ffd5b80820180821115611ce057611ce06122ea565b5f600182016125cf576125cf6122ea565b5060010190565b5f82518060208501845e5f920191825250919050565b634e487b7160e01b5f52602160045260245ffdfea2646970667358221220ef5f2f357ff658073cac71896210ec5947a11355d65bd1b8d83940b472cc657a64736f6c634300081c0033f652222313e28459528d920b65115c16c04f3efc82aaedc97be59f3f377c0d3f",
  "linkReferences": {},
  "deployedLinkReferences": {},
  "immutableReferences": {},
  "inputSourceName": "project/contracts/SentinelOracleNetwork.sol",
  "buildInfoId": "solc-0_8_28-56b4d38520a07143560cd43eeb820c3102363d0a"
}