{
  "_format": "hh3-artifact-1",
  "contractName": "SentinelPredictiveThreatModel",
  "sourceName": "contracts/SentinelPredictiveThreatModel.sol",
  "abi": [
    {
      "inputs": [
        {
          "internalType": "address",
          "name": "initialOwner",
          "type": "address"
        }
      ],
      "stateMutability": "nonpayable",
      "type": "constructor"
    },
    {
      "inputs": [
        {
          "internalType": "address",
          "name": "owner",
          "type": "address"
        }
      ],
      "name": "OwnableInvalidOwner",
      "type": "error"
    },
    {
      "inputs": [
        {
          "internalType": "address",
          "name": "account",
          "type": "address"
        }
      ],
      "name": "OwnableUnauthorizedAccount",
      "type": "error"
    },
    {
      "inputs": [],
      "name": "ReentrancyGuardReentrantCall",
      "type": "error"
    },
    {
      "anonymous": false,
      "inputs": [
        {
          "indexed": true,
          "internalType": "address",
          "name": "entity",
          "type": "address"
        },
        {
          "indexed": false,
          "internalType": "uint256",
          "name": "anomalyScore",
          "type": "uint256"
        },
        {
          "indexed": false,
          "internalType": "string",
          "name": "description",
          "type": "string"
        }
      ],
      "name": "BehavioralAnomalyDetected",
      "type": "event"
    },
    {
      "anonymous": false,
      "inputs": [
        {
          "indexed": true,
          "internalType": "address",
          "name": "entity",
          "type": "address"
        },
        {
          "indexed": false,
          "internalType": "uint256",
          "name": "newTrustScore",
          "type": "uint256"
        },
        {
          "indexed": false,
          "internalType": "enum SentinelPredictiveThreatModel.BehavioralState",
          "name": "newState",
          "type": "uint8"
        }
      ],
      "name": "BehavioralProfileUpdated",
      "type": "event"
    },
    {
      "anonymous": false,
      "inputs": [
        {
          "indexed": true,
          "internalType": "address",
          "name": "previousOwner",
          "type": "address"
        },
        {
          "indexed": true,
          "internalType": "address",
          "name": "newOwner",
          "type": "address"
        }
      ],
      "name": "OwnershipTransferred",
      "type": "event"
    },
    {
      "anonymous": false,
      "inputs": [
        {
          "indexed": true,
          "internalType": "bytes32",
          "name": "patternId",
          "type": "bytes32"
        },
        {
          "indexed": false,
          "internalType": "uint256",
          "name": "confidence",
          "type": "uint256"
        },
        {
          "indexed": false,
          "internalType": "uint256",
          "name": "predictedSeverity",
          "type": "uint256"
        }
      ],
      "name": "PredictiveAlertGenerated",
      "type": "event"
    },
    {
      "anonymous": false,
      "inputs": [
        {
          "indexed": true,
          "internalType": "bytes32",
          "name": "patternId",
          "type": "bytes32"
        },
        {
          "indexed": false,
          "internalType": "enum SentinelPredictiveThreatModel.ThreatCategory",
          "name": "category",
          "type": "uint8"
        },
        {
          "indexed": false,
          "internalType": "uint256",
          "name": "severity",
          "type": "uint256"
        }
      ],
      "name": "ThreatPatternDetected",
      "type": "event"
    },
    {
      "inputs": [],
      "name": "MAX_ENTITIES",
      "outputs": [
        {
          "internalType": "uint256",
          "name": "",
          "type": "uint256"
        }
      ],
      "stateMutability": "view",
      "type": "function"
    },
    {
      "inputs": [],
      "name": "MAX_PATTERNS",
      "outputs": [
        {
          "internalType": "uint256",
          "name": "",
          "type": "uint256"
        }
      ],
      "stateMutability": "view",
      "type": "function"
    },
    {
      "inputs": [],
      "name": "PROFILE_UPDATE_INTERVAL",
      "outputs": [
        {
          "internalType": "uint256",
          "name": "",
          "type": "uint256"
        }
      ],
      "stateMutability": "view",
      "type": "function"
    },
    {
      "inputs": [
        {
          "internalType": "uint256",
          "name": "",
          "type": "uint256"
        }
      ],
      "name": "activePatterns",
      "outputs": [
        {
          "internalType": "bytes32",
          "name": "",
          "type": "bytes32"
        }
      ],
      "stateMutability": "view",
      "type": "function"
    },
    {
      "inputs": [
        {
          "internalType": "address",
          "name": "entity",
          "type": "address"
        },
        {
          "internalType": "uint256[]",
          "name": "behavioralData",
          "type": "uint256[]"
        },
        {
          "internalType": "string",
          "name": "activityType",
          "type": "string"
        }
      ],
      "name": "analyzeBehavior",
      "outputs": [
        {
          "internalType": "uint256",
          "name": "anomalyScore",
          "type": "uint256"
        }
      ],
      "stateMutability": "nonpayable",
      "type": "function"
    },
    {
      "inputs": [],
      "name": "anomalyThreshold",
      "outputs": [
        {
          "internalType": "uint256",
          "name": "",
          "type": "uint256"
        }
      ],
      "stateMutability": "view",
      "type": "function"
    },
    {
      "inputs": [
        {
          "internalType": "address",
          "name": "",
          "type": "address"
        }
      ],
      "name": "behavioralProfiles",
      "outputs": [
        {
          "internalType": "address",
          "name": "entity",
          "type": "address"
        },
        {
          "internalType": "uint256",
          "name": "trustScore",
          "type": "uint256"
        },
        {
          "internalType": "uint256",
          "name": "riskLevel",
          "type": "uint256"
        },
        {
          "internalType": "uint256",
          "name": "anomalyCount",
          "type": "uint256"
        },
        {
          "internalType": "uint256",
          "name": "normalActivityCount",
          "type": "uint256"
        },
        {
          "internalType": "uint256",
          "name": "lastActivityTime",
          "type": "uint256"
        },
        {
          "internalType": "uint256",
          "name": "profileCreationTime",
          "type": "uint256"
        },
        {
          "internalType": "enum SentinelPredictiveThreatModel.BehavioralState",
          "name": "currentState",
          "type": "uint8"
        }
      ],
      "stateMutability": "view",
      "type": "function"
    },
    {
      "inputs": [],
      "name": "getAIModelMetrics",
      "outputs": [
        {
          "internalType": "uint256",
          "name": "threshold",
          "type": "uint256"
        },
        {
          "internalType": "uint256",
          "name": "horizon",
          "type": "uint256"
        },
        {
          "internalType": "uint256",
          "name": "accuracy",
          "type": "uint256"
        },
        {
          "internalType": "uint256",
          "name": "totalPatterns",
          "type": "uint256"
        },
        {
          "internalType": "uint256",
          "name": "totalEntities",
          "type": "uint256"
        }
      ],
      "stateMutability": "view",
      "type": "function"
    },
    {
      "inputs": [
        {
          "internalType": "address",
          "name": "entity",
          "type": "address"
        }
      ],
      "name": "getBehavioralProfile",
      "outputs": [
        {
          "internalType": "uint256",
          "name": "trustScore",
          "type": "uint256"
        },
        {
          "internalType": "uint256",
          "name": "riskLevel",
          "type": "uint256"
        },
        {
          "internalType": "uint256",
          "name": "anomalyCount",
          "type": "uint256"
        },
        {
          "internalType": "enum SentinelPredictiveThreatModel.BehavioralState",
          "name": "currentState",
          "type": "uint8"
        },
        {
          "internalType": "uint256",
          "name": "lastActivity",
          "type": "uint256"
        }
      ],
      "stateMutability": "view",
      "type": "function"
    },
    {
      "inputs": [
        {
          "internalType": "bytes32",
          "name": "patternId",
          "type": "bytes32"
        }
      ],
      "name": "getThreatPattern",
      "outputs": [
        {
          "internalType": "string",
          "name": "description",
          "type": "string"
        },
        {
          "internalType": "uint256",
          "name": "severity",
          "type": "uint256"
        },
        {
          "internalType": "uint256",
          "name": "confidence",
          "type": "uint256"
        },
        {
          "internalType": "enum SentinelPredictiveThreatModel.ThreatCategory",
          "name": "category",
          "type": "uint8"
        },
        {
          "internalType": "uint256",
          "name": "frequency",
          "type": "uint256"
        }
      ],
      "stateMutability": "view",
      "type": "function"
    },
    {
      "inputs": [],
      "name": "learningRate",
      "outputs": [
        {
          "internalType": "uint256",
          "name": "",
          "type": "uint256"
        }
      ],
      "stateMutability": "view",
      "type": "function"
    },
    {
      "inputs": [],
      "name": "modelAccuracy",
      "outputs": [
        {
          "internalType": "uint256",
          "name": "",
          "type": "uint256"
        }
      ],
      "stateMutability": "view",
      "type": "function"
    },
    {
      "inputs": [
        {
          "internalType": "uint256",
          "name": "",
          "type": "uint256"
        }
      ],
      "name": "monitoredEntities",
      "outputs": [
        {
          "internalType": "address",
          "name": "",
          "type": "address"
        }
      ],
      "stateMutability": "view",
      "type": "function"
    },
    {
      "inputs": [],
      "name": "owner",
      "outputs": [
        {
          "internalType": "address",
          "name": "",
          "type": "address"
        }
      ],
      "stateMutability": "view",
      "type": "function"
    },
    {
      "inputs": [
        {
          "internalType": "bytes32",
          "name": "",
          "type": "bytes32"
        },
        {
          "internalType": "uint256",
          "name": "",
          "type": "uint256"
        }
      ],
      "name": "patternTimeSeries",
      "outputs": [
        {
          "internalType": "uint256",
          "name": "",
          "type": "uint256"
        }
      ],
      "stateMutability": "view",
      "type": "function"
    },
    {
      "inputs": [
        {
          "internalType": "uint256[]",
          "name": "patternData",
          "type": "uint256[]"
        },
        {
          "internalType": "uint256",
          "name": "predictionWindow",
          "type": "uint256"
        }
      ],
      "name": "predictThreatPatterns",
      "outputs": [
        {
          "internalType": "bytes32[]",
          "name": "predictedThreats",
          "type": "bytes32[]"
        }
      ],
      "stateMutability": "nonpayable",
      "type": "function"
    },
    {
      "inputs": [],
      "name": "predictionHorizon",
      "outputs": [
        {
          "internalType": "uint256",
          "name": "",
          "type": "uint256"
        }
      ],
      "stateMutability": "view",
      "type": "function"
    },
    {
      "inputs": [
        {
          "internalType": "string",
          "name": "description",
          "type": "string"
        },
        {
          "internalType": "uint256",
          "name": "severity",
          "type": "uint256"
        },
        {
          "internalType": "enum SentinelPredictiveThreatModel.ThreatCategory",
          "name": "category",
          "type": "uint8"
        },
        {
          "internalType": "bytes32[]",
          "name": "correlatedPatterns",
          "type": "bytes32[]"
        }
      ],
      "name": "registerThreatPattern",
      "outputs": [
        {
          "internalType": "bytes32",
          "name": "",
          "type": "bytes32"
        }
      ],
      "stateMutability": "nonpayable",
      "type": "function"
    },
    {
      "inputs": [],
      "name": "renounceOwnership",
      "outputs": [],
      "stateMutability": "nonpayable",
      "type": "function"
    },
    {
      "inputs": [
        {
          "internalType": "string",
          "name": "",
          "type": "string"
        }
      ],
      "name": "threatMetrics",
      "outputs": [
        {
          "internalType": "uint256",
          "name": "",
          "type": "uint256"
        }
      ],
      "stateMutability": "view",
      "type": "function"
    },
    {
      "inputs": [
        {
          "internalType": "bytes32",
          "name": "",
          "type": "bytes32"
        }
      ],
      "name": "threatPatterns",
      "outputs": [
        {
          "internalType": "bytes32",
          "name": "patternId",
          "type": "bytes32"
        },
        {
          "internalType": "string",
          "name": "description",
          "type": "string"
        },
        {
          "internalType": "uint256",
          "name": "severity",
          "type": "uint256"
        },
        {
          "internalType": "uint256",
          "name": "confidence",
          "type": "uint256"
        },
        {
          "internalType": "uint256",
          "name": "frequency",
          "type": "uint256"
        },
        {
          "internalType": "uint256",
          "name": "lastObserved",
          "type": "uint256"
        },
        {
          "internalType": "bool",
          "name": "active",
          "type": "bool"
        },
        {
          "internalType": "enum SentinelPredictiveThreatModel.ThreatCategory",
          "name": "category",
          "type": "uint8"
        }
      ],
      "stateMutability": "view",
      "type": "function"
    },
    {
      "inputs": [
        {
          "internalType": "address",
          "name": "newOwner",
          "type": "address"
        }
      ],
      "name": "transferOwnership",
      "outputs": [],
      "stateMutability": "nonpayable",
      "type": "function"
    },
    {
      "inputs": [
        {
          "internalType": "uint256",
          "name": "newThreshold",
          "type": "uint256"
        },
        {
          "internalType": "uint256",
          "name": "newHorizon",
          "type": "uint256"
        },
        {
          "internalType": "uint256",
          "name": "newLearningRate",
          "type": "uint256"
        }
      ],
      "name": "updateAIModel",
      "outputs": [],
      "stateMutability": "nonpayable",
      "type": "function"
    }
  ],
  "bytecode": "0x608060405234801561000f575f5ffd5b50604051612d55380380612d5583398101604081905261002e916101e0565b806001600160a01b03811661005d57604051631e4fbdf760e01b81525f60048201526024015b60405180910390fd5b61006681610191565b5060017f9b779b17422d0df92223018b32b4d1fa46e071723d6817e2486d003becc55f00556001600160a01b0381166100d15760405162461bcd60e51b815260206004820152600d60248201526c24b73b30b634b21037bbb732b960991b6044820152606401610054565b61018b61012c60055560186006556101f460075560556008908155604051673a3930b739b332b960c11b81525f91600a910190815260405190819003602001812091909155630737761760e41b81525f90600a906004019081526040519081900360200181209190915569676f7665726e616e636560b01b81525f90600a90810190815260405190819003602001812091909155656f7261636c6560d01b81525f90600a9060060190815260405190819003602001902055565b5061020d565b5f80546001600160a01b038381166001600160a01b0319831681178455604051919092169283917f8be0079c531659141344cd1fd0a4f28419497f9722a3daafe3b4186f6b6457e09190a35050565b5f602082840312156101f0575f5ffd5b81516001600160a01b0381168114610206575f5ffd5b9392505050565b612b3b8061021a5f395ff3fe608060405234801561000f575f5ffd5b5060043610610148575f3560e01c8063aafbe40b116100bf578063e821607511610079578063e821607514610329578063f2fde38b1461033c578063f5e21c911461034f578063f862ac4814610362578063fad6616814610399578063fc93f5eb146103ac575f5ffd5b8063aafbe40b14610253578063afdc0cfe1461025c578063b09bafeb14610265578063b2855eee14610289578063bd6b992514610292578063d9e6248b146102b6575f5ffd5b8063539312121161011057806353931212146101ed5780635f47e1a6146101f65780636f83a58614610209578063715018a61461021257806388dcb2ea1461021c5780638da5cb5b1461022f575f5ffd5b8063199c27e51461014c57806329e681a0146101725780633766bf1914610192578063384e279b1461019b5780634bf3edfc146101c6575b5f5ffd5b61015f61015a36600461236e565b6103b5565b6040519081526020015b60405180910390f35b6101856101803660046123fa565b6106c8565b6040516101699190612441565b61015f60075481565b61015f6101a9366004612497565b8051602081830181018051600a8252928201919093012091525481565b6101d96101d4366004612547565b610c53565b6040516101699897969594939291906125b4565b61015f61271081565b61015f61020436600461260a565b610d21565b61015f60055481565b61021a610d4c565b005b61021a61022a36600461262a565b610d5f565b5f546001600160a01b03165b6040516001600160a01b039091168152602001610169565b61015f610e1081565b61015f60065481565b61027861027336600461266e565b610e80565b604051610169959493929190612697565b61015f6103e881565b6102a56102a0366004612547565b610fa3565b6040516101699594939291906126c9565b6103156102c436600461266e565b600260208190525f9182526040909120805460018201549282015460038301546004840154600585015460068601546008909601546001600160a01b03909516969593949293919290919060ff1688565b6040516101699897969594939291906126f6565b61015f61033736600461273e565b611157565b61021a61034a36600461266e565b6114b0565b61023b61035d366004612547565b6114ed565b600554600654600854600354600454604080519586526020860194909452928401919091526060830152608082015260a001610169565b61015f6103a7366004612547565b611515565b61015f60085481565b5f6103be611534565b600185101580156103d05750600a8511155b6104145760405162461bcd60e51b815260206004820152601060248201526f496e76616c696420736576657269747960801b60448201526064015b60405180910390fd5b856104555760405162461bcd60e51b815260206004820152601160248201527022b6b83a3c903232b9b1b934b83a34b7b760791b604482015260640161040b565b5f878787874260405160200161046f9594939291906127bc565b60408051601f1981840301815291815281516020928301205f818152600190935291206006015490915060ff16156104e25760405162461bcd60e51b81526020600482015260166024820152755061747465726e20616c72656164792065786973747360501b604482015260640161040b565b60405180610120016040528082815260200189898080601f0160208091040260200160405190810160405280939291908181526020018383808284375f92018290525093855250505060208083018a90526032604080850191909152606084018390526080840192909252600160a08401528151878202818101830190935287815260c090930192918891889182918501908490808284375f9201919091525050509082525060200186600981111561059d5761059d61258c565b90525f8281526001602081815260409092208351815591830151908201906105c59082612876565b5060408201516002820155606082015160038201556080820151600482015560a0820151600582015560c082015160068201805460ff191691151591909117905560e0820151805161062191600784019160209091019061228d565b5061010082015160088201805460ff191660018360098111156106465761064661258c565b021790555050600380546001810182555f919091527fc2575a0e9e593c00f959f8c92f12db2869c3395a3b0502d05e2516446f71f85b018290555060405181907f5c5ab2eccf04a63c3cb93a79d32dc66996f806f93eaa02306a4a40ccdb00d867906106b59088908a90612930565b60405180910390a2979650505050505050565b6060601883101561071b5760405162461bcd60e51b815260206004820152601c60248201527f496e73756666696369656e7420686973746f726963616c206461746100000000604482015260640161040b565b5f8211801561072c57506006548211155b6107785760405162461bcd60e51b815260206004820152601960248201527f496e76616c69642070726564696374696f6e2077696e646f7700000000000000604482015260640161040b565b60408051600580825260c08201909252906020820160a0803683370190505090505f5f90505f6107d98686808060200260200160405190810160405280939291908181526020018383602002808284375f9201919091525061156092505050565b90505f6108178787808060200260200160405190810160405280939291908181526020018383602002808284375f9201919091525061167f92505050565b90506096821180156108295750605081115b1561088f575f6108616040518060400160405280600e81526020016d061747461636b5f6275696c6475760941b8152506050856116b7565b905080858561086f8161295f565b96508151811061088157610881612977565b602002602001018181525050505b60788111156108fe575f6108d06040518060400160405280601381526020017236b0b935b2ba2fb6b0b734b83ab630ba34b7b760691b8152506055846116b7565b90508085856108de8161295f565b9650815181106108f0576108f0612977565b602002602001018181525050505b6109398787808060200260200160405190810160405280939291908181526020018383602002808284375f9201919091525061181292505050565b156109a2575f6109746040518060400160405280601081526020016f6175746f6d617465645f61747461636b60801b815250604b60646116b7565b90508085856109828161295f565b96508151811061099457610994612977565b602002602001018181525050505b5f5b83811015610bb6575f60015f8784815181106109c2576109c2612977565b602002602001015181526020019081526020015f20604051806101200160405290815f82015481526020016001820180546109fc906127f3565b80601f0160208091040260200160405190810160405280929190818152602001828054610a28906127f3565b8015610a735780601f10610a4a57610100808354040283529160200191610a73565b820191905f5260205f20905b815481529060010190602001808311610a5657829003601f168201915b5050505050815260200160028201548152602001600382015481526020016004820154815260200160058201548152602001600682015f9054906101000a900460ff1615151515815260200160078201805480602002602001604051908101604052809291908181526020018280548015610b0b57602002820191905f5260205f20905b815481526020019060010190808311610af7575b5050509183525050600882015460209091019060ff166009811115610b3257610b3261258c565b6009811115610b4357610b4361258c565b815250509050858281518110610b5b57610b5b612977565b60200260200101517f198eba96a6c6d0b18cabc4c79babf71e0416c657d110a81c66b7873b3e62fd5e82606001518360400151604051610ba5929190918252602082015260400190565b60405180910390a2506001016109a4565b505f836001600160401b03811115610bd057610bd0612483565b604051908082528060200260200182016040528015610bf9578160200160208202803683370190505b5090505f5b84811015610c4557858181518110610c1857610c18612977565b6020026020010151828281518110610c3257610c32612977565b6020908102919091010152600101610bfe565b5093505050505b9392505050565b600160208190525f918252604090912080549181018054610c73906127f3565b80601f0160208091040260200160405190810160405280929190818152602001828054610c9f906127f3565b8015610cea5780601f10610cc157610100808354040283529160200191610cea565b820191905f5260205f20905b815481529060010190602001808311610ccd57829003601f168201915b50505060028401546003850154600486015460058701546006880154600890980154969793969295509093509160ff908116911688565b6009602052815f5260405f208181548110610d3a575f80fd5b905f5260205f20015f91509150505481565b610d54611534565b610d5d5f6118df565b565b610d67611534565b60648310158015610d7a57506103848311155b610dba5760405162461bcd60e51b8152602060048201526011602482015270125b9d985b1a59081d1a1c995cda1bdb19607a1b604482015260640161040b565b60018210158015610dcc575060a88211155b610e0a5760405162461bcd60e51b815260206004820152600f60248201526e24b73b30b634b2103437b934bd37b760891b604482015260640161040b565b60018110158015610e1d57506103e88111155b610e615760405162461bcd60e51b8152602060048201526015602482015274496e76616c6964206c6561726e696e67207261746560581b604482015260640161040b565b600583905560068290556007819055610e7861192e565b600855505050565b6001600160a01b038082165f9081526002602081815260408084208151610120810183528154909616865260018101548684015292830154858201526003830154606086015260048301546080860152600583015460a0860152600683015460c0860152600783018054825181850281018501909352808352949586958695869586958695929360e08601939192830182828015610f3b57602002820191905f5260205f20905b815481526020019060010190808311610f27575b5050509183525050600882015460209091019060ff166004811115610f6257610f6261258c565b6004811115610f7357610f7361258c565b90525060208101516040820151606083015161010084015160a090940151929b919a509850919650945092505050565b60605f5f5f5f5f60015f8881526020019081526020015f20604051806101200160405290815f8201548152602001600182018054610fe0906127f3565b80601f016020809104026020016040519081016040528092919081815260200182805461100c906127f3565b80156110575780601f1061102e57610100808354040283529160200191611057565b820191905f5260205f20905b81548152906001019060200180831161103a57829003601f168201915b5050505050815260200160028201548152602001600382015481526020016004820154815260200160058201548152602001600682015f9054906101000a900460ff16151515158152602001600782018054806020026020016040519081016040528092919081815260200182805480156110ef57602002820191905f5260205f20905b8154815260200190600101908083116110db575b5050509183525050600882015460209091019060ff1660098111156111165761111661258c565b60098111156111275761112761258c565b905250602081015160408201516060830151610100840151608090940151929b919a509850919650945092505050565b5f6001600160a01b0386166111a75760405162461bcd60e51b8152602060048201526016602482015275496e76616c696420656e74697479206164647265737360501b604482015260640161040b565b836111ec5760405162461bcd60e51b8152602060048201526015602482015274456d707479206265686176696f72616c206461746160581b604482015260640161040b565b6001600160a01b0386165f9081526002602052604081206006810154909103611231576112188761198c565b506001600160a01b0386165f9081526002602052604090205b6112a0818787808060200260200160405190810160405280939291908181526020018383602002808284375f9201919091525050604080516020601f8b0181900481028201810190925289815292508991508890819084018382808284375f92019190915250611b7a92505050565b604080516101208101825282546001600160a01b0316815260018301546020808301919091526002840154828401526003840154606083015260048401546080830152600584015460a0830152600684015460c08301526007840180548451818402810184019095528085526113ee94869360e086019391929083018282801561134757602002820191905f5260205f20905b815481526020019060010190808311611333575b5050509183525050600882015460209091019060ff16600481111561136e5761136e61258c565b600481111561137f5761137f61258c565b815250508787808060200260200160405190810160405280939291908181526020018383602002808284375f9201919091525050604080516020601f8b0181900481028201810190925289815292508991508890819084018382808284375f92019190915250611c5f92505050565b915061143084848080601f0160208091040260200160405190810160405280939291908181526020018383808284375f92019190915250869250611db4915050565b6005548211156114a657866001600160a01b03167f3a31f6db0426a218c3818493485e5303d0ebbe958997cfadae567eeb6016231c83868660405160200161147992919061298b565b60408051601f198184030181529082905261149492916129ca565b60405180910390a26114a68183611e02565b5095945050505050565b6114b8611534565b6001600160a01b0381166114e157604051631e4fbdf760e01b81525f600482015260240161040b565b6114ea816118df565b50565b600481815481106114fc575f80fd5b5f918252602090912001546001600160a01b0316905081565b60038181548110611524575f80fd5b5f91825260209091200154905081565b5f546001600160a01b03163314610d5d5760405163118cdaa760e01b815233600482015260240161040b565b5f60028251101561157357506064919050565b5f6002835161158291906129e2565b90505f80805b838110156115bf578581815181106115a2576115a2612977565b6020026020010151836115b59190612a01565b9250600101611588565b506115ca83836129e2565b9150825b8551811015611606578581815181106115e9576115e9612977565b6020026020010151826115fc9190612a01565b91506001016115ce565b508285516116149190612a14565b61161e90826129e2565b90508181111561166657611652826116368184612a14565b611641906064612a27565b61164b91906129e2565b6064611ee3565b61165d906064612a01565b95945050505050565b611674826116368382612a14565b61165d906064612a14565b5f5f61168a83611ef7565b90505f6116978483611f4f565b9050816116a5826064612a27565b6116af91906129e2565b949350505050565b5f5f8442846040516020016116ce93929190612a55565b604051602081830303815290604052805190602001209050604051806101200160405280828152602001866040516020016117099190612a85565b60408051601f198184030181529190528152602001611729600a866129e2565b815260208082018790525f60408084018290524260608501526001608085018190528151838152808501835260a086015260c09094018290528582528383529020835181559083015190918201906117819082612876565b5060408201516002820155606082015160038201556080820151600482015560a0820151600582015560c082015160068201805460ff191691151591909117905560e082015180516117dd91600784019160209091019061228d565b5061010082015160088201805460ff191660018360098111156118025761180261258c565b0217905550919695505050505050565b5f600c8251101561182457505f919050565b5f6006815b8185516118369190612a14565b8110156118b15761184685611ef7565b85828151811061185857611858612977565b6020026020010151118015611896575061187185611ef7565b8561187c8484612a01565b8151811061188c5761188c612977565b6020026020010151115b156118a957826118a58161295f565b9350505b600101611829565b50603c8185516118c19190612a14565b6118cc846064612a27565b6118d691906129e2565b11949350505050565b5f80546001600160a01b038381166001600160a01b0319831681178455604051919092169283917f8be0079c531659141344cd1fd0a4f28419497f9722a3daafe3b4186f6b6457e09190a35050565b5f5f605590505f600a6005546103e86119479190612a14565b61195191906129e2565b90505f600a60065461196391906129e2565b9050611984816119738486612a01565b61197d9190612a01565b605f611ee3565b935050505090565b6001600160a01b0381165f90815260026020526040902060060154156119ed5760405162461bcd60e51b815260206004820152601660248201527550726f66696c6520616c72656164792065786973747360501b604482015260640161040b565b604051806101200160405280826001600160a01b031681526020016101f48152602001601481526020015f8152602001600181526020014281526020014281526020015f6001600160401b03811115611a4857611a48612483565b604051908082528060200260200182016040528015611a71578160200160208202803683370190505b5081526020015f90526001600160a01b038281165f90815260026020818152604092839020855181546001600160a01b03191695169490941784558481015160018501559184015190830155606083015160038301556080830151600483015560a0830151600583015560c0830151600683015560e08301518051611afc926007850192019061228d565b5061010082015160088201805460ff19166001836004811115611b2157611b2161258c565b021790555050600480546001810182555f919091527f8a35acfbc15ff81a39ae7d344fd709f28e8600b4aa8c65c6b64bfe7fe36bd19b0180546001600160a01b0319166001600160a01b03939093169290921790915550565b4260058401555f611b8a83612022565b90506002811115611bc957600384018054905f611ba68361295f565b9190505550611bbf8460020154600561164b9190612a01565b6002850155611c08565b600484018054905f611bda8361295f565b91905055506002846002015411611bf1575f611c02565b60028460020154611c029190612a14565b60028501555b611c1284826120ef565b5f828442604051602001611c2893929190612aa4565b60408051601f198184030181529190528051602091820120600790960180546001810182555f918252919020019490945550505050565b5f8080611c6b85611ef7565b90505f611c788683611f4f565b90505f5b8651811015611cd057611c90826002612a27565b611c9a9084612a01565b878281518110611cac57611cac612977565b60200260200101511115611cc857611cc5606485612a01565b93505b600101611c7c565b506040516d3630b933b2afba3930b739b332b960911b6020820152602e016040516020818303038152906040528051906020012085604051602001611d159190612ae6565b6040516020818303038152906040528051906020012003611d695769152d02c7e14af6800000865f81518110611d4d57611d4d612977565b60200260200101511115611d6957611d6660c884612a01565b92505b6064600a8860200151611d7c91906129e2565b611d87906064612a14565b611d919085612a27565b611d9b91906129e2565b9250611da9836103e8611ee3565b979650505050505050565b80600a83604051611dc59190612ae6565b908152602001604051809103902054611dde9190612a01565b600a83604051611dee9190612ae6565b908152604051908190036020019020555050565b5f610320821115611e1557506002611e3c565b610258821115611e2757506003611e3c565b610190821115611e3957506001611e3c565b505f5b600883015460ff166004811115611e5557611e5561258c565b816004811115611e6757611e6761258c565b14611ede5760088301805482919060ff19166001836004811115611e8d57611e8d61258c565b0217905550825460018401546040516001600160a01b03909216917f0184be999046144bcd8e141b45522cffbe8b263c8ad6d488066528221f273d1791611ed5918590612af1565b60405180910390a25b505050565b5f8282188284100282185b90505b92915050565b5f81515f03611f0757505f919050565b5f805b8351811015611f4257838181518110611f2557611f25612977565b602002602001015182611f389190612a01565b9150600101611f0a565b508251610c4c90826129e2565b5f6001835111611f6057505f611ef1565b5f805b8451811015611ffd575f84868381518110611f8057611f80612977565b602002602001015111611fb757858281518110611f9f57611f9f612977565b602002602001015185611fb29190612a14565b611fdc565b84868381518110611fca57611fca612977565b6020026020010151611fdc9190612a14565b9050611fe88180612a27565b611ff29084612a01565b925050600101611f63565b505f6001855161200d9190612a14565b61201790836129e2565b905061165d81612154565b5f808061202e846121b1565b90505f61203a8561220b565b90505f6120478284612a14565b905061205286611ef7565b61205d906005612a27565b8111156120725761206f600285612a01565b93505b60015b86518110156120e4578661208a600183612a14565b8151811061209a5761209a612977565b6020026020010151600a6120ae9190612a27565b8782815181106120c0576120c0612977565b602002602001015111156120dc576120d9600186612a01565b94505b600101612075565b509295945050505050565b805f0361211b576121128260010154600561210a9190612a01565b6103e8611ee3565b60018301555050565b5f61212782600a612a27565b90508083600101541161213a575f61214a565b80836001015461214a9190612a14565b6001840155505050565b5f815f0361216357505f919050565b5f6002612171846001612a01565b61217b91906129e2565b9050825b80821015610c4c57508060028161219681876129e2565b6121a09190612a01565b6121aa91906129e2565b915061217f565b5f80805b835181101561220457818482815181106121d1576121d1612977565b602002602001015111156121fc578381815181106121f1576121f1612977565b602002602001015191505b6001016121b5565b5092915050565b5f81515f0361221b57505f919050565b5f825f8151811061222e5761222e612977565b602002602001015190505f600190505b8351811015612204578184828151811061225a5761225a612977565b602002602001015110156122855783818151811061227a5761227a612977565b602002602001015191505b60010161223e565b828054828255905f5260205f209081019282156122c6579160200282015b828111156122c65782518255916020019190600101906122ab565b506122d29291506122d6565b5090565b5b808211156122d2575f81556001016122d7565b5f5f83601f8401126122fa575f5ffd5b5081356001600160401b03811115612310575f5ffd5b602083019150836020828501011115612327575f5ffd5b9250929050565b5f5f83601f84011261233e575f5ffd5b5081356001600160401b03811115612354575f5ffd5b6020830191508360208260051b8501011115612327575f5ffd5b5f5f5f5f5f5f60808789031215612383575f5ffd5b86356001600160401b03811115612398575f5ffd5b6123a489828a016122ea565b909750955050602087013593506040870135600a81106123c2575f5ffd5b925060608701356001600160401b038111156123dc575f5ffd5b6123e889828a0161232e565b979a9699509497509295939492505050565b5f5f5f6040848603121561240c575f5ffd5b83356001600160401b03811115612421575f5ffd5b61242d8682870161232e565b909790965060209590950135949350505050565b602080825282518282018190525f918401906040840190835b8181101561247857835183526020938401939092019160010161245a565b509095945050505050565b634e487b7160e01b5f52604160045260245ffd5b5f602082840312156124a7575f5ffd5b81356001600160401b038111156124bc575f5ffd5b8201601f810184136124cc575f5ffd5b80356001600160401b038111156124e5576124e5612483565b604051601f8201601f19908116603f011681016001600160401b038111828210171561251357612513612483565b60405281815282820160200186101561252a575f5ffd5b816020840160208301375f91810160200191909152949350505050565b5f60208284031215612557575f5ffd5b5035919050565b5f81518084528060208401602086015e5f602082860101526020601f19601f83011685010191505092915050565b634e487b7160e01b5f52602160045260245ffd5b600a81106125b0576125b061258c565b9052565b88815261010060208201525f6125ce61010083018a61255e565b90508760408301528660608301528560808301528460a083015283151560c08301526125fd60e08301846125a0565b9998505050505050505050565b5f5f6040838503121561261b575f5ffd5b50508035926020909101359150565b5f5f5f6060848603121561263c575f5ffd5b505081359360208301359350604090920135919050565b80356001600160a01b0381168114612669575f5ffd5b919050565b5f6020828403121561267e575f5ffd5b611eee82612653565b600581106125b0576125b061258c565b858152602081018590526040810184905260a081016126b96060830185612687565b8260808301529695505050505050565b60a081525f6126db60a083018861255e565b90508560208301528460408301526126b960608301856125a0565b6001600160a01b03891681526020810188905260408101879052606081018690526080810185905260a0810184905260c0810183905261010081016125fd60e0830184612687565b5f5f5f5f5f60608688031215612752575f5ffd5b61275b86612653565b945060208601356001600160401b03811115612775575f5ffd5b6127818882890161232e565b90955093505060408601356001600160401b0381111561279f575f5ffd5b6127ab888289016122ea565b969995985093965092949392505050565b848682375f858201858152600a85106127d7576127d761258c565b60f89490941b6020850152505060218201526041019392505050565b600181811c9082168061280757607f821691505b60208210810361282557634e487b7160e01b5f52602260045260245ffd5b50919050565b601f821115611ede57805f5260205f20601f840160051c810160208510156128505750805b601f840160051c820191505b8181101561286f575f815560010161285c565b5050505050565b81516001600160401b0381111561288f5761288f612483565b6128a38161289d84546127f3565b8461282b565b6020601f8211600181146128d5575f83156128be5750848201515b5f19600385901b1c1916600184901b17845561286f565b5f84815260208120601f198516915b8281101561290457878501518255602094850194600190920191016128e4565b508482101561292157868401515f19600387901b60f8161c191681555b50505050600190811b01905550565b6040810161293e82856125a0565b8260208301529392505050565b634e487b7160e01b5f52601160045260245ffd5b5f600182016129705761297061294b565b5060010190565b634e487b7160e01b5f52603260045260245ffd5b69020b737b6b0b637bab9960b51b81528183600a83013771081858dd1a5d9a5d1e4819195d1958dd195960721b9101600a810191909152601c01919050565b828152604060208201525f6116af604083018461255e565b5f826129fc57634e487b7160e01b5f52601260045260245ffd5b500490565b80820180821115611ef157611ef161294b565b81810381811115611ef157611ef161294b565b8082028115828204841417611ef157611ef161294b565b5f81518060208401855e5f93019283525090919050565b697072656469637465645f60b01b81525f612a73600a830186612a3e565b93845250506020820152604001919050565b6a0283932b234b1ba32b21d160ad1b81525f611eee600b830184612a3e565b5f612aaf8286612a3e565b8451602086015f5b82811015612ad5578151845260209384019390910190600101612ab7565b505050928352505060200192915050565b5f611eee8284612a3e565b82815260408101610c4c602083018461268756fea264697066735822122029e80e4739d6ce538bb202464bafc1d8f8358eddff375524ddf9c90cfc48ba8d64736f6c634300081c0033",
  "linkReferences": {},
  "deployedLinkReferences": {},
  "immutableReferences": {},
  "inputSourceName": "project/contracts/SentinelPredictiveThreatModel.sol",
  "buildInfoId": "solc-0_8_28-56b4d38520a07143560cd43eeb820c3102363d0a"
}