{
  "_format": "hh3-artifact-1",
  "contractName": "SentinelAPIMarketplace",
  "sourceName": "contracts/SentinelAPIMarketplace.sol",
  "abi": [
    {
      "inputs": [
        {
          "internalType": "address",
          "name": "_paymentToken",
          "type": "address"
        }
      ],
      "stateMutability": "nonpayable",
      "type": "constructor"
    },
    {
      "inputs": [
        {
          "internalType": "address",
          "name": "owner",
          "type": "address"
        }
      ],
      "name": "OwnableInvalidOwner",
      "type": "error"
    },
    {
      "inputs": [
        {
          "internalType": "address",
          "name": "account",
          "type": "address"
        }
      ],
      "name": "OwnableUnauthorizedAccount",
      "type": "error"
    },
    {
      "inputs": [],
      "name": "ReentrancyGuardReentrantCall",
      "type": "error"
    },
    {
      "anonymous": false,
      "inputs": [
        {
          "indexed": true,
          "internalType": "uint256",
          "name": "purchaseId",
          "type": "uint256"
        },
        {
          "indexed": true,
          "internalType": "uint256",
          "name": "listingId",
          "type": "uint256"
        },
        {
          "indexed": true,
          "internalType": "address",
          "name": "buyer",
          "type": "address"
        }
      ],
      "name": "DataPurchased",
      "type": "event"
    },
    {
      "anonymous": false,
      "inputs": [
        {
          "indexed": true,
          "internalType": "uint256",
          "name": "listingId",
          "type": "uint256"
        },
        {
          "indexed": true,
          "internalType": "address",
          "name": "provider",
          "type": "address"
        },
        {
          "indexed": false,
          "internalType": "string",
          "name": "dataType",
          "type": "string"
        }
      ],
      "name": "ListingCreated",
      "type": "event"
    },
    {
      "anonymous": false,
      "inputs": [
        {
          "indexed": true,
          "internalType": "uint256",
          "name": "listingId",
          "type": "uint256"
        },
        {
          "indexed": false,
          "internalType": "uint256",
          "name": "newPrice",
          "type": "uint256"
        }
      ],
      "name": "ListingUpdated",
      "type": "event"
    },
    {
      "anonymous": false,
      "inputs": [
        {
          "indexed": true,
          "internalType": "address",
          "name": "previousOwner",
          "type": "address"
        },
        {
          "indexed": true,
          "internalType": "address",
          "name": "newOwner",
          "type": "address"
        }
      ],
      "name": "OwnershipTransferred",
      "type": "event"
    },
    {
      "anonymous": false,
      "inputs": [
        {
          "indexed": true,
          "internalType": "uint256",
          "name": "listingId",
          "type": "uint256"
        },
        {
          "indexed": true,
          "internalType": "address",
          "name": "reviewer",
          "type": "address"
        },
        {
          "indexed": false,
          "internalType": "uint256",
          "name": "rating",
          "type": "uint256"
        }
      ],
      "name": "ReviewSubmitted",
      "type": "event"
    },
    {
      "inputs": [
        {
          "internalType": "address",
          "name": "",
          "type": "address"
        },
        {
          "internalType": "uint256",
          "name": "",
          "type": "uint256"
        }
      ],
      "name": "buyerPurchases",
      "outputs": [
        {
          "internalType": "uint256",
          "name": "",
          "type": "uint256"
        }
      ],
      "stateMutability": "view",
      "type": "function"
    },
    {
      "inputs": [
        {
          "internalType": "string",
          "name": "dataType",
          "type": "string"
        },
        {
          "internalType": "string",
          "name": "title",
          "type": "string"
        },
        {
          "internalType": "string",
          "name": "description",
          "type": "string"
        },
        {
          "internalType": "uint256",
          "name": "price",
          "type": "uint256"
        },
        {
          "internalType": "uint256",
          "name": "validityPeriod",
          "type": "uint256"
        }
      ],
      "name": "createListing",
      "outputs": [
        {
          "internalType": "uint256",
          "name": "",
          "type": "uint256"
        }
      ],
      "stateMutability": "nonpayable",
      "type": "function"
    },
    {
      "inputs": [
        {
          "internalType": "uint256",
          "name": "listingId",
          "type": "uint256"
        }
      ],
      "name": "deactivateListing",
      "outputs": [],
      "stateMutability": "nonpayable",
      "type": "function"
    },
    {
      "inputs": [
        {
          "internalType": "uint256",
          "name": "listingId",
          "type": "uint256"
        }
      ],
      "name": "getListing",
      "outputs": [
        {
          "components": [
            {
              "internalType": "uint256",
              "name": "listingId",
              "type": "uint256"
            },
            {
              "internalType": "address",
              "name": "provider",
              "type": "address"
            },
            {
              "internalType": "string",
              "name": "dataType",
              "type": "string"
            },
            {
              "internalType": "string",
              "name": "title",
              "type": "string"
            },
            {
              "internalType": "string",
              "name": "description",
              "type": "string"
            },
            {
              "internalType": "uint256",
              "name": "price",
              "type": "uint256"
            },
            {
              "internalType": "uint256",
              "name": "validityPeriod",
              "type": "uint256"
            },
            {
              "internalType": "bool",
              "name": "isActive",
              "type": "bool"
            },
            {
              "internalType": "uint256",
              "name": "totalSales",
              "type": "uint256"
            },
            {
              "internalType": "uint256",
              "name": "rating",
              "type": "uint256"
            },
            {
              "internalType": "uint256",
              "name": "reviewCount",
              "type": "uint256"
            }
          ],
          "internalType": "struct SentinelAPIMarketplace.DataListing",
          "name": "",
          "type": "tuple"
        }
      ],
      "stateMutability": "view",
      "type": "function"
    },
    {
      "inputs": [],
      "name": "getMarketStats",
      "outputs": [
        {
          "internalType": "uint256",
          "name": "totalListings",
          "type": "uint256"
        },
        {
          "internalType": "uint256",
          "name": "activeListings",
          "type": "uint256"
        },
        {
          "internalType": "uint256",
          "name": "totalVolume_",
          "type": "uint256"
        },
        {
          "internalType": "uint256",
          "name": "totalReviews",
          "type": "uint256"
        }
      ],
      "stateMutability": "view",
      "type": "function"
    },
    {
      "inputs": [
        {
          "internalType": "address",
          "name": "user",
          "type": "address"
        }
      ],
      "name": "getUserPurchases",
      "outputs": [
        {
          "components": [
            {
              "internalType": "uint256",
              "name": "purchaseId",
              "type": "uint256"
            },
            {
              "internalType": "uint256",
              "name": "listingId",
              "type": "uint256"
            },
            {
              "internalType": "address",
              "name": "buyer",
              "type": "address"
            },
            {
              "internalType": "uint256",
              "name": "purchasePrice",
              "type": "uint256"
            },
            {
              "internalType": "uint256",
              "name": "purchaseTime",
              "type": "uint256"
            },
            {
              "internalType": "uint256",
              "name": "expiryTime",
              "type": "uint256"
            },
            {
              "internalType": "bool",
              "name": "isActive",
              "type": "bool"
            },
            {
              "internalType": "string",
              "name": "accessToken",
              "type": "string"
            }
          ],
          "internalType": "struct SentinelAPIMarketplace.DataPurchase[]",
          "name": "",
          "type": "tuple[]"
        }
      ],
      "stateMutability": "view",
      "type": "function"
    },
    {
      "inputs": [
        {
          "internalType": "uint256",
          "name": "",
          "type": "uint256"
        },
        {
          "internalType": "uint256",
          "name": "",
          "type": "uint256"
        }
      ],
      "name": "listingPurchases",
      "outputs": [
        {
          "internalType": "uint256",
          "name": "purchaseId",
          "type": "uint256"
        },
        {
          "internalType": "uint256",
          "name": "listingId",
          "type": "uint256"
        },
        {
          "internalType": "address",
          "name": "buyer",
          "type": "address"
        },
        {
          "internalType": "uint256",
          "name": "purchasePrice",
          "type": "uint256"
        },
        {
          "internalType": "uint256",
          "name": "purchaseTime",
          "type": "uint256"
        },
        {
          "internalType": "uint256",
          "name": "expiryTime",
          "type": "uint256"
        },
        {
          "internalType": "bool",
          "name": "isActive",
          "type": "bool"
        },
        {
          "internalType": "string",
          "name": "accessToken",
          "type": "string"
        }
      ],
      "stateMutability": "view",
      "type": "function"
    },
    {
      "inputs": [
        {
          "internalType": "uint256",
          "name": "",
          "type": "uint256"
        },
        {
          "internalType": "uint256",
          "name": "",
          "type": "uint256"
        }
      ],
      "name": "listingReviews",
      "outputs": [
        {
          "internalType": "address",
          "name": "reviewer",
          "type": "address"
        },
        {
          "internalType": "uint256",
          "name": "rating",
          "type": "uint256"
        },
        {
          "internalType": "string",
          "name": "comment",
          "type": "string"
        },
        {
          "internalType": "uint256",
          "name": "timestamp",
          "type": "uint256"
        }
      ],
      "stateMutability": "view",
      "type": "function"
    },
    {
      "inputs": [
        {
          "internalType": "uint256",
          "name": "",
          "type": "uint256"
        }
      ],
      "name": "listings",
      "outputs": [
        {
          "internalType": "uint256",
          "name": "listingId",
          "type": "uint256"
        },
        {
          "internalType": "address",
          "name": "provider",
          "type": "address"
        },
        {
          "internalType": "string",
          "name": "dataType",
          "type": "string"
        },
        {
          "internalType": "string",
          "name": "title",
          "type": "string"
        },
        {
          "internalType": "string",
          "name": "description",
          "type": "string"
        },
        {
          "internalType": "uint256",
          "name": "price",
          "type": "uint256"
        },
        {
          "internalType": "uint256",
          "name": "validityPeriod",
          "type": "uint256"
        },
        {
          "internalType": "bool",
          "name": "isActive",
          "type": "bool"
        },
        {
          "internalType": "uint256",
          "name": "totalSales",
          "type": "uint256"
        },
        {
          "internalType": "uint256",
          "name": "rating",
          "type": "uint256"
        },
        {
          "internalType": "uint256",
          "name": "reviewCount",
          "type": "uint256"
        }
      ],
      "stateMutability": "view",
      "type": "function"
    },
    {
      "inputs": [],
      "name": "nextListingId",
      "outputs": [
        {
          "internalType": "uint256",
          "name": "",
          "type": "uint256"
        }
      ],
      "stateMutability": "view",
      "type": "function"
    },
    {
      "inputs": [],
      "name": "nextPurchaseId",
      "outputs": [
        {
          "internalType": "uint256",
          "name": "",
          "type": "uint256"
        }
      ],
      "stateMutability": "view",
      "type": "function"
    },
    {
      "inputs": [],
      "name": "owner",
      "outputs": [
        {
          "internalType": "address",
          "name": "",
          "type": "address"
        }
      ],
      "stateMutability": "view",
      "type": "function"
    },
    {
      "inputs": [],
      "name": "paymentToken",
      "outputs": [
        {
          "internalType": "contract IERC20",
          "name": "",
          "type": "address"
        }
      ],
      "stateMutability": "view",
      "type": "function"
    },
    {
      "inputs": [],
      "name": "platformFee",
      "outputs": [
        {
          "internalType": "uint256",
          "name": "",
          "type": "uint256"
        }
      ],
      "stateMutability": "view",
      "type": "function"
    },
    {
      "inputs": [
        {
          "internalType": "address",
          "name": "",
          "type": "address"
        },
        {
          "internalType": "uint256",
          "name": "",
          "type": "uint256"
        }
      ],
      "name": "providerListings",
      "outputs": [
        {
          "internalType": "uint256",
          "name": "",
          "type": "uint256"
        }
      ],
      "stateMutability": "view",
      "type": "function"
    },
    {
      "inputs": [
        {
          "internalType": "uint256",
          "name": "listingId",
          "type": "uint256"
        }
      ],
      "name": "purchaseData",
      "outputs": [
        {
          "internalType": "uint256",
          "name": "",
          "type": "uint256"
        }
      ],
      "stateMutability": "nonpayable",
      "type": "function"
    },
    {
      "inputs": [],
      "name": "renounceOwnership",
      "outputs": [],
      "stateMutability": "nonpayable",
      "type": "function"
    },
    {
      "inputs": [
        {
          "internalType": "uint256",
          "name": "newFee",
          "type": "uint256"
        }
      ],
      "name": "setPlatformFee",
      "outputs": [],
      "stateMutability": "nonpayable",
      "type": "function"
    },
    {
      "inputs": [
        {
          "internalType": "uint256",
          "name": "listingId",
          "type": "uint256"
        },
        {
          "internalType": "uint256",
          "name": "rating",
          "type": "uint256"
        },
        {
          "internalType": "string",
          "name": "comment",
          "type": "string"
        }
      ],
      "name": "submitReview",
      "outputs": [],
      "stateMutability": "nonpayable",
      "type": "function"
    },
    {
      "inputs": [],
      "name": "totalVolume",
      "outputs": [
        {
          "internalType": "uint256",
          "name": "",
          "type": "uint256"
        }
      ],
      "stateMutability": "view",
      "type": "function"
    },
    {
      "inputs": [
        {
          "internalType": "address",
          "name": "newOwner",
          "type": "address"
        }
      ],
      "name": "transferOwnership",
      "outputs": [],
      "stateMutability": "nonpayable",
      "type": "function"
    },
    {
      "inputs": [
        {
          "internalType": "uint256",
          "name": "listingId",
          "type": "uint256"
        },
        {
          "internalType": "uint256",
          "name": "newPrice",
          "type": "uint256"
        }
      ],
      "name": "updateListingPrice",
      "outputs": [],
      "stateMutability": "nonpayable",
      "type": "function"
    },
    {
      "inputs": [
        {
          "internalType": "string",
          "name": "",
          "type": "string"
        }
      ],
      "name": "validAccessTokens",
      "outputs": [
        {
          "internalType": "bool",
          "name": "",
          "type": "bool"
        }
      ],
      "stateMutability": "view",
      "type": "function"
    },
    {
      "inputs": [
        {
          "internalType": "string",
          "name": "token",
          "type": "string"
        }
      ],
      "name": "verifyAccessToken",
      "outputs": [
        {
          "internalType": "bool",
          "name": "",
          "type": "bool"
        }
      ],
      "stateMutability": "view",
      "type": "function"
    },
    {
      "inputs": [],
      "name": "withdrawFees",
      "outputs": [],
      "stateMutability": "nonpayable",
      "type": "function"
    }
  ],
  "bytecode": "0x60a0604052600160075560016008556101f460095534801561001f575f5ffd5b50604051612be4380380612be483398101604081905261003e916100f1565b338061006357604051631e4fbdf760e01b81525f600482015260240160405180910390fd5b61006c816100a2565b5060017f9b779b17422d0df92223018b32b4d1fa46e071723d6817e2486d003becc55f00556001600160a01b031660805261011e565b5f80546001600160a01b038381166001600160a01b0319831681178455604051919092169283917f8be0079c531659141344cd1fd0a4f28419497f9722a3daafe3b4186f6b6457e09190a35050565b5f60208284031215610101575f5ffd5b81516001600160a01b0381168114610117575f5ffd5b9392505050565b608051612a8b6101595f395f8181610212015281816107d30152818161084801528181610b5b01528181610dbe0152610e780152612a8b5ff3fe608060405234801561000f575f5ffd5b506004361061016d575f3560e01c80636d63db7a116100d9578063aaccf1ec11610093578063c978f65e1161006e578063c978f65e1461035d578063de74e57b14610380578063f2fde38b146103aa578063ff4cd5b9146103bd575f5ffd5b8063aaccf1ec14610321578063c46049431461032a578063c6e5d8f61461033d575f5ffd5b80636d63db7a146102a9578063715018a6146102d057806384c4f594146102d85780638da5cb5b146102eb5780639745b181146102fb5780639f54b7291461030e575f5ffd5b806334b7bfef1161012a57806334b7bfef1461024c57806336ce26f71461025f5780633b8d915f146102725780633da84eed14610285578063476343ee146102985780635f81a57c146102a0575f5ffd5b8063107a274a1461017157806312e8e2c31461019a57806323b4a7a3146101af57806326232a2e146101c65780632ef75134146101cf5780633013ce291461020d575b5f5ffd5b61018461017f366004612263565b6103e5565b60405161019191906122a8565b60405180910390f35b6101ad6101a8366004612263565b610676565b005b6101b860085481565b604051908152602001610191565b6101b860095481565b6101fd6101dd36600461241e565b805160208183018101805160068252928201919093012091525460ff1681565b6040519015158152602001610191565b6102347f000000000000000000000000000000000000000000000000000000000000000081565b6040516001600160a01b039091168152602001610191565b6101b861025a366004612466565b6106d2565b6101b861026d366004612466565b6106fd565b6101ad610280366004612263565b610716565b6101fd61029336600461241e565b61078a565b6101ad6107b4565b6101b8600a5481565b6102bc6102b736600461248e565b610935565b6040516101919897969594939291906124ae565b6101ad610a2a565b6101b86102e6366004612263565b610a3d565b5f546001600160a01b0316610234565b6101b8610309366004612504565b610fd3565b6101ad61031c3660046125a3565b611217565b6101b860075481565b6101ad61033836600461248e565b61156d565b61035061034b3660046125ef565b611663565b604051610191919061260f565b61037061036b36600461248e565b611806565b60405161019194939291906126d1565b61039361038e366004612263565b6118dc565b6040516101919b9a99989796959493929190612708565b6101ad6103b83660046125ef565b611ad2565b6103c5611b0c565b604080519485526020850193909352918301526060820152608001610191565b6104456040518061016001604052805f81526020015f6001600160a01b031681526020016060815260200160608152602001606081526020015f81526020015f81526020015f151581526020015f81526020015f81526020015f81525090565b5f8281526001602081815260409283902083516101608101855281548152928101546001600160a01b031691830191909152600281018054929391929184019161048e90612791565b80601f01602080910402602001604051908101604052809291908181526020018280546104ba90612791565b80156105055780601f106104dc57610100808354040283529160200191610505565b820191905f5260205f20905b8154815290600101906020018083116104e857829003601f168201915b5050505050815260200160038201805461051e90612791565b80601f016020809104026020016040519081016040528092919081815260200182805461054a90612791565b80156105955780601f1061056c57610100808354040283529160200191610595565b820191905f5260205f20905b81548152906001019060200180831161057857829003601f168201915b505050505081526020016004820180546105ae90612791565b80601f01602080910402602001604051908101604052809291908181526020018280546105da90612791565b80156106255780601f106105fc57610100808354040283529160200191610625565b820191905f5260205f20905b81548152906001019060200180831161060857829003601f168201915b50505091835250506005820154602082015260068201546040820152600782015460ff161515606082015260088201546080820152600982015460a0820152600a9091015460c09091015292915050565b61067e611b8b565b6103e88111156106cd5760405162461bcd60e51b81526020600482015260156024820152744665652063616e6e6f74206578636565642031302560581b60448201526064015b60405180910390fd5b600955565b6005602052815f5260405f2081815481106106eb575f80fd5b905f5260205f20015f91509150505481565b6004602052815f5260405f2081815481106106eb575f80fd5b5f818152600160208190526040909120908101546001600160a01b0316331461077c5760405162461bcd60e51b81526020600482015260186024820152772737ba103a3432903634b9ba34b73390383937bb34b232b960411b60448201526064016106c4565b600701805460ff1916905550565b5f60068260405161079b91906127e0565b9081526040519081900360200190205460ff1692915050565b6107bc611b8b565b6040516370a0823160e01b81523060048201525f907f00000000000000000000000000000000000000000000000000000000000000006001600160a01b0316906370a0823190602401602060405180830381865afa158015610820573d5f5f3e3d5ffd5b505050506040513d601f19601f8201168201806040525081019061084491906127eb565b90507f00000000000000000000000000000000000000000000000000000000000000006001600160a01b031663a9059cbb6108865f546001600160a01b031690565b6040516001600160e01b031960e084901b1681526001600160a01b039091166004820152602481018490526044016020604051808303815f875af11580156108d0573d5f5f3e3d5ffd5b505050506040513d601f19601f820116820180604052508101906108f49190612802565b6109325760405162461bcd60e51b815260206004820152600f60248201526e151c985b9cd9995c8819985a5b1959608a1b60448201526064016106c4565b50565b6002602052815f5260405f20818154811061094e575f80fd5b5f91825260209091206008909102018054600182015460028301546003840154600485015460058601546006870154600788018054979a509598506001600160a01b039094169692959194909360ff1692916109a990612791565b80601f01602080910402602001604051908101604052809291908181526020018280546109d590612791565b8015610a205780601f106109f757610100808354040283529160200191610a20565b820191905f5260205f20905b815481529060010190602001808311610a0357829003601f168201915b5050505050905088565b610a32611b8b565b610a3b5f611bb7565b565b5f610a46611c06565b5f828152600160205260409020600781015460ff16610a9f5760405162461bcd60e51b81526020600482015260156024820152744c697374696e67206973206e6f742061637469766560581b60448201526064016106c4565b6001810154336001600160a01b0390911603610afd5760405162461bcd60e51b815260206004820152601b60248201527f43616e6e6f74207075726368617365206f776e206c697374696e67000000000060448201526064016106c4565b5f6127106009548360050154610b139190612835565b610b1d9190612860565b90505f818360050154610b309190612873565b60058401546040516323b872dd60e01b815233600482015230602482015260448101919091529091507f00000000000000000000000000000000000000000000000000000000000000006001600160a01b0316906323b872dd906064016020604051808303815f875af1158015610ba9573d5f5f3e3d5ffd5b505050506040513d601f19601f82011682018060405250810190610bcd9190612802565b610c195760405162461bcd60e51b815260206004820152601760248201527f5061796d656e74207472616e73666572206661696c656400000000000000000060448201526064016106c4565b5f610c248633611c34565b600880549192505f919082610c3883612886565b9190505590505f604051806101000160405280838152602001898152602001336001600160a01b0316815260200187600501548152602001428152602001876006015442610c86919061289e565b81526001602080830182905260409283018790525f8c815260028083528482208054808601825590835291839020865160089093020191825591850151928101929092559183015191810180546001600160a01b0319166001600160a01b0390931692909217909155606082015160038201556080820151600482015560a0820151600582015560c082015160068201805460ff191691151591909117905560e082015191925082916007820190610d3e90826128fd565b5050335f9081526005602090815260408220805460018101825590835290822001849055600888018054925090610d7483612886565b91905055508560050154600a5f828254610d8e919061289e565b9091555050600186015460405163a9059cbb60e01b81526001600160a01b039182166004820152602481018690527f00000000000000000000000000000000000000000000000000000000000000009091169063a9059cbb906044016020604051808303815f875af1158015610e06573d5f5f3e3d5ffd5b505050506040513d601f19601f82011682018060405250810190610e2a9190612802565b610e765760405162461bcd60e51b815260206004820152601760248201527f50726f7669646572207061796d656e74206661696c656400000000000000000060448201526064016106c4565b7f00000000000000000000000000000000000000000000000000000000000000006001600160a01b031663a9059cbb610eb65f546001600160a01b031690565b6040516001600160e01b031960e084901b1681526001600160a01b039091166004820152602481018890526044016020604051808303815f875af1158015610f00573d5f5f3e3d5ffd5b505050506040513d601f19601f82011682018060405250810190610f249190612802565b610f705760405162461bcd60e51b815260206004820152601c60248201527f506c6174666f726d20666565207472616e73666572206661696c65640000000060448201526064016106c4565b6040513390899084907fcb46382b12a68cf5459bd41c3583de096286036ba3c27b8a8570ce3e08c290c1905f90a450945050505050610fce60017f9b779b17422d0df92223018b32b4d1fa46e071723d6817e2486d003becc55f0055565b919050565b5f5f83116110235760405162461bcd60e51b815260206004820152601c60248201527f5072696365206d7573742062652067726561746572207468616e20300000000060448201526064016106c4565b5f82116110815760405162461bcd60e51b815260206004820152602660248201527f56616c696469747920706572696f64206d75737420626520677265617465722060448201526507468616e20360d41b60648201526084016106c4565b600780545f918261109183612886565b9091555060408051610160810182528281523360208083019182528284018c8152606084018c9052608084018b905260a084018a905260c08401899052600160e085018190525f610100860181905261012086018190526101408601819052878152928190529490912083518155915193820180546001600160a01b0319166001600160a01b0390951694909417909355915192935091600282019061113790826128fd565b506060820151600382019061114c90826128fd565b506080820151600482019061116190826128fd565b5060a0820151600582015560c0820151600682015560e082015160078201805460ff19169115159190911790556101008201516008820155610120820151600982015561014090910151600a90910155335f818152600460209081526040808320805460018101825590845291909220018390555182907ffccfab3757a37767d03b5ffd499faaa9faf5a6d33900ee43e310e77bce34940b90611205908b906129b8565b60405180910390a39695505050505050565b60018210158015611229575060058211155b6112755760405162461bcd60e51b815260206004820152601e60248201527f526174696e67206d757374206265206265747765656e203120616e642035000060448201526064016106c4565b5f83815260026020908152604080832080548251818502810185019093528083528493849084015b828210156113b7575f8481526020908190206040805161010081018252600886029092018054835260018101549383019390935260028301546001600160a01b0316908201526003820154606082015260048201546080820152600582015460a0820152600682015460ff16151560c082015260078201805491929160e08401919061132890612791565b80601f016020809104026020016040519081016040528092919081815260200182805461135490612791565b801561139f5780601f106113765761010080835404028352916020019161139f565b820191905f5260205f20905b81548152906001019060200180831161138257829003601f168201915b5050505050815250508152602001906001019061129d565b509293505f925050505b815181101561143857336001600160a01b03168282815181106113e6576113e66129ca565b6020026020010151604001516001600160a01b03161480156114225750818181518110611415576114156129ca565b602002602001015160c001515b156114305760019250611438565b6001016113c1565b50816114995760405162461bcd60e51b815260206004820152602a60248201527f4d7573742068617665207075726368617365642074686973206c697374696e6760448201526920746f2072657669657760b01b60648201526084016106c4565b6040805160808101825233815260208082018781528284018781524260608501525f8a81526003845294852080546001808201835591875293909520845160049094020180546001600160a01b0319166001600160a01b03909416939093178355905193820193909355915190918291600282019061151890826128fd565b5060608201518160030155505061152e86611cb0565b604051858152339087907faf71a7027433dabefc3d502cc399357db67ef33c3ebdfefb919e8bd5af322fe39060200160405180910390a3505050505050565b5f828152600160208190526040909120908101546001600160a01b031633146115d35760405162461bcd60e51b81526020600482015260186024820152772737ba103a3432903634b9ba34b73390383937bb34b232b960411b60448201526064016106c4565b5f82116116225760405162461bcd60e51b815260206004820152601c60248201527f5072696365206d7573742062652067726561746572207468616e20300000000060448201526064016106c4565b6005810182905560405182815283907f66bcde9f7aec9b81719a4fdec54cbafbf6c834d1f2f989d9cd2134dab8d0c0de9060200160405180910390a2505050565b6001600160a01b0381165f9081526005602090815260408083208054825181850281018501909352808352606094938301828280156116bf57602002820191905f5260205f20905b8154815260200190600101908083116116ab575b505050505090505f815167ffffffffffffffff8111156116e1576116e161237f565b60405190808252806020026020018201604052801561175e57816020015b61174b6040518061010001604052805f81526020015f81526020015f6001600160a01b031681526020015f81526020015f81526020015f81526020015f15158152602001606081525090565b8152602001906001900390816116ff5790505b5090505f5b82518110156117fe5760405180610100016040528084838151811061178a5761178a6129ca565b602002602001015181526020015f8152602001866001600160a01b031681526020015f81526020015f81526020015f815260200160011515815260200160405180602001604052805f8152508152508282815181106117eb576117eb6129ca565b6020908102919091010152600101611763565b509392505050565b6003602052815f5260405f20818154811061181f575f80fd5b5f9182526020909120600490910201805460018201546002830180546001600160a01b0390931695509093509061185590612791565b80601f016020809104026020016040519081016040528092919081815260200182805461188190612791565b80156118cc5780601f106118a3576101008083540402835291602001916118cc565b820191905f5260205f20905b8154815290600101906020018083116118af57829003601f168201915b5050505050908060030154905084565b600160208190525f91825260409091208054918101546002820180546001600160a01b03909216929161190e90612791565b80601f016020809104026020016040519081016040528092919081815260200182805461193a90612791565b80156119855780601f1061195c57610100808354040283529160200191611985565b820191905f5260205f20905b81548152906001019060200180831161196857829003601f168201915b50505050509080600301805461199a90612791565b80601f01602080910402602001604051908101604052809291908181526020018280546119c690612791565b8015611a115780601f106119e857610100808354040283529160200191611a11565b820191905f5260205f20905b8154815290600101906020018083116119f457829003601f168201915b505050505090806004018054611a2690612791565b80601f0160208091040260200160405190810160405280929190818152602001828054611a5290612791565b8015611a9d5780601f10611a7457610100808354040283529160200191611a9d565b820191905f5260205f20905b815481529060010190602001808311611a8057829003601f168201915b50505060058401546006850154600786015460088701546009880154600a909801549697939692955060ff909116935091908b565b611ada611b8b565b6001600160a01b038116611b0357604051631e4fbdf760e01b81525f60048201526024016106c4565b61093281611bb7565b5f808080808060015b600754811015611b6b575f8181526001602052604090206007015460ff1615611b465782611b4281612886565b9350505b5f818152600160205260409020600a0154611b61908361289e565b9150600101611b15565b506001600754611b7b9190612873565b600a549097929650945092509050565b5f546001600160a01b03163314610a3b5760405163118cdaa760e01b81523360048201526024016106c4565b5f80546001600160a01b038381166001600160a01b0319831681178455604051919092169283917f8be0079c531659141344cd1fd0a4f28419497f9722a3daafe3b4186f6b6457e09190a35050565b611c0e611e4f565b60027f9b779b17422d0df92223018b32b4d1fa46e071723d6817e2486d003becc55f0055565b60605f611c4084611e91565b611c4984611f96565b611c5242611e91565b604051602001611c64939291906129de565b60405160208183030381529060405290506001600682604051611c8791906127e0565b908152604051908190036020019020805491151560ff1990921691909117905590505b92915050565b5f81815260036020908152604080832080548251818502810185019093528083529192909190849084015b82821015611dc6575f848152602090819020604080516080810182526004860290920180546001600160a01b0316835260018101549383019390935260028301805492939291840191611d2d90612791565b80601f0160208091040260200160405190810160405280929190818152602001828054611d5990612791565b8015611da45780601f10611d7b57610100808354040283529160200191611da4565b820191905f5260205f20905b815481529060010190602001808311611d8757829003601f168201915b5050505050815260200160038201548152505081526020019060010190611cdb565b50505050905080515f03611dd8575050565b5f805b8251811015611e2257828181518110611df657611df66129ca565b6020026020010151602001516014611e0e9190612835565b611e18908361289e565b9150600101611ddb565b508151611e2f9082612860565b5f9384526001602052604090932060098101939093555051600a90910155565b7f9b779b17422d0df92223018b32b4d1fa46e071723d6817e2486d003becc55f0054600203610a3b57604051633ee5aeb560e01b815260040160405180910390fd5b6060815f03611eb75750506040805180820190915260018152600360fc1b602082015290565b815f5b8115611ee05780611eca81612886565b9150611ed99050600a83612860565b9150611eba565b5f8167ffffffffffffffff811115611efa57611efa61237f565b6040519080825280601f01601f191660200182016040528015611f24576020820181803683370190505b5090505b8415611f8e57611f39600183612873565b9150611f46600a86612a2d565b611f5190603061289e565b60f81b818381518110611f6657611f666129ca565b60200101906001600160f81b03191690815f1a905350611f87600a86612860565b9450611f28565b949350505050565b6060816001600160a01b03165f03611fc85750506040805180820190915260048152630307830360e41b602082015290565b6001600160a01b0382165f5b8115611ff35780611fe481612886565b915050600482901c9150611fd4565b5f611fff600283612a2d565b90505f61200d600284612860565b9050612019828261289e565b92505f612027846002612835565b61203290600261289e565b67ffffffffffffffff81111561204a5761204a61237f565b6040519080825280601f01601f191660200182016040528015612074576020820181803683370190505b509050600360fc1b815f8151811061208e5761208e6129ca565b60200101906001600160f81b03191690815f1a905350600f60fb1b816001815181106120bc576120bc6129ca565b60200101906001600160f81b03191690815f1a9053505f60016120e0866002612835565b6120eb90600261289e565b6120f59190612873565b90505b6001600160a01b038816156121d557612115600f8916603061289e565b60f81b82828151811061212a5761212a6129ca565b60200101906001600160f81b03191690815f1a905350603960f81b828281518110612157576121576129ca565b01602001516001600160f81b03191611156121b257600a61217c600f8a16606161289e565b6121869190612873565b60f81b82828151811061219b5761219b6129ca565b60200101906001600160f81b03191690815f1a9053505b6004886001600160a01b0316901c975080806121cd90612a40565b9150506120f8565b5f6121e1866002612835565b6121ec876002612835565b6121f790600261289e565b6122019190612873565b90505b61220f866002612835565b61221a90600261289e565b81101561225657600360fc1b838281518110612238576122386129ca565b60200101906001600160f81b03191690815f1a905350600101612204565b5090979650505050505050565b5f60208284031215612273575f5ffd5b5035919050565b5f81518084528060208401602086015e5f602082860101526020601f19601f83011685010191505092915050565b60208152815160208201525f60208301516122ce60408401826001600160a01b03169052565b50604083015161016060608401526122ea61018084018261227a565b90506060840151601f19848303016080850152612307828261227a565b9150506080840151601f198483030160a0850152612325828261227a565b91505060a084015160c084015260c084015160e084015260e084015161235061010085018215159052565b506101008401516101208401526101208401516101408401526101408401516101608401528091505092915050565b634e487b7160e01b5f52604160045260245ffd5b5f82601f8301126123a2575f5ffd5b813567ffffffffffffffff8111156123bc576123bc61237f565b604051601f8201601f19908116603f0116810167ffffffffffffffff811182821017156123eb576123eb61237f565b604052818152838201602001851015612402575f5ffd5b816020850160208301375f918101602001919091529392505050565b5f6020828403121561242e575f5ffd5b813567ffffffffffffffff811115612444575f5ffd5b611f8e84828501612393565b80356001600160a01b0381168114610fce575f5ffd5b5f5f60408385031215612477575f5ffd5b61248083612450565b946020939093013593505050565b5f5f6040838503121561249f575f5ffd5b50508035926020909101359150565b88815287602082015260018060a01b03871660408201528560608201528460808201528360a082015282151560c082015261010060e08201525f6124f661010083018461227a565b9a9950505050505050505050565b5f5f5f5f5f60a08688031215612518575f5ffd5b853567ffffffffffffffff81111561252e575f5ffd5b61253a88828901612393565b955050602086013567ffffffffffffffff811115612556575f5ffd5b61256288828901612393565b945050604086013567ffffffffffffffff81111561257e575f5ffd5b61258a88828901612393565b9598949750949560608101359550608001359392505050565b5f5f5f606084860312156125b5575f5ffd5b8335925060208401359150604084013567ffffffffffffffff8111156125d9575f5ffd5b6125e586828701612393565b9150509250925092565b5f602082840312156125ff575f5ffd5b61260882612450565b9392505050565b5f602082016020835280845180835260408501915060408160051b8601019250602086015f5b828110156126c557603f198786030184528151805186526020810151602087015260018060a01b036040820151166040870152606081015160608701526080810151608087015260a081015160a087015260c0810151151560c087015260e0810151905061010060e08701526126af61010087018261227a565b9550506020938401939190910190600101612635565b50929695505050505050565b60018060a01b0385168152836020820152608060408201525f6126f7608083018561227a565b905082606083015295945050505050565b8b81526001600160a01b038b166020820152610160604082018190525f906127329083018c61227a565b8281036060840152612744818c61227a565b90508281036080840152612758818b61227a565b60a0840199909952505060c081019590955292151560e08501526101008401919091526101208301526101409091015295945050505050565b600181811c908216806127a557607f821691505b6020821081036127c357634e487b7160e01b5f52602260045260245ffd5b50919050565b5f81518060208401855e5f93019283525090919050565b5f61260882846127c9565b5f602082840312156127fb575f5ffd5b5051919050565b5f60208284031215612812575f5ffd5b81518015158114612608575f5ffd5b634e487b7160e01b5f52601160045260245ffd5b8082028115828204841417611caa57611caa612821565b634e487b7160e01b5f52601260045260245ffd5b5f8261286e5761286e61284c565b500490565b81810381811115611caa57611caa612821565b5f6001820161289757612897612821565b5060010190565b80820180821115611caa57611caa612821565b601f8211156128f857805f5260205f20601f840160051c810160208510156128d65750805b601f840160051c820191505b818110156128f5575f81556001016128e2565b50505b505050565b815167ffffffffffffffff8111156129175761291761237f565b61292b816129258454612791565b846128b1565b6020601f82116001811461295d575f83156129465750848201515b5f19600385901b1c1916600184901b1784556128f5565b5f84815260208120601f198516915b8281101561298c578785015182556020948501946001909201910161296c565b50848210156129a957868401515f19600387901b60f8161c191681555b50505050600190811b01905550565b602081525f612608602083018461227a565b634e487b7160e01b5f52603260045260245ffd5b666163636573732d60c81b81525f6129f960078301866127c9565b602d60f81b8152612a0d60018201866127c9565b9050602d60f81b8152612a2360018201856127c9565b9695505050505050565b5f82612a3b57612a3b61284c565b500690565b5f81612a4e57612a4e612821565b505f19019056fea2646970667358221220e0409f4e78e5363d98f04b637470f6da2539a0aa40e3931914a5320ef8f9b52364736f6c634300081c0033",
  "linkReferences": {},
  "deployedLinkReferences": {},
  "immutableReferences": {
    "27583": [
      {
        "length": 32,
        "start": 530
      },
      {
        "length": 32,
        "start": 2003
      },
      {
        "length": 32,
        "start": 2120
      },
      {
        "length": 32,
        "start": 2907
      },
      {
        "length": 32,
        "start": 3518
      },
      {
        "length": 32,
        "start": 3704
      }
    ]
  },
  "inputSourceName": "project/contracts/SentinelAPIMarketplace.sol",
  "buildInfoId": "solc-0_8_28-1b5c21a21cac4f08cf2c8993926ccb888320140e"
}